:020000040800F2
:10000000C8540020690200088B1F0008FD1B00086F
:10001000891F0008F9060008B1260008000000004A
:10002000000000000000000000000000A90100081E
:10003000FB0600080000000005020008C5210008BA
:10004000830200088302000883020008830200087C
:10005000830200088302000883020008830200086C
:10006000830200088302000883020008830200085C
:10007000830200088302000883020008830200084C
:1000800083020008830200088302000800000000C9
:1000900000000000000000000000000083020008D3
:1000A00083020008952200088302000883020008EA
:1000B000830200088302000883020008830200080C
:1000C00083020008830200088302000883020008FC
:1000D0008302000883020008830200080000000079
:1000E0008302000883020008830200080000000069
:1000F0000000000000000000000000008302000873
:100100000000000083020008830200088302000848
:1001100000000000000000000000000000000000DF
:10012000830200088302000883020008830200089B
:100130008302000800000000000000000000000032
:100140000000000000000000000000008302000822
:10015000830200088302000883020008830200086B
:100160008302000883020008000000000000000075
:10017000000000000000000000000000000000007F
:1001800000000000830200080000000000000000E2
:1001900083020008DFF80CD000F0ECF800480047BC
:1001A000652A0008C85400202C4B19680868B0E87C
:1001B000F04F80F30988BFF36F8F4FF0000080F39A
:1001C000118870470000000008480068006880F34C
:1001D00008884FF0000080F3148862B661B6BFF360
:1001E0004F8FBFF36F8F00DF00BF00BF08ED00E04F
:1001F000DFF80C00016841F470010160704700BF36
:1002000088ED00E0EFF30980BFF36F8F134B1A689E
:100210001EF0100F08BF20ED108A20E9F04F10608B
:1002200009B44FF0500080F31188BFF34F8FBFF334
:100230006F8F02F0CFFF4FF0000080F3118809BCF0
:1002400019680868B0E8F04F1EF0100F08BFB0EC56
:10025000108A80F30988BFF36F8F70472000002059
:10026000EFF30580704700000648804706480047C6
:10027000FEE7FEE7FEE7FEE7FEE7FEE7FEE7FEE756
:10028000FEE7FEE785220008950100082DE9F05FF2
:100290000546002092469B468846064681464024F5
:1002A0001BE0284641464746224600F053F8534695
:1002B0005A46C01A914110D311461846224600F002
:1002C0003AF82D1A67EB01084F462246012000211B
:1002D00000F031F817EB00094E41201EA4F1010493
:1002E000DFDC484631462A464346BDE8F09F40EAF7
:1002F00001039B0703D009E008C9121F08C0042AA4
:10030000FAD203E011F8013B00F8013B521EF9D28A
:100310007047D2B201E000F8012B491EFBD27047B2
:100320000022F6E710B513460A4604461946FFF7C1
:10033000F0FF204610BD202A04DB203A00FA02F12B
:10034000002070479140C2F1200320FA03F31943C3
:1003500090407047202A04DB203A21FA02F0002165
:10036000704721FA02F3D040C2F1200291400843C5
:1003700019467047064C074D06E0E06840F001035F
:1003800094E8070098471034AC42F6D3FFF706FF15
:100390001C3E00083C3E00089FED241AB5EE002AE2
:1003A00043F218630021B7EE004AC0F6000320EEC6
:1003B000010A30EE020ABDEEC01AB5EEC00A11EE17
:1003C000100AF1EE10FA9FED1A1AB8BF013802EECA
:1003D000100AB8EEC22A30EE420A9FED162A20EE2D
:1003E000010ABDEEC01A11EE100A30EE021A0246E2
:1003F000B1EB502F18BF002202EE102A03EB82034C
:10040000B1EB502F18BFB0EE410AB8EE421A93ED8F
:10041000002A93ED013A30EE410A34EE401A20EE04
:10042000030A21EE021A31EE000A704783F9223ED8
:1004300000000044000000C49FED221A43F218633C
:100440000021B7EE004AC0F6000320EE010ABDEE1F
:10045000C01AB5EEC00A11EE100AF1EE10FA9FEDC7
:100460001A1AB8BF013802EE100AB8EEC22A30EEEE
:10047000420A9FED162A20EE010ABDEEC01A11EEC7
:10048000100A30EE021A0246B1EB502F18BF0022BC
:1004900002EE102A03EB8203B1EB502F18BFB0EE2F
:1004A000410AB8EE421A93ED002A93ED013A30EE7C
:1004B000410A34EE401A20EE030A21EE021A31EE10
:1004C000000A704783F9223E00000044000000C487
:1004D000464910B54A6822F440324A604A68436887
:1004E0001A434A6001684A6822F480724A600168CF
:1004F0004A68036942EA03224A6001684A6822F0B6
:1005000040724A6001684A6883681A434A60016819
:100510008A6822F400628A6001688A68C3681A43A4
:100520008A60816A6FF07062D14201688A6822F045
:1005300070628A6001688A680CD0836A1A438A6094
:1005400001688A6822F040528A6001688A68C36A3A
:100550001A4301E022F040528A6001688A6822F062
:1005600002028A6001688A68037E42EA43028A6066
:1005700090F82010002901684A680FD042F4006208
:100580004A6001684A6822F460424A6001684A6829
:10059000174C436A04EB43331A4301E022F4006230
:1005A0004A600168CA6A22F47002CA620168CA6AB3
:1005B000838B104C04EB03531A43CA6201688A68A8
:1005C00022F400728A6001688A6890F8303042EA4A
:1005D00043228A6001688A6822F480628A60016826
:1005E0008A68406942EA8020886010BD002301408B
:1005F00000E0FFFF0000F0FF70B50C462DED048B0E
:10060000F0EE419AF0EE408AB0EE608A0546B0EE18
:10061000690AFFF7C1FE20EE289AB0EE690AFFF7DB
:100620000BFF08EE409AB0EE690A85ED009AFFF7DD
:1006300003FF60EE288AB0EE690AFFF7ADFE48EED0
:10064000008AC4ED008ABDEC048B70BD10B5002299
:100650000649074802F083F9064A0021044802F0DF
:10066000A1F8BDE81040024802F090B9212000082E
:10067000405000207906000810B502F0EFF900287C
:1006800020D11148817879B10021104C817069B175
:100690000FA002F049F801220421204600F03FFAA1
:1006A000BDE8104001F074BC0121EEE70DA002F09E
:1006B0003BF800220421204600F031FABDE810404A
:1006C00001F08ABC10BD000068500020000C024000
:1006D0004D6F746F722073746174653A2073746126
:1006E00072740A004D6F746F722073746174653A8E
:1006F0002073746F700A0000FEE7704772B6FEE761
:1007000078B50024009490F83C20012A19D00122E9
:1007100080F83C200A6807230568092A13D9EE6887
:100720000A3A02EB420293409E43EE600B788A68DD
:100730000A3B03EB43039A400368DD682A43DA600F
:1007400010E0022078BD2E6902EB420293409E43E6
:100750002E610B788A6803EB43039A4003681D6996
:100760002A431A614A681F23072A13D205686E6B51
:10077000521E02EB820293409E436E630B790A88FD
:100780005B1E92B203EB83039A4003685D6B2A43BE
:100790005A6327E005680D2A12D22E6BD21F02EB96
:1007A000820293409E432E630B790A88DB1F92B22C
:1007B00003EB83039A4003681D6B2A431A6311E01D
:1007C000EE6A0D3A02EB820293409E43EE620B7991
:1007D0000A880D3B92B203EB83039A400368DD6AFB
:1007E0002A43DA62164B0568144A9D4206D10D6809
:1007F000122D03D1556845F48005556005689D426A
:1008000018D10B68102B01D0112B13D1536843F46E
:1008100000035360096810290CD10A490A4A096883
:10082000B1FBF2F101EB8101490000E0491E0091AA
:100830000029FBD180F83C40002078BD0023014016
:10084000002001401C00002040420F0070B5040051
:100850004FF0000503D0206C002610B107E0012006
:1008600070BD204600F01CF8666484F83C60206C83
:10087000C00610D4206C20F4885040F002002064A0
:100880002046FFF725FE6664206C20F0020040F051
:100890000100206400E0012584F83C60284670BD1A
:1008A00010B586B0044614216846FFF739FD11499A
:1008B000206888421CD110480021026842F48072EE
:1008C0000260006800F4807005900B4814380268DC
:1008D00042F004020260006800F0040005900D2060
:1008E00000900320CDE901016946044800F01AF8A0
:1008F00006B010BD0020014044380240000802400C
:1009000070B5044600F010F90546601C02D004489A
:100910000078044400F008F9401BA042FAD370BDEF
:10092000100000202DE9F84FDFF8B8A100220124C3
:1009300003254FF00F090AF1040BAAF1040E00BFC2
:100940000B6804FA02F63340B34273D10F7907F013
:100950000307012F01D0022F16D187684FEA420802
:1009600005FA08FC27EA0C07D1F80CC00CFA08FCC1
:100970004CEA070CC0F808C04768B7430E79C6F3C5
:10098000001696403E4346600E79F643B6070DD0FA
:10099000C768560005FA06FC27EA0C07D1F808C01C
:1009A0000CFA06FC4CEA070CC0F80CC00E7906F0F5
:1009B0000306022E10D1D60800EB8608D8F8206076
:1009C00057074FEAD76C09FA0CF7BE430F6907FACD
:1009D0000CF73743C8F8207006684FEA420C05FA56
:1009E0000CF7BE430F7907F0030707FA0CF73743FC
:1009F00007604E6816F4403F6DD03B4E376847F4B1
:100A000080473760366822F0030706F48046009678
:100A1000364E07EB060CDCF8086897073F0F09FA1B
:100A200007F826EA0806DFF8C880404503D14FF0F2
:100A300000081EE04FE0DFF8BC80404502D14FF0D7
:100A4000010816E0DFF8B080404502D14FF00208FF
:100A50000FE0DFF8A880404502D14FF0030808E01E
:100A6000DFF89C80404502D14FF0040801E04FF0D0
:100A7000070808FA07F848EA0608CCF80888DAF800
:100A800000605746D1F804C09E435FEACC2C00D5E5
:100A90001E433E60DBF800605F46D1F804C09E4311
:100AA0005FEA8C2C00D51E433E60DEF8006077467E
:100AB000D1F804C09E435FEA8C3C00D51E433E60E3
:100AC000084F083F3E68D1F804C09E435FEACC3C23
:100AD00000D51E433E60521C102AFFF431AFBDE822
:100AE000F88F0000083C01404438024000300140CB
:100AF000000002400004024000080240000C0240D6
:100B0000001002400069084000D00120704742698F
:100B100021EA02030A4043EA0241816170470AB1B7
:100B2000816170470904FBE7014880687047000055
:100B300010000020024881680278114481607047EB
:100B4000100000200B4810B5016841F400710160ED
:100B5000016841F480610160016841F480710160C5
:100B6000032000F099F8052000F006F800F04AF89C
:100B7000002010BD003C024030B505461C4887B03F
:100B80000024016841F400310160006806A900F406
:100B90000030009001A800F033F900F061F9154928
:100BA000154AB0FBF1F11548491E026040F2E732E8
:100BB000C0E90324C0E90114846100F049FC040089
:100BC00012D10E4800F090FC04000DD1192000F065
:100BD00035F8102D07D200222946192000F03CF8E4
:100BE0000748056000E0012407B0204630BD000042
:100BF0004438024040420F000044014008130020E6
:100C0000140000200C4882B0016841F4804101606A
:100C1000006800F4804000900748001F016841F020
:100C2000805101600068002200F0805000900F2188
:100C3000901E02B000F010B844380240002809DBD2
:100C400000F01F02012191404009800000F1E020E6
:100C5000C0F8001170470000F0B40E4B1B680C4642
:100C6000C3F30223C3F10705042D00D90425191D80
:100C7000072901D2002300E0DB1E012606FA05F158
:100C8000491E214099409E40761E16403143F0BCDB
:100C900001F052BD0CED00E0064900F007020868C3
:100CA0004FF6FF03184040EA0220034A1043086051
:100CB000704700000CED00E00000FA0570470000EE
:100CC0002DE9F0470E46050065D0DFF81481D8F80D
:100CD0000000F7B200F00700B04207D288F80070B9
:100CE000D8F8000000F00700B04254D128683D4C0D
:100CF000810712D5400703D5206840F4E0502060FA
:100D00002878000703D5206840F460402060206800
:100D1000A96820F0F000084320602878C0072DD093
:100D2000304968680839012812D0022813D00328F6
:100D300011D00968890700292DDA216821F0030103
:100D400001432160FFF7F0FE814641F2883A0EE050
:100D500009688903EFE709688901ECE7FFF7E4FE1A
:100D6000A0EB0901514502D90320BDE8F0872068B6
:100D7000696800F00C00B0EB810FEFD1D8F80010DB
:100D8000404601F00701B14207D90770006800F042
:100D90000700B04201D00120E7E72878400705D5D9
:100DA0002068E96820F4E0500843206028780007B4
:100DB00006D52068296920F4604040EAC10020601F
:100DC00000F05EF82168084AC1F30311515CC84085
:100DD0000649086006480068FFF7CEFE0020C4E719
:100DE000003C024008380240D43500081C000020B6
:100DF0001400002001490120C864704700004742E8
:100E00000F2202600C4A136803F003034360136867
:100E100003F0F0038360136803F4E053C3601268C7
:100E20004FF4E05303EAD20202610448006800F084
:100E3000070008607047000008380240003C02408C
:100E40000448054900680968044AC1F38221515CDD
:100E5000C84070471C00002008380240E4350008F4
:100E60000448054900680968044AC1F34231515CED
:100E7000C84070471C00002008380240E4350008D4
:100E8000154810B5006810F00C02144813D041103A
:100E9000042A0FD0082A0ED10F4C241F2268236881
:100EA00002F03F025B0207D52068C0F38810A0FB68
:100EB000010106E0084610BD2168C1F38811A1FBBD
:100EC00000010023FFF7E2F92168C1F30141491C49
:100ED0004900B0FBF1F010BD083802400024F400D6
:100EE000054810B50068000605D5FFF7E7FE024982
:100EF0008020891C087010BD0C3802402DE9F84F85
:100F000004006ED02078DFF84C93C007A9F10405E7
:100F10004AD009F104000168C1F38101012908D018
:100F20000068C0F3810002280AD1D9F8000040020D
:100F300006D52868800337D560680028E1D033E003
:100F40006068B0F5803F10D0B0F5A02F286810D0B1
:100F500020F480302860286820F4802028606068B1
:100F6000A8B1FFF7E1FD06460DE0286840F48030A7
:100F7000F4E740F480202860F7E700BFFFF7D4FDD6
:100F8000801B642873D828688003F7D50CE0FFF72E
:100F9000CBFD064605E000BFFFF7C6FD801B6428B9
:100FA000F0D828688003F7D42078DFF8AC82800777
:100FB0004FF0000A3ED5A748001D016811F00C0F44
:100FC00008D00068C0F3810002280BD1D9F80000D6
:100FD000400207D42868800716D5E068012800D1B0
:100FE00012E033E1E068B8B10120C8F80000FFF773
:100FF0009BFD064605E000BFFFF796FD801B02281B
:10100000C0D828688007F7D52868216920F0F80043
:1010100040EAC10028600DE0C8F800A0FFF784FD99
:10102000064604E0FFF780FD801B02281FD82868D1
:101030008007F7D42078000722D5864F874861695A
:10104000703771B101210160FFF76EFD064604E0C3
:10105000FFF76AFD801B022809D838688007F7D59A
:101060000EE0C0F800A0FFF75FFD064605E082E055
:10107000FFF75AFD801B02287DD838688007F7D417
:101080002078400768D5DFF8CCB100270BF13C0B86
:10109000DBF80000C0000BD4DBF8001041F08051F9
:1010A000CBF80010DBF80000012700F08050009022
:1010B0006B4E3068C00510D4306840F480703060EA
:1010C000FFF732FD009005E0FFF72EFD0099401A72
:1010D000022850D83068C005F6D55E4EA0686C3640
:1010E00001280FD00528306810D020F001003060B2
:1010F000306820F004003060A068B8B1FFF714FD3C
:1011000000900FE0306840F00100F4E740F0040088
:101110003060F7E7FFF708FD0099411A41F2883087
:10112000814266D830688007F4D50EE0FFF7FCFCFA
:10113000009007E0FFF7F8FC0099411A41F288306F
:10114000814256D830688007F4D42FB1DBF8001004
:1011500021F08051CBF80010A069C8B33D49091DAA
:101160000968C1F3810102294AD00228504607D0FC
:10117000C8F8600000E03CE0FFF7D6FC04463BE026
:101180004746C8F86000FFF7CFFC064605E000BF01
:10119000FFF7CAFC801B02282BD828688001F7D4EF
:1011A000D4E907010843A16A2E4A490802EB01412C
:1011B000626A41EA8211084394F82C1040EA016106
:1011C000C9F8001001203866FFF7AEFC044606E0BF
:1011D0003EE000BFFFF7A8FC001B022809D82868E2
:1011E0008001F7D534E000BFFFF79EFC001B02280A
:1011F00002D90320BDE8F88F28688001F4D427E0E5
:101200000128F7D0D9F80000E26900F4800191428A
:101210001CD1226A00F03F01914217D147F6C071FC
:10122000626A0140B1EB821F10D1A26A4FF0FF3316
:1012300000F4403103EB5202B1EB024F06D194F8B7
:101240002C1000F07060B0EB016F01D00120D1E7ED
:101250000020CFE70438024000004742800E47429A
:10126000007000400000FFFF7047704710B590F815
:101270003C20012A22D0012280F83C20CA688C68D8
:1012800022F4407222434C6822F4806222430C68AC
:1012900022F4006222430C6922F4805222434C69FA
:1012A00022F400522243C969002322F480420A43F7
:1012B00001684A6480F83C30002010BD022010BD57
:1012C00070B590F83C20012A2CD0012480F83C40D5
:1012D000022280F83D2003685A689D6822F070065B
:1012E0000A6832435A60104B02689A420ED0B2F13B
:1012F000804F0BD00D4B9A4208D00D4B9A4205D02F
:101300000C4B9A4202D00C4B9A4204D1496825F00A
:1013100080031943916080F83D40002180F83C1023
:10132000084670BD022070BD00000140000400406E
:1013300000080040000C00400040014010B5044689
:10134000022249B104290ED0082913D094F845008F
:10135000012816D0012010BD94F842000128F9D1CF
:1013600084F842200FE094F843000128F2D184F879
:10137000432008E094F844000128EBD184F844208D
:1013800001E084F845200422206800F0EAFF20688C
:10139000416C41F4004141640E49206888420ED0FE
:1013A000B0F1804F0BD00C49884208D00B498842DD
:1013B00005D00B49884202D00A49884204D181688D
:1013C00001F00701062903D0016841F00101016025
:1013D000002010BD00000140000400400008004053
:1013E000000C00400040014070B504460D46006806
:1013F000002200F0B6FF2068036A41F211110B428F
:1014000040F2444206D1036A134203D1436C23F4F1
:10141000004343642068036A0B4206D1016A11420B
:1014200003D1016821F00101016001203DB1042DCB
:1014300008D0082D09D084F84500002070BD84F83C
:101440004200FAE784F84300F7E784F84400F4E741
:1014500010B5040003D094F83D0010B107E001205E
:1014600010BD002084F83C00204600F01FF8022048
:1014700084F83D00211D206800F01AFF012084F847
:10148000460084F83E0084F83F0084F8400084F869
:10149000410084F8420084F8430084F8440084F852
:1014A000450084F83D00002010BD000008B500682C
:1014B0000B49884212D10B48016841F001010160DB
:1014C0000068002200F00100009005211920FFF7BC
:1014D000C3FBBDE808401920FFF7B0BB08BD000002
:1014E000000001404438024090F83D10012901D02D
:1014F00001207047022180F83D100168CA6842F05F
:101500000102CA6000680E4988420ED0B0F1804FD7
:101510000BD00C49884208D00B49884205D00B49B2
:10152000884202D00A49884204D1816801F007014B
:10153000062903D0016841F00101016000207047D5
:10154000000001400004004000080040000C004082
:101550000040014070B5044690F83C000025012889
:1015600017D0012684F83C60022084F83D002068F2
:10157000826822F0770222F47F4282600868502855
:1015800038D00DDC20284FD005DC90B3102811D1C5
:101590004AE0022070BD302846D040280AD13BE006
:1015A00060282FD070280DD0B0F5805F03D0B0F543
:1015B000005F12D0012584F83D60002084F83C00D3
:1015C000284670BDCB68D1E90121206800F0D6FE25
:1015D0002068816841F0770109E0CB68D1E90121F9
:1015E000206800F0CBFE2068816841F48041816072
:1015F000E1E719E0CA684968206800F073FF5021EC
:10160000206806E0CA684968206800F07CFF602115
:10161000206800F0BDFECEE7CA684968206800F087
:1016200061FF40212068F4E7226801461046F0E798
:10163000704770B50446006801694FF00005C94362
:10164000890715D4C168C943890711D4E91E01610E
:1016500001202077206880698007204602D0FFF7AC
:10166000E7FF04E000F0D6F8204600F068F925779F
:1016700020680169C943490717D4C168C9434907AC
:1016800013D46FF004010161022020772068806983
:1016900010F4407F204602D0FFF7CAFF04E000F0BC
:1016A000B9F8204600F04BF9257720680169C94355
:1016B000090716D4C168C943090712D46FF008019D
:1016C0000161042020772068C0698007204602D08D
:1016D000FFF7AEFF04E000F09DF8204600F02FF980
:1016E000257720680169C943C90617D4C168C94371
:1016F000C90613D46FF0100101610820207720681B
:10170000C06910F4407F204602D0FFF791FF04E04B
:1017100000F080F8204600F012F925772068016972
:10172000C943C90708D1C168C943C90704D1891E83
:101730000161204600F094F920680169C943090657
:1017400009D4C168C943090605D46FF0800101615D
:101750002046FFF789FD20680169C943490609D47D
:10176000C168C943490605D46FF0400101612046B4
:1017700000F080F920680169C94389060BD4C1686B
:10178000C943890607D46FF0200101612046BDE8F6
:101790007040FFF76ABD70BD70B586B00446142175
:1017A0006846FEF7BDFD17492068884228D11648D3
:1017B0000024016841F001010160016801F00101AC
:1017C0000591016841F0020101600068022500F006
:1017D000020005904FF4F0600090CDE9015401261D
:1017E000CDE9034669460948FFF79CF803200090BD
:1017F000CDE90154CDE9034669460548FFF792F863
:1018000006B070BD000001403038024000000240C8
:1018100000040240704770B5044690F83C00002672
:101820000D4601280FD0012084F83C006AB1042A3B
:101830001DD0082A2FD00C2A3FD00126002084F882
:101840003C00304670BD022070BD206800F0A8FD4D
:101850002068816941F0080181612068816921F077
:1018600004018161206881692A69114311E02068BF
:1018700000F0BEFD2068816941F40061816120684B
:10188000816921F480618161206881692A6941EA66
:1018900002218161D2E7206800F0D6FD2068C1698D
:1018A00041F00801C1612068C16921F00401C161F2
:1018B0002068C1692A69114311E0206800F0F0FD39
:1018C0002068C16941F40061C1612068C16921F4E7
:1018D0008061C1612068C1692A6941EA0221C16150
:1018E000ACE710B5040003D094F83D0010B107E058
:1018F000012010BD002084F83C00204600F01EF8B6
:10190000022084F83D00211D206800F0D1FC012058
:1019100084F8460084F83E0084F83F0084F84000D4
:1019200084F8410084F8420084F8430084F84400BD
:1019300084F8450084F83D00002010BD70477047D2
:1019400010B50446022249B104290ED0082913D04B
:1019500094F84100012816D0012010BD94F83E00F3
:101960000128F9D184F83E200FE094F83F000128C7
:10197000F2D184F83F2008E094F840000128EBD130
:1019800084F8402001E084F841200122206800F022
:10199000DBFC12492068884203D1426C42F40042C9
:1019A0004264206888420ED0B0F1804F0BD00C49C1
:1019B000884208D00B49884205D00B49884202D0A2
:1019C0000A49884204D1816801F00701062903D041
:1019D000016841F001010160002010BD00000140DC
:1019E0000004004000080040000C0040004001409E
:1019F00030B504460D460068002200F0A5FC174BE8
:101A000041F2111120688A10984209D1036A0B42F1
:101A100006D1036A134203D1436C23F400434364A9
:101A20002068036A0B4206D1016A114203D10168A2
:101A300021F00101016001203DB1042D08D0082DE5
:101A400009D084F84100002030BD84F83E00FAE758
:101A500084F83F00F7E784F84000F4E70000014015
:101A600000680349884201D1FFF764B8704700005D
:101A700000440140704770B5040004D094F83D0064
:101A8000002510B106E0012070BD84F83C502046CE
:101A900000F022F8242084F83D002068C16821F479
:101AA0000051C160204600F041FD2068016921F429
:101AB000904101612068416921F02A01416120685B
:101AC000C16841F40051C1602564202084F83D00C4
:101AD00084F83E00002070BD10B586B00446142185
:101AE0006846FEF71DFC13492068884220D1124841
:101AF0000021026842F010020260006800F010004D
:101B000005900D481438026842F002020260006835
:101B100000F002000590C02000900220CDE90101F4
:101B2000032003900720049069460448FEF7FAFE5C
:101B300006B010BD001001404438024000040240CD
:101B40002DE9F843044690F83D001F4616460D4621
:101B500020284CD1C5B1BEB194F83C00012846D034
:101B6000012084F83C004FF00008C4F84080212098
:101B700084F83D00FEF7D8FFA6848146E684A0687D
:101B8000B0F5805F03D004E00120BDE8F883206950
:101B900028B12E465FF0000584F83C800EE0002658
:101BA000FAE78021204600F047FDA0B9AEB116F853
:101BB000010B21684860E08C401EE084E08C4B46BD
:101BC0004FF0000200970028EBD14FF04001204673
:101BD00000F032FD30B10320D7E735F8020BC0F337
:101BE0000800E6E7202084F83D000020CDE7022031
:101BF000CBE710B5FEF72AFD012010BDFEE700007F
:101C0000054C4FF47A7510212046FEF780FF2846D8
:101C100000F054FFF7E70000000802409FED101AA3
:101C20009FED102AF5EEC00A60EE011A20EE020ABE
:101C3000B6EE001A002040EEC11A00EEC10AF1EE25
:101C400010FA00DD0120F5EEC01AF1EE10FA00DD09
:101C5000801CB5EEC00AF1EE10FA00DD001D7047E1
:101C6000D7B35D3FD7B35DBF7FB50021204800915A
:101C7000019102911D4A0391026001244FF48032C8
:101C80000461C0E90121017680F820101203C262CC
:101C90000325D210C5618262C16080F830104461B2
:101CA000FEF7D4FD08B1FEF729FD0A208DE83100CA
:101CB00069460F48FEF724FD08B1FEF71FFD0C2012
:101CC00000900220019069460948FEF719FD08B10D
:101CD000FEF714FD0D20CDE9000569460448FEF726
:101CE0000FFD002801D0FEF709FD7FBD0020014057
:101CF0003412002010B59CB01C2216496846FEF72D
:101D0000F6FA0021684600F0E5FE134C11491C224A
:101D100020601C3107A8FEF7EAFA002107A800F0AE
:101D2000D9FE0C4960601C2238310EA8FEF7DFFA9C
:101D300000210EA800F0CEFE0649A0601C225431FE
:101D400015A8FEF7D4FA002115A800F0C3FEE06044
:101D50001CB010BD64350008000000202DE9F043E0
:101D600087B014216846FEF7DBFA32480024016888
:101D700041F080010160016801F080010591016876
:101D800041F004010160016801F00401059101685E
:101D900041F001010160016801F001010591016854
:101DA00041F002010160016801F002010591016842
:101DB00041F00801016000681F4F00F00800059025
:101DC00000220C213846FEF7AAFEDFF870800022C0
:101DD00010214046FEF7A3FEDFF8649000220421A4
:101DE0004846FEF79CFE01250C20CDE90005CDE913
:101DF000025469463846FEF795FD1026009669465E
:101E00003846CDE90145FEF78DFD0096CDE9015438
:101E1000694640460394FEF785FD04200090CDE915
:101E20000154694648460394FEF77CFD07B0BDE8BF
:101E3000F0830000303802400000024000080240F9
:101E4000000C024030B595B000240F94109411940A
:101E5000129413941C2168461494FEF761FA202111
:101E600007A8FEF75DFA394837494FF48075C0E995
:101E700000142021816041F26701C0E903150121AE
:101E8000416180218161FFF7E3FA08B1FEF736FC7A
:101E90004FF480500F900FA92C48FFF75BFB08B15F
:101EA000FEF72CFC2948FFF71CFD08B1FEF726FCC5
:101EB000139413A925481494FFF702FA08B1FEF70A
:101EC0001DFC6020CDE90004029403940494059461
:101ED000002269461D480694FFF79DFC08B1FEF7F5
:101EE0000DFC042269461948FFF795FC08B1FEF77E
:101EF00005FC082269461548FFF78DFC08B1FEF77E
:101F0000FDFB702000900C2269461048FFF783FC0F
:101F100008B1FEF7F3FB4FF4006007904010CDE9E5
:101F200008056420CDE90A044FF400500C9007A97D
:101F30000E940648FFF79AF908B1FEF7DFFB034855
:101F4000FFF72AFC15B030BD000001407C120020D4
:101F50000C4810B50A4901604FF4E131416000219D
:101F600081600C22C160C0E904128161C161FFF788
:101F700082FD002803D0BDE81040FEF7BFBB10BDB6
:101F800000100140C4120020FEE7FEF7A9FFFEE7A3
:101F900010B500210F48FFF7D3FC04210D48FFF7CF
:101FA000CFFC08210B48FFF7CBFC00210948FFF7C5
:101FB000C5F904210748FFF7C1F908210548FFF7D3
:101FC000BDF904480021026851630268916300680A
:101FD000C16310BD7C12002010B500210F48FFF72F
:101FE00007FD04210D48FFF703FD08210B48FFF70B
:101FF000FFFC00210948FFF7F7F904210748FFF724
:10200000F3F908210548FFF7EFF9044800210268B9
:102010005163026891630068C16310BD7C120020A7
:1020200010210148FEF76EBD00000240012000F0C3
:1020300045FDFBE710B5DDED021A9FED5D2AF8EED8
:10204000612A20EE822A22EE222AC2EE012AB8EE6E
:10205000612AC2EE013AB7EE082A20EE022A9FED6D
:10206000553AB8EE614A00EE832A23EE822AC4EE86
:10207000013ABFEE081A20EE010A00EE830A23EEB1
:10208000801ADFED4D0A072BB0EE600A22D2DFE89E
:1020900003F02104090E13181D00F0EE410AB0EE02
:1020A000420A17E0F0EE420AB1EE620A12E0F1EEE7
:1020B000410AB0EE620A0DE0F1EE620AB0EE410AAA
:1020C00008E0F0EE620AB1EE420A03E0F1EE420AE5
:1020D000B1EE410AB8EE612A30EE801AB4EEC21AAF
:1020E000F1EE10FA07DD80EE812AF0EE420A80EE72
:1020F000012AB0EE420AF8EE611A30EE801AF6EECE
:10210000002A072B31EEC11AF5EE001A21EE211A32
:10211000F0EE411A40EEA21AB0EE612A00EE222A39
:1021200028D2DFE803F02704090E151A2100C0EDBC
:10213000001A81ED001A08E080ED001A81ED002AF6
:102140000FE080ED001AC1ED001A82ED002A11E0C7
:1021500080ED002AC1ED001A0AE080ED002A81ED31
:10216000001AC2ED001A05E0C0ED001A81ED002A48
:1021700082ED001AD0ED000A1048C0ED030A91ED7F
:10218000000AFCEEE00A80ED040A92ED001A10EE5F
:10219000901A80ED051A0A484163BCEEC00A10EEA1
:1021A000101A8163BCEEC10A10EE101AC16310BD93
:1021B000D7B3DD3FD7B35D3F00000000685000207B
:1021C0000000014010B5502080F31188BFF34F8FFD
:1021D000BFF36F8F01F0FEF818B104494FF0805043
:1021E0000860002080F3118810BD000004ED00E0BD
:1021F00030B593B030216846FEF792F814210CA850
:10220000FEF78EF81D480025016841F080510160FD
:10221000006800F0805011901948016821F4404195
:1022200041F4004101600068022400F44040119034
:1022300001200090000401908001CDE9064008AA29
:102240000420542182E813000B906846FEF756FEE6
:1022500008B172B6FEE70CA90F2081E831004FF4F7
:102260008050CDE90F0502210CA8FEF729FD08B129
:1022700072B6FEE7FEF7BEFD13B030BD4038024037
:10228000007000400248016841F47001016070472D
:1022900088ED00E010B50448FFF7CBF9BDE8104029
:1022A0000248FFF7C6B900007C1200200813002086
:1022B000F0B502681D4B1E4C9F031E4D1E4E9842EA
:1022C00007D0B84205D0A04203D0A84201D0B04206
:1022D00004D122F0700C4A6842EA0C02984210D0F5
:1022E000B8420ED0A0420CD0A8420AD0B04208D0CA
:1022F000124CA04205D0124CA04202D0114CA04278
:1023000003D122F44074CA6822434C6922F080024F
:10231000224302608A68C2620A688262984201D1DE
:102320000969016301214161F0BD00000000014025
:102330000004004000080040000C00400040014044
:10234000004401400048014010B501F01F03012185
:10235000046A99408C430462016A9A401143016205
:1023600010BD10B501F01F030421046A99408C438D
:102370000462016A9A401143016210BD10B584687D
:1023800042EA032224F47F440A432243826010BDC0
:10239000826822F070020A4342F0070181607047B0
:1023A00030B5026A22F001020262026A436884695F
:1023B00024F073050C682C4322F002058A682A4336
:1023C0000A4DA8420BD122F00805CA6823F44073D5
:1023D0002A434D6922F004021D438B692B4343605D
:1023E000846149684163026230BD00000000014021
:1023F00030B5026A22F010020262026A4368846900
:102400000D6824F4E64444EA05248D6822F0200295
:1024100042EA05120B4DA8420ED1CD6822F080028F
:1024200042EA05124D6923F4406343EA85038D694E
:1024300022F0400243EA8503436084614968816376
:10244000026230BD0000014030B5026A22F48072A1
:102450000262036A4268C46923F4007324F07305BE
:102460000C682C438D6843EA05230C4DA8420ED11D
:10247000CD6823F4006343EA05234D6922F44052FA
:1024800042EA05128D6923F4806342EA0512426034
:10249000C4614968C163036230BD000000000140AF
:1024A00030B5026A22F480520262046A4268C3694B
:1024B0000D6823F4E64343EA05238D6824F40054B1
:1024C00044EA0534064DA84204D14D6922F4804205
:1024D00042EA85124260C36149680164046230BD0A
:1024E0000000014010B5036A046A24F0010404628C
:1024F000846924F0F00444EA021423F00A020A4337
:102500008461026210BD10B5036A23F010030362F8
:102510008369046A23F4704343EA023224F0A0037F
:1025200043EA01118261016210BD000070B50446EA
:1025300000680169E26821F4405111430161216999
:10254000A068E26908436169114308432168CA68C9
:1025500049F20C639A430243CA6020684169A26948
:1025600021F440711143416131492068884202D011
:102570003049884202D1FEF773FC01E0FEF760FCAF
:10258000E2690023192164253226B2F5004F626802
:1025900028D0A0FB0101930F9200FDF777FE0146C2
:1025A000B0FBF5F06FF01802504301EB800006EB32
:1025B0000010B0FBF5F000F0F002B1FBF5F002EB1B
:1025C0000012B1FBF5F06FF01803584301EB8000E7
:1025D00006EB0010B0FBF5F000F00F00216810448E
:1025E000886070BDA0FB010192185B41FDF74EFEB3
:1025F0000146B0FBF5F00201B1FBF5F06FF01803F6
:10260000584301EB800006EBC000B0FBF5F000F092
:10261000F80002EB4002B1FBF5F0584301EB8000FB
:1026200006EBC000B0FBF5F000F00700D6E70000B5
:1026300000100140001401402DE9F0419846174672
:102640000E460446069D27E0681C25D02DB1FEF7F6
:102650006BFAA0EB0800A8421ED920680C3050E8A5
:10266000001F21F4D07140E80012002AF5D1206843
:10267000143050E8001F21F0010140E80012002A48
:10268000F5D1202084F83D0084F83E00002084F835
:102690003C000320BDE8F0812068006836EA0000B5
:1026A00004D00020B842CFD00020F3E70120F9E7A2
:1026B000FEE7000016480E219FED160A417080EDDE
:1026C000010A9FED150A00F1340180ED020AB2EE15
:1026D000040A81ED090A9FED110A81ED010AB7EEA6
:1026E000000A81ED020AB2EE0E0A81ED070A9FEDA3
:1026F0000C0A81ED080A9FED0B0A81ED060A80EDB8
:10270000070A0021817080ED0A0A80ED0B0A7047EC
:10271000685000200000404200400346CDCCCC3D34
:102720006F12833A00000000014A024900F023B80A
:10273000452A00088C0000200907090E002804DB48
:1027400000F1E02080F80014704700F00F0000F165
:10275000E02080F8141D704702E008C8121F08C16D
:10276000002AFAD170477047002001E001C1121F12
:10277000002AFBD170472DE9F04116460F4604466A
:10278000002503E03946B047641C6D1C2078002802
:10279000F8D12846BDE8F08100F00AF9322000F0B7
:1027A0008DF9F9E700EB81008260704770B504464F
:1027B000406880470146E078420702D02288521CD8
:1027C0002280B1EBD01F0CD04FF0005202EBB010C2
:1027D0004FEAB060C0F3C202E070032A04D361F391
:1027E000C71020F03800E070C0B200F007010025EB
:1027F00006291ED2DFE801F0031E407A1D91C0F3C6
:102800008011B1EBD01FA07820F0F0000FD1A070A4
:10281000A16809B1204688472580A07820F00F00E4
:10282000401CA070E07820F00700401C11E08030D0
:10283000A07070BDC0F38011B1EBD01F0BD0A07899
:1028400020F0F0001030A070E168A1B32046884766
:102850005DE0E07070BD2088C828FBD9A07820F02A
:10286000F0005030A070E16909B120468847E07857
:1028700020F00700401DECE7C0F38011B1EBD01F42
:102880001AD1A07820F0F000A070A16809B120460C
:102890008847A0784FF0805101EB30104FEA30703C
:1028A000A070216909B1204688472580E07820F092
:1028B0000700C01CCDE72AE020883C28CAD9A078B0
:1028C00000F00F01012902D0022906D043E020F0D8
:1028D000F0003030A070616904E020F0F00040307A
:1028E000A070A16991B32046884734E0C0F38011FD
:1028F000B1EBD01FAED0A07820F0F0001030A07067
:10290000E16809B12046884720883C2823D22580E9
:10291000E07820F00700801C9BE7C0F38011B1EB4A
:10292000D01FA07820F0F00011D16030A070208876
:102930006421B0FBF1F201FB120000288AD1216A68
:10294000002987D02046BDE87040084703E01030DA
:10295000A070E168C6E7E07820F0070079E770B57D
:102960000D46164604462821FDF7DAFCA07820F033
:10297000F0008030A0706560A8470146E07861F300
:10298000C71066F38610E07070BD0000074A11683A
:102990000B4605E0814202D14FF0FF307047496A93
:1029A0000029F7D1436210600020704788000020A2
:1029B000054810B5046803E02046FFF7F7FE646A97
:1029C000002CF9D110BD00008800002008B51A4C79
:1029D000A07860B394ED070ADFED180A164930EECF
:1029E000201A2431F0EE080A84ED071A9FED140A2C
:1029F000081FFDF701FED4ED090A94ED080AFFF760
:102A00000DF9207094ED020A0B4A0346BCEEC00A91
:102A1000143210EE101A89B20091111F94ED011AB0
:102A2000D4ED090A94ED080A081FFFF703FB012003
:102A300000F044F8CCE70000685000200AD7233C9F
:102A40000000000013B54FF47A7301226946024872
:102A5000FFF776F801201CBDC41200208078000921
:102A600070470000FEF76EF8FFF7C2FBFFF776F93C
:102A7000FFF76EFAFFF7E6F9FFF7F6F8FFF7B9F898
:102A8000FFF718FEFFF736F900F01FF84FF47A74DD
:102A900003A0FFF749FE2046FDF732FFF8E70000EC
:102AA0004B65726E656C2050616E69630A000000B0
:102AB00001460020842900D0C81C704710B500B919
:102AC000012000F023FB002010BD10B500F044FBF6
:102AD000002010BD7FB50D4604464169B0F90800DD
:102AE00081B1A16971B1FFF7E3FFD4E905128DE867
:102AF0000700D4E900102B46226900F040FC039047
:102B000004B070BDFFF7D4FF03A9CDE90001208A0E
:102B10002B4682B2D4E9001000F004FC012801D059
:102B20000020EDE70398EBE72DE9F041184C0F4644
:102B30000546E6682068001D00F020FA38B92068D4
:102B400090F82C1001208840216981432161681C84
:102B500007D137B12168BDE8F0410E48091D00F0EA
:102B600051BA20683544B5424560216805D2A06B52
:102B7000BDE8F041091D00F02DBA606B091D00F0A1
:102B800029FAA06A854200D2A562BDE8F081000062
:102B9000200000202C1400202DE9F041054600F013
:102BA0003DFA2E4CA068401CA06020682C4F10B14C
:102BB000606940B32DE02560A068012829D1002676
:102BC00006EB860007EB800000F0F6F9761C072E76
:102BD000F6D323488C3000F0EFF92148A03000F004
:102BE000EBF91F48B43000F0E7F91D48C83000F099
:102BF000E3F91B48DC3000F0DFF919488C306063E2
:102C00001430A06305E02068E96AC06A884200D8F1
:102C10002560606A401C6062E96A01202269884080
:102C20001043206101EB810007EB8000291D00F0BB
:102C3000E9F900F013FA606900280CD02068E96A0D
:102C4000C06A884207D207494FF080500860BFF33E
:102C50004F8FBFF36F8FBDE8F08100002000002090
:102C60005013002004ED00E010B5044690F8510028
:102C700058B101280CD002280FD0502080F31188C1
:102C8000BFF34F8FBFF36F8FFEE7206B00F0FAF9B1
:102C90002046BDE8104000F0F5B910BD10484FF4D3
:102CA0007051420706D0C01D0D4920F00700411A9F
:102CB000C1F570510B4A00230144C2E900030839F1
:102CC000183A21F0070111604B600B600B1AC0E944
:102CD000001393604FF00040536050617047000054
:102CE0004014002074000020144E154CA6F1C807B3
:102CF0004FF08058DFF84C9012E000BF00F08EF9E2
:102D0000F068C568281D00F039F9A068401EA06071
:102D10006068401E606000F0A1F92846FFF7A4FF3C
:102D200060680028EAD138680128F9D9C9F800801C
:102D3000BFF34F8FBFF36F8FF2E70000181400202E
:102D40002000002004ED00E02DE9F0479A46DDE97F
:102D5000098481466FF00303206B03EB8202104469
:102D6000089E20F00707780707D0502080F31188CD
:102D7000BFF34F8FBFF36F8FFEE7002561B10020D7
:102D800023180A5C83F834200A5C12B1401C102816
:102D9000F6D384F8435001E084F83450072E00D372
:102DA0000626E662C4E91165201D00F010F904F161
:102DB000180000F00CF92461C6F107006462A061FC
:102DC000E56484F8505052464946384600F0C0F851
:102DD0002060B8F1000F01D0C8F80040BDE8F087CE
:102DE00030B5114900E011460A688242FBD34B68B6
:102DF0005C18844203D14068184448600846436820
:102E00001C18944209D1084C183C2468A24209D0ED
:102E100052681A4442600A6812680260814200D017
:102E2000086030BD0460F9E7740000200648416B7B
:102E3000096829B1416BC968C968496881627047EE
:102E40004FF0FF31FAE700002000002008484068FA
:102E5000401C4FF0500080F3118804D0BFF34F8F17
:102E6000BFF36F8FFEE7BFF34F8FBFF36F8FFEE7A8
:102E70007C0000202DE9F0410546002700F0A2F972
:102E8000324E306808B9FFF709FF706905424ED12C
:102E9000C5B3083568070ED005F00700C0F108007B
:102EA0000544680707D0502080F31188BFF34F8F87
:102EB000BFF36F8FFEE72DB37068854237D8234884
:102EC000183001460C6801E020460C466168A942B2
:102ED00002D221680029F7D131688C4227D00768D7
:102EE0002168016060680837411B10290FD96019FB
:102EF000420708D0502080F31188BFF34F8FBFF3F3
:102F00006F8FFEE713E041606560FFF769FF61685E
:102F10007068401A7060B268904200D2B060706908
:102F200001430020C4E90001F068401CF06000F09B
:102F3000B7FA780707D0502080F31188BFF34F8F7E
:102F4000BFF36F8FFEE73846BDE8F0815C000020DC
:102F500010B5031F4FF080741C601B1F21F001018E
:102F60001960191F044B0B6014390A60091F6FF0B8
:102F7000020244380A6010BD4D2E0008D0E901322B
:102F800001699A60D0E901235A604A68824201D1FE
:102F900082684A60002202610868401E0860086872
:102FA00070470000034B036003F154000860802069
:102FB00010607047E00F002000F108014FF0FF3271
:102FC000C0E90112C1600161002101607047002168
:102FD0000161704730B50B685A1C02D000F108023D
:102FE00002E0026904E02246546825689D42FAD94D
:102FF00053684B6099608A60516008610168491CA0
:10300000016030BD42684A6093688B609368596084
:10301000916008610168491C01607047502080F38D
:103020001188BFF34F8FBFF36F8F0A494868401C68
:10303000486001280CD10848006810F0FF0F07D045
:10304000502080F31188BFF34F8FBFF36F8FFEE7DF
:10305000704700007C00002004ED00E0084948684B
:1030600028B1401E486001D180F31188704750207C
:1030700080F31188BFF34F8FBFF36F8FFEE700001F
:103080007C00002070B500282AD0164DA0F108045D
:1030900060686969084207D1502080F31188BFF346
:1030A0004F8FBFF36F8FFEE722683AB1502080F355
:1030B0001188BFF34F8FBFF36F8FFEE788436060C7
:1030C00000F080F860686968084468602046FFF78F
:1030D00087FE2869401C2861BDE8704000F0E0B917
:1030E00070BD00005C0000204FF0E0200021016175
:1030F000816105494FF47A720968B1FBF2F1491E0A
:1031000041610721016170471C00002010B50200D9
:1031100014D00F48006B38B1502080F31188BFF3F2
:103120004F8FBFF36F8FFEE700F04CF80021104681
:10313000FFF7FAFC00F0B4F9002807D105494FF079
:1031400080500860BFF34F8FBFF36F8F10BD00003A
:103150002000002004ED00E010B586B000240394A8
:1031600005AA04A903A80494FFF71CFFDDE90301E5
:103170000094CDE9011000230EA11048059A00F03B
:10318000FEF80F490028C86211D0502080F3118842
:10319000BFF34F8FBFF36F8F4FF0FF308862012076
:1031A0004861CC6006B0BDE8104000F041B806B000
:1031B00010BD000049444C4500000000E92C000807
:1031C000200000200248016B491C01637047000089
:1031D000200000201448016B11B10121C16170472A
:1031E0000021C1610169B1FA81F1C1F11F0101EB57
:1031F00081020E4951F822306BB101EB820101F1DD
:1032000008034A6852684A609A4201D152684A608B
:10321000D16801607047502080F31188BFF34F8F51
:10322000BFF36F8FFEE70000200000205013002046
:103230001CB537480168374A914207D1502080F3C6
:103240001188BFF34F8FBFF36F8FFEE700683149DE
:10325000491E884207D1502080F31188BFF34F8F59
:10326000BFF36F8FFEE72C4908780190FF200870AC
:1032700008788DF800009DF800009DF8002000F00F
:10328000F000904207D0502080F31188BFF34F8F99
:10329000BFF36F8FFEE79DF80000204C00F0500058
:1032A00020700720A06005E09DF8002052008DF8F6
:1032B0000020401E9DF800201206F5D4A0600328CF
:1032C00007D0502080F31188BFF34F8FBFF36F8F6B
:1032D000FEE74FF44070A060019808700C48203061
:1032E000016841F470010160016841F070410160C2
:1032F000FFF7FAFE00206060FCF77AFF08480168DB
:1033000041F040410160FCF75FFF00201CBD000060
:1033100000ED00E071C20F4100E400E07C000020FD
:1033200034EF00E02DE9FF5F8346DDE90E87994623
:1033300016468A469000FFF79DFD05001CD05420DC
:10334000FFF798FD040014D00020256384F8510095
:10335000CDE90240CDE900874B46324651465846FA
:10336000FFF7F2FC2046FFF717FC012004B0BDE890
:10337000F09F2846FFF786FE4FF0FF30F6E7F0B5E6
:1033800085B0DDE90B640A9DA6B1DCB15427009736
:103390002663022684F85160002604AFCDE9024678
:1033A000CDE90057FFF7D0FC2046FFF7F5FB049866
:1033B00005B0F0BD502080F31188BFF34F8FBFF3ED
:1033C0006F8FFEE7502080F31188BFF34F8FBFF35C
:1033D0006F8FFEE72DE9F0412F4C0026206B28B1BE
:1033E000A069401CA0613046BDE8F081E5686D1C15
:1033F000E56013D1606B006838B1502080F311880C
:10340000BFF34F8FBFF36F8FFEE7606BA16B6163FC
:10341000A063206A401C2062FFF708FDA06ADFF865
:103420007C80854209D3606B0068A0B1606BC06886
:10343000C7687868854211D2A0622068C06A00EB34
:10344000800158F82100012800D90126E0690028F0
:10345000C9D00126C7E74FF0FF30EDE7381DFFF771
:103460008DFDB86A18B107F11800FFF787FDF96AFA
:103470000120226988401043206101EB810108EBA3
:103480008100391DFFF7BEFDF86A2168C96A8842CC
:10349000C9D30126C7E700002000002050130020F8
:1034A0002DE9F0472C4D00242746286B38B1FFF753
:1034B000B5FD286B401E2863286B40B146E05020C4
:1034C00080F31188BFF34F8FBFF36F8FFEE7A968BA
:1034D000224E0120D1B3A6F1B40980463068E8B18C
:1034E000F068C46804F11800FFF748FD201DFFF7DD
:1034F00045FDE06A2A6908FA00F11143296100EBF1
:10350000800109EB8100211DFFF77CFDE06A29683D
:10351000C96A8842E2D3C5F81C80DFE70CB1FFF727
:1035200085FCAC6944B14646FFF754FF00B1EE613B
:10353000641EF9D10020A861E86938B10849012763
:1035400038070860BFF34F8FBFF36F8FFFF786FD1B
:103550003846BDE8F0870000200000200414002059
:1035600004ED00E0003600082D200008FEFF0000FA
:103570000000000080000000900000209002002069
:103580000C360008011C00080000000000000000CC
:1035900080000000E4020020E4040020EC35000874
:1035A000CD29000802000000000000000002000019
:1035B00038050020380D0020F43500089927000850
:1035C0000000000000000000800000008C0D0020C2
:1035D0008C0F002000000000000000000102030426
:1035E000060708090000000001020304666F635427
:1035F00061736B00627574746F6E5461736B00005D
:1036000064656661756C745461736B0068656172A2
:10361000745461736B00000000000000920E493C7E
:10362000B10AC93C2BC3163D2EFB483D752B7B3D93
:1036300004A9963D80B6AF3D36BDC83D2FBCE13DE7
:1036400073B2FA3D87CF093E8340163EB5AB223EAA
:10365000A2102F3ECF6E3B3EC2C5473E0115543EE1
:10366000135C603E7F9A6C3ECCCF783EC07D823E3C
:10367000938E883E229A8E3E32A0943E86A09A3E39
:10368000E59AA03E128FA63ED47CAC3EEF63B23EDC
:103690002A44B83E491DBE3E15EFC33E53B9C93E4C
:1036A000CA7BCF3E4136D53E80E8DA3E4F92E03EBF
:1036B0007533E63EBBCBEB3EEA5AF13ECBE0F63E3D
:1036C000275DFC3EE4E7003F3D9C033F824B063F05
:1036D0009BF5083F6B9A0B3FDA390E3FCDD3103F75
:1036E0002A68133FD9F6153FC07F183FC6021B3F1B
:1036F000D17F1D3FCBF61F3F9967223F25D2243F44
:103700005636273F1594293F4AEB2B3FDE3B2E3F91
:10371000BB85303FC9C8323FF304353F233A373FBA
:103720004268393F3B8F3B3FF9AE3D3F67C73F3F64
:1037300070D8413F01E2433F03E4453F65DE473F28
:1037400012D1493FF8BB4B3F029F4D3F207A4F3F7C
:103750003D4D513F4918533F31DB543FE595563FAE
:103760005348583F6AF2593F1A945B3F532D5D3FCF
:1037700005BE5E3F2146603F97C5613F5A3C633FAF
:1037800059AA643F880F663FD86B673F3CBF683FCC
:10379000A7096A3F0C4B6B3F5E836C3F93B26D3F52
:1037A0009ED86E3F73F56F3F0809713F5213723F09
:1037B0004714733FDD0B743F0BFA743FC6DE753F51
:1037C00007BA763FC58B773FF853783F9812793F19
:1037D0009DC7793F02737A3FBE147B3FCDAC7B3FE0
:1037E000283B7C3FC9BF7C3FAC3A7D3FCCAB7D3FA3
:1037F00023137E3FB0707E3F6DC47E3F580E7F3FE7
:103800006D4E7F3FAB847F3F0FB17F3F97D37F3FAC
:1038100043EC7F3F11FB7F3F0000803F11FB7F3F68
:1038200043EC7F3F97D37F3F0FB17F3FAB847F3F18
:103830006D4E7F3F580E7F3F6DC47E3FB0707E3F20
:1038400023137E3FCCAB7D3FAC3A7D3FC9BF7C3F6D
:10385000283B7C3FCDAC7B3FBE147B3F02737A3F5D
:103860009DC7793F9812793FF853783FC58B773FD2
:1038700007BA763FC6DE753F0BFA743FDD0B743F27
:103880004714733F5213723F0809713F73F56F3F3E
:103890009ED86E3F93B26D3F5E836C3F0C4B6B3F87
:1038A000A7096A3F3CBF683FD86B673F880F663FF8
:1038B00059AA643F5A3C633F97C5613F2146603F28
:1038C00005BE5E3F532D5D3F1A945B3F6AF2593F40
:1038D0005348583FE595563F31DB543F4918533F15
:1038E0003D4D513F207A4F3F029F4D3FF8BB4B3F2C
:1038F00012D1493F65DE473F03E4453F01E2433FC4
:1039000070D8413F67C73F3FF9AE3D3F3B8F3B3FDC
:103910004268393F233A373FF304353FC9C8323F45
:10392000BB85303FDE3B2E3F4AEB2B3F1594293FB2
:103930005636273F25D2243F9967223FCBF61F3FBB
:10394000D17F1D3FC6021B3FC07F183FD9F6153FF0
:103950002A68133FCDD3103FDA390E3F6B9A0B3FE5
:103960009BF5083F824B063F3D9C033FE4E7003F49
:10397000275DFC3ECBE0F63EEA5AF13EBBCBEB3E88
:103980007533E63E4F92E03E80E8DA3E4136D53E62
:10399000CA7BCF3E53B9C93E15EFC33E491DBE3E5B
:1039A0002A44B83EEF63B23ED47CAC3E128FA63EB2
:1039B000E59AA03E86A09A3E32A0943E229A8E3E80
:1039C000938E883EC07D823ECCCF783E7F9A6C3EFF
:1039D000135C603E0115543EC2C5473ECF6E3B3E70
:1039E000A2102F3EB5AB223E8340163E87CF093E44
:1039F00073B2FA3D2FBCE13D36BDC83D80B6AF3D48
:103A000004A9963D752B7B3D2EFB483D2BC3163DEF
:103A1000B10AC93C920E493C00000000920E49BC1C
:103A2000B10AC9BC2BC316BD2EFB48BD752B7BBD8F
:103A300004A996BD80B6AFBD36BDC8BD2FBCE1BDE3
:103A400073B2FABD87CF09BE834016BEB5AB22BEA6
:103A5000A2102FBECF6E3BBEC2C547BE011554BEDD
:103A6000135C60BE7F9A6CBECCCF78BEC07D82BE38
:103A7000938E88BE229A8EBE32A094BE86A09ABE35
:103A8000E59AA0BE128FA6BED47CACBEEF63B2BED8
:103A90002A44B8BE491DBEBE15EFC3BE53B9C9BE48
:103AA000CA7BCFBE4136D5BE80E8DABE4F92E0BEBB
:103AB0007533E6BEBBCBEBBEEA5AF1BECBE0F6BE39
:103AC000275DFCBEE4E700BF3D9C03BF824B06BF01
:103AD0009BF508BF6B9A0BBFDA390EBFCDD310BF71
:103AE0002A6813BFD9F615BFC07F18BFC6021BBF17
:103AF000D17F1DBFCBF61FBF996722BF25D224BF40
:103B0000563627BF159429BF4AEB2BBFDE3B2EBF8D
:103B1000BB8530BFC9C832BFF30435BF233A37BFB6
:103B2000426839BF3B8F3BBFF9AE3DBF67C73FBF60
:103B300070D841BF01E243BF03E445BF65DE47BF24
:103B400012D149BFF8BB4BBF029F4DBF207A4FBF78
:103B50003D4D51BF491853BF31DB54BFE59556BFAA
:103B6000534858BF6AF259BF1A945BBF532D5DBFCB
:103B700005BE5EBF214660BF97C561BF5A3C63BFAB
:103B800059AA64BF880F66BFD86B67BF3CBF68BFC8
:103B9000A7096ABF0C4B6BBF5E836CBF93B26DBF4E
:103BA0009ED86EBF73F56FBF080971BF521372BF05
:103BB000471473BFDD0B74BF0BFA74BFC6DE75BF4D
:103BC00007BA76BFC58B77BFF85378BF981279BF15
:103BD0009DC779BF02737ABFBE147BBFCDAC7BBFDC
:103BE000283B7CBFC9BF7CBFAC3A7DBFCCAB7DBF9F
:103BF00023137EBFB0707EBF6DC47EBF580E7FBFE3
:103C00006D4E7FBFAB847FBF0FB17FBF97D37FBFA8
:103C100043EC7FBF11FB7FBF000080BF11FB7FBF64
:103C200043EC7FBF97D37FBF0FB17FBFAB847FBF14
:103C30006D4E7FBF580E7FBF6DC47EBFB0707EBF1C
:103C400023137EBFCCAB7DBFAC3A7DBFC9BF7CBF69
:103C5000283B7CBFCDAC7BBFBE147BBF02737ABF59
:103C60009DC779BF981279BFF85378BFC58B77BFCE
:103C700007BA76BFC6DE75BF0BFA74BFDD0B74BF23
:103C8000471473BF521372BF080971BF73F56FBF3A
:103C90009ED86EBF93B26DBF5E836CBF0C4B6BBF83
:103CA000A7096ABF3CBF68BFD86B67BF880F66BFF4
:103CB00059AA64BF5A3C63BF97C561BF214660BF24
:103CC00005BE5EBF532D5DBF1A945BBF6AF259BF3C
:103CD000534858BFE59556BF31DB54BF491853BF11
:103CE0003D4D51BF207A4FBF029F4DBFF8BB4BBF28
:103CF00012D149BF65DE47BF03E445BF01E243BFC0
:103D000070D841BF67C73FBFF9AE3DBF3B8F3BBFD8
:103D1000426839BF233A37BFF30435BFC9C832BF41
:103D2000BB8530BFDE3B2EBF4AEB2BBF159429BFAE
:103D3000563627BF25D224BF996722BFCBF61FBFB7
:103D4000D17F1DBFC6021BBFC07F18BFD9F615BFEC
:103D50002A6813BFCDD310BFDA390EBF6B9A0BBFE1
:103D60009BF508BF824B06BF3D9C03BFE4E700BF45
:103D7000275DFCBECBE0F6BEEA5AF1BEBBCBEBBE84
:103D80007533E6BE4F92E0BE80E8DABE4136D5BE5E
:103D9000CA7BCFBE53B9C9BE15EFC3BE491DBEBE57
:103DA0002A44B8BEEF63B2BED47CACBE128FA6BEAE
:103DB000E59AA0BE86A09ABE32A094BE229A8EBE7C
:103DC000938E88BEC07D82BECCCF78BE7F9A6CBEFB
:103DD000135C60BE011554BEC2C547BECF6E3BBE6C
:103DE000A2102FBEB5AB22BE834016BE87CF09BE40
:103DF00073B2FABD2FBCE1BD36BDC8BD80B6AFBD44
:103E000004A996BD752B7BBD2EFB48BD2BC316BDEB
:103E1000B10AC9BC920E49BC000000803C3E0008BB
:103E2000000000209000000058270008CC3E000849
:103E300090000020385400006827000800000000AF
:103E40000000000000000000000000000100000071
:103E500010000000000000000024F400000000003A
:103E60000000000000000000000000000000000052
:103E70000000000000000000000000000000000042
:103E80000000000000000000000000000000000032
:103E90000000000000000000000000000000000022
:103EA0000000000000000000000000000000000012
:103EB000000000000000000000000000AAAAAAAA5A
:0C3EC000000000000000000000000000F6
:040000050800019559
:00000001FF
