:020000040800F2
:1000000098210020750200087D02000821200008C8
:100010008102000883020008850200080000000039
:10002000000000000000000000000000870200083F
:1000300089020008000000008B020008A952000895
:100040008F0200088F0200088F0200088F0200084C
:100050008F0200088F0200088F0200088F0200083C
:100060008F0200088F020008C90C00088F020008E8
:100070008F0200088F0200088F0200088F0200081C
:100080008F0200088F020008A10500080000000090
:100090000000000000000000000000008F020008C7
:1000A00075530008A15300088F0200088F02000852
:1000B0008F0200088F0200088F0200088F020008DC
:1000C0008F0200088F0200088F0200088F020008CC
:1000D0008F020008F15D00088F0200080000000098
:1000E0008F0200088F0200088F0200080000000045
:1000F0000000000000000000000000008F02000867
:10010000000000008F0200088F0200088F02000824
:1001100000000000000000000000000000000000DF
:100120008F0200088F020008290C00088F020008C7
:100130008F02000800000000000000000000000026
:100140000000000000000000000000008F02000816
:100150008F0200088F0200088F0200088F0200083B
:100160008F0200088F02000800000000000000005D
:10017000000000000000000000000000000000007F
:10018000000000008F0200080000000000000000D6
:100190008F02000800F002F800F05CF80AA090E876
:1001A000000C82448344AAF10107DA4501D100F032
:1001B00051F8AFF2090EBAE80F0013F0010F18BFA3
:1001C000FB1A43F001031847146600003466000070
:1001D0000A444FF0000C10F8013B13F0070408BF6D
:1001E00010F8014B1D1108BF10F8015B641E05D00B
:1001F00010F8016B641E01F8016BF9D113F0080FC0
:100200001EBF10F8014BAD1C0C1B09D16D1E58BF51
:1002100001F801CBFAD505E014F8016B01F8016B88
:100220006D1EF9D59142D6D37047000000230024FB
:1002300000250026103A28BF78C1FBD8520728BFF6
:1002400030C148BF0B6070471FB506F08BF81FBD6B
:1002500010B510BD00F06AF91146FFF7F5FF05F083
:10026000CFFF00F088F903B4FFF7F2FF03BC00F002
:100270008FF900000948804709480047FEE7FEE77C
:10028000FEE7FEE7FEE7FEE7FEE7FEE7FEE7FEE746
:1002900004480549054A064B7047000065530008AD
:1002A00095010008981B002098210020981D00202F
:1002B000981D002053EA020C00F069802DE9F04BF4
:1002C0004FF00006002B1FBFB3FA83F503FA05F4C5
:1002D00024FA05F65E4012BF1643B2FA82F502FA1E
:1002E00005F4C5F120051EBF22FA05FC44EA0C0402
:1002F000203556EA044C4FEA144418BF641C4FF0F2
:1003000000084FF00009904271EB030C39D300292B
:1003100019BFB1FA81F701FA07F6B0FA80F700FACF
:1003200007F6C7F120071EBF20FA07FC46EA0C06B5
:100330002037B6FBF4FCA7EB0507103F07F01F0BB7
:10034000CBF120060CFA0BFB2CFA06F644BFB346A1
:100350000026202FA4BF5E464FF0000B5BEA060C80
:1003600008BF4FF0010B19EB0B09ABFB027C48EB0C
:100370000608C01B06FB02CC0BFB03CC71EB0C0187
:10038000C1E70B46024641464846BDE8F08B13B52F
:100390004FF000004FF00001AFF30080BDE81C40BB
:1003A000704710B54C1084EA530404D54042C1F1A3
:1003B000000138BF491E1B4204D55242C3F100035D
:1003C00038BF5B1EFFF776FF14F0804F04D0404229
:1003D000C1F1000138BF491E14F0004F04D0524251
:1003E000C3F1000338BF5B1E10BD032A40F230800A
:1003F00010F0030C00F0158011F8013BBCF1020F66
:10040000624498BF11F801CB00F8013B38BF11F8E6
:10041000013BA2F1040298BF00F801CB38BF00F8FD
:10042000013B11F0030300F02580083AC0F008807A
:1004300051F8043B083A51F804CBA0E80810F5E75E
:10044000121D5CBF51F8043B40F8043BAFF3008041
:10045000D20724BF11F8013B11F801CB48BF11F8B6
:10046000012B24BF00F8013B00F801CB48BF00F886
:10047000012B704710B5203AC0F00B80B1E818503E
:10048000203AA0E81850B1E81850A0E81850BFF47E
:10049000F5AF5FEA027C24BFB1E81850A0E818501D
:1004A00044BF18C918C0BDE810405FEA827C24BF71
:1004B00051F8043B40F8043B08BF7047D20728BFFF
:1004C00031F8023B48BF11F8012B28BF20F8023B4E
:1004D00048BF00F8012B70474FF0000200B51346EB
:1004E00094469646203922BFA0E80C50A0E80C5054
:1004F000B1F12001BFF4F7AF090728BFA0E80C5005
:1005000048BF0CC05DF804EB890028BF40F8042BFD
:1005100008BF704748BF20F8022B11F0804F18BF6A
:1005200000F8012B7047704770477047754600F020
:100530002BF8AE4605006946534620F00700854675
:1005400018B020B5FFF7A4FEBDE820404FF000062C
:100550004FF000074FF000084FF0000B21F00701AB
:10056000AC46ACE8C009ACE8C009ACE8C009ACE8EE
:10057000C0098D46704710B50446AFF30080204691
:10058000BDE81040FFF76FBE00487047381B0020E1
:1005900001491820ABBEFEE72600020070470000AC
:1005A00006480168C1F38001002905D0016821F0E7
:1005B0000C01016005F07CB870470000002001408C
:1005C000464910B54A6822F440324A604A68436896
:1005D0001A434A6001684A6822F480724A600168DE
:1005E0004A68036942EA03224A6001684A6822F0C5
:1005F00040724A6001684A6883681A434A60016829
:100600008A6822F400628A6001688A68C3681A43B3
:100610008A60816A6FF07062D14201688A6822F054
:1006200070628A6001688A680CD0836A1A438A60A3
:1006300001688A6822F040528A6001688A68C36A49
:100640001A4301E022F040528A6001688A6822F071
:1006500002028A6001688A68037E42EA43028A6075
:1006600090F82010002901684A680FD042F4006217
:100670004A6001684A6822F460424A6001684A6838
:10068000174C436A04EB43331A4301E022F400623F
:100690004A600168CA6A22F47002CA620168CA6AC2
:1006A000838B104C04EB03531A43CA6201688A68B7
:1006B00022F400728A6001688A6890F8303042EA59
:1006C00043228A6001688A6822F480628A60016835
:1006D0008A68406942EA8020886010BD002301409A
:1006E00000E0FFFF0000F0FF2DE9F043C269437F07
:1006F000017F03F03F0490F86C80C2F30219C9092E
:10070000C2F386334FF0010CC2F34652884500D342
:10071000884680F86C8090F86D70A74200D3274619
:1007200080F86D7090F86E609E4200D31E4680F88F
:100730006E6090F86F50954200D3154680F86F5068
:10074000414509D1BC4207D89E4205D1954203D10B
:1007500090F87000814501D04FF0000C6046BDE874
:10076000F08330B4002180F86510446900F11C0169
:10077000436D204630BC04221847000070B5044683
:1007800090F865100020012521B1012920D184F8BD
:10079000650036E0E0691C49C2B2C0F307238A5CF9
:1007A0005A40C0F307438A5C5A408A5C82EA106070
:1007B000085C08B1042021E0207F00F00F00A06653
:1007C00005281ED006281CD0092802D084F86250C3
:1007D00070BDA08B0009A4F85C0012D0B4F85E10C4
:1007E00088420AD894F86C1000EB4102D4E9050164
:1007F000636D984784F8655070BD022084F86200EC
:1008000070BD84F8615070BD9B66000870B50446E9
:1008100090F824000025032820D0A06C80F8065012
:1008200094F82E00032602281BD094F824000228F6
:1008300022D072B6606C78B3A0648671606CA36DD0
:10084000828801686069984794F8360002281DD0B4
:1008500094F83E00022819D065641FE084F8245003
:10086000DEE704F12800A064A36DA28DA16A60698F
:10087000984784F82E6070BD04F12001A164A36D37
:1008800004226069984784F8246070BD616CC1EBF4
:1008900044006830606401E0FFE7A56462B670BDA3
:1008A0002DE9F04104460027C0690F8094F86120CB
:1008B0003D46002A6CD084F8615094F864300126DB
:1008C00004F16C0823B1012B20D0022B59D134E064
:1008D000A16E052902D0062914D052E02046FFF768
:1008E00003FFF8B194F86E0040012030A08194F825
:1008F0006F008101E18194F86D0040012030A4F87F
:100900005E0027E0C0F30F3200212CE0A16E052924
:1009100002D0062907D034E02046FFF7E5FE08B9EB
:1009200084F8645018E0C0F30F320121204600F033
:100930001BF9022084F8640023E0A06E052804D08F
:1009400006280ED0092812D01BE02046FFF7CCFE67
:100950000028E5D084F864604146204600F0B8F8ED
:100960000FE0627F0121204600F0FEF809E094F8D4
:100970006000401C84F860002674B4F85C000880B5
:10098000A769636D042204F11C01606998470AE0BD
:1009900094F8621039B1204600F0B3F884F8625040
:1009A000216D606988473846BDE8F0812DE9F04146
:1009B0001668154626F070422E4F02F0FF0CC2F367
:1009C000072E17F80CC000248CEA0E0CC2F3074E59
:1009D00017F80CC08CEA0E0C17F80C7087EA126737
:1009E000254AD25D46EA02722A6072B6826C3AB13A
:1009F00062B6022209291ED00A2928D079B336E02E
:100A0000032209290ED00A2910D080F8242000F1F1
:100A10002001816462B61A464669876D29463046D0
:100A2000B84724E0016C8A71016CF2E780F82E204F
:100A300000F12801EDE7016C0E68AE4200D00324FE
:100A4000456C05B941648A71006C83800FE090F8B1
:100A50002E10012907D180F82E20838507E0FFE7BB
:100A600090F8241009B1032401E080F824202046E6
:100A7000BDE8F0819B6600089B67000810B5012364
:100A80001C460A2A09D090F83620012A0FD990F87E
:100A90003E20012A12D9002318E090F82E20012AC6
:100AA000F9D8826A121D0A6080F82E400EE080F8A4
:100AB000364000F130020264006B05E080F83E40F1
:100AC00000F138020264806B001D0860184610BDFA
:100AD00030B40B79052404EB03130C7800F12002E9
:100AE00043EAC4134C7843EA04238C78C97843EA78
:100AF000843343EA41510162042330BC0021FFF7F3
:100B000055BF0B0243EA014141F00F01042301628A
:100B100000F120020021FFF749BF30B41C4690F8D5
:100B20006430022B02D0022030BC70470D1F44EA13
:100B300002132B6090F86C30012B06D1CA238B5422
:100B4000FE231144921C4B7092B20A2C03D1017CFB
:100B500041B100210174121D93B22A46214630BCD6
:100B6000FFF724BF0120DFE7F0B490F860300626DD
:100B700006EB011603F0010346EA411190F86350B9
:100B800041EA831141EAC311144605F00F0541EA19
:100B9000052141EA04310162F0BC042300F1200286
:100BA0000021FFF703BF10B504464069E16C884798
:100BB000002084F8640084F8650084F8600004F183
:100BC0001C01636D6069BDE81040042218472DE9DF
:100BD000F041044600880D460FB217FB07F30E14D0
:100BE00016FB06F264884043134404FB04F183427D
:100BF00016DD8A4207DC801A01F0E4FB002F00DAE0
:100C00004042344608E0002E00DA6442401A01F007
:100C1000D9FB002F00DA404260F30F0564F31F4553
:100C20002846BDE8F081000006484FF40011006836
:100C300031EA000005D10348083001600248FFF79F
:100C40009DBD70470064024098050020016818238C
:100C5000CAB2103AB2FBF3F2054B6FF30901032A53
:100C60009B5CC36500D9091D81650846704700007B
:100C7000AB67000810B5014600208B698A6A4FF007
:100C8000C07453B1B3F5005F15D072B1012A0CD016
:100C9000022A0AD0032A09D104E01AB1012A06D097
:100CA000022A03D1C96AC90100D5012010BDC96A51
:100CB000A142FAD010BD002AF7D0012AF2D0022AB0
:100CC000F3D0032AF3D010BD0448016811F0100FCF
:100CD00003D01021016005F07FB87047143C01403B
:100CE00072B6FEE700EB400101EB001210B50749B8
:100CF00001EB420494F82410002906D1044951F86C
:100D0000200003F08FFFE083208210BDE01A002056
:100D10007005002010B5044600EB440000EB0412FF
:100D20001248002100EB4202114811605160D1606D
:100D30001161D183C2F81610C2F81A10118450F84C
:100D4000240002F075F80B48002150F8240002F04E
:100D50006FF8094850F8240003F08CFF074850F85A
:100D60002400BDE8104002F0FFB90000E01A0020A6
:100D7000740500207805002070050020580600202A
:100D80002DE9F84F2648006803F0DAFF834603F0A8
:100D90000AFF8046584603F009FF224F694638682B
:100DA00002F0F3F8009801F091FA8246414601F012
:100DB000B1FA1D4C064631B2B4F91000411A1B4875
:100DC000006802F05BF860F30F05B4F91200A0EBC5
:100DD00026411748006802F051F8294660F31F4188
:100DE000381D0068FFF7F3FE8146584603F0DEFE2B
:100DF0004146484601F0CCFA05462946386802F0DB
:100E0000C6F80146C4F8169000982060C4F804A003
:100E1000E660C4F81A50A4F820800846BDE8F88FB0
:100E20007005002058060020E01A002074050020FC
:100E3000780500207047000070B590F83C20694D9F
:100E4000012A19D0012280F83C200A68072304688F
:100E5000092A13D9E6680A3A02EB420293409E43FC
:100E6000E6600A788B680A3A02EB42029340026815
:100E7000D4682343D36010E0022070BD266902EBE2
:100E8000420293409E4326610A788B6802EB42023D
:100E9000934002681469234313610268936B23F43F
:100EA000401393630268936B0C8A4F4E06EB045415
:100EB000234393630A790B7CD21AD21C02EB820281
:100EC0001F2393400268946B9C4394630A790B7CC4
:100ED000D21AD21C02EB82030A8892B29A400368AB
:100EE0009C6B22439A638A69AA420268936823F43E
:100EF00070239360026893680CD08C6923439360DD
:100F00000268936823F44013936002689368CC6985
:100F1000234301E023F4401393604A7D002A0268D2
:100F2000536802D043F4806301E023F4806353608C
:100F30000A7D002A0268536802D043F4805301E01E
:100F400023F4805353604A68012A16D0022A1FD026
:100F5000032A026827D0136A6FF30B031362026837
:100F6000136ACC6823431362214B04681F4A9C42D6
:100F700027D10C68122C20D023E0026853696FF34C
:100F80000B03536102685369CC6823435361EBE759
:100F9000026893696FF30B03936102689369CC68ED
:100FA00023439361E0E7D3696FF30B03D3610268D6
:100FB000D369CC682343D361D6E7546844F48004F2
:100FC000546004689C4208D10968102901D0112995
:100FD00003D1516841F400015160002180F83C10B8
:100FE000084670BD01000F000000F0FF0023014023
:100FF0000020014078B50024009490F83C20012A9C
:1010000019D0012280F83C200A6807230568092AC4
:1010100013D9EE680A3A02EB420293409E43EE6017
:101020000B788A680A3B03EB43039A400368DD6848
:101030002A43DA6010E0022078BD2E6902EB4202FA
:1010400093409E432E610B788A6803EB43039A40DA
:1010500003681D692A431A614A681F23072A13D2AD
:1010600005686E6B521E02EB820293409E436E63D4
:101070000B790A885B1E92B203EB83039A400368E4
:101080005D6B2A435A6327E005680D2A12D22E6B46
:10109000D21F02EB820293409E432E630B790A8893
:1010A000DB1F92B203EB83039A4003681D6B2A4354
:1010B0001A6311E0EE6A0D3A02EB820293409E43FE
:1010C000EE620B790A880D3B92B203EB83039A40E0
:1010D0000368DD6A2A43DA62164B0568144A9D42AA
:1010E00006D10D68122D03D1556845F48005556071
:1010F00005689D4218D10B68102B01D0112B13D11C
:10110000536843F400035360096810290CD10A495D
:101110000A4A0968B1FBF2F101EB8101490000E0E4
:10112000491E00910029FBD180F83C40002078BD89
:1011300000230140002001409806002040420F009B
:1011400070B504004FF0000503D0206C002610B1EC
:1011500007E0012070BD204600F01CF8666484F8AA
:101160003C60206CC00610D4206C20F4885040F005
:10117000020020642046FFF723FA6664206C20F00A
:10118000020040F00100206400E0012584F83C608A
:10119000284670BD30B587B0044614216846FFF775
:1011A0009BF91949206888422CD11848002401680D
:1011B00041F480710160006800F48070059013486C
:1011C0001438016841F004010160016801F0040174
:1011D0000591016841F0010101600068032500F0FC
:1011E000010005900D20CDE90005694602940848EC
:1011F00000F07CF80220CDE900056946029405481C
:1012000000F074F807B030BD0020014044380240BF
:1012100000080240000002402DE9F041044600F0C1
:1012200055F906465CB1022084F83500002584F8A3
:1012300034502068016821F0010101600DE00120B7
:10124000BDE8F08100F042F9801B052805D9202077
:101250006065032084F83500F2E720680068C00765
:10126000F0D12268116820480140D4E901031843F5
:10127000D4E903363343184363691843A369184319
:10128000E3691843236A18430843616A042903D1B8
:10129000D4E90B1319430843106020684069666A5B
:1012A00020F0070130460E43012704280CD1A06A24
:1012B0000643E06A40B12046FFF7DCFC20B1402045
:1012C000606584F83570BAE7206846612046FFF70C
:1012D000BDFC94F85C203F2191408160656584F8F5
:1012E00035700020ACE700003F8010F02DE9F84F8A
:1012F000DFF8B8A10022012403254FF00F090AF1FD
:10130000040BAAF1040E00BF0B6804FA02F6334086
:10131000B34273D10F7907F00307012F01D0022FD9
:1013200016D187684FEA420805FA08FC27EA0C073D
:10133000D1F80CC00CFA08FC4CEA070CC0F808C045
:101340004768B7430E79C6F3001696403E434660A1
:101350000E79F643B6070DD0C768560005FA06FCAD
:1013600027EA0C07D1F808C00CFA06FC4CEA070C77
:10137000C0F80CC00E7906F00306022E10D1D60874
:1013800000EB8608D8F8206057074FEAD76C09FAB7
:101390000CF7BE430F6907FA0CF73743C8F8207003
:1013A00006684FEA420C05FA0CF7BE430F7907F0C6
:1013B000030707FA0CF7374307604E6816F4403FFF
:1013C0006DD03B4E376847F480473760366822F06F
:1013D000030706F480460096364E07EB060CDCF851
:1013E000086897073F0F09FA07F826EA0806DFF8AA
:1013F000C880404503D14FF000081EE04FE0DFF801
:10140000BC80404502D14FF0010816E0DFF8B08003
:10141000404502D14FF002080FE0DFF8A8804045B8
:1014200002D14FF0030808E0DFF89C80404502D16C
:101430004FF0040801E04FF0070808FA07F848EAFF
:101440000608CCF80888DAF800605746D1F804C0DE
:101450009E435FEACC2C00D51E433E60DBF8006063
:101460005F46D1F804C09E435FEA8C2C00D51E4332
:101470003E60DEF800607746D1F804C09E435FEA24
:101480008C3C00D51E433E60084F083F3E68D1F8B3
:1014900004C09E435FEACC3C00D51E433E60521C14
:1014A000102AFFF431AFBDE8F88F0000083C01407E
:1014B0004438024000300140000002400004024075
:1014C00000080240000C0240001002400148806801
:1014D000704700008C0600200248816802781144A1
:1014E000816070478C0600200B4810B5016841F4FC
:1014F00000710160016841F480610160016841F49C
:1015000080710160032000F071F8042000F006F8FB
:1015100000F024F8002010BD003C024070B50D4DD5
:1015200004464FF47A712878B1FBF0F00A49096853
:10153000B1FBF0F000F019FB48B9102C07D20022E3
:101540002146501E00F032F800206C6070BD012072
:1015500070BD00008C060020980600200B4882B069
:10156000016841F480410160006800F4804000900F
:101570000648001F016841F080510160006800F0DA
:1015800080500090042002B000F030B8443802408F
:10159000002809DB00F01F02012191404009800072
:1015A00000F1E020C0F8001170470000F0B40E4BCD
:1015B0001B680C46C3F30223C3F10705042D00D9B1
:1015C0000425191D072901D2002300E0DB1E012696
:1015D00006FA05F1491E214099409E40761E1640AC
:1015E0003143F0BC04F0E6BD0CED00E0064900F02C
:1015F000070208684FF6FF03184040EA0220034A3A
:1016000010430860704700000CED00E00000FA0590
:101610002DE9F0470E46050065D0DFF81481D8F8B3
:101620000000F7B200F00700B04207D288F800705F
:10163000D8F8000000F00700B04254D128683D4CB3
:10164000810712D5400703D5206840F4E0502060A0
:101650002878000703D5206840F4604020602068A7
:10166000A96820F0F000084320602878C0072DD03A
:10167000304968680839012812D0022813D003289D
:1016800011D00968890700292DDA216821F00301AA
:1016900001432160FFF71AFF814641F2883A0EE0CC
:1016A00009688903EFE709688901ECE7FFF70EFF96
:1016B000A0EB0901514502D90320BDE8F08720685D
:1016C000696800F00C00B0EB810FEFD1D8F8001082
:1016D000404601F00701B14207D90770006800F0E9
:1016E0000700B04201D00120E7E72878400705D580
:1016F0002068E96820F4E05008432060287800075B
:1017000006D52068296920F4604040EAC1002060C5
:1017100000F044F82168084AC1F30311515CC84045
:101720000649086006480068FFF7F8FE0020C4E795
:10173000003C024008380240B367000898060020C9
:101740009006002001490120C8647047000047420C
:1017500001480068704700009806002004480549C9
:1017600000680968044AC1F38221515CC84070478F
:101770009806002008380240C3670008044805495D
:1017800000680968044AC1F34231515CC84070479F
:101790009806002008380240C3670008154810B5B5
:1017A000006810F00C02144813D04110042A0FD026
:1017B000082A0ED10F4C241F2268236802F03F0232
:1017C0005B0207D52068C0F38810A0FB010106E08A
:1017D000084610BD2168C1F38811A1FB0001002358
:1017E000FEF768FD2168C1F30141491C4900B0FBC7
:1017F000F1F010BD083802400024F4002DE9F84F44
:1018000004006ED02078DFF84C93C007A9F10405DE
:101810004AD009F104000168C1F38101012908D00F
:101820000068C0F3810002280AD1D9F80000400204
:1018300006D52868800337D560680028E1D033E0FA
:101840006068B0F5803F10D0B0F5A02F286810D0A8
:1018500020F480302860286820F4802028606068A8
:10186000A8B1FFF733FE06460DE0286840F480304B
:10187000F4E740F480202860F7E700BFFFF726FE7A
:10188000801B642873D828688003F7D50CE0FFF725
:101890001DFE064605E000BFFFF718FE801B64280A
:1018A000F0D828688003F7D42078DFF8AC8280076E
:1018B0004FF0000A3ED5A748001D016811F00C0F3B
:1018C00008D00068C0F3810002280BD1D9F80000CD
:1018D000400207D42868800716D5E068012800D1A7
:1018E00012E033E1E068B8B10120C8F80000FFF76A
:1018F000EDFD064605E000BFFFF7E8FD801B02286E
:10190000C0D828688007F7D52868216920F0F8003A
:1019100040EAC10028600DE0C8F800A0FFF7D6FD3E
:10192000064604E0FFF7D2FD801B02281FD8286876
:101930008007F7D42078000722D5864F8748616951
:10194000703771B101210160FFF7C0FD064604E068
:10195000FFF7BCFD801B022809D838688007F7D53F
:101960000EE0C0F800A0FFF7B1FD064605E082E0FA
:10197000FFF7ACFD801B02287DD838688007F7D4BC
:101980002078400768D5DFF8CCB100270BF13C0B7D
:10199000DBF80000C0000BD4DBF8001041F08051F0
:1019A000CBF80010DBF80000012700F08050009019
:1019B0006B4E3068C00510D4306840F480703060E1
:1019C000FFF784FD009005E0FFF780FD0099401AC5
:1019D000022850D83068C005F6D55E4EA0686C3637
:1019E00001280FD00528306810D020F001003060A9
:1019F000306820F004003060A068B8B1FFF766FDE1
:101A000000900FE0306840F00100F4E740F004007F
:101A10003060F7E7FFF75AFD0099411A41F288302C
:101A2000814266D830688007F4D50EE0FFF74EFD9E
:101A3000009007E0FFF74AFD0099411A41F2883013
:101A4000814256D830688007F4D42FB1DBF80010FB
:101A500021F08051CBF80010A069C8B33D49091DA1
:101A60000968C1F3810102294AD00228504607D0F3
:101A7000C8F8600000E03CE0FFF728FD04463BE0CA
:101A80004746C8F86000FFF721FD064605E000BFA5
:101A9000FFF71CFD801B02282BD828688001F7D493
:101AA000D4E907010843A16A2E4A490802EB014123
:101AB000626A41EA8211084394F82C1040EA0161FD
:101AC000C9F8001001203866FFF700FD044606E063
:101AD0003EE000BFFFF7FAFC001B022809D8286887
:101AE0008001F7D534E000BFFFF7F0FC001B0228AF
:101AF00002D90320BDE8F88F28688001F4D427E0DC
:101B00000128F7D0D9F80000E26900F48001914281
:101B10001CD1226A00F03F01914217D147F6C071F3
:101B2000626A0140B1EB821F10D1A26A4FF0FF330D
:101B300000F4403103EB5202B1EB024F06D194F8AE
:101B40002C1000F07060B0EB016F01D00120D1E7E4
:101B50000020CFE70438024000004742800E474291
:101B6000007000400000FFFF704710B5401EB0F14C
:101B7000807F01D3012010BD4FF0E02460610F2170
:101B8000601704F017FB0020A061072020610020EF
:101B900010BD10B5FFF7E8FF10BD10B590F83C2060
:101BA000012A22D0012280F83C20CA688C6822F4E5
:101BB000407222434C6822F4806222430C6822F473
:101BC000006222430C6922F4805222434C6922F4C1
:101BD00000522243C969002322F480420A4301686B
:101BE0004A6480F83C30002010BD022010BD000087
:101BF00070B590F83C20012A2CD0012480F83C409C
:101C0000022280F83D2003685A689D6822F0700621
:101C10000A6832435A60104B02689A420ED0B2F101
:101C2000804F0BD00D4B9A4208D00D4B9A4205D0F5
:101C30000C4B9A4202D00C4B9A4204D1496825F0D1
:101C400080031943916080F83D40002180F83C10EA
:101C5000084670BD022070BD000001400004004035
:101C600000080040000C00400040014010B5040096
:101C700003D094F83D0010B107E0012010BD002012
:101C800084F83C00204600F01FF8022084F83D0054
:101C9000211D206803F090FB012084F8460084F8A1
:101CA0003E0084F83F0084F8400084F8410084F846
:101CB000420084F8430084F8440084F8450084F826
:101CC0003D00002010BD000008B5006806498842AC
:101CD00008D10648016841F001010160006800F088
:101CE0000100009008BD000000000140443802409F
:101CF00030B587B0044614216846FEF7EDFB17495E
:101D00002068884227D11648016841F0010101602E
:101D1000016801F001010591016841F002010160D3
:101D20000068022400F0020005904FF4F060CDE955
:101D300000040125029469460A48CDE90345FFF7EE
:101D4000D5FA0320CDE90004029469460648CDE99E
:101D50000345FFF7CBFA07B030BD0000000001409B
:101D600030380240000002400004024070B50446D2
:101D700090F83C0000260D4601280FD0012084F881
:101D80003C006AB1042A1DD0082A2FD00C2A3FD06B
:101D90000126002084F83C00304670BD022070BD52
:101DA000206803F05FFB2068816941F008018161D0
:101DB0002068816921F004018161206881692A69B4
:101DC000114311E0206803F075FB2068816941F43C
:101DD000006181612068816921F4806181612068EE
:101DE00081692A6941EA02218161D2E7206803F012
:101DF0008DFB2068C16941F00801C1612068C1699B
:101E000021F00401C1612068C1692A69114311E010
:101E1000206803F0A7FB2068C16941F40061C1613B
:101E20002068C16921F48061C1612068C1692A69A3
:101E300041EA0221C161ACE710B5040003D094F877
:101E40003D0010B107E0012010BD002084F83C00E7
:101E5000204600F01EF8022084F83D00211D206875
:101E600003F0AAFA012084F8460084F83E0084F8C2
:101E70003F0084F8400084F8410084F8420084F870
:101E8000430084F8440084F8450084F83D000020B5
:101E900010BD704770B5044690F83C00012812D080
:101EA000012584F83C50022084F83D00204603F0D0
:101EB0007BFB01004FF0000007D084F83D5084F810
:101EC0003C00012070BD022070BD2168CA6822F06C
:101ED0004002CA602168CA6822F48042CA6084F85D
:101EE0003D5084F83C00002070BD70B5040004D063
:101EF00094F83D00002510B106E0012070BD84F883
:101F00003C50204600F022F8242084F83D00206850
:101F1000C16821F40051C160204603F01BFE206817
:101F2000016921F4904101612068416921F02A0191
:101F300041612068C16841F40051C16025642020DE
:101F400084F83D0084F83E00002070BD2DE9F0418A
:101F500086B0064614216846FEF7BEFA2A49306864
:101F600088424DD129480024016841F010010160E8
:101F7000006800F01000059024481438016841F012
:101F8000020101600068694600F002000590C0206F
:101F900000900220CDE901040720CDE903401C4850
:101FA000FFF7A4F91C4D1B484FF000672860C5E9F6
:101FB00001744FF48068C5E903486C61AC61EC6161
:101FC0002C6228466C62FFF727F908B1FEF788FEFD
:101FD000B563AE630F48114D7830E5E80207402045
:101FE000A5E811010D4845F81449AC61EC612C627B
:101FF0006C62FFF711F908B1FEF772FE7563AE630C
:1020000006B0BDE8F08100000010014044380240F5
:10201000000402404064024074070020D4070020FE
:1020200003F036FBFEE70000034A515C425842F0E1
:102030000102425070470000F8650008044B001D83
:10204000595C0B586FF30F0313430B50704700009C
:10205000F865000808B541F48032C261C161C2610F
:10206000C069009008BD006A814301D0002070471C
:102070000120704710B501291BD004291BD010295D
:102080001BD040291BD0B1F5807F1AD0B1F5806FED
:1020900019D006210D4B18305B5C184403680B4CBB
:1020A000E41D615C73248C40A3438A4013430360A6
:1020B00010BD0021EEE70121ECE70221EAE7032150
:1020C000E8E70421E6E70521E4E70000CB67000824
:1020D00010B50446006802F025FE6168086110BD75
:1020E00010B50446807F01282ED1217B00200129D4
:1020F00004D002290DD0032924D119E0616881F8A8
:1021000024000121206802F030FEE28AB4F90E10AA
:1021100009E0616881F824000021206802F025FEB2
:10212000E28AB4F91010206802F0ACFD40B909E071
:102130006168012081F824006068D4F81210016100
:10214000022000E00320A07710BD01230373C181AA
:10215000C2828377C3777047022303730182C282EE
:10216000012181770021C177704710B5044600F046
:1021700057F80B2803D1204600F01BF808B10020C7
:1021800010BD0020A08302202076012010BD438BCB
:102190000B4393434383828B0A438283704710B57A
:1021A000006802F0CDFDBDE8104002F0F9BCC07F30
:1021B0007047408B7047818B408B41EA00407047ED
:1021C00040680068704740684068704701460120D9
:1021D0000B7B821E012B06D0022B09D0032B06D1CC
:1021E000B1F9121006E0B1F90E1003E01046704785
:1021F000B1F910100029F9DB70474068C0687047DA
:10220000406800697047C08A7047B0F90E00704797
:10221000B0F910007047006802F08CBD808B7047E9
:10222000407E70474068B0F91E0070474068D0F8A3
:102230001A0070474068D0F81600704780E80E001A
:1022400000210173C1810182C182817701764176CB
:102250004183818370470322027341820914818282
:10226000012181770021C177704710B50446FFF73F
:10227000D7FF38B92046FFF7D1FF18B92046FFF73E
:1022800098FF08B1002010BD01202076A07710BD76
:1022900070B50546FFF7C4FF38B10C2805D00124FE
:1022A0002846FFF7BBFF10B10AE00024F8E72846F4
:1022B000FFF77FFF20B91CB105202876012070BDF3
:1022C000002070BD006802F056BD0000014661F3B9
:1022D0000F0044F6E61211FB02F244F6E61311FB7E
:1022E00023F10A4411444942CA13094BB2F5004F85
:1022F00001DB590C03E019468A4200DB11B261F39D
:102300001F40994203D148F2010161F31F40704719
:102310000080FFFF2DE9F0410546084600F06EF809
:102320000FFA85FC07B21CFB07F12E14051416FBEF
:1023300005F0081AC3134FF40040411E4242834285
:1023400001DB0B4604E0934201DA134600E01BB2C6
:10235000DFF838E063F30F04934201D16EF30F040A
:102360001CFB05F316FB07F52B44DB13834204DA51
:10237000934201DA114600E019B2204661F31F4092
:10238000914201D16EF31F40BDE8F0810180FFFF53
:1023900070B50446084600F031F814FB00F1221431
:1023A000031412FB03F63144CE13294666F30F01E2
:1023B00014FB03F312FB00F0C01AC01360F31F41BB
:1023C000084670BD031E17DD0022B3F5001F01DCB7
:1023D000802101E04FF4005193FBF1F0084400EB41
:1023E000D0704010884206D0002904D0521CD2B2CE
:1023F0000146062AF0D370470020704710B500F55B
:102400000041890911F44074C0F387121649C2F1E2
:10241000FF0316D0B4F5807F1CD0B4F5007F09D03F
:10242000B4F5407F1FD131F8133031F8121063F347
:102430001F400DE031F8122031F8131062F31F40F5
:102440000FE031F8122031F81310524262F31F40AE
:10245000494206E031F8133031F812105B4263F361
:102460001F4061F30F0010BD726300082DE9F047B3
:10247000B1F8008004464FF000094E465FEA0800BC
:1024800045D02068C289424501D209203DE08878C4
:1024900084F82100C87884F823000A7984F825207C
:1024A0004A7984F827208D1DA17F1044884234D8B2
:1024B000002717E06068B5F800A000EB87015046E0
:1024C00001F04CFC94F82300B84201D9022002E04C
:1024D000504601F032FCE168C8557F1C304486B29A
:1024E000FFB2AD1C94F8230094F827100844B842BA
:1024F000E0D8B11D8845C8D3A8EB0600801E6083D4
:10250000287884F8290010B104E0814602E02046D2
:1025100000F0F1F84846BDE8F0870A20F5E7000032
:1025200070B50446C07F94F82210884276D1002509
:10253000E577208BC0BB2068092204F114010368F1
:10254000984778B351496069096801600420208385
:1025500084F8205094F8290094F82A10884223D057
:1025600084F82A0094F8231084F8241094F82700A3
:1025700084F8280094F8212084F8222094F825205B
:1025800084F82620628BA28308448200D4E90110DB
:102590000C34FDF76FFFE07DE17E421874E8031014
:1025A000FDF723FF208BC0B3208BA18B884239D845
:1025B0006169014400200AE0A26852F820201288D4
:1025C00021F8022B228B921C401C2283C0B294F86B
:1025D00024208242F0D894F82610FE2922D294F8C2
:1025E000200088421BD184F82050D0B20EE0228B0C
:1025F00061691144A26852F8202012680A602269B9
:10260000218B125C401C11442183C0B294F8281025
:1026100094F8242011448142E9D803E033E0401CBF
:1026200084F82000208BA18B88422BD994F82600B7
:10263000FE2818D194F824000EE0228B6169114421
:10264000A26852F8202012680A602269218B125C6D
:10265000401C11442183C0B294F8281094F824201F
:1026600011448142E9D8218B6069084494F82A100A
:102670000180208B6169801C82B220680923466832
:10268000B047258370BD401CE07770BD9C060020DC
:1026900070B50446008B00282CD094F82600FE2844
:1026A00018D194F824000EE0228B61691144A268CD
:1026B00052F8202012680A602269218B125C401CAB
:1026C00011442183C0B294F8281094F824201144B6
:1026D0008142E9D8218B6069084494F82A1001806E
:1026E000208B6169801C82B2206809234568A84755
:1026F0000020208370BD70B50025044680F8295065
:10270000008B60B16169084494F82A100180208B25
:102710006169801C82B2206809234668B04724F8AA
:10272000185FA574E571A57270BD0000F8B5416829
:10273000044600230A88012722F007004FF4807C1A
:10274000B7EB102F02D1C0F3C4036046521E3D4DBB
:1027500002F0070205EB4215A289891C921E96B26F
:10276000A681616022684FF0000E9289A4F80EE005
:10277000521E12B2302845D00DDC182847D005DC97
:1027800020B3082827D0102854D129E020282CD0A5
:1027900028284FD12DE058280BD006DC38283FD010
:1027A000482841D0502845D103E0602801D0604539
:1027B00040D1022B3CD2244850F823507DB3A0686E
:1027C000009004F10E033046A84734E00420E08175
:1027D000A068077021E091B2204602F077F82AE065
:1027E00091B2204601F0E8FD25E02846FFF750FDB4
:1027F00013E02846FFF714FD06280ED12846FFF700
:1028000061FD0AE02846FFF70BFD0028EDD12846C0
:10281000FFF72BFD80F001000DE000200BE007E04A
:102820002846FFF7A2FCF8E72846FFF751FCF4E73B
:102830000D2000E00220E289A1688854E089401C54
:10284000E081F8BD480800204806002001480068E3
:10285000FFF7E6BC00000020044810B5007800280F
:1028600003D000F005F803F001F910BD5006002078
:1028700070B5184D287801282AD1688808B1401E03
:102880001AE002F099FF144C04F10C0120688268F0
:102890009047606078B120680A2204F1080103685B
:1028A000984740B12046FFF741FF2068E289A168C0
:1028B00044680A23A04701206880A88810B1A8882E
:1028C000401EA880E888002802D0E888401EE880E2
:1028D00070BD0000500600200C0600200148006872
:1028E000FFF7C3BC0000002001480068FFF7D0BC20
:1028F000000000202DE9F843070063D0DFF8C890FE
:10290000002189F8001009F10C01304808600E1F01
:102910002F48306000F0ACFD2E48FEF744F903F07C
:10292000D7FC2D4800F07AFA2C4802F033FC2C4CEE
:102930002A4A2949206802F008FA2A4803F08DFB48
:1029400030680090284B274A2848216802F096F802
:10295000274800F063FA274800F060FA264802F0A2
:1029600014F926482449264D0068C0E943512548FA
:1029700000F024FA06F108012348086001F0CEF9BE
:102980000020FEF7C7F94FF0010885F82480206881
:1029900002F0C8F92861206802F0C4F90014A88286
:1029A00033682A4619482168FFF748FC206802F07E
:1029B000C4F9014600221548FFF7C7FB13483860E9
:1029C00089F80080BDE8F88350060020BC04002090
:1029D000480200209805002018010020180300205C
:1029E00070050020E002002040040020D0010020FB
:1029F00044010020700100207C040020800500209C
:102A0000E01A002054040020A404002048080020FC
:102A100010B5B0F80031002220F81310B0F80031E2
:102A2000A0F802315B1C9BB2A0F80031802B02D3CE
:102A30000023A0F80031002330F913405B1C9BB247
:102A40002244802BF8D3D31702EB5362D211A0F8A3
:102A50000421084610BD00210A4620F81120491C17
:102A600089B28029F9D3A0F80021A0F8022170478B
:102A7000B0F904017047000070B58CB020216846A1
:102A8000FDF72AFD00242C48089409940A9429494A
:102A90000B94016001254FF480310561C0E90114F8
:102AA000047680F820402549C0E90A14C902C561AE
:102AB000C16080F830404561FEF742FB08B172B654
:102AC000FEE70A20CDE9000502944FF48010CDE91D
:102AD000064003268DF8154004968DF8144069468B
:102AE00015480394FEF7A8F908B172B6FEE70C206A
:102AF00000900220019069460F48FEF79DF908B149
:102B000072B6FEE70D20CDE9000669460A48FEF7D9
:102B100093F908B172B6FEE7CDE90A64089508A9F1
:102B200005480995FEF766FA002801D072B6FEE75F
:102B30000CB070BD00200140A00600200100000F75
:102B400000B587B014216846FDF7C6FC1648016839
:102B500041F080010160016801F080010591016888
:102B600041F004010160016801F004010591016870
:102B700041F001010160016801F001010591016866
:102B800041F0020101600068694600F00200059012
:102B9000102000904FF4041001900120029003488F
:102BA000FEF7A4FB07B000BD303802400000024031
:102BB00010B5FEF7CDFD4FF4FA61B0FBF1F0FEF772
:102BC000D4FF064800220168501EFEF7EFFC0448BF
:102BD000FFF790FEBDE8104003F044BB90060020D4
:102BE0000000002010B5012203212520FEF7DEFCA5
:102BF0002520FEF7CDFC002203213A20FEF7D6FC6B
:102C00003A20FEF7C5FC002202211220FEF7CEFC7E
:102C10001220FEF7BDFC002211461920FEF7C6FC6B
:102C20001920FEF7B5FC012204211820FEF7BEFC96
:102C30001820FEF7ADFC002203210A20FEF7B6FCA7
:102C4000BDE810400A20FEF7A3BC000030B597B0E5
:102C500014210FA8FDF740FC002414941C216846A1
:102C60001594FDF739FC202107A8FDF735FC3A48FB
:102C700038494FF48075C0E900142021816040F686
:102C8000A611C0E903150121C0E90514FEF7EEFF06
:102C900008B172B6FEE73048FFF7CEF808B172B659
:102CA000FEE706200F90102010900FA92A48FFF78A
:102CB000F1F808B172B6FEE7149414A926481594E9
:102CC000FEF796FF08B172B6FEE76020CDE900047A
:102CD0000294039404940594002269461E480694C5
:102CE000FFF744F808B172B6FEE7042269461A48B5
:102CF000FFF73CF808B172B6FEE7082269461648AD
:102D0000FFF734F808B172B6FEE77020009040F685
:102D1000A51001900C2269460F48FFF727F808B16B
:102D200072B6FEE74FF4006007904010CDE9080549
:102D30002120CDE90A040C9407A907480E94FEF758
:102D40002CFF08B172B6FEE70348FEF7D1FF17B0BB
:102D500030BD000000000140E806002010B5044628
:102D6000007808B1002014E094F8260000F0A8FED6
:102D70000146A0F57F40FF3808D0208B228A034609
:102D8000401E02FB0011B1FBF3F02082204600F050
:102D900027F8E08280B210BD0021018270470178DF
:102DA00011B1808A00B27047018A026A8A1AB0F9AA
:102DB0001E10808C514300EB2140F3E710B5044610
:102DC000007820B10020E082608A208210BD201DA2
:102DD00000F0D4FE84F826002046FFF7DDFF10BD8A
:102DE000018A428B914201D908207047828B91421F
:102DF00001D200207047C08A7047B0F922007047A6
:102E0000C08C7047B0F906007047408B7047C08B8C
:102E10007047B0F904007047808B7047018881804B
:102E20004188C180018C41840021816081627047AA
:102E300081607047418470470122C1848A40828446
:102E40007047C180704770B501248C40C18305462E
:102E50004483C4EBC43100F00FF8A4EBC43128461E
:102E600000F008F870BD81807047012281838A409C
:102E70000283704701617047C1607047F0B5B0F9D7
:102E800004600025B0F91430B0F91640B0F90620FE
:102E90004E4352B187684A43B91808D5002F0BDD5D
:102EA000002A09DD6FF0004106E000210DE0002F4F
:102EB00002DA002A00DA0F49C2688A4202DB02699C
:102EC0008A4202DD1146826000E08160827F077FD6
:102ED00041FA02F23E4132449A4202DD9D1A1A46FC
:102EE00003E0A24201DAA51A22462944816010B209
:102EF000F0BD00000100008070B50546D0F80C015F
:102F0000C168D0F8160011FB00F211FB3020C11788
:102F100000EB11400414D5F8100102F0F3FFD5F8CE
:102F2000081148434FF4167190FBF1F0444304EB51
:102F3000440040000A2190FBF1F1C81701EB10405A
:102F400001142846BDE87040FFF762BDC16908471B
:102F500070B50446002511B1012909D013E000F035
:102F600003F9B4F8660008E021692046884709E0C3
:102F7000B4F8520030B1401E80B2A4F852000028CC
:102F8000F2D000E00125284670BD4268104730B4F9
:102F9000B0F840200BB253430A14B0F864104A430F
:102FA00052005242D418A2EB030304EBD47403EB97
:102FB000D37364104FEA63034FEA91014DD5002BA0
:102FC00017DA042280F87020E21AD51702EB953246
:102FD00001EBA241DA1703EBD23201EB6243E217B5
:102FE00004EBD232A1EB6244A0F84A40A0F84C10A6
:102FF00066E0002A17DC032480F87040D41AE51735
:1030000004EB953401EBA441DC1703EBD433D41764
:1030100001EB634302EBD432A3EB6244A0F84A40D5
:10302000A0F84C3016E0022380F87030A31ADD17A8
:1030300003EB953301EBA341E31704EBD333A1EB8F
:103040006344D31702EBD33204EB6243A0F84A3057
:10305000A0F84C40A0F84E104EE0002B17DB0122E8
:1030600080F87020E21AD51702EB953201EBA241ED
:10307000DA1703EBD23201EB6243E21704EBD232F0
:10308000A0F84A30A1EB6244A0F84C1032E0002ACC
:1030900019DC052380F87030A31ADD1703EB953394
:1030A00001EBA341E31704EBD333A1EB6344D31744
:1030B00002EBD332A0F84A1004EB6243A0F84C4074
:1030C000A0F84E3018E0002480F87040D41AE517BC
:1030D00004EB953401EBA441DC1703EBD43301EB93
:1030E0006343D41702EBD432A0F84A10A3EB624436
:1030F000A0F84C30A0F84E40002900DC002189B235
:10310000A0F84210002B00DC00239AB2A0F8442063
:10311000002C00DC0024A3B2A0F84630B0F86240D6
:10312000012C1ED1B0F95440002CB0F8684001DDEC
:10313000214400E0091BA0F84210B0F95610002904
:10314000A1B201DD114400E0511AA0F84410B0F919
:1031500058100029A1B201DD194400E0591AA0F865
:103160004610816930BC084781680847C168084734
:1031700090F89210A9B9D0F8941091F87420022A0E
:103180000FD18A68898A09049161D0F89420D168A6
:10319000128B12048A61D0F894201169928B120468
:1031A0008A61012180F890106E3070472DE9FC474C
:1031B0000446D0F89400002640F25557456894F82C
:1031C00074004FF00408002850D160680090A06996
:1031D0000190A667E667C4F8806084F88F60286A6B
:1031E000B8432862364860603648A06184F88E8013
:1031F00084F87080204600F0AFFBD4F8940004F10E
:103200008F0304F1480190F873209A4689462846B6
:1032100003F08CF8204600F06FFB84F88F602A489A
:10322000606084F88E6084F87060204600F094FB43
:10323000D4F894005346494690F87320284603F08A
:1032400075F8204600F058FBA06FC008A067E06F3B
:10325000C008E067D4F88000C008C4F880000120EE
:1032600084F87400009860600198A06101212846EC
:1032700002F04CFF1021284602F048FF4FF48079FD
:103280004946284602F042FF34F88C0F68632088D4
:10329000A8632088E8630121284602F061FF10211D
:1032A000284602F05DFF4946284602F059FF286A89
:1032B0003843286204F81C8CA671BDE8FC87000026
:1032C000DD3300086738000831340008826F0A6077
:1032D000C26F4A60D0F8800088607047F0B5D0F8BF
:1032E00094205268136A23F48053136290F870405C
:1032F0003822D0F8943002EB84029A5815684FF6C1
:10330000FF7202EA450C502505EB84055B591B68EA
:10331000314E02EA4305721C7742530C062C50D200
:10332000DFE804F0163333030316846FA4EB0C04B8
:10333000B44201DC0A8004E0BC4201DB0B8000E007
:103340000C80C46F641BB44238DDBC4232DA37E013
:10335000C46FA4EB0C04B44201DC4A8004E0BC421C
:1033600001DB4B8000E04C80D0F88040641BB1F959
:1033700002502C446442BC4201DB0B8021E0B44289
:1033800001DC0A801DE00C801BE0846FA4EB0C04C0
:10339000B44201DC0A8004E0BC4201DB0B8000E0A7
:1033A0000C80D0F88040641BB1F900502C4464427A
:1033B000BC4201DB4B8004E0B44201DC4A8000E007
:1033C0004C800A8820F8542F4A8842800A8849880D
:1033D000114449428180F0BD0080FFFF10B5D0F854
:1033E00094205268136A23F48053136290F88F205C
:1033F000102A19D290F88E303824D0F8942004EB9B
:103400008303D258126850F8783F50241A4402605F
:10341000837DC26904EB8303D258126843681A445F
:103420004260C27D521CC27500200880488010BDD9
:1034300010B5D0F894205268136A23F480531362B5
:1034400090F88F20102A0FD290F88E305024D0F8A8
:10345000942004EB8303D258126850F8803F1A443A
:103460000260C27B521CC27300200880488010BDDD
:1034700030B5D0F8941006C94B6823F020034B6098
:103480006FF002030B604B6823F080034B606FF01A
:1034900004030B60146824F001041460194CA24268
:1034A00004D1194CE56845F00105E5606FF0800432
:1034B0001461D0F8944094F872401CB1D46844F080
:1034C0008004D460146A40F255552C4314628A6813
:1034D00042F001028A60CA6A22F47002CA620B607A
:1034E0004A6842F080024A604FF4801240F8882F08
:1034F0008A6B22F440128A630021017220F8261C94
:1035000030BD000000000140002004E090F8902051
:103510000021012A03D14021002280F89020084692
:103520007047000070B50546D0F8940095F8731008
:103530004468012975D12168C906FCD52168C906EE
:10354000FCD490F873002063602201212046FEF72E
:1035500091FD206A40F001002062D5F8940090F8B7
:103560007400012802D0022804D007E0206A40F04D
:10357000040002E0206A20F004002062B5F88C000C
:1035800040086063602210212046FEF773FD206A28
:1035900040F010002062D5F8940090F874000128E3
:1035A00002D0022804D007E0206A40F0400002E088
:1035B000206A20F040002062B5F88C004008A0632B
:1035C00060224FF480712046FEF754FD206A40F4DB
:1035D00080702062D5F8940090F87400012802D021
:1035E000022804D007E0206A40F4806002E0206AEC
:1035F00020F480602062B5F88C004008E063D5F8C4
:1036000094000068416821F4805141600548686079
:10361000054868610548E8600548A860002085F80D
:10362000730070BDDD320008373A000859390008D0
:10363000F938000870B50546D0F89400446895F84C
:103640007300E8BB602201212046FEF713FD206ACB
:1036500040F001002062206A20F004002062002077
:103660006063D5F8940090F87400012802D0022815
:103670000DD019E0102211462046FEF7FBFC206A0F
:1036800020F010002062206A40F040000BE0202271
:1036900010212046FEF7EEFC206A40F01000206268
:1036A000206A20F04000206270224FF48071204692
:1036B000FEF7E0FC206A20F480702062206A00E0BF
:1036C00002E020F480602062054868600548686177
:1036D0000548E8600548A860012085F8730070BDC2
:1036E000353700081D38000875370008F93800081C
:1036F00010B50446D0F894004268B4F88C004843F2
:10370000010CA4F84210032184F87010B4F84200B0
:1037100050634FF480511046FEF7A5FC00B1012024
:10372000B4F84810012903D101200021A4F8481061
:1037300010BD000010B550F8942F5268136A23F49E
:103740008053136250F824295024037804EB830338
:10375000D2581268C068524200EB4200044A9042BC
:1037600002DD520C904200DB10460880488010BDFC
:103770000180FFFF70B5D0F89420D2E9004100220B
:1037800080F871200A68D206FCD40A68D206FCD5FB
:1037900001224A63B0F88C20521F0A646FF00103C3
:1037A0000B610A6912F0010FFBD00B614A6C42F405
:1037B00080624A644A6C42F400424A64D0F8942021
:1037C00092F87450022D20D10D6A40F255563542C0
:1037D00095680CD05269AA6150F8945FEA68AD69A7
:1037E000956100680269808B000490610DE0928A07
:1037F0001204AA6150F8945FEA682D8B2D0495613C
:1038000002681069928B120482616FF004002060DC
:103810000B61C86840F00100C86070BDD0F894101A
:10382000002249684A63921E0A610B6913F0010F76
:10383000FBD00A614A6C42F400424A64D0F894100A
:1038400091F87420022A0DD18A684969916150F873
:10385000942FD168128B12048A6101680869898BE0
:1038600009048161704710B54FF48011C0F88810C9
:1038700090F88E1080F87010B0F88C10491E89B244
:1038800000F001F910BD70B5D0F89460B0F84A109E
:10389000B0F88C20B6F86850531AB0F84C409BB280
:1038A000AB4204D9042180F8701091B214E00C1BD3
:1038B000A4B2B4EB430F03D9B6F86A20891A0CE01E
:1038C000294489B28A4209D84FF40012C0F88820EE
:1038D000B0F88C20C1EB4201491E89B200F0D3F848
:1038E00070BD0A6882674A68C2678968C0F880103C
:1038F000012180F874107047D0F894104968CA68A4
:1039000022F00102CA60002280F871204A6C22F481
:1039100000424A6490F89220012A14D0D0F89420F2
:1039200092F87430022B0ED19368928A12049A6135
:1039300050F8943FDA681B8B1B049361026810698E
:10394000928B120482616FF0010008610A6912F023
:10395000010FFBD00861704730B5D0F894100022F9
:10396000496880F87120B0F88C2052084A63B0F89A
:103970008C2052088A63B0F88C205208CA63B0F8D1
:103980008C20521F0A646FF001030B610A6912F068
:10399000010FFBD00B614A6C42F480624A644A6CAE
:1039A00042F400424A64D0F8942092F87440022C09
:1039B0001ED10C6A40F255552C4294680AD05269C7
:1039C000A26150F8944FE268A4699461026810699A
:1039D000D2690CE0928A1204A26150F8944FE26816
:1039E000248B2404946102681069928B1204826112
:1039F0000B61C86840F00100C86030BD30B550F8B8
:103A0000941F06C98B6823F440138B6050F8243947
:103A1000202510F8184B05EB84041B598B63136A9F
:103A200043F48053136202688B6813438B60E9038D
:103A300040F81A1930BDD0F894100122496880F876
:103A40007120D21E0A6100234B638B63CB630B6929
:103A500013F0010FFBD00A614A6C42F400424A6441
:103A6000D0F8941091F87420022A0BD18A68496921
:103A7000916150F8942FD16892698A610068016958
:103A8000C0698861704710B50446D0F89400B4F856
:103A9000421040684163B4F844108163B4F84610A2
:103AA000C1634FF48051FEF7DEFA00B10120B4F893
:103AB0004810012903D101200021A4F8481010BDAD
:103AC00070B51C494FF4007451F820201568127924
:103AD00002EB4203092A03D8260446EA035302E014
:103AE000154E06EB03531A434FF4407393FAA3F3B6
:103AF000B3FA83F3DC4005EB8403DC6A02F01F02B7
:103B000024F01F041443DC6251F820201268D36CA7
:103B10000123520102F18442C2F8783151F82000A9
:103B200000680168C1F340010029FAD0C06C80B27E
:103B300070BD0000081B0020000020FE70B50D4C79
:103B40002078012814D16078FFF7BAFF6080014621
:103B500002202070084A607852F83030002B07D0DD
:103B6000002502EBC00225705268BDE8704018477E
:103B700070BD000064060020181B0020F0B5FF2374
:103B8000384C002254F82210E1B10D790679B54283
:103B900005D109680568A94201D113460422521CC7
:103BA000D2B2042AEED3042B5AD22E4A002110326C
:103BB00044F8230042F8331001688A6812F0010FBC
:103BC00004D019E0042BEAD91346E8E74A6822F04A
:103BD00020024A6001686FF002020A6001684A68C8
:103BE00022F080024A6001686FF004020A600168F6
:103BF0008A6842F001028A600168CA6A22F470028F
:103C0000CA62017904684FF00075092901EB41028D
:103C100002D845EA025202E0134E06EB025211436B
:103C2000826895FAA5F501F00070B5FA85F5E840CF
:103C300004EB8000C4684FF0F87595FAA5F601F022
:103C4000F871B6FA86F621FA06F60727B74095FA14
:103C5000A5F5B5FA85F5E940BC438A401443C46034
:103C60001846F0BD081B0020000020FE10B5D0E96A
:103C700002134269012B04D90469A3F10103214411
:103C800005E005D141684FF0000301FB02F1C3607C
:103C9000816091FBF2F010BD2DE9F05F04460E4605
:103CA000806861695FEA020A90FBF1F84FF0010B4E
:103CB00012D0A6EB0800814602F08CFA0746404677
:103CC00002F088FA0546304602F084FAAF420CD280
:103CD00087420DD238460BE0304602F07BFA606135
:103CE0007043A0600020E06014E0854200D22846C6
:103CF00000FB08F16061C4E9016121684FF47A7248
:103D000001FB0AF1B1FBF2F1491C09FB00F292FB45
:103D1000F1F0E16020615846BDE8F09F002181602C
:103D20004160C1600161012141617047014600208D
:103D3000C968002900D101207047C0F3C200C0004B
:103D4000082805D0102805D0182805D00020704775
:103D500001207047022070470420704730B50246AA
:103D600022F00704C2F3C2020020D200304D102A14
:103D70003AD1304AB4F51D6F526848D01ADCB4F518
:103D80000D6F3CD00CDCB4F5FA6F30D0B4F5016F98
:103D90002FD0B4F5056F2ED0B4F5096F24D12CE0E7
:103DA000B4F5116F2DD0B4F5156F2CD0B4F5196F93
:103DB0001AD12AE01E4B0833B4F5356F1B6830D09A
:103DC00009DCB4F5216F24D0B4F5256F23D0B4F508
:103DD000296F09D121E0B4F5396F20D0B4F5456FD2
:103DE00022D0B4F5496F21D005200D6030BD0A60A6
:103DF00030BD921CFBE7121DF9E7921DF7E70C326C
:103E0000F5E70E32F3E71032F1E71232EFE7163240
:103E1000EDE71832EBE71A32E9E71C32E7E70C333B
:103E200000E01B1D0B6030BD7033FBE77233F9E718
:103E30006C060020480800202DE9FE4F904620F037
:103E40000702C0F3C2004FEAC00CF9480C46002537
:103E5000D0F800E0F848F74E011F0068AA464FF07E
:103E6000040B4FF00A09BCF1180F77D006DCBCF147
:103E7000080F0ED0BCF1100F07D124E0EF4FBCF1BA
:103E8000200F6CD0BCF1280F6AD007252846BDE86A
:103E9000FE8F002B77D0482A06D0882A08D0C82A5F
:103EA0000BD005250121BCE13046FEF7B9F902E04F
:103EB0003046FEF77CF92070F4E708680028FAD055
:103EC00000F0CCFDF7E7022B5DD3DB4BDC4F1B1D75
:103ED000191FDFF870C309683F68DCF800C01B6871
:103EE0003431B2F5196F70D055DCB2F58A6F6DD0F0
:103EF00025DCB2F5047F6AD00FDCB2F5887F67D08D
:103F000004DC902A70D0D02A6FD1AEE0B2F5C87F21
:103F10006CD0B2F5E87F68D1B0E0B2F5447F7DD0D7
:103F200006DCB2F5247F7AD0B2F5347F5DD1AEE005
:103F3000B2F5547F74D0B2F5647F56D10DE1B2F57D
:103F4000016F6ED014DCB2F5BA6F6BD009DCB2F53C
:103F5000926F68D0B2F5B26F47D19EE028E155E18B
:103F600086E1B2F5C26F72D0B2F5FA6F78D1A5E0F2
:103F7000B2F50D6F6CD007DCB2F5056F69D0B2F504
:103F8000096F6DD1A8E03FE1B2F5116F6FD0B2F5C6
:103F9000156F65D1ACE0B2F5696F62D02EDCB2F579
:103FA000396F6FD015DCB2F5256F6CD006DCB2F539
:103FB0001D6F69D0B2F5216F52D1A6E0B2F5296F1D
:103FC0006FD0B2F5356F4BD1AFE096E0CCE057E063
:103FD00050E0B2F5456F6FD009DCB2F53D6F6CD0A3
:103FE000B2F5416F3CD1ABE03DE039E044E0B2F5E1
:103FF000496F6FD0B2F5656F32D132E041F2905621
:10400000901BB24267D01ADC41F2D041A2EB010012
:104010008A4271D00EDC02F53B6205E039E034E003
:1040200098E04FE03EE0A3E0B2F5005271D0402AA4
:1040300016D1A3E040286DD0802811D1A4E0C0287B
:1040400069D007DC402867D0802809D1A2E02EE0A3
:1040500046E03BE0B0F5507F70D0B0F5607F6ED0A9
:1040600005250221DDE0184683E018467DE03BE0AF
:104070002080F6E718460DE038467AE0384674E0CE
:10408000384607E054E048E03BE0604671E06046B7
:104090006BE06046FEF7B1FEEAE7704601F032FFE2
:1040A000E6E73EE068480068FEF779FEE0E767482B
:1040B0000068FEF7DDFCDBE745E03CE03046FEF75C
:1040C0007FF8D5E73046FEF77BF841E03046FEF753
:1040D0007AF8CDE73AE059E03046FEF774F837E079
:1040E0003046FEF78AF8C3E73046FEF786F82FE041
:1040F0003046FEF785F8BBE742E03046FEF780F831
:1041000026E03046FEF796F8B2E73046FEF792F822
:104110001EE031E036E03FE03AE03046FEF786F858
:10412000A6E73046FEF782F812E000F03CFD9FE77C
:1041300000F03FFD9CE701F018F899E730E033E02C
:1041400001F013F804E001F004F891E701F001F840
:1041500000148DE701AA694601E06A4601A901F051
:1041600013F8BDF8000083E70846FEF74BFE7FE733
:104170000846FEF74EFE7BE7184616E0184610E0AC
:1041800018460AE0604610E060460AE0604604E037
:1041900038460AE0384604E03846FEF731FE67E765
:1041A0000846FEF734FE63E70846FEF735FE5FE794
:1041B000042B29D3982A18D004DC182A0BD0582AAB
:1041C00005D10CE0D82A19D0B2F58C7F19D005257D
:1041D000A8F800B05AE63046FDF7EDFF03E03046A0
:1041E000FDF7DDFF04E02060F2E73046FEF713F84C
:1041F000C0EB0010810091FBF9F0F4E700F0B2FF92
:10420000F1E700F0BEFFEEE708253FE62146202A51
:104210000AD0602A1ED0A02A22D0E02A24D0052568
:104220000021A8F8001031E64246094814E00000D9
:10423000F465000848080020740600208406002069
:1042400074050020780500207C05002080050020F2
:10425000216600084246534800F0D4F8054615E6AA
:10426000514842460068F7E7386842462430F3E791
:10427000A01CB2F5F47F51D00FDC4FF00E01A82A3C
:104280002AD004DC282A14D0682A0CD11DE0E82AA0
:1042900027D0B2F5D47F06D12CE0B2F50A7F4BD0FF
:1042A000B2F55A7F6ED005252088801CA8F8000042
:1042B000ECE5A4F800900C2B42D33C490A6802605C
:1042C0004A68426009890181EEE73C2121803E2B4A
:1042D00036D33C2239680AE02180102B30DB344988
:1042E00003E02180102B2BD332490E220968FCF702
:1042F0007CF8D9E7074600F1040A3046FDF785FF50
:10430000C0EB0010810091FBF9F038603046FDF7FA
:104310007AFFAAF8000006202080C5E7074600F1D2
:104320000209A4F800B03046FDF772FF388030462D
:10433000FDF769FF014632E0282020802A2B01D2B8
:104340000825B1E700268B464FEA09075BF82A00EB
:104350006A46314600F085FBBDF9022004EBC60039
:10436000C2EB0212920092FBF7F20221761C0A5075
:10437000BDF80420C280BDF80010F6B20181052E00
:10438000E4D391E7074600F10209A4F800B03046F3
:10439000FDF736FF38803046FDF732FF0114A9F8EB
:1043A000001081E7006600087C06002039660008DE
:1043B00088060020800600202DE9F84304460120ED
:1043C000D4E9015290460022ADF80020A6890FB230
:1043D000E28113E02846B61EB6B2AD1C00883B460B
:1043E0006A464146FFF728FD002809D1BDF80010B4
:1043F000E28988440A44791AE2810FB2002EE9D199
:10440000BDE8F883F0B5002501260C46168005E0CE
:1044100004F8016B1688761C1680401C90F9006029
:1044200026B117889F42F3DB062501E000200870C3
:104430002846F0BD2DE9FE4F164602460024C2F381
:10444000C202FC4DD20020F00700A246A946274632
:104450004FF03C0C182A72D004DC082A0BD0102A2A
:1044600004D129E0202A6BD0282A6AD0072437807B
:104470002046BDE8FE8F482806D0882806D0C828E8
:1044800002D005240120EEE00424FBE7087850B1B7
:104490000128F7D12846FDF7BEFE01460022484616
:1044A000FDF753FEEEE72846FDF7BCFE014600226D
:1044B0004846FDF751FEE5E7DF4A0D88111FDFF89A
:1044C0007CC3DFF87C830B68DCF800C01F46D8F89B
:1044D000008012683433B0F5216F44D05DDCB0F554
:1044E000B26F40D02EDCB0F5247F73D012DCB0F573
:1044F000C87F70D007DC90286ED0D0286DD0B0F582
:10450000887F6BD1B9E0B0F5E87F68D0B0F5047F63
:1045100064D1BFE0B0F5647F74D009DCB0F5347FBE
:1045200071D0B0F5447F6FD0B0F5547F56D1D1E053
:10453000B0F58A6F69D0B0F5926F4FD1EAE018E11B
:104540003CE141E1B0F5096F0DD014DCB0F5FA6F34
:1045500009D009DCB0F5BA6F05D0B0F5C26F02D052
:10456000B0F5F26F7DD1A3E0B0F5016F02D0B0F5E8
:10457000056F76D19CE0B0F5156F76D006DCB0F50E
:104580000D6F02D0B0F5116F6BD191E0B0F5196FDE
:104590006CD0B0F51D6F64D18AE0B0F56D6F11D0AD
:1045A00034DCB0F53D6F0DD01ADCB0F5316F7FD043
:1045B00009DCB0F5256F7BD0B0F5296F78D0B0F568
:1045C0002D6F4ED174E0B0F5356F71D0B0F5396F05
:1045D00047D16DE063E053E049E04BE041E054E057
:1045E000B0F5496F64D006DCB0F5416F60D0B0F52E
:1045F000456F36D15CE0B0F5656F33D0B0F5696FCB
:104600002FD12FE072E04DE04FE080E041F2905773
:10461000C11BB84278D016DC41F2D043A0EB0301B5
:10462000984272D00ADCB0F5716F41D000F53B6062
:10463000B0F5005071D0402813D174E0402978D0F3
:1046400080290ED17CE0C0296BD004DC402969D0E0
:10465000802906D181E0B1F5507F6FD0B1F5607F40
:104660006DD005240220308002E723E028E029B243
:10467000104607E029B2104609E029B210460BE0C7
:1046800029B26046FEF7EFFBECE729B26046FEF781
:10469000D8FBE7E729B26046FEF7CCFBE2E729B298
:1046A0004046EFE729B24046F1E729B24046F3E73A
:1046B0000424D7E74846FDF7A3FD65F30F0004E0A7
:1046C0004846FDF79DFD65F31F4001464846FDF74E
:1046D000C2FDC7E788466A4601A9384600F054FD86
:1046E000BDF9002029B2D8F800000AE0884601AAE6
:1046F0006946384600F048FD2AB2BDF90010D8F8E6
:10470000000000F0CAFDADE71FE00FE005E018462D
:1047100029B2BCE7184629B2B4E7294610460AE098
:1047200007E01DE016E0294610460BE0294610463A
:104730000DE029464046FEF798FB93E713E015E0AD
:1047400029464046FEF77FFB8CE729464046FEF7A8
:1047500073FB87E729466046EDE729466046F1E7A7
:1047600029466046F3E718462946EBE718462946EE
:10477000E1E70968D82813D006DC182810D058289B
:104780000ED0982809D10DE0B0F58C7F08D0B0F597
:10479000AC7F05D0B0F5CC7F02D00524042062E7C1
:1047A0000424FBE708B200EB8000400090FBFCF023
:1047B00001B200222846FDF7C8FCEFE708460424B2
:1047C0003246FFF71FFE53E631F8022B951C1FFA05
:1047D00085F8A6F800800D46984501DD37803EE05B
:1047E000B0F5D47F19D008DC282814D0682812D05E
:1047F000A82810D0E8280CD10DE0B0F5F47F21D026
:10480000B0F50A7F25D0B0F55A7F51D0B0F5A56F2D
:1048100049D005242CE604242AE628688A8800EB7F
:104820008000400090FBFCF001B24846FDF78DFC93
:104830001EE60000480800207806002074050020CD
:104840007805002028888A8801B24846FDF784FC54
:104850000EE6C2F3C407500701D1052F01D90A247F
:1048600006E60026E046DFF85C9019E035F83600F1
:104870006A4600B200EB8000410091FBF8F0ADF811
:10488000020005EBC6008188ADF80410C088ADF8C1
:10489000000059F82A00314600F018F9761CF6B2EB
:1048A000BE42E3D3E4E50848FDF7E0FD0446DFE55A
:1048B000288860F30F01688860F31F414846FDF7C0
:1048C000CAFCD5E5700600201C0600202DE9F84F33
:1048D00005460024D5E90107B5F90C20ADF80040E4
:1048E0008B46A2462646EC8129E0921E12B200F1C8
:1048F0000208761C91461346F6B200886A46414685
:10490000FFF798FDBDF800300146A9EB030002B2A5
:1049100008EB0300012E00D1AAB1BBF1000F14D0A7
:1049200007F8011BEB895B1CEB81ABF101031FFA5C
:1049300083FB21B1012407290BD00A2909D0002AC1
:10494000D3DC24B105E00C46FBE7082401E0A5F820
:104950000EA02046BDE8F88F2DE9F047D0E91A896E
:10496000C180002780F8557080F8587080F8537027
:10497000044600F10C0580F854700E46484601F0DC
:1049800056FB0021404600F0F0F9608810FB06F06D
:1049900001B2484601F0A2FB00221146404600F059
:1049A00071F92A88A88810FB06F001B2404600F091
:1049B00069F92A88688810FB06F001B2484601F0C0
:1049C00050FB2888218848434FF47A71B0FBF1F0FE
:1049D000401CA080A868A06084F85770BDE8F087EC
:1049E00070B504468088012520B1401E0004000CEB
:1049F000A08027D1A06820B38188E28811FB02F152
:104A0000028809B2A06E00F03DF9A068E2884188F2
:104A100011FB02F1028809B2E06E01F022FBA168ED
:104A20002288088850434FF47A72B0FBF2F0401CA1
:104A3000A0808868A06094F85800401C84F8580052
:104A400000E00025284670BD0146002091F858205E
:104A500091F849108A4200D30120704790F848002D
:104A60007047034601EB410103EB810101200B8AF2
:104A70009380CB89538089891180704770B500F18C
:104A8000680C049E8CE84E00002480F8544000F12D
:104A90000C05214680F8554002E0AD68641CE4B284
:104AA0000DB1052CF9D3002C0FD004EB440200EB20
:104AB0008202916080F848400188642251434FF49B
:104AC0007A72B1FBF2F180F8561070BD10B5034652
:104AD00001EB410103EB810194880C825388CB8167
:104AE000128801208A8110BD70B5044690F8260016
:104AF000FEF7E6FF0146A0F57F40FF381FD094F88F
:104B00002520206A20F81210238B00221046DDB2E7
:104B100005E0266A36F81060401C3244C0B2854277
:104B2000F7D8B2FBF3F0E080A18094F825005B1E7B
:104B3000984201D2401C00E0002084F82500204665
:104B400000F002F8208170BDC188428B914201D9EA
:104B500002207047808B814201D2042070470020E0
:104B60007047418B828B11444A08002104E0036A9C
:104B700023F81120491C89B2038B8B42F7D882801D
:104B8000C280002180F82510704710B504460C3013
:104B9000FEF7F4FF84F826002046FFF7E2FF10BD81
:104BA000B0F90C007047B0F904007047B0F910007C
:104BB0007047B0F90C10B0F91400C1EBC13191FB92
:104BC000F0F000B2704770B5B1F900600125C4780B
:104BD00000230278002E02DA714289B200E00988CF
:104BE000868A8E4200D20123C68A8E4200D90123D2
:104BF000B0F91210002902DA494289B200E0418A74
:104C0000068B8E4200D323B1A24205D2521CD2B2EF
:104C100002E0A24200D20022A24200D1002502708E
:104C2000284670BD70B50446007840B16568E168FB
:104C3000012906D9A269A1F10101154407E0A5687F
:104C4000F5E705D161884FEA01454FF00001E160C9
:104C5000012802D02814A56070BD2E146069FFF7EA
:104C60009FFF301A01B22069FEF708F90104C4E978
:104C7000015170BD0178012903D100690021FEF7BF
:104C8000D7B870472DE9F0410446007817460D4625
:104C9000012648B160680114E08BA84215DBB4F925
:104CA0002400A84211DC12E0204600F04BF8014637
:104CB000E08CA84205DAB4F928000026A84204DCFA
:104CC00023E0B4F92800A84208DD00261DE0208C6E
:104CD000A84203DDB4F92200A842F6DB6FB165807B
:104CE000A08B4FF47A727843B0FBF2F0401C691A43
:104CF0000904E06091FBF0F006E021782804012926
:104D000006D0A0600020E060A0613046BDE8F081E0
:104D10006060F7E710B504464069FFF741FF000403
:104D2000606010BD0146C28D098E62F30F0061F311
:104D30001F407047406800147047B0F92C0070475E
:104D400040697047806800147047C0E9041290F809
:104D50002A100170818D09044160C18D09048160B0
:104D600000214180C1608161704701700021C160F4
:104D70007047416170470021C160816170470068E0
:104D800000213430FEF754B830B590F8F44090F874
:104D90000F11E3B200EB430390F80E21B3F9743026
:104DA000D0F80851511A2B4410D02144914200DB15
:104DB000891A00EB4101B1F9741090F82021591AB9
:104DC00041FA02F2C281C0F8081130BDB0F90C11ED
:104DD000F3E72DE9F34F0025044681B02A46A946A2
:104DE0002E46AA462F4690F80E01294606E004EB0F
:104DF0004103491CB3F97430C9B21D448142F6D352
:104E000070B195FBF0F5002108E004EB4103B3F924
:104E100074305B1B03FB0322491CC9B28142F4D3EB
:104E200092FBF0F1009105FB05F1B4F810214FF071
:104E3000000BA2FB01084FEAE17C0BFB018102FBA6
:104E40000C1180225B46FBF7ACFA0099814201DA33
:104E50004FF0010A608BA17868434143E06991FB00
:104E6000F0F0617890FBF1F002990880A08184F85D
:104E7000F5A094F804215146012A20D0012794F886
:104E8000F800A8B17842014210D194F8F700401C14
:104E9000C0B284F8F70094F81711884208D384F858
:104EA000F7B0E07820700020BDE8FE8F84F8F7B0FE
:104EB000029903B02046BDE8F04FFFF784BE0028FA
:104EC00000DA4042B4F81A21824220DDB4F87020A2
:104ED00012FB02F3B4F8722012FB0239B4F9142069
:104EE000C0EBC03090FBF2F294F819015043C317A5
:104EF00000EB936086115643F01706EB906094F830
:104F00001821801100FB1260814500DD012784F823
:104F1000F970C4E93F96B2E72DE9F04F93B0040071
:104F200009D041B1B4F92E20A56EC2EBC230854242
:104F300005DDA06608E0002013B0BDE8F08FA2EB0D
:104F4000C2339D4200DCA366A56EB4F81E31AA46AA
:104F50001D41E66E2DB2864205DCA2EBC2308642D0
:104F600001DDE06E00E0E06605901841B4F92C2008
:104F700006B2236EC2EBC230834201DD206604E03C
:104F8000A2EBC237BB4200DC2766636E834203DCC0
:104F9000A2EBC230834200DC6066206E94F81CC134
:104FA00002468B8840FA0CF0C71A636EB1F9008094
:104FB00043FA0CF99E460B89B1F806C09B4603FBE9
:104FC00008F3B1F902104FEA23480BFB01F319145F
:104FD0000C91218CA9EB0C0C11FB00F3D01A638C03
:104FE00013FB07F20F93238D104413FB08F20E936B
:104FF000A38C104413FB05F2801A0B930290E38CF0
:105000009B4613FB07F094F832800AEB0003B4F9D7
:105010002A20C24646FA08F002FB00F8B4F90E0056
:1050200000FB083311FB09F103930F9BAEEB010169
:1050300013FB0CF3CF180E9B0C9913FB01F10B9B88
:10504000394413FB06F3CF1A1BFB0CF1059BA4F8A4
:105050007050194445FA0AF35A4300FB1218A4F899
:10506000726094F9241129B9002801DB012101E0C3
:105070004FF0FF3115FB01F516FB01F04642B4F984
:105080000400FDF7BBF910FB25F110FB06F040F31F
:10509000CF3041F3CF31411A04F13400FDF7EEFE79
:1050A000208294F8F41094F80E21491CC9B28A4267
:1050B00000D1002104EB410232F8745FA4F80C51D6
:1050C000108084F8F410A188084400B2A0800299EE
:1050D00021660399C4E91971C4F86C802CE730B4D7
:1050E0000021016641668166C1668180C18180F8C8
:1050F000F61080F8F71080F8F81080F8F910C0F872
:10510000FC10C0F80011C0F8081180F8221180F8D6
:10511000231190F80E31002205E000EB4204521CEE
:10512000A4F87410D2B29A42F7D3024600F8F41FE2
:10513000018330BC002102F13400FDF779BE006824
:10514000012180F8221170470068012180F82311A5
:105150007047014631F8702F498862F30F0061F300
:105160001F407047D0F80001704790F81C21036E73
:10517000406E134163F30F01104160F31F41084675
:105180007047D0F8FC007047438C0B80C08C1080B7
:105190007047000070B5044690F8160184F8F600D8
:1051A000012084F8040100256586B4F92E200F49FA
:1051B00091FBF2F109B206E001EBD171638E491067
:1051C00040005B1C63860029F6D1208612FB00F0AC
:1051D00042F6BE0190FBF1F060852046FFF77FFFAD
:1051E00004F13400FDF71AFE658270BD5EEA0F001F
:1051F000F0B590F823210024012A01D182890A8088
:1052000090F8222100230125012A39D0B0F90C2081
:10521000B1F9006016FB02F7002F38DD002A01DA31
:10522000524212B2002E01DA76420E800E8890F8B9
:10523000121116FB01F1CF1701EB177141F30F1794
:1052400090F8131116FB01F1CE1701EB167190F8CF
:10525000F56041F30F11012E17D1B0F814C196B2C9
:10526000664512D98A4210DBBA420EDC90F8F6107D
:10527000491CC9B280F8F61090F81621914206D365
:1052800080F8F8500124037001E080F8F6302046E1
:10529000F0BD006890F8F50070474184C284704703
:1052A00000213430FDF7C4BD10B5084C2078022829
:1052B00005D1FCF711F9FCF76CFC00202070C0B29E
:1052C000401C2070BDE81040FDF7C6BA68060020FB
:1052D00030B593B030216846FBF7FEF814210CA8D6
:1052E000FBF7FAF81D480025016841F08051016084
:1052F000006800F0805011901948016821F4404185
:1053000041F4004101600068022400F44040119023
:1053100001200090000401908001CDE9064008AA18
:105320000420542182E813000B906846FCF766FACB
:1053300008B172B6FEE70CA90F2081E831004FF4E6
:105340008050CDE90F0502210CA8FCF761F908B1E6
:1053500072B6FEE7FCF7F6F913B030BD40380240F4
:10536000007000400248016841F47001016070471C
:1053700088ED00E0094810B5D0F894004068016954
:10538000C1F3C01129B16FF0800101610348FDF73D
:10539000EFFEBDE81040FDF76BBA000048020020A8
:1053A00004486FF00101D0F89400406801610148A1
:1053B000FEF724BB48020020F0B502681D4B1E4CCE
:1053C0009F031E4D1E4E984207D0B84205D0A04202
:1053D00003D0A84201D0B04204D122F0700C4A6838
:1053E00042EA0C02984210D0B8420ED0A0420CD033
:1053F000A8420AD0B04208D0124CA04205D0124CAC
:10540000A04202D0114CA04203D122F44074CA68D9
:1054100022434C6922F08002224302608A68C26201
:105420000A688262984201D10969016301214161E0
:10543000F0BD0000000001400004004000080040F2
:10544000000C004000400140004401400048014081
:1054500010B5846842EA032224F47F440A432243BD
:10546000826010BD30B5026A22F001020262026A57
:105470004368846924F073050C682C4322F002050C
:105480008A682A430A4DA8420BD122F00805CA684F
:1054900023F440732A434D6922F004021D438B69B3
:1054A0002B434360846149684163026230BD000060
:1054B0000000014030B5026A22F010020262026A66
:1054C000436884690D6824F4E64444EA05248D6841
:1054D00022F0200242EA05120B4DA8420ED1CD68FF
:1054E00022F0800242EA05124D6923F4406343EA48
:1054F00085038D6922F0400243EA8503436084619D
:1055000049688163026230BD0000014030B5026A23
:1055100022F480720262036A4268C46923F4007351
:1055200024F073050C682C438D6843EA05230C4D69
:10553000A8420ED1CD6823F4006343EA05234D69E8
:1055400022F4405242EA05128D6923F4806342EA54
:1055500005124260C4614968C163036230BD000046
:105560000000014030B5026A22F480520262046AEF
:105570004268C3690D6823F4E64343EA05238D6856
:1055800024F4005444EA0534064DA84204D14D6980
:1055900022F4804242EA85124260C3614968016494
:1055A000046230BD0000014070B5036800249A68B1
:1055B00022F070054A682A4322F007050A682A4348
:1055C0009A604A6812F00F0F31D11211082A2ED2B8
:1055D000DFE802F02E2E2E2E0B2127040B69D1E9D5
:1055E00002210068FFF734FF22E00A68052A10D084
:1055F0000268136A156A25F001051562026895694B
:10560000096925F0F00545EA01119161006803621E
:105610000EE0012070BD0A698968006800F00AF890
:1056200006E00A698968006800F015F800E00124C6
:10563000204670BD10B5036A046A24F001040462B8
:10564000846924F0F00444EA021423F00A020A43B5
:105650008461026210BD10B5036A23F01003036277
:105660008369046A23F4704343EA023224F0A003FE
:1056700043EA01118261016210BD0000034900206C
:105680008988002900D101207047000050060020C1
:10569000054810B50068FEF72FF90022BDE810405C
:1056A00080210248FCF773BD5806002048080020FE
:1056B0002DE9FF41274C284D0026D4F81A00009010
:1056C000687E132808D1254F3868FEF72FFB18B9DC
:1056D0003868FEF7CBFA2082FBF752FB012813D083
:1056E0001F48FFF7B1F90746606801901D4800F0B8
:1056F0000EFCADF8080069461B48FFF70DFC1A4880
:10570000FFF742FB37B108E0002201211248FCF705
:105710003EFD10E01448FFF7C3FD687E042801D069
:10572000132808D11048FFF73EFAADF80C0003A982
:105730000E4800F031FC0E480168491C01600D481C
:1057400090F8290010B10B48FCF7EAFE04B030468F
:10575000BDE8F081E01A0020480800206006002023
:10576000D00100207C04002018030020E00200206B
:105770009C0600201C06002010B50C480C4650F872
:105780002400FEF7B9F82046FBF7C4FA084850F8A1
:105790002400FDF760F94FF4487000F0CBF905499B
:1057A000082001EB4411487610BD00005806002087
:1057B00080050020480800202DE9FE4F0025ADF8A7
:1057C000045001A9A048FFF704FBDFF880A2009075
:1057D000DAF80000FDF790FB9D48FCF7EAFC9C4CD2
:1057E00008B10A207CE09A48FCF718FD0B2100283C
:1057F00071D1607E974FDFF86082984E4FF00109BB
:105800004FF0100B0A2866D015DCE8B304287CD0D2
:1058100006287BD008280CD100F092F9002808D087
:105820008F493868FFF7A5FA8D4800F000FC25760F
:105830006576BDE8FE8F0B2869D010287CD0112832
:1058400050D01328F5D1207E052867D08548FFF772
:10585000C7F800286FD002A9814800F05AFB05461E
:105860007F4800F050FC0543E3D07F48FDF7CDFAB8
:10587000318A10FB01F17C48FDF7DAFA7249386889
:10588000FFF777FA002000E00CE0FBF7D3FA0020E6
:10589000FBF728FA3868FFF73DFA6D48FCF720FC63
:1058A00006201DE0207E012801D00328C1D16848D0
:1058B000FCF78CFC01466B48FFF74EF8D8F8000067
:1058C000454690F8741039B1A0F852900121FDF7C7
:1058D0003FFB286815E0B4E00021FDF739FB1120FB
:1058E0006076A6E7207E052818D046460121D8F824
:1058F0000000FDF72DFB00289BD0207E032812D04E
:105900003068FEF798F8142003E033E082E093E07B
:1059100012E000F009F984F819B08AE700214C4838
:10592000FFF72AFF85E70020FBF7F4F9DAF800001B
:10593000FDF791F87BE76AE0207E0528EED0FFF7BF
:105940009DFE0028CDD04546D8F80000FDF7D4FFD5
:1059500086F8249042493868FFF70BFA3A48FFF777
:10596000BEFB0020FBF7D6F9042060762868FDF71F
:10597000FDFB5EE7207E0528D0D03A48FFF730F8DF
:10598000F0B33868FFF74EF960F30F05B08A60F3A3
:105990001F4535616946324800F0BBFA3148FFF7D0
:1059A00053F800289DD069462748FFF721FC05469B
:1059B0002748FCF70BFC41B22348AFF3008029468F
:1059C000274800F092FB002D8BD01F48FFF7EBF823
:1059D000726801461046FCF79DFC1F4D07460835CE
:1059E0002868FEF79BF9B6F9101000222868FEF728
:1059F00053F939B219222868FEF74EF913206FE7E0
:105A0000FFE7002210211248FCF7C1FBC2E7002289
:105A100010210DE0207E052880D00D48FCF760FBAA
:105A20000020FBF75FF900980028A2D10022202176
:105A30000748FCF7ACFBFCE6207E02283FF47AAF77
:105A4000F7E66176F5E600001803002080050020E7
:105A5000480800207005002058060020E01A0020A9
:105A6000E0020020D001002018010020064810B5F7
:105A70000078012806D1002000F008F8BDE81040A9
:105A8000FEF75CB810BD000050060020F8B50546D2
:105A90001E48006800901E4850F82500FDF75EF98A
:105AA0003DF815101B4F00EA010657F82500FDF7D9
:105AB0004DFA40EA060435B91748FFF715F8BDF866
:105AC000001008400443E04382B21448214600EB32
:105AD00045163046FCF75BFB3046FCF76CFB0028B4
