:020000040800F2
:10000000A86500206902000871020008EF290008B5
:10001000750200087702000879020008000000005D
:10002000000000000000000000000000A90100081E
:100030007D02000800000000050200088965000834
:10004000830200088302000883020008830200087C
:10005000830200088302000883020008830200086C
:100060008302000883020008B10C00088302000824
:10007000830200088302000883020008830200084C
:1000800083020008830200089104000800000000B9
:1000900000000000000000000000000083020008D3
:1000A000596600088566000883020008830200087C
:1000B000830200089D66000883020008830200088E
:1000C00083020008830200088302000883020008FC
:1000D000830200081173000883020008000000007A
:1000E0008302000883020008830200080000000069
:1000F0000000000000000000000000008302000873
:100100000000000083020008830200088302000848
:1001100000000000000000000000000000000000DF
:100120008302000883020008D90B0008830200083C
:100130008302000800000000000000000000000032
:100140000000000000000000000000008302000822
:10015000830200088302000883020008830200086B
:100160008302000883020008000000000000000075
:10017000000000000000000000000000000000007F
:1001800000000000830200080000000000000000E2
:1001900083020008DFF80CD000F03CF9004800476B
:1001A000297C0008A86500202C4B19680868B0E875
:1001B000F04F80F30988BFF36F8F4FF0000080F39A
:1001C000118870470000000008480068006880F34C
:1001D00008884FF0000080F3148862B661B6BFF360
:1001E0004F8FBFF36F8F00DF00BF00BF08ED00E04F
:1001F000DFF80C00016841F470010160704700BF36
:1002000088ED00E0EFF30980BFF36F8F134B1A689E
:100210001EF0100F08BF20ED108A20E9F04F10608B
:1002200009B44FF0500080F31188BFF34F8FBFF334
:100230006F8F08F077FB4FF0000080F3118809BC46
:1002400019680868B0E8F04F1EF0100F08BFB0EC56
:10025000108A80F30988BFF36F8F7047AC060020C7
:10026000EFF30580704700000648804706480047C6
:10027000FEE7FEE7FEE7FEE7FEE7FEE7FEE7FEE756
:10028000FEE7FEE749660008950100082DE9F05FEA
:100290000546002092469B468846064681464024F5
:1002A0001BE0284641464746224600F0A3F8534645
:1002B0005A46C01A914110D311461846224600F002
:1002C0008AF82D1A67EB01084F46224601200021CB
:1002D00000F081F817EB00094E41201EA4F1010443
:1002E000DFDC484631462A464346BDE8F09F2DE90B
:1002F000F0410024061B254671F1000605DA0124B1
:100300000027D0EB070067EB0101161E73F1000612
:1003100005DA0027D2EB0702012567EB0303FFF79D
:10032000B5FF86460E4617469C46AC4204D00025D3
:10033000D0EB050E65EB010624B10020D2EB0007DF
:1003400060EB030C704631463A466346BDE8F081E7
:1003500040EA01039B0703D009E008C9121F08C047
:10036000042AFAD203E011F8013B00F8013B521EC7
:10037000F9D27047D2B201E000F8012B491EFBD23E
:1003800070470022F6E710B513460A4604461946A0
:10039000FFF7F0FF204610BD034611F8012B00F8CF
:1003A000012B002AF9D11846704730B50B4601469B
:1003B00000202022012409E021FA02F59D4205D304
:1003C00003FA02F5491B04FA02F52844151EA2F1AE
:1003D0000102F1DC30BD202A04DB203A00FA02F1F0
:1003E000002070479140C2F1200320FA03F3194323
:1003F00090407047202A04DB203A21FA02F00021C5
:10040000704721FA02F3D040C2F120029140084324
:1004100019467047064C074D06E0E06840F00103BE
:1004200094E8070098471034AC42F6D3FFF7B6FEC5
:10043000F8990008189A000870B58C1810F8015B3C
:1004400015F0070301D110F8013B2A1106D110F86D
:10045000012B03E010F8016B01F8016B5B1EF9D171
:100460002B0705D40023521E0DD401F8013BFAE7F7
:1004700010F8013BCB1A921C03E013F8015B01F862
:10048000015B521EF9D5A142D8D3002070BD0000F7
:1004900006480168C1F38001002905D0016821F0F8
:1004A0000C01016006F058BB7047000000200140BD
:1004B000464910B54A6822F440324A604A684368A7
:1004C0001A434A6001684A6822F480724A600168EF
:1004D0004A68036942EA03224A6001684A6822F0D6
:1004E00040724A6001684A6883681A434A6001683A
:1004F0008A6822F400628A6001688A68C3681A43C5
:100500008A60816A6FF07062D14201688A6822F065
:1005100070628A6001688A680CD0836A1A438A60B4
:1005200001688A6822F040528A6001688A68C36A5A
:100530001A4301E022F040528A6001688A6822F082
:1005400002028A6001688A68037E42EA43028A6086
:1005500090F82010002901684A680FD042F4006228
:100560004A6001684A6822F460424A6001684A6849
:10057000174C436A04EB43331A4301E022F4006250
:100580004A600168CA6A22F47002CA620168CA6AD3
:10059000838B104C04EB03531A43CA6201688A68C8
:1005A00022F400728A6001688A6890F8303042EA6A
:1005B00043228A6001688A6822F480628A60016846
:1005C0008A68406942EA8020886010BD00230140AB
:1005D00000E0FFFF0000F0FF2DE9F043C269437F18
:1005E000017F03F03F0490F86C80C2F30219C9093F
:1005F000C2F386334FF0010CC2F34652884500D354
:10060000884680F86C8090F86D70A74200D327462A
:1006100080F86D7090F86E609E4200D31E4680F8A0
:100620006E6090F86F50954200D3154680F86F5079
:10063000414509D1BC4207D89E4205D1954203D11C
:1006400090F87000814501D04FF0000C6046BDE885
:10065000F08330B4002180F86510446900F11C017A
:10066000436D204630BC04221847000070B5044694
:1006700090F865100020012521B1012920D184F8CE
:10068000650036E0E0691C49C2B2C0F307238A5C0A
:100690005A40C0F307438A5C5A408A5C82EA106081
:1006A000085C08B1042021E0207F00F00F00A06664
:1006B00005281ED006281CD0092802D084F86250D4
:1006C00070BDA08B0009A4F85C0012D0B4F85E10D5
:1006D00088420AD894F86C1000EB4102D4E9050175
:1006E000636D984784F8655070BD022084F86200FD
:1006F00070BD84F8615070BD2798000870B504463D
:1007000090F824000025032820D0A06C80F8065023
:1007100094F82E00032602281BD094F82400022807
:1007200022D072B6606C78B3A0648671606CA36DE1
:10073000828801686069984794F8360002281DD0C5
:1007400094F83E00022819D065641FE084F8245014
:10075000DEE704F12800A064A36DA28DA16A6069A0
:10076000984784F82E6070BD04F12001A164A36D48
:1007700004226069984784F8246070BD616CC1EB05
:1007800044006830606401E0FFE7A56462B670BDB4
:100790002DE9F04104460027C0690F8094F86120DC
:1007A0003D46002A6CD084F8615094F864300126EC
:1007B00004F16C0823B1012B20D0022B59D134E075
:1007C000A16E052902D0062914D052E02046FFF779
:1007D00003FFF8B194F86E0040012030A08194F836
:1007E0006F008101E18194F86D0040012030A4F890
:1007F0005E0027E0C0F30F3200212CE0A16E052936
:1008000002D0062907D034E02046FFF7E5FE08B9FC
:1008100084F8645018E0C0F30F320121204600F044
:100820001BF9022084F8640023E0A06E052804D0A0
:1008300006280ED0092812D01BE02046FFF7CCFE78
:100840000028E5D084F864604146204600F0B8F8FE
:100850000FE0627F0121204600F0FEF809E094F8E5
:100860006000401C84F860002674B4F85C000880C6
:10087000A769636D042204F11C01606998470AE0CE
:1008800094F8621039B1204600F0B3F884F8625051
:10089000216D606988473846BDE8F0812DE9F04157
:1008A0001668154626F070422E4F02F0FF0CC2F378
:1008B000072E17F80CC000248CEA0E0CC2F3074E6A
:1008C00017F80CC08CEA0E0C17F80C7087EA126748
:1008D000254AD25D46EA02722A6072B6826C3AB14B
:1008E00062B6022209291ED00A2928D079B336E03F
:1008F000032209290ED00A2910D080F8242000F103
:100900002001816462B61A464669876D29463046E1
:10091000B84724E0016C8A71016CF2E780F82E2060
:1009200000F12801EDE7016C0E68AE4200D003240F
:10093000456C05B941648A71006C83800FE090F8C2
:100940002E10012907D180F82E20838507E0FFE7CC
:1009500090F8241009B1032401E080F824202046F7
:10096000BDE8F081279800082799000810B50123F9
:100970001C460A2A09D090F83620012A0FD990F88F
:100980003E20012A12D9002318E090F82E20012AD7
:10099000F9D8826A121D0A6080F82E400EE080F8B5
:1009A000364000F130020264006B05E080F83E4002
:1009B00000F138020264806B001D0860184610BD0B
:1009C00030B40B79052404EB03130C7800F12002FA
:1009D00043EAC4134C7843EA04238C78C97843EA89
:1009E000843343EA41510162042330BC0021FFF704
:1009F00055BF0B0243EA014141F00F01042301629C
:100A000000F120020021FFF749BF30B41C4690F8E6
:100A10006430022B02D0022030BC70470D1F44EA24
:100A200002132B6090F86C30012B06D1CA238B5433
:100A3000FE231144921C4B7092B20A2C03D1017C0C
:100A400041B100210174121D93B22A46214630BCE7
:100A5000FFF724BF0120DFE7F0B490F860300626EE
:100A600006EB011603F0010346EA411190F86350CA
:100A700041EA831141EAC311144605F00F0541EA2A
:100A8000052141EA04310162F0BC042300F1200297
:100A90000021FFF703BF10B504464069E16C8847A9
:100AA000002084F8640084F8650084F8600004F194
:100AB0001C01636D6069BDE810400422184770B5E1
:100AC0001446054620440E46B0F5004F0AD94FF0B3
:100AD000FF3070BDA8B26D1C00F008F8641E06F867
:100AE000010BA4B2002CF5D1002070BD1FB564230A
:100AF000012203A98DE80E0002461023A02105481B
:100B000000F002FE10B1002004B010BD9DF80C00F2
:100B1000FAE70000840700202DE9F041164605465B
:100B2000002430440F46B0F5004F02D9601EBDE8E6
:100B3000F081395DA8B200F00DF8002803DA052035
:100B400000F004FC02E0641CA4B26D1CB442F0D1BD
:100B50000020ECE703B583B06423012204A98DE8EB
:100B60000E0002461023A021044800F0C9FE002810
:100B700001D04FF0FF3005B000BD00008407002019
:100B80002DE9F041044600880D460FB217FB07F32C
:100B90000E1416FB06F264884043134404FB04F170
:100BA000834216DD8A4207DC801A02F013FB002F15
:100BB00000DA4042344608E0002E00DA6442401A6F
:100BC00002F008FB002F00DA404260F30F0564F3E7
:100BD0001F452846BDE8F08106484FF40011006823
:100BE00031EA000005D10348083001600248FFF7F0
:100BF0003DBD704700640240AC0500200168182329
:100C0000CAB2103AB2FBF3F2054B6FF30901032AA3
:100C10009B5CC36500D9091D8165084670470000CB
:100C20003799000810B5014600208B698A6A4FF099
:100C3000C07453B1B3F5005F15D072B1012A0CD066
:100C4000022A0AD0032A09D104E01AB1012A06D0E7
:100C5000022A03D1C96AC90100D5012010BDC96AA1
:100C6000A142FAD010BD002AF7D0012AF2D0022A00
:100C7000F3D0032AF3D010BD0A48017800290FD120
:100C800001214170084909480A69B0F85E30D21A5A
:100C90000A6130F8582F41880348103002F002B939
:100CA00070470000300700202C61002044610020C4
:100CB0000448016811F0100F03D01021016006F004
:100CC0001BBB7047143C014072B6FEE700EB4001CD
:100CD00001EB001210B5074901EB420494F824100F
:100CE000002906D1044951F8200005F005F9E083F8
:100CF000208210BD9C2300208405002010B50446EE
:100D000000EB440000EB04121248002100EB420209
:100D1000114811605160D1601161D183C2F8161081
:100D2000C2F81A10118450F8240003F09BF80B4805
:100D3000002150F8240003F095F8094850F82400E9
:100D400005F002F9074850F82400BDE8104003F010
:100D500025BA00009C230020880500208C05002077
:100D6000840500206C0600202DE9F84F2648006815
:100D700005F050F9834605F080F88046584605F0A6
:100D80007FF8224F6946386803F019F9009802F09D
:100D9000A5F98246414602F0C5F91D4C064631B21E
:100DA000B4F91000411A1B48006803F081F860F3A1
:100DB0000F05B4F91200A0EB26411748006803F0B4
:100DC00077F8294660F31F41381D0068FFF7D8FE09
:100DD0008146584605F054F84146484602F0E0F98D
:100DE00005462946386803F0ECF80146C4F8169029
:100DF00000982060C4F804A0E660C4F81A50A4F873
:100E000020800846BDE8F88F840500206C0600208D
:100E10009C230020880500208C05002070470000DE
:100E200010B598B0044600208DF8210001214FF440
:100E30001670ADF85A008DF8221040F6B8308DF8D3
:100E40002310ADF858004FF4FA60ADF85C00642050
:100E5000ADF85E0005208DF800108DF8560006A153
:100E60000DF10100FFF798FA602269462046FFF76E
:100E70006FFA18B010BD000059616E6B650000007C
:100E8000034810B5006806F035FB0249C88010BD64
:100E9000C89900082C61002070B590F83C20694D7D
:100EA000012A19D0012280F83C200A68072304682F
:100EB000092A13D9E6680A3A02EB420293409E439C
:100EC000E6600A788B680A3A02EB420293400268B5
:100ED000D4682343D36010E0022070BD266902EB82
:100EE000420293409E4326610A788B6802EB4202DD
:100EF000934002681469234313610268936B23F4DF
:100F0000401393630268936B0C8A4F4E06EB0454B4
:100F1000234393630A790B7CD21AD21C02EB820220
:100F20001F2393400268946B9C4394630A790B7C63
:100F3000D21AD21C02EB82030A8892B29A4003684A
:100F40009C6B22439A638A69AA420268936823F4DD
:100F500070239360026893680CD08C69234393607C
:100F60000268936823F44013936002689368CC6925
:100F7000234301E023F4401393604A7D002A026872
:100F8000536802D043F4806301E023F4806353602C
:100F90000A7D002A0268536802D043F4805301E0BE
:100FA00023F4805353604A68012A16D0022A1FD0C6
:100FB000032A026827D0136A6FF30B0313620268D7
:100FC000136ACC6823431362214B04681F4A9C4276
:100FD00027D10C68122C20D023E0026853696FF3EC
:100FE0000B03536102685369CC6823435361EBE7F9
:100FF000026893696FF30B03936102689369CC688D
:1010000023439361E0E7D3696FF30B03D361026875
:10101000D369CC682343D361D6E7546844F4800491
:10102000546004689C4208D10968102901D0112934
:1010300003D1516841F400015160002180F83C1057
:10104000084670BD01000F000000F0FF00230140C2
:101050000020014078B50024009490F83C20012A3B
:1010600019D0012280F83C200A6807230568092A64
:1010700013D9EE680A3A02EB420293409E43EE60B7
:101080000B788A680A3B03EB43039A400368DD68E8
:101090002A43DA6010E0022078BD2E6902EB42029A
:1010A00093409E432E610B788A6803EB43039A407A
:1010B00003681D692A431A614A681F23072A13D24D
:1010C00005686E6B521E02EB820293409E436E6374
:1010D0000B790A885B1E92B203EB83039A40036884
:1010E0005D6B2A435A6327E005680D2A12D22E6BE6
:1010F000D21F02EB820293409E432E630B790A8833
:10110000DB1F92B203EB83039A4003681D6B2A43F3
:101110001A6311E0EE6A0D3A02EB820293409E439D
:10112000EE620B790A880D3B92B203EB83039A407F
:101130000368DD6A2A43DA62164B0568144A9D4249
:1011400006D10D68122D03D1556845F48005556010
:1011500005689D4218D10B68102B01D0112B13D1BB
:10116000536843F400035360096810290CD10A49FD
:101170000A4A0968B1FBF2F101EB8101490000E084
:10118000491E00910029FBD180F83C40002078BD29
:101190000023014000200140A806002040420F002B
:1011A00070B504004FF0000503D0206C002610B18C
:1011B00007E0012070BD204600F01CF8666484F84A
:1011C0003C60206CC00610D4206C20F4885040F0A5
:1011D000020020642046FFF76BF96664206C20F063
:1011E000020040F00100206400E0012584F83C602A
:1011F000284670BD30B587B0044614216846FFF715
:10120000C0F81949206888422CD118480024016888
:1012100041F480710160006800F48070059013480B
:101220001438016841F004010160016801F0040113
:101230000591016841F0010101600068032500F09B
:10124000010005900D20CDE900056946029408488B
:1012500000F08EF80220CDE90005694602940548A9
:1012600000F086F807B030BD00200140443802404D
:1012700000080240000002402DE9F041044600F061
:1012800079F906465CB1022084F83500002584F81F
:1012900034502068016821F0010101600DE0012057
:1012A000BDE8F08100F066F9801B052805D92020F3
:1012B0006065032084F83500F2E720680068C00705
:1012C000F0D12268116820480140D4E90103184395
:1012D000D4E903363343184363691843A3691843B9
:1012E000E3691843236A18430843616A042903D158
:1012F000D4E90B1319430843106020684069666AFB
:1013000020F0070130460E43012704280CD1A06AC3
:101310000643E06A40B12046FFF784FC20B140203C
:10132000606584F83570BAE7206846612046FFF7AB
:1013300065FC94F85C203F2191408160656584F8EC
:1013400035700020ACE700003F8010F070B5044617
:1013500000F010F90546601C02D0044800780444EF
:1013600000F008F9401BA042FAD370BD9C06002093
:101370002DE9F84FDFF8B8A10022012403254FF032
:101380000F090AF1040BAAF1040E00BF0B6804FA5E
:1013900002F63340B34273D10F7907F00307012FF0
:1013A00001D0022F16D187684FEA420805FA08FCDF
:1013B00027EA0C07D1F80CC00CFA08FC4CEA070C21
:1013C000C0F808C04768B7430E79C6F300169640C8
:1013D0003E4346600E79F643B6070DD0C768560007
:1013E00005FA06FC27EA0C07D1F808C00CFA06FC3F
:1013F0004CEA070CC0F80CC00E7906F00306022E6A
:1014000010D1D60800EB8608D8F8206057074FEABD
:10141000D76C09FA0CF7BE430F6907FA0CF737438C
:10142000C8F8207006684FEA420C05FA0CF7BE4374
:101430000F7907F0030707FA0CF7374307604E6888
:1014400016F4403F6DD03B4E376847F48047376015
:10145000366822F0030706F480460096364E07EB06
:10146000060CDCF8086897073F0F09FA07F826EA28
:101470000806DFF8C880404503D14FF000081EE0A1
:101480004FE0DFF8BC80404502D14FF0010816E084
:10149000DFF8B080404502D14FF002080FE0DFF8DE
:1014A000A880404502D14FF0030808E0DFF89C8097
:1014B000404502D14FF0040801E04FF0070808FA58
:1014C00007F848EA0608CCF80888DAF800605746BA
:1014D000D1F804C09E435FEACC2C00D51E433E6089
:1014E000DBF800605F46D1F804C09E435FEA8C2CB5
:1014F00000D51E433E60DEF800607746D1F804C098
:101500009E435FEA8C3C00D51E433E60084F083F77
:101510003E68D1F804C09E435FEACC3C00D51E4330
:101520003E60521C102AFFF431AFBDE8F88F000076
:10153000083C0140443802400030014000000240B5
:101540000004024000080240000C0240001002406B
:101550000069084000D001207047426921EA020377
:101560000A4043EA0241816170470AB181617047D4
:101570000904FBE701488068704700009C060020D2
:1015800070B5040025D094F83D00002520B984F8FA
:101590003C50204600F04CFA242084F83D0020689E
:1015A000016821F0010101602068016841F40041F7
:1015B00001602068016821F40041016000F0F8FB3F
:1015C0004D4A6168914201D84C4900E04C4988423B
:1015D00001D2012070BD4B492368B0FBF1F15E6878
:1015E00026F03F060E435E606368934206D94FF4CF
:1015F000967359434FF47A73B1FBF3F12368491C96
:101600001E6A26F03F06314319626168914210D884
:101610004900401EB0FBF1F2521CC2F30B02042A37
:1016200001D2042022E0B0FBF1F0401CC0F30B001B
:101630001CE0A268F2B301EBC10303EB0116431EE9
:10164000B3FBF6F35B1C43F480431B0549D092B314
:1016500001EBC10202EB0111401EB0FBF1F0401C96
:10166000C0F30B0040F4804040F400402168CA6998
:101670004CF6FF739A431043C861D4E90710014345
:101680002068026822F0C00211430160D4E903011E
:1016900001432068826848F2FF339A431143816016
:1016A000D4E9050108432168CA6822F0FF0210430B
:1016B000C86001E00EE016E02068016841F0010119
:1016C00001602564202084F83D00256384F83E50A5
:1016D000002070BD01EB4106431EB3FBF6F35B1C1B
:1016E000B3E70120C2E701EB4101401EB0FBF1F07E
:1016F000401CC0F30B00B7E7A086010080841E00E9
:1017000000093D0040420F002DE9FF4F83B09A468B
:10171000DDE9119793460446DDF84080FFF72AFF84
:10172000054694F83D00202870D119230122714903
:101730002046009501F06EFA0028F5D194F83C009F
:10174000012863D0012084F83C0020680168C907A3
:1017500003D1016841F0010101602068016821F4B2
:1017600000610160222084F83D00402084F83E00A2
:1017700000262664C4F82480A4F82A90608D208571
:101780005D48E062CDE9007553465A46204604990B
:1017900001F048F900287CD1208DD0B1012821D05A
:1017A0000228206824D0416980690090208D032898
:1017B00069D801282BD0514902283B464FF000023E
:1017C000009559D08846204601F024FA002860D1BF
:1017D0003CE02068416981690091016841F4007131
:1017E000016077E02068016821F480610160F0E722
:1017F000016821F4806101602068016841F40061A2
:101800000160206841698069009063E06FE02A46CA
:101810003946204601F07DFA98BB20680069616A6C
:1018200008704EE02068016841F400710160206892
:101830000069616A0870606A401C6062218D491EFF
:101840002185618D491E6185216838E02068016825
:1018500021F48061016020680069616A0870606A33
:10186000401C6062208D401E2085608D401E60857A
:101870003B46002241460095204601F0CBF900B9D5
:10188000D0E706E0FFE72A463946204601F041FA54
:1018900018B1012007B0BDE8F08F20680069616AC7
:1018A0000870606A401C6062218D491E2185618D2F
:1018B000491E618521684A69D24352070AD40969E1
:1018C0000170606A401C6062208D401E2085608D22
:1018D000401E6085208D00287FF468AF202084F8AA
:1018E0003D0084F83E6084F83C600020D2E702208E
:1018F000D0E70000020010000000FFFF040001001C
:101900002DE9FF4F83B09A46DDE9119793460446CF
:10191000DDF84080FFF72EFE054694F83D002028B4
:101920007FD11923012240492046009501F072F928
:10193000002876D194F83C00012872D0012084F868
:101940003C0020680168C90703D1016841F001012A
:1019500001602068016821F400610160212084F8A1
:101960003D00402084F83E0000262664C4F8248010
:10197000A4F82A90608D20852C48E062CDE900759E
:1019800053465A462046049901F0CAF870B930E02F
:101990002A463946204601F0EFF958B1206C042858
:1019A00004D12068016841F400710160012007B092
:1019B000BDE8F08F606A216800780861606A401CA9
:1019C0006062218D491E89B22185628D521E628519
:1019D00022685369DB435B070BD469B1007810615F
:1019E000606A401C6062208D401E2085608D401E14
:1019F0006085208D0028CBD12A463946204601F04B
:101A0000E3F80028CAD154F83D0B016841F4007195
:101A10000160202004F81E09E67766770020C6E7FB
:101A2000FFE70220C3E70000020010000000FFFFF4
:101A300010B586B0044614216846FEF7A2FC14498E
:101A40002068884221D113480021026842F0020236
:101A50000260006800F0020005904FF440700090B2
:101A60001220CDE90101032003900420049069466F
:101A70000948FFF77DFC07481030016841F4001168
:101A80000160006800F40010059006B010BD000071
:101A9000005400403038024000040240024881688F
:101AA00002781144816070479C0600200B4810B5F5
:101AB000016841F400710160016841F480610160D6
:101AC000016841F480710160032000F09FF80F204D
:101AD00000F006F800F050F8002010BD003C024075
:101AE00030B505461F4887B00024016841F0020167
:101AF0000160006806A900F00200009001A800F053
:101B000031F90498A8B100F053F940001649174A7A
:101B1000B0FBF1F11648491E026040F2E732C0E91D
:101B20000324C0E90114846100F0C6FB040003D063
:101B300015E000F03DF9E9E70D4800F01FFC040056
:101B40000DD11D2000F034F8102D07D200222946B7
:101B50001D2000F03BF80748056000E0012407B0B5
:101B6000204630BD4038024040420F000004004093
:101B7000F4230020A00600200C4882B0016841F444
:101B800080410160006800F4804000900748001F19
:101B9000016841F0805101600068002200F080502F
:101BA00000900F21901E02B000F010B8443802409F
:101BB000002809DB00F01F0201219140400980004C
:101BC00000F1E020C0F8001170470000F0B40E4BA7
:101BD0001B680C46C3F30223C3F10705042D00D98B
:101BE0000425191D072901D2002300E0DB1E012670
:101BF00006FA05F1491E214099409E40761E164086
:101C00003143F0BC05F00CBE0CED00E0064900F0DD
:101C1000070208684FF6FF03184040EA0220034A13
:101C200010430860704700000CED00E00000FA056A
:101C30002DE9F0470E46050065D0DFF81481D8F88D
:101C40000000F7B200F00700B04207D288F8007039
:101C5000D8F8000000F00700B04254D128683D4C8D
:101C6000810712D5400703D5206840F4E05020607A
:101C70002878000703D5206840F460402060206881
:101C8000A96820F0F000084320602878C0072DD014
:101C9000304968680839012812D0022813D0032877
:101CA00011D00968890700292DDA216821F0030184
:101CB00001432160FFF75EFC814641F2883A0EE065
:101CC00009688903EFE709688901ECE7FFF752FC2F
:101CD000A0EB0901514502D90320BDE8F087206837
:101CE000696800F00C00B0EB810FEFD1D8F800105C
:101CF000404601F00701B14207D90770006800F0C3
:101D00000700B04201D00120E7E72878400705D559
:101D10002068E96820F4E050084320602878000734
:101D200006D52068296920F4604040EAC10020609F
:101D300000F05EF82168084AC1F30311515CC84005
:101D40000649086006480068FFF7CAFE0020C4E79D
:101D5000003C0240083802403F990008A8060020D5
:101D6000A00600200F2202600C4A136803F0030350
:101D70004360136803F0F0038360136803F4E053D7
:101D8000C36012684FF4E05303EAD20202610448D0
:101D9000006800F007000860704700000838024043
:101DA000003C02400148006870470000A80600207F
:101DB0000448054900680968044AC1F38221515C5E
:101DC000C8407047A8060020083802404F99000814
:101DD0000448054900680968044AC1F34231515C6E
:101DE000C8407047A8060020083802404F990008F4
:101DF000154810B5006810F00C02144813D04110BB
:101E0000042A0FD0082A0ED10F4C241F2268236801
:101E100002F03F025B0207D52068C0F38810A0FBE8
:101E2000010106E0084610BD2168C1F38811A1FB3D
:101E300000010023FEF72AFA2168C1F30141491C81
:101E40004900B0FBF1F010BD083802400024F40056
:101E50002DE9F84F04006ED02078DFF84C93C007CE
:101E6000A9F104054AD009F104000168C1F3810118
:101E7000012908D00068C0F3810002280AD1D9F8EE
:101E80000000400206D52868800337D56068002826
:101E9000E1D033E06068B0F5803F10D0B0F5A02FFE
:101EA000286810D020F480302860286820F4802032
:101EB00028606068A8B1FFF75DFB06460DE0286862
:101EC00040F48030F4E740F480202860F7E700BF5A
:101ED000FFF750FB801B642873D828688003F7D570
:101EE0000CE0FFF747FB064605E000BFFFF742FBAB
:101EF000801B6428F0D828688003F7D42078DFF8A6
:101F0000AC8280074FF0000A3ED5A748001D01684B
:101F100011F00C0F08D00068C0F3810002280BD12B
:101F2000D9F80000400207D42868800716D5E06879
:101F3000012800D112E033E1E068B8B10120C8F80F
:101F40000000FFF717FB064605E000BFFFF712FB96
:101F5000801B0228C0D828688007F7D52868216927
:101F600020F0F80040EAC10028600DE0C8F800A0A9
:101F7000FFF700FB064604E0FFF7FCFA801B02288F
:101F80001FD828688007F7D42078000722D5864F0D
:101F900087486169703771B101210160FFF7EAFA82
:101FA000064604E0FFF7E6FA801B022809D83868E5
:101FB0008007F7D50EE0C0F800A0FFF7DBFA064671
:101FC00005E082E0FFF7D6FA801B02287DD838684A
:101FD0008007F7D42078400768D5DFF8CCB1002718
:101FE0000BF13C0BDBF80000C0000BD4DBF8001059
:101FF00041F08051CBF80010DBF80000012700F021
:10200000805000906B4E3068C00510D4306840F4AA
:1020100080703060FFF7AEFA009005E0FFF7AAFA93
:102020000099401A022850D83068C005F6D55E4E97
:10203000A0686C3601280FD00528306810D020F039
:1020400001003060306820F004003060A068B8B152
:10205000FFF790FA00900FE0306840F00100F4E7DD
:1020600040F004003060F7E7FFF784FA0099411A66
:1020700041F28830814266D830688007F4D50EE09E
:10208000FFF778FA009007E0FFF774FA0099411A19
:1020900041F28830814256D830688007F4D42FB19D
:1020A000DBF8001021F08051CBF80010A069C8B314
:1020B0003D49091D0968C1F3810102294AD002285E
:1020C000504607D0C8F8600000E03CE0FFF752FA45
:1020D00004463BE04746C8F86000FFF74BFA064667
:1020E00005E000BFFFF746FA801B02282BD82868BE
:1020F0008001F7D4D4E907010843A16A2E4A4908B0
:1021000002EB0141626A41EA8211084394F82C1003
:1021100040EA0161C9F8001001203866FFF72AFA89
:10212000044606E03EE000BFFFF724FA001B022849
:1021300009D828688001F7D534E000BFFFF71AFA04
:10214000001B022802D90320BDE8F88F286880010F
:10215000F4D427E00128F7D0D9F80000E26900F4B0
:10216000800191421CD1226A00F03F01914217D1B7
:1021700047F6C071626A0140B1EB821F10D1A26ABA
:102180004FF0FF3300F4403103EB5202B1EB024F4A
:1021900006D194F82C1000F07060B0EB016F01D004
:1021A0000120D1E70020CFE7043802400000474279
:1021B000800E4742007000400000FFFF10B5401E37
:1021C000B0F1807F01D3012010BD4FF0E0246061A9
:1021D0000F21601705F024FB0020A061072020617B
:1021E000002010BD7047704710B590F83C20012AC0
:1021F00022D0012280F83C20CA688C6822F4407208
:1022000022434C6822F4806222430C6822F400626C
:1022100022430C6922F4805222434C6922F400527A
:102220002243C969002322F480420A4301684A64B8
:1022300080F83C30002010BD022010BD70B590F831
:102240003C20012A2CD0012480F83C40022280F856
:102250003D2003685A689D6822F070060A68324380
:102260005A60104B02689A420ED0B2F1804F0BD0E8
:102270000D4B9A4208D00D4B9A4205D00C4B9A4216
:1022800002D00C4B9A4204D1496825F080031943CF
:10229000916080F83D40002180F83C10084670BDF8
:1022A000022070BD00000140000400400008004012
:1022B000000C00400040014010B5040003D094F829
:1022C0003D0010B107E0012010BD002084F83C0063
:1022D000204600F01FF8022084F83D00211D2068F0
:1022E00004F0E2F9012084F8460084F83E0084F806
:1022F0003F0084F8400084F8410084F8420084F8EC
:10230000430084F8440084F8450084F83D00002030
:1023100010BD000010B586B0044614216846FEF7D3
:1023200030F813492068884220D112480021026801
:1023300042F001020260006800F0010005900D48C3
:102340001438026842F002020260006800F00200E5
:1023500005904FF480500090022001900120CDE9BB
:102360000201049069460448FFF702F806B010BD68
:1023700000000140443802400004024090F83D1043
:10238000012901D001207047022180F83D10016829
:10239000CA6842F00102CA6000680E4988420ED045
:1023A000B0F1804F0BD00C49884208D00B498842CD
:1023B00005D00B49884202D00A49884204D181687D
:1023C00001F00701062903D0016841F00101016015
:1023D0000020704700000140000400400008004059
:1023E000000C004000400140704770B50446006892
:1023F00001694FF00005C943890715D4C168C94375
:10240000890711D4E91E01610120207720688069C5
:102410008007204602D0FFF7E7FF04E000F0D6F87F
:10242000204600F068F9257720680169C94349070B
:1024300017D4C168C943490713D46FF0040101617F
:10244000022020772068806910F4407F204602D067
:10245000FFF7CAFF04E000F0B9F8204600F04BF99E
:10246000257720680169C943090716D4C168C943A3
:10247000090712D46FF00801016104202077206859
:10248000C0698007204602D0FFF7AEFF04E000F0ED
:102490009DF8204600F02FF9257720680169C9438F
:1024A000C90617D4C168C943C90613D46FF0100117
:1024B0000161082020772068C06910F4407F204621
:1024C00002D0FFF791FF04E000F080F8204600F012
:1024D00012F9257720680169C943C90708D1C16885
:1024E000C943C90704D1891E0161204600F004F9DF
:1024F00020680169C943090609D4C168C9430906AE
:1025000005D46FF0800101612046FFF76BFE206863
:102510000169C943490609D4C168C943490605D4BC
:102520006FF040010161204600F01BF9206801694D
:10253000C94389060BD4C168C943890607D46FF023
:10254000200101612046BDE87040FFF74CBE70BD20
:1025500030B587B0044614216846FDF712FF1749CD
:102560002068884227D11648016841F001010160C6
:10257000016801F001010591016841F0020101606B
:102580000068022400F0020005904FF4F060CDE9ED
:1025900000040125029469460A48CDE90345FEF787
:1025A000E7FE0320CDE90004029469460648CDE920
:1025B0000345FEF7DDFE07B030BD0000000001401E
:1025C000303802400000024000040240704770B5FD
:1025D000044690F83C0000260D4601280FD001204B
:1025E00084F83C006AB1042A1DD0082A2FD00C2A96
:1025F0003FD00126002084F83C00304670BD022008
:1026000070BD206804F0A6F82068816941F00801D7
:1026100081612068816921F00401816120688169FC
:102620002A69114311E0206804F0BCF82068816930
:1026300041F4006181612068816921F480618161D8
:10264000206881692A6941EA02218161D2E7206814
:1026500004F0D4F82068C16941F00801C161206824
:10266000C16921F00401C1612068C1692A6911436F
:1026700011E0206804F0EEF82068C16941F40061BF
:10268000C1612068C16921F48061C1612068C169AC
:102690002A6941EA0221C161ACE710B5040003D008
:1026A00094F83D0010B107E0012010BD002084F82F
:1026B0003C00204600F01EF8022084F83D00211D59
:1026C000206803F0F1FF012084F8460084F83E0002
:1026D00084F83F0084F8400084F8410084F8420008
:1026E00084F8430084F8440084F8450084F83D00F1
:1026F000002010BD7047704700680349884201D12F
:10270000FFF7CCB9704700000004004070B50446E4
:1027100090F83C00012812D0012584F83C5002209A
:1027200084F83D00204604F0B7F801004FF00000A7
:1027300007D084F83D5084F83C00012070BD022091
:1027400070BD2168CA6822F04002CA602168CA6868
:1027500022F48042CA6084F83D5084F83C00002096
:1027600070BD704770B5040004D094F83D0000259A
:1027700010B106E0012070BD84F83C50204600F006
:1027800023F8242084F83D002068C16821F400511A
:10279000C160204604F032FC2068016921F49041B8
:1027A00001612068416921F02A0141612068C16806
:1027B00041F40051C1602564202084F83D0084F874
:1027C0003E00002070BD00002DE9F04186B00646B5
:1027D00014216846FDF7D5FD4848DFF81CC137686D
:1027E00046491438C025022207230024674547D1F3
:1027F0000F6847F010070F60096801F0100105919C
:10280000016841F00201016000680095CDE90124F2
:1028100000F00200CDE90430694603943848FEF721
:10282000A7FD394D37484FF000682860C5E901849D
:102830000715C5E903476C61AC61EC612C62284661
:102840006C62FEF719FD08B1FEF73EFAB563AE63A0
:102850002C482E4D7830E5E80208402091C52B48E1
:1028600045F81449AC61EC612C626C62FEF704FD22
:1028700008B1FEF729FA7563AE6306B0BDE8F081D2
:10288000DFF88CC00326674518D11C49091F0D6865
:1028900045F400350D60096801F4003105910168C7
:1028A00041F0010101600068049300F0010005900F
:1028B0000C208DE85500694616481AE0164B9F42D9
:1028C000DBD10B6843F020030B60096801F02001A5
:1028D0000591016841F0040101600068009500F075
:1028E000040005900820CDE90360CDE90124694684
:1028F0000A48FEF73DFDC0E70010014044380240A1
:102900000004024040640240EC0800204C09002012
:102910000044004000000240001401400008024052
:102920002DE9F843044690F83D001F4616460D4633
:1029300020284CD1C5B1BEB194F83C00012846D046
:10294000012084F83C004FF00008C4F840802120AA
:1029500084F83D00FEF70EFEA6848146E684A0685A
:10296000B0F5805F03D004E00120BDE8F883206962
:1029700028B12E465FF0000584F83C800EE000266A
:10298000FAE78021204604F0BFFBA0B9AEB116F8EB
:10299000010B21684860E08C401EE084E08C4B46CF
:1029A0004FF0000200970028EBD14FF04001204685
:1029B00004F0AAFB30B10320D7E735F8020BC0F3CF
:1029C0000800E6E7202084F83D000020CDE7022043
:1029D000CBE710B54FF4FA60FEF7B8FC01220721EF
:1029E000104603F0CEFFBDE8104003F0BEBF04F078
:1029F000A3F8FEE701684A69D24352050FD46FF489
:102A000080624A61002140F8301F202242738173A6
:102A1000026942F004020261017301207047002044
:102A2000704700002DE9F84F0446006889460B9D69
:102A300001689846174641F480610160206801688A
:102A400041F48071016000954FF0011B002259464E
:102A500020460A9B00F0DEF84FF4007A40B120686F
:102A60000068C00501D5C4F840A00320BDE8F88F78
:102A7000216809F0FE0008612B46284920460A9A81
:102A800000F0FCF8F0BB20684169806900902A469C
:102A900020460A9900F070F940B1206C04283AD120
:102AA0002068016841F40071016034E0FEB2B8F1C1
:102AB000010F09D02168380A08612A4620460A9980
:102AC00000F05AF90028E8D1206806612A4620461D
:102AD0000A9900F051F90028DFD12068016841F41B
:102AE0008071016000950022594620460A9B00F043
:102AF00091F80028B3D1216809F0FF0040F00100EF
:102B0000086100E007E02B46044920460A9A00F0DD
:102B1000B5F80028AAD00120A8E7000002000100B3
:102B20002DE9F843044600680D46DDE90897016881
:102B30009846164641F4807101604B4600224FF0E2
:102B400001112046009700F065F848B12068006840
:102B5000C00502D54FF4007020640320BDE8F8835F
:102B6000216805F0FE0008613B464A4615492046AB
:102B700000F084F888B920684169806900903A467D
:102B80004946204600F0F8F848B1206C042804D1EA
:102B90002068016841F4007101600120DEE7F5B2B0
:102BA000B8F1010F09D02168300A08613A46494658
:102BB000204600F0E1F80028E7D1206805610020F8
:102BC000CCE700000200010070B516460D46044631
:102BD0000DE02046FFF70EFF08B1012070BD681C14
:102BE00005D0FEF7C7FC801BA84207D835B1206886
:102BF0004069C0434007ECD4002070BD002044F879
:102C0000300F20216173A073216941F020012161FF
:102C10002073E2E72DE9F0471E4690460D46044634
:102C2000C1F30747DDF8209008E0701C06D0FEF7DE
:102C3000A1FCA0EB0900B0420FD876B12068012FAB
:102C400018D0806925EA00000004000C14D000218F
:102C50004145EAD00020BDE8F087002044F8300F5D
:102C600020216173A073216941F02001216120734B
:102C70000120F0E74069E5E70121E9E72DE9F047A8
:102C80009A4691460E46044600254FF02008C1F3AF
:102C9000074725E020684069C043400514D42068F8
:102CA000016841F40071016021686FF4806048613F
:102CB000256384F83D8084F83E50206C40F0040089
:102CC000206484F83C501FE0B9F1FF3F08D0FEF7C4
:102CD00051FCA0EB0A0149450CD8B9F1000F09D00D
:102CE0002068012F13D0806926EA00000004000C40
:102CF0000BD0CFE744F8305F84F80D80A5732069CE
:102D000040F02000206125730120BDE8F087406974
:102D1000EAE72DE9F041002590460E4604462027BB
:102D200017E04069C043C0060CD454F8301B6FF064
:102D30001000486144F810596777A577206A20622F
:102D4000257717E0FEF716FCA0EB0800B04208D884
:102D50003EB120684169C9434906E2D40020BDE87C
:102D6000F08144F8305F6773A573206940F020005C
:102D7000206125730120F2E770B516460D46044622
:102D80000DE02046FFF736FE08B1012070BD681C3B
:102D900005D0FEF7EFFB801BA84207D835B12068AD
:102DA0004069C0430006ECD4002070BD002044F808
:102DB000300F20216173A073216941F0200121614E
:102DC0002073E2E70A48017800290FD10121417000
:102DD000084909480A69B0F85E301A440A6130F8B7
:102DE000582F41880348103000F05CB8704700004D
:102DF000300700202C61002044610020034A515C10
:102E0000425842F001024250704700008497000887
:102E1000044B001D595C0B586FF30F0313430B5009
:102E2000704700008497000808B541F48032C26101
:102E3000C161C261C069009008BD006A814301D0D0
:102E4000002070470120704710B501291BD00429CC
:102E50001BD010291BD040291BD0B1F5807F1AD080
:102E6000B1F5806F19D006210D4B18305B5C18440A
:102E700003680B4CE41D615C73248C40A3438A40BF
:102E80001343036010BD0021EEE70121ECE70221AE
:102E9000EAE70321E8E70421E6E70521E4E700008B
:102EA000579900080368934201DC1A4600E002606B
:102EB0008A4200DA0160704710B50446006803F0EA
:102EC0009BF86168086110BD10B50446807F012839
:102ED0002ED1217B0020012904D002290DD0032905
:102EE00024D119E0616881F824000121206803F0F1
:102EF000A6F8E28AB4F90E1009E0616881F82400AE
:102F00000021206803F09BF8E28AB4F910102068D1
:102F100003F022F840B909E06168012081F824003B
:102F20006068D4F812100161022000E00320A0774D
:102F300010BD01230373C181C2828377C3777047B9
:102F4000F2EE040A0A4620EE200ADFED060A10B56A
:102F500080EE201ABDEEC10A10EE101A09B2FFF77A
:102F6000E8FF10BD00007042022303730182C28299
:102F7000012181770021C177704710B5044600F028
:102F800057F80B2803D1204600F01BF808B10020A9
:102F900010BD0020A08302202076012010BD438BAD
:102FA0000B4393434383828B0A438283704710B55C
:102FB000006803F02FF8BDE8104002F05BBFC07F4F
:102FC0007047408B7047818B408B41EA00407047CF
:102FD00040680068704740684068704701460120BB
:102FE0000B7B821E012B06D0022B09D0032B06D1AE
:102FF000B1F9121006E0B1F90E1003E01046704767
:10300000B1F910100029F9DB70474068C0687047BB
:10301000406800697047C08A7047B0F90E00704779
:10302000B0F910007047006802F0EEBF808B704767
:10303000407E70474068B0F91E0070474068D0F885
:103040001A0070474068D0F81600704780E80E00FC
:1030500000210173C1810182C182817701764176AD
:103060004183818370470322027341820914818264
:10307000012181770021C177704710B50446FFF721
:10308000D7FF38B92046FFF7D1FF18B92046FFF720
:1030900098FF08B1002010BD01202076A07710BD58
:1030A00070B50546FFF7C4FF38B10C2805D00124E0
:1030B0002846FFF7BBFF10B10AE00024F8E72846D6
:1030C000FFF77FFF20B91CB105202876012070BDD5
:1030D000002070BD006802F0B8BF0000014661F337
:1030E0000F0044F6E61211FB02F244F6E61311FB60
:1030F00023F10A4411444942CA13094BB2F5004F67
:1031000001DB590C03E019468A4200DB11B261F37E
:103110001F40994203D148F2010161F31F407047FB
:103120000080FFFF2DE9F0410546084600F06EF8EB
:103130000FFA85FC07B21CFB07F12E14051416FBD1
:1031400005F0081AC3134FF40040411E4242834267
:1031500001DB0B4604E0934201DA134600E01BB2A8
:10316000DFF838E063F30F04934201D16EF30F04EC
:103170001CFB05F316FB07F52B44DB13834204DA33
:10318000934201DA114600E019B2204661F31F4074
:10319000914201D16EF31F40BDE8F0810180FFFF35
:1031A00070B50446084600F031F814FB00F1221413
:1031B000031412FB03F63144CE13294666F30F01C4
:1031C00014FB03F312FB00F0C01AC01360F31F419D
:1031D000084670BD031E17DD0022B3F5001F01DC99
:1031E000802101E04FF4005193FBF1F0084400EB23
:1031F000D0704010884206D0002904D0521CD2B2B0
:103200000146062AF0D370470020704710B500F53C
:103210000041890911F44074C0F387121649C2F1C4
:10322000FF0316D0B4F5807F1CD0B4F5007F09D021
:10323000B4F5407F1FD131F8133031F8121063F329
:103240001F400DE031F8122031F8131062F31F40D7
:103250000FE031F8122031F81310524262F31F4090
:10326000494206E031F8133031F812105B4263F343
:103270001F4061F30F0010BDFE9400082DE9F047D8
:10328000B1F8008004464FF000094E465FEA08009E
:1032900045D02068C289424501D209203DE08878A6
:1032A00084F82100C87884F823000A7984F825205E
:1032B0004A7984F827208D1DA17F1044884234D894
:1032C000002717E06068B5F800A000EB87015046C2
:1032D00001F05AFE94F82300B84201D9022002E01E
:1032E000504601F040FEE168C8557F1C304486B26C
:1032F000FFB2AD1C94F8230094F827100844B8429C
:10330000E0D8B11D8845C8D3A8EB0600801E6083B5
:10331000287884F8290010B104E0814602E02046B4
:1033200000F0F1F84846BDE8F0870A20F5E7000014
:1033300070B50446C07F94F82210884276D10025EB
:10334000E577208BC0BB2068092204F114010368D3
:10335000984778B351496069096801600420208367
:1033600084F8205094F8290094F82A10884223D039
:1033700084F82A0094F8231084F8241094F8270085
:1033800084F8280094F8212084F8222094F825203D
:1033900084F82620628BA28308448200D4E90110BD
:1033A0000C34FCF7D5FFE07DE17E421874E8031091
:1033B000FCF7CEFF208BC0B3208BA18B884239D87D
:1033C0006169014400200AE0A26852F820201288B6
:1033D00021F8022B228B921C401C2283C0B294F84D
:1033E00024208242F0D894F82610FE2922D294F8A4
:1033F000200088421BD184F82050D0B20EE0228BEE
:1034000061691144A26852F8202012680A6022699A
:10341000218B125C401C11442183C0B294F8281007
:1034200094F8242011448142E9D803E033E0401CA1
:1034300084F82000208BA18B88422BD994F8260099
:10344000FE2818D194F824000EE0228B6169114403
:10345000A26852F8202012680A602269218B125C4F
:10346000401C11442183C0B294F8281094F8242001
:1034700011448142E9D8218B6069084494F82A10EC
:103480000180208B6169801C82B220680923466814
:10349000B047258370BD401CE07770BD1407002045
:1034A00070B50446008B00282CD094F82600FE2826
:1034B00018D194F824000EE0228B61691144A268AF
:1034C00052F8202012680A602269218B125C401C8D
:1034D00011442183C0B294F8281094F82420114498
:1034E0008142E9D8218B6069084494F82A10018050
:1034F000208B6169801C82B2206809234568A84737
:103500000020208370BD70B50025044680F8295046
:10351000008B60B16169084494F82A100180208B07
:103520006169801C82B2206809234668B04724F88C
:10353000185FA574E571A57270BD0000F8B541680B
:10354000044600230A88012722F007004FF4807CFC
:10355000B7EB102F02D1C0F3C4036046521E3D4D9D
:1035600002F0070205EB4215A289891C921E96B251
:10357000A681616022684FF0000E9289A4F80EE0E7
:10358000521E12B2302845D00DDC182847D005DC79
:1035900020B3082827D0102854D129E020282CD087
:1035A00028284FD12DE058280BD006DC38283FD0F2
:1035B000482841D0502845D103E0602801D060451B
:1035C00040D1022B3CD2244850F823507DB3A06850
:1035D000009004F10E033046A84734E00420E08157
:1035E000A068077021E091B2204602F085FA2AE037
:1035F00091B2204601F0F6FF25E02846FFF750FD86
:1036000013E02846FFF714FD06280ED12846FFF7E1
:1036100061FD0AE02846FFF70BFD0028EDD12846A2
:10362000FFF72BFD80F001000DE000200BE007E02C
:103630002846FFF7A2FCF8E72846FFF73DFCF4E731
:103640000D2000E00220E289A1688854E089401C36
:10365000E081F8BD041100205C06002001480068EC
:10366000FFF78BBC1400002001480068FFF7A9BCDD
:103670001400002001480068FFF7AABC14000020D5
:1036800001480068FFF7D4BC14000020034603483B
:103690000A4619460068FFF74CBC000014000020E1
:1036A000014602480068FFF74BBC000014000020F0
:1036B000034810B50078002801D000F003F810BDD1
:1036C0006406002070B5184D287801282AD1688832
:1036D00008B1401E1AE003F0C3FA144C04F10C01C7
:1036E000206882689047606078B120680A2204F1FF
:1036F00008010368984740B12046FFF71FFF206884
:10370000E289A16844680A23A04701206880A8884C
:1037100010B1A888401EA880E888002802D0E88858
:10372000401EE88070BD00006406002020060020D6
:1037300001480068FFF7A1BC1400002001480068A0
:10374000FFF7AEBC140000202DE9F843070063D05A
:10375000DFF8C890002189F8001009F10C01304809
:1037600008600E1F2F48306000F098FF2E48FDF7CC
:1037700092F904F0E3FE2D4800F06AFB2C4802F0B9
:1037800073FE2C4C2A4A2949206802F048FC2A483A
:1037900003F05BFF30680090284B274A28482168D7
:1037A00002F082FA274800F053FB274800F050FB54
:1037B000264802F000FB26482449264D0068C0E94F
:1037C0004351254800F014FB06F108012348086026
:1037D00001F0BAFB0020FDF791FA4FF0010885F8DF
:1037E0002480206802F008FC2861206802F004FCB4
:1037F0000014A88233682A4619482168FFF726FC7E
:10380000206802F004FC014600221548FFF791FBF6
:103810001348386089F80080BDE8F883640600200A
:10382000D00400205C020020AC0500202C01002008
:103830002C03002084050020F40200205404002002
:10384000E4010020580100208401002090040020A1
:10385000940500209C23002068040020B804002068
:103860000411002010B5B0F80031002220F8131028
:10387000B0F80031A0F802315B1C9BB2A0F8003117
:10388000802B02D30023A0F80031002330F913402D
:103890005B1C9BB22244802BF8D3D31702EB5362FC
:1038A000D211A0F80421084610BD00210A4620F8D4
:1038B0001120491C89B28029F9D3A0F80021A0F871
:1038C00002217047B0F904017047000070B58CB058
:1038D00020216846FCF755FD00252C4808950995E0
:1038E0000A9529490B95016001244FF48031046148
:1038F000C0E90115057680F820502549C0E90A1570
:10390000C902C461C16080F830504461FDF748FCD1
:1039100008B172B6FEE703260A2004968DE851002E
:103920004FF48010CDE906508DF815508DF81450E5
:10393000694616480395FDF7AFFA08B172B6FEE77F
:103940000C2000900220019069461048FDF7A4FA6F
:1039500008B172B6FEE70D20CDE9000669460B48B6
:10396000FDF79AFA08B172B6FEE70B950894CDE917
:10397000094608A90548FDF76DFB002801D072B67D
:10398000FEE70CB070BD0000002001403C070020A5
:103990000100000F2DE9F04186B014216846FCF7C4
:1039A000F0FC35480024016841F0800101600168A5
:1039B00001F080010591016841F004010160016896
:1039C00001F004010591016841F001010160016805
:1039D00001F001010591016841F0020101600068F8
:1039E000264F00F002000590002210213846FDF716
:1039F000BCFDDFF88C8000224AF208414046FDF70A
:103A0000B4FD10264FF4041001250096CDE9010500
:103A100069461C48FDF7ACFC0096CDE901546946A7
:103A200038460394FDF7A4FC4FF481600090112008
:103A3000CDE90104694640460394FDF799FC68030B
:103A4000CDE900050220CDE9024069464046FDF778
:103A50008FFCA8038DE8310069464046FDF788FCDD
:103A6000E803CDE90005CDE9025469464046FDF77B
:103A70007FFC06B0BDE8F08130380240000802400B
:103A8000000402400000024010B50348FFF75CFE4E
:103A9000BDE8104004F084B91400002010B50022E5
:103AA00003212520FEF792F82520FEF781F8002259
:103AB00003213A20FEF78AF83A20FEF779F800222F
:103AC00002211220FEF782F81220FEF771F8002280
:103AD00011461920FEF77AF81920FEF769F800223E
:103AE00004211820FEF772F81820FEF761F8002272
:103AF00003210A20FEF76AF8BDE810400A20FEF70D
:103B000057B8000030B597B014210FA8FCF739FC66
:103B1000002414941C2168461594FCF732FC2021E3
:103B200007A8FCF72EFC3B4839494FF48075C0E9E3
:103B300000142021816040F64121C0E903150121D4
:103B4000C0E90514FEF7B8FB08B172B6FEE73148CC
:103B5000FEF7A3FD08B172B6FEE706200F90102015
:103B600010900FA92B48FEF7D1FD08B172B6FEE701
:103B7000149414A927481594FEF760FB08B172B697
:103B8000FEE76020CDE900040294039404940594B8
:103B9000002269461F480694FEF719FD08B172B667
:103BA000FEE7042269461B48FEF711FD08B172B614
:103BB000FEE7082269461748FEF709FD08B172B60C
:103BC000FEE7702000904FF4246001900C226946BB
:103BD0001048FEF7FCFC08B172B6FEE74FF4006037
:103BE00007904010CDE9080521200A904FF480503D
:103BF000CDE90B0407A907480E94FEF7F5FA08B1C2
:103C000072B6FEE70348FEF7A3FC17B030BD000014
:103C100000000140D80700200948417831B1002157
:103C2000417001700748C168016170470178491C03
:103C3000C9B20322B1FBF2F302FB1311017070470A
:103C4000300700202C6100201E4910B5084691F96C
:103C500003200089002A2EDD0B79012B2BD068BBB5
:103C600019484278B2B1194C2068401C0A2290FBD6
:103C7000F2F302FB13022060C2B1052290FBF2F3C3
:103C800002FB1300002815D1088A80B2BDE810405D
:103C900002F0D2BE007828B1012805D0022809D14F
:103CA000C888F3E78889F0E70220EFE702F05DFEBD
:103CB0000020206010BD08B9002AFBD1BDE81040EB
:103CC00002F0D4BE2C610020300700203407002011
:103CD0002DE9F041264C00270826A278254D082A18
:103CE00043D007DC22490878C9681AB3062A10D1E4
:103CF00048B329E00A2A16D00B2A0AD11EA003F0E5
:103D000017FD94F90300012802DB2178012902D074
:103D10006E76BDE8F081022801DBFFF79FFCE078BA
:103D2000401EE070F5E7FFF79FFC20816E7627705C
:103D3000E770EEE70028ECD008B20A21FFF7A6FCF6
:103D400001202876E5E76E766078142801D2401CC1
:103D500060700E48278100EE101AB0F85C00BDE8D4
:103D6000F041B8EEC00AFFF79BBC2781D1E7000005
:103D70002C610020041100204D6F746F7220466189
:103D8000756C74204F7665720A0000004461002053
:103D900010B50446007808B1002014E094F826001D
:103DA00000F0A4FF0146A0F57F40FF3808D0208B2B
:103DB000228A0346401E02FB0011B1FBF3F0208271
:103DC000204600F027F8E08280B210BD0021018279
:103DD0007047017811B1808A00B27047018A026A87
:103DE0008A1AB0F91E10808C514300EB2140F3E792
:103DF00010B50446007820B10020E082608A20825D
:103E000010BD201D00F0D0FF84F826002046FFF7EB
:103E1000DDFF10BD018A428B914201D90820704715
:103E2000828B914201D200207047C08A7047B0F95E
:103E300022007047C08C7047B0F906007047408B75
:103E40007047C08B7047B0F904007047808B704793
:103E5000018881804188C180018C4184002181607A
:103E60008162704781607047418470470122C1843C
:103E70008A4082847047C180704770B501248C40AD
:103E8000C18305464483C4EBC43100F00FF8A4EBB2
:103E9000C431284600F008F870BD818070470122C7
:103EA00081838A400283704701617047C160704717
:103EB000F0B5B0F904600025B0F91430B0F916403F
:103EC000B0F906204E4352B187684A43B91808D565
:103ED000002F0BDD002A09DD6FF0004106E0002114
:103EE0000DE0002F02DA002A00DA0F49C2688A4288
:103EF00002DB02698A4202DD1146826000E08160D5
:103F0000827F077F41FA02F23E4132449A4202DD4B
:103F10009D1A1A4603E0A24201DAA51A2246294454
:103F2000816010B2F0BD00000100008070B5054650
:103F3000D0F80C01C168D0F8160011FB00F211FB9B
:103F40003020C11700EB11400414D5F8100103F024
:103F5000D1FAD5F8081148434FF4167190FBF1F0EF
:103F6000444304EB440040000A2190FBF1F1C817E0
:103F700001EB104001142846BDE87040FFF772BC09
:103F8000C169084770B50446002511B1012909D05F
:103F900013E000F003F9B4F8660008E02169204658
:103FA000884709E0B4F8520030B1401E80B2A4F84E
:103FB00052000028F2D000E00125284670BD42687A
:103FC000104730B4B0F840200BB253430A14B0F895
:103FD00064104A4352005242D418A2EB030304EB8C
:103FE000D47403EBD37364104FEA63034FEA910177
:103FF0004DD5002B17DA042280F87020E21AD5176D
:1040000002EB953201EBA241DA1703EBD23201EB5E
:104010006243E21704EBD232A1EB6244A0F84A40BB
:10402000A0F84C1066E0002A17DC032480F87040EA
:10403000D41AE51704EB953401EBA441DC1703EB2C
:10404000D433D41701EB634302EBD432A3EB6244C5
:10405000A0F84A40A0F84C3016E0022380F87030F7
:10406000A31ADD1703EB953301EBA341E31704EB30
:10407000D333A1EB6344D31702EBD33204EB624397
:10408000A0F84A30A0F84C40A0F84E104EE0002BAB
:1040900017DB012280F87020E21AD51702EB953267
:1040A00001EBA241DA1703EBD23201EB6243E217D4
:1040B00004EBD232A0F84A30A1EB6244A0F84C10D5
:1040C00032E0002A19DC052380F87030A31ADD17CE
:1040D00003EB953301EBA341E31704EBD333A1EBDF
:1040E0006344D31702EBD332A0F84A1004EB6243C7
:1040F000A0F84C40A0F84E3018E0002480F8704042
:10410000D41AE51704EB953401EBA441DC1703EB5B
:10411000D43301EB6343D41702EBD432A0F84A1036
:10412000A3EB6244A0F84C30A0F84E40002900DC1C
:10413000002189B2A0F84210002B00DC00239AB2C3
:10414000A0F84420002C00DC0024A3B2A0F84630E4
:10415000B0F86240012C1ED1B0F95440002CB0F8E8
:10416000684001DD214400E0091BA0F84210B0F9CD
:1041700056100029A1B201DD114400E0511AA0F847
:104180004410B0F958100029A1B201DD194400E033
:10419000591AA0F84610816930BC08478168084761
:1041A000C168084770B52C4801784078814214D026
:1041B0002A4D3B2942D011DC1F2946D0284E00242D
:1041C0002F2922D0372908D126A003F0B1FA2C706C
:1041D00096F85600E8702C712C8170BD3D290DD0E9
:1041E0003E29FAD122A003F0A3FA28890028F4D1AD
:1041F000E8780028F1D00120287070BD20A003F0DD
:1042000097FABDE87040FFF707BD1FA003F090FAD2
:104210001F4844702869E860E87828B128790128A7
:1042200002D028890028E8D0FFF718FA96F856003F
:10423000E8706C702C712C812C7070BD15A003F08F
:1042400077FABDE87040FEF7BDBD15A003F070FA27
:10425000BDE87040FCF710BD2E0700202C61002047
:104260004461002053746F70204D6F746F720A00A8
:104270005374617472204D6F746F720A00000000F5
:104280004D6F64650A0000005365740A0000000069
:10429000300700204164642053706565640A0000A3
:1042A0005375622053706565640A000010B598B0BC
:1042B00060221B491020FCF702FC194C20780028D2
:1042C0001AD004F1240094F82310CDE9001094F8DA
:1042D000223094F82120611C12A003F029FAB4F8CE
:1042E0005E000090B4F85C3034F8582F19A0618853
:1042F00003F01EFA18B010BD22A003F019FA6846A8
:10430000FCF78EFD602269460548FCF721F818B0DD
:104310006022BDE8104002491020FCF7FDBB000000
:1043200044610020446576656C6F7065723A257350
:104330002C56657273696F6E3A25642F25642F259C
:10434000642C436F6D706C69652054696D653A2506
:10435000730A000020204D696E53706565643A252C
:10436000642C4D617853706565643A25642C4475FE
:10437000726174696F6E3A25642C537465703A25C6
:10438000640A00004E6F7420466F756E6420537986
:104390007374656D20496E666F0A000090F8921084
:1043A000A9B9D0F8941091F87420022A0FD18A6824
:1043B000898A09049161D0F89420D168128B120483
:1043C0008A61D0F894201169928B12048A610121CC
:1043D00080F890106E3070472DE9FC470446D0F805
:1043E0009400002640F25557456894F874004FF049
:1043F0000408002850D160680090A0690190A66769
:10440000E667C4F8806084F88F60286AB843286241
:10441000364860603648A06184F88E8084F87080E9
:10442000204600F0AFFBD4F8940004F18F0304F1B0
:10443000480190F873209A468946284604F0A0FA6D
:10444000204600F06FFB84F88F602A48606084F893
:104450008E6084F87060204600F094FBD4F89400DD
:104460005346494690F87320284604F089FA2046BE
:1044700000F058FBA06FC008A067E06FC008E067BD
:10448000D4F88000C008C4F88000012084F87400CB
:10449000009860600198A0610121284603F06CF942
:1044A0001021284603F068F94FF4807949462846E0
:1044B00003F062F934F88C0F68632088A8632088C1
:1044C000E8630121284603F081F91021284603F012
:1044D0007DF94946284603F079F9286A384328626D
:1044E00004F81C8CA671BDE8FC8700000946000892
:1044F000934A00085D460008826F0A60C26F4A60F6
:10450000D0F8800088607047F0B5D0F894205268E9
:10451000136A23F48053136290F870403822D0F865
:10452000943002EB84029A5815684FF6FF7202EA43
:10453000450C502505EB84055B591B68314E02EA9A
:104540004305721C7742530C062C50D2DFE804F06E
:10455000163333030316846FA4EB0C04B44201DC5E
:104560000A8004E0BC4201DB0B8000E00C80C46FD9
:10457000641BB44238DDBC4232DA37E0C46FA4EBCE
:104580000C04B44201DC4A8004E0BC4201DB4B80F5
:1045900000E04C80D0F88040641BB1F902502C44FC
:1045A0006442BC4201DB0B8021E0B44201DC0A80A2
:1045B0001DE00C801BE0846FA4EB0C04B44201DC12
:1045C0000A8004E0BC4201DB0B8000E00C80D0F8E4
:1045D0008040641BB1F900502C446442BC4201DBB2
:1045E0004B8004E0B44201DC4A8000E04C800A8841
:1045F00020F8542F4A8842800A8849881144494249
:104600008180F0BD0080FFFF10B5D0F89420526883
:10461000136A23F48053136290F88F20102A19D262
:1046200090F88E303824D0F8942004EB8303D258CD
:10463000126850F8783F50241A440260837DC269A2
:1046400004EB8303D258126843681A444260C27D67
:10465000521CC27500200880488010BD10B5D0F8EB
:1046600094205268136A23F48053136290F88F20C9
:10467000102A0FD290F88E305024D0F8942004EBFA
:104680008303D258126850F8803F1A440260C27BFC
:10469000521CC27300200880488010BD30B5D0F88D
:1046A000941006C94B6823F020034B606FF002039F
:1046B0000B604B6823F080034B606FF004030B60CA
:1046C000146824F001041460194CA24204D1194C5E
:1046D000E56845F00105E5606FF080041461D0F8ED
:1046E000944094F872401CB1D46844F08004D460C3
:1046F000146A40F255552C4314628A6842F0010254
:104700008A60CA6A22F47002CA620B604A6842F088
:1047100080024A604FF4801240F8882F8A6B22F49E
:1047200040128A630021017220F8261C30BD00006F
:1047300000000140002004E090F890200021012AB0
:1047400003D14021002280F89020084670470000E5
:1047500070B50546D0F8940095F8731044680129A7
:1047600075D12168C906FCD52168C906FCD490F82A
:1047700073002063602201212046FEF765FB206A5A
:1047800040F001002062D5F8940090F874000128F0
:1047900002D0022804D007E0206A40F0040002E0C2
:1047A000206A20F004002062B5F88C0040086063A5
:1047B000602210212046FEF747FB206A40F01000DF
:1047C0002062D5F8940090F87400012802D00228E5
:1047D00004D007E0206A40F0400002E0206A20F0A8
:1047E00040002062B5F88C004008A06360224FF4BE
:1047F00080712046FEF728FB206A40F4807020621A
:10480000D5F8940090F87400012802D0022804D052
:1048100007E0206A40F4806002E0206A20F48060B3
:104820002062B5F88C004008E063D5F89400006879
:10483000416821F48051416005486860054868611D
:104840000548E8600548A860002085F8730070BD41
:1048500009450008634C0008854B0008254B0008FB
:1048600070B50546D0F89400446895F87300E8BB2D
:10487000602201212046FEF7E7FA206A40F001009D
:104880002062206A20F00400206200206063D5F8D6
:10489000940090F87400012802D002280DD019E08D
:1048A000102211462046FEF7CFFA206A20F01000B1
:1048B0002062206A40F040000BE0202210212046B8
:1048C000FEF7C2FA206A40F010002062206A20F051
:1048D0004000206270224FF480712046FEF7B4FA47
:1048E000206A20F480702062206A00E002E020F458
:1048F0008060206205486860054868610548E86096
:104900000548A860012085F8730070BD6149000862
:10491000494A0008A1490008254B000810B5044683
:10492000D0F894004268B4F88C004843010CA4F815
:104930004210032184F87010B4F8420050634FF421
:1049400080511046FEF779FA00B10120B4F8481002
:10495000012903D101200021A4F8481010BD000056
:1049600010B550F8942F5268136A23F480531362E1
:1049700050F824295024037804EB8303D25812689A
:10498000C068524200EB4200044A904202DD520CE1
:10499000904200DB10460880488010BD0180FFFF78
:1049A00070B5D0F89420D2E90041002280F871203F
:1049B0000A68D206FCD40A68D206FCD501224A63F2
:1049C000B0F88C20521F0A646FF001030B610A6972
:1049D00012F0010FFBD00B614A6C42F480624A6412
:1049E0004A6C42F400424A64D0F8942092F8745021
:1049F000022D20D10D6A40F25556354295680CD0F3
:104A00005269AA6150F8945FEA68AD6995610068DF
:104A10000269808B000490610DE0928A1204AA6101
:104A200050F8945FEA682D8B2D0495610268106937
:104A3000928B120482616FF0040020600B61C868E1
:104A400040F00100C86070BDD0F8941000224968A1
:104A50004A63921E0A610B6913F0010FFBD00A61D1
:104A60004A6C42F400424A64D0F8941091F87420E1
:104A7000022A0DD18A684969916150F8942FD16852
:104A8000128B12048A6101680869898B09048161AB
:104A9000704710B54FF48011C0F8881090F88E1050
:104AA00080F87010B0F88C10491E89B200F001F93E
:104AB00010BD70B5D0F89460B0F84A10B0F88C20F2
:104AC000B6F86850531AB0F84C409BB2AB4204D9C8
:104AD000042180F8701091B214E00C1BA4B2B4EB66
:104AE000430F03D9B6F86A20891A0CE0294489B229
:104AF0008A4209D84FF40012C0F88820B0F88C2000
:104B0000C1EB4201491E89B200F0D3F870BD0A68BA
:104B100082674A68C2678968C0F88010012180F8FE
:104B200074107047D0F894104968CA6822F00102E6
:104B3000CA60002280F871204A6C22F400424A6464
:104B400090F89220012A14D0D0F8942092F8743072
:104B5000022B0ED19368928A12049A6150F8943F06
:104B6000DA681B8B1B04936102681069928B120434
:104B700082616FF0010008610A6912F0010FFBD039
:104B80000861704730B5D0F894100022496880F869
:104B90007120B0F88C2052084A63B0F88C2052087B
:104BA0008A63B0F88C205208CA63B0F88C20521F78
:104BB0000A646FF001030B610A6912F0010FFBD068
:104BC0000B614A6C42F480624A644A6C42F40042CF
:104BD0004A64D0F8942092F87440022C1ED10C6ADA
:104BE00040F255552C4294680AD05269A26150F89F
:104BF000944FE268A469946102681069D2690CE07C
:104C0000928A1204A26150F8944FE268248B240423
:104C1000946102681069928B120482610B61C8680A
:104C200040F00100C86030BD30B550F8941F06C98F
:104C30008B6823F440138B6050F82439202510F83A
:104C4000184B05EB84041B598B63136A43F48053A0
:104C5000136202688B6813438B60E90340F81A19EA
:104C600030BDD0F894100122496880F87120D21E1E
:104C70000A6100234B638B63CB630B6913F0010F55
:104C8000FBD00A614A6C42F400424A64D0F89410A6
:104C900091F87420022A0BD18A684969916150F811
:104CA000942FD16892698A6100680169C06988613E
:104CB000704710B50446D0F89400B4F8421040682C
:104CC0004163B4F844108163B4F84610C1634FF4F3
:104CD0008051FEF7B2F800B10120B4F84810012964
:104CE00003D101200021A4F8481010BD70B51C4963
:104CF0004FF4007451F820201568127902EB42033A
:104D0000092A03D8260446EA035302E0154E06EBAF
:104D100003531A434FF4407393FAA3F3B3FA83F3A4
:104D2000DC4005EB8403DC6A02F01F0224F01F0460
:104D30001443DC6251F820201268D36C0123520125
:104D400002F18442C2F8783151F82000006801680D
:104D5000C1F340010029FAD0C06C80B270BD0000E0
:104D6000C4230020000020FE70B50D4C20780128DF
:104D700014D16078FFF7BAFF6080014602202070EE
:104D8000084A607852F83030002B07D0002502EB3B
:104D9000C00225705268BDE87040184770BD000021
:104DA00078060020D4230020F0B5FF23384C0022E1
:104DB00054F82210E1B10D790679B54205D10968A0
:104DC0000568A94201D113460422521CD2B2042A1A
:104DD000EED3042B5AD22E4A0021103244F823007D
:104DE00042F8331001688A6812F0010F04D019E00C
:104DF000042BEAD91346E8E74A6822F020024A6009
:104E000001686FF002020A6001684A6822F08002BD
:104E10004A6001686FF004020A6001688A6842F023
:104E200001028A600168CA6A22F47002CA620179CA
:104E300004684FF00075092901EB410202D845EAE8
:104E4000025202E0134E06EB02521143826895FAB9
:104E5000A5F501F00070B5FA85F5E84004EB800097
:104E6000C4684FF0F87595FAA5F601F0F871B6FA36
:104E700086F621FA06F60727B74095FAA5F5B5FAA2
:104E800085F5E940BC438A401443C4601846F0BD30
:104E9000C4230020000020FE10B5D0E902134269AF
:104EA000012B04D90469A3F10103214405E005D1D4
:104EB00041684FF0000301FB02F1C360816091FB88
:104EC000F2F010BD2DE9F05F04460E46806861697E
:104ED0005FEA020A90FBF1F84FF0010B12D0A6EB4B
:104EE0000800814602F0AAFD0746404602F0A6FDF2
:104EF0000546304602F0A2FDAF420CD287420DD2E9
:104F000038460BE0304602F099FD60617043A060C6
:104F10000020E06014E0854200D2284600FB08F142
:104F20006061C4E9016121684FF47A7201FB0AF102
:104F3000B1FBF2F1491C09FB00F292FBF1F0E160D8
:104F400020615846BDE8F09F002181604160C1604A
:104F5000016101214161704701460020C9680029B3
:104F600000D101207047C0F3C200C000082805D05E
:104F7000102805D0182805D0002070470120704760
:104F8000022070470420704730B5024622F0070423
:104F9000C2F3C2020020D200304D102A3AD1304A6A
:104FA000B4F51D6F526848D01ADCB4F50D6F3CD0D3
:104FB0000CDCB4F5FA6F30D0B4F5016F2FD0B4F536
:104FC000056F2ED0B4F5096F24D12CE0B4F5116F24
:104FD0002DD0B4F5156F2CD0B4F5196F1AD12AE085
:104FE0001E4B0833B4F5356F1B6830D009DCB4F5BF
:104FF000216F24D0B4F5256F23D0B4F5296F09D1E2
:1050000021E0B4F5396F20D0B4F5456F22D0B4F566
:10501000496F21D005200D6030BD0A6030BD921C63
:10502000FBE7121DF9E7921DF7E70C32F5E70E32A8
:10503000F3E71032F1E71232EFE71632EDE71832FC
:10504000EBE71A32E9E71C32E7E70C3300E01B1DFF
:105050000B6030BD7033FBE77233F9E77C0600204C
:10506000041100202DE9FE4F904620F00702C0F306
:10507000C2004FEAC00CF9480C460025D0F800E009
:10508000F848F74E011F0068AA464FF0040B4FF096
:105090000A09BCF1180F77D006DCBCF1080F0ED05E
:1050A000BCF1100F07D124E0EF4FBCF1200F6CD002
:1050B000BCF1280F6AD007252846BDE8FE8F002BDB
:1050C00077D0482A06D0882A08D0C82A0BD00525D0
:1050D0000121BCE13046FDF7ABFF02E03046FDF7B1
:1050E0006EFF2070F4E708680028FAD000F0CCFDCD
:1050F000F7E7022B5DD3DB4BDC4F1B1D191FDFF8DD
:1051000070C309683F68DCF800C01B683431B2F531
:10511000196F70D055DCB2F58A6F6DD025DCB2F511
:10512000047F6AD00FDCB2F5887F67D004DC902A58
:1051300070D0D02A6FD1AEE0B2F5C87F6CD0B2F596
:10514000E87F68D1B0E0B2F5447F7DD006DCB2F5EF
:10515000247F7AD0B2F5347F5DD1AEE0B2F5547FD2
:1051600074D0B2F5647F56D10DE1B2F5016F6ED007
:1051700014DCB2F5BA6F6BD009DCB2F5926F68D06F
:10518000B2F5B26F47D19EE028E155E186E1B2F574
:10519000C26F72D0B2F5FA6F78D1A5E0B2F50D6F9B
:1051A0006CD007DCB2F5056F69D0B2F5096F6DD12F
:1051B000A8E03FE1B2F5116F6FD0B2F5156F65D180
:1051C000ACE0B2F5696F62D02EDCB2F5396F6FD00A
:1051D00015DCB2F5256F6CD006DCB2F51D6F69D019
:1051E000B2F5216F52D1A6E0B2F5296F6FD0B2F5BA
:1051F000356F4BD1AFE096E0CCE057E050E0B2F530
:10520000456F6FD009DCB2F53D6F6CD0B2F5416FE0
:105210003CD1ABE03DE039E044E0B2F5496F6FD0FE
:10522000B2F5656F32D132E041F29056901BB24236
:1052300067D01ADC41F2D041A2EB01008A4271D062
:105240000EDC02F53B6205E039E034E098E04FE027
:105250003EE0A3E0B2F5005271D0402A16D1A3E09F
:1052600040286DD0802811D1A4E0C02869D007DC87
:10527000402867D0802809D1A2E02EE046E03BE03C
:10528000B0F5507F70D0B0F5607F6ED0052502215B
:10529000DDE0184683E018467DE03BE02080F6E73D
:1052A00018460DE038467AE0384674E0384607E0A4
:1052B00054E048E03BE0604671E060466BE06046E9
:1052C000FEF7B5FDEAE7704602F014F9E6E73EE0C6
:1052D00068480068FEF77DFDE0E767480068FEF774
:1052E000F1FADBE745E03CE03046FDF771FED5E73B
:1052F0003046FDF76DFE41E03046FDF76CFECDE730
:105300003AE059E03046FDF766FE37E03046FDF7FB
:105310007CFEC3E73046FDF778FE2FE03046FDF710
:1053200077FEBBE742E03046FDF772FE26E03046EE
:10533000FDF788FEB2E73046FDF784FE1EE031E05F
:1053400036E03FE03AE03046FDF778FEA6E730462B
:10535000FDF774FE12E000F090FD9FE700F093FD72
:105360009CE701F06CF899E730E033E001F067F872
:1053700004E001F058F891E701F055F800148DE7CA
:1053800001AA694601E06A4601A901F067F8BDF883
:10539000000083E70846FEF74FFD7FE70846FEF76B
:1053A00052FD7BE7184616E0184610E018460AE062
:1053B000604610E060460AE0604604E038460AE0D5
:1053C000384604E03846FEF735FD67E70846FEF745
:1053D00038FD63E70846FEF739FD5FE7042B29D364
:1053E000982A18D004DC182A0BD0582A05D10CE0D2
:1053F000D82A19D0B2F58C7F19D00525A8F800B0AD
:105400005AE63046FDF7DFFD03E03046FDF7CFFDFD
:1054100004E02060F2E73046FDF705FEC0EB001027
:10542000810091FBF9F0F4E701F006F8F1E701F0F3
:1054300012F8EEE708253FE62146202A0AD0602A26
:105440001ED0A02A22D0E02A24D005250021A8F8C9
:10545000001031E64246094814E000008097000839
:1054600004110020840600209406002088050020F6
:105470008C0500209005002094050020AD970008C1
:105480004246534800F0D4F8054615E651484246D6
:105490000068F7E7386842462430F3E7A01CB2F50D
:1054A000F47F51D00FDC4FF00E01A82A2AD004DC83
:1054B000282A14D0682A0CD11DE0E82A27D0B2F59A
:1054C000D47F06D12CE0B2F50A7F4BD0B2F55A7FDB
:1054D0006ED005252088801CA8F80000ECE5A4F813
:1054E00000900C2B42D33C490A6802604A68426033
:1054F00009890181EEE73C2121803E2B36D33C22F5
:1055000039680AE02180102B30DB344903E0218028
:10551000102B2BD332490E220968FAF719FFD9E76D
:10552000074600F1040A3046FDF777FDC0EB001096
:10553000810091FBF9F038603046FDF76CFDAAF868
:10554000000006202080C5E7074600F10209A4F804
:1055500000B03046FDF764FD38803046FDF75BFD56
:10556000014632E0282020802A2B01D20825B1E70D
:1055700000268B464FEA09075BF82A006A46314647
:1055800000F085FBBDF9022004EBC600C2EB02125D
:10559000920092FBF7F20221761C0A50BDF804201B
:1055A000C280BDF80010F6B20181052EE4D391E768
:1055B000074600F10209A4F800B03046FDF728FDC7
:1055C00038803046FDF724FD0114A9F8001081E76A
:1055D0008C9700088C060020C597000898060020CC
:1055E000900600202DE9F84304460120D4E9015239
:1055F00090460022ADF80020A6890FB2E28113E0A8
:105600002846B61EB6B2AD1C00883B466A464146E7
:10561000FFF728FD002809D1BDF80010E289884471
:105620000A44791AE2810FB2002EE9D1BDE8F8836D
:10563000F0B5002501260C46168005E004F8016B44
:105640001688761C1680401C90F9006026B11788D9
:105650009F42F3DB062501E0002008702846F0BDDC
:105660002DE9FE4F164602460024C2F3C202FC4D4D
:10567000D20020F00700A246A94627464FF03C0C76
:10568000182A72D004DC082A0BD0102A04D129E091
:10569000202A6BD0282A6AD0072437802046BDE80C
:1056A000FE8F482806D0882806D0C82802D00524B6
:1056B0000120EEE00424FBE7087850B10128F7D17F
:1056C0002846FDF7B0FC014600224846FDF731FCB4
:1056D000EEE72846FDF7AEFC014600224846FDF7FE
:1056E00043FCE5E7DF4A0D88111FDFF87CC3DFF8D4
:1056F0007C830B68DCF800C01F46D8F80080126875
:105700003433B0F5216F44D05DDCB0F5B26F40D0DA
:105710002EDCB0F5247F73D012DCB0F5C87F70D0DA
:1057200007DC90286ED0D0286DD0B0F5887F6BD183
:10573000B9E0B0F5E87F68D0B0F5047F64D1BFE090
:10574000B0F5647F74D009DCB0F5347F71D0B0F56A
:10575000447F6FD0B0F5547F56D1D1E0B0F58A6F59
:1057600069D0B0F5926F4FD1EAE018E13CE141E138
:10577000B0F5096F0DD014DCB0F5FA6F09D009DC73
:10578000B0F5BA6F05D0B0F5C26F02D0B0F5F26FC8
:105790007DD1A3E0B0F5016F02D0B0F5056F76D1F1
:1057A0009CE0B0F5156F76D006DCB0F50D6F02D039
:1057B000B0F5116F6BD191E0B0F5196F6CD0B0F509
:1057C0001D6F64D18AE0B0F56D6F11D034DCB0F597
:1057D0003D6F0DD01ADCB0F5316F7FD009DCB0F52C
:1057E000256F7BD0B0F5296F78D0B0F52D6F4ED1F5
:1057F00074E0B0F5356F71D0B0F5396F47D16DE019
:1058000063E053E049E04BE041E054E0B0F5496F1C
:1058100064D006DCB0F5416F60D0B0F5456F36D18D
:105820005CE0B0F5656F33D0B0F5696F2FD12FE034
:1058300072E04DE04FE080E041F29057C11BB8426A
:1058400078D016DC41F2D043A0EB0301984272D02D
:105850000ADCB0F5716F41D000F53B60B0F5005047
:1058600071D0402813D174E0402978D080290ED11E
:105870007CE0C0296BD004DC402969D0802906D1A6
:1058800081E0B1F5507F6FD0B1F5607F6DD0052418
:105890000220308002E723E028E029B2104607E02A
:1058A00029B2104609E029B210460BE029B2604641
:1058B000FEF7F3FAECE729B26046FEF7DCFAE7E719
:1058C00029B26046FEF7D0FAE2E729B24046EFE798
:1058D00029B24046F1E729B24046F3E70424D7E76E
:1058E0004846FDF795FB65F30F0004E04846FDF7D9
:1058F0008FFB65F31F4001464846FDF7B4FBC7E741
:1059000088466A4601A9384600F0A8FDBDF9002086
:1059100029B2D8F800000AE0884601AA694638464C
:1059200000F09CFD2AB2BDF90010D8F8000000F08C
:105930001EFEADE71FE00FE005E0184629B2BCE708
:10594000184629B2B4E7294610460AE007E01DE0F0
:1059500016E0294610460BE0294610460DE0294680
:105960004046FEF79CFA93E713E015E029464046CF
:10597000FEF783FA8CE729464046FEF777FA87E779
:1059800029466046EDE729466046F1E7294660462C
:10599000F3E718462946EBE718462946E1E7096888
:1059A000D82813D006DC182810D058280ED09828F4
:1059B00009D10DE0B0F58C7F08D0B0F5AC7F05D0F3
:1059C000B0F5CC7F02D00524042062E70424FBE775
:1059D00008B200EB8000400090FBFCF001B2002216
:1059E0002846FDF7A6FAEFE7084604243246FFF7FB
:1059F0001FFE53E631F8022B951C1FFA85F8A6F816
:105A000000800D46984501DD37803EE0B0F5D47F3B
:105A100019D008DC282814D0682812D0A82810D063
:105A2000E8280CD10DE0B0F5F47F21D0B0F50A7F65
:105A300025D0B0F55A7F51D0B0F5A56F49D00524D7
:105A40002CE604242AE628688A8800EB80004000BF
:105A500090FBFCF001B24846FDF76BFA1EE6000031
:105A60000411002088060020880500208C050020F5
:105A700028888A8801B24846FDF776FA0EE6C2F316
:105A8000C407500701D1052F01D90A2406E60026D4
:105A9000E046DFF85C9019E035F836006A4600B25F
:105AA00000EB8000410091FBF8F0ADF8020005EB3F
:105AB000C6008188ADF80410C088ADF8000059F820
:105AC0002A00314600F018F9761CF6B2BE42E3D344
:105AD000E4E50848FDF7D2FB0446DFE5288860F3DB
