:020000040800F2
:10000000280D00209D010008A5010008A701000897
:1000100000000000000000000000000000000000E0
:10002000000000000000000000000000A90100081E
:100030000000000000000000AB010008F5510008BE
:10004000AF010008AF010008AF010008AF010008D0
:10005000AF010008AF010008AF010008AF010008C0
:10006000AF010008AF01000869180008AF010008DF
:10007000AF01000801540008AF010008AF010008FB
:10008000AF010008AF010008AF010008AF01000890
:10009000AF010008AF010008AF010008AF01000880
:1000A000AF010008AF010008AF01000809580008BF
:1000B000AF010008AF010008AF010008AF01000860
:1000C00000F002F800F03EF80CA030C80838241800
:1000D0002D18A246671EAB4654465D46AC4201D180
:1000E00000F030F87E460F3E0FCCB6460126334274
:1000F00000D0FB1AA246AB46334318471C790000D8
:100100003C790000103A02D378C878C1FAD8520777
:1001100001D330C830C101D504680C6070470000BD
:100120000023002400250026103A01D378C1FBD813
:10013000520700D330C100D50B6070471FB51FBDFB
:1001400010B510BD01F0E2F81146FFF7F7FF06F019
:1001500022FD01F0FAF803B4FFF7F2FF03BC01F04F
:1001600001F9000070B505460C46164602E00FCCBA
:100170000FC5103E102EFAD2082E02D303CC03C5B1
:10018000083E042E07D301CC01C5361F03E02178B9
:100190002970641C6D1C761EF9D270BD074880471B
:1001A00007480047FEE77047FEE7FEE7FEE7FEE789
:1001B00004480549054A064B70470000F9530008FA
:1001C000C100000828090020280D0020280B00206D
:1001D000280B00204343514330B55C18010C130C2D
:1001E0000D4692B25D4380B251432C1905465543EA
:1001F0000A0C09044D1962415843010C00044019CE
:10020000514130BDFEB5054610460C46184373D02B
:10021000AE468C460020AD1A01469C4167D3664627
:10022000002701243D46B61A9D4102D313463A46A3
:100230002124654676462F04360C3E432D0CB61A13
:100240009D4104D3150C1B042B4312041034654646
:1002500076462F06360A3E432D0AB61A9D4104D330
:10026000150E1B022B4312020834654676462F07F3
:1002700036093E432D09B61A9D4104D3150F1B01C3
:100280002B431201241D65467646AF07B6083E4350
:10029000AD08B61A9D4104D3950F9B002B439200E5
:1002A000A41C65467646EF0776083E436D08B61AED
:1002B0009D411AD392185B41641C16E000187646E3
:1002C00065464941B71A9D410191009009D36046A6
:1002D000B11A98418E468446009801990025401C29
:1002E0006941DD0752082A435B08641EE6D5724661
:1002F000634603B0F0BDFFE700200146C046C0469C
:100300002A462346F5E7002203098B422CD3030A31
:100310008B4211D300239C464EE003460B433CD452
:10032000002243088B4231D303098B421CD3030ABA
:100330008B4201D394463FE0C3098B4201D3CB01EA
:10034000C01A524183098B4201D38B01C01A52411A
:1003500043098B4201D34B01C01A524103098B421E
:1003600001D30B01C01A5241C3088B4201D3CB0009
:10037000C01A524183088B4201D38B00C01A5241EC
:1003800043088B4201D34B00C01A5241411A00D29C
:1003900001465241104670475DE0CA0F00D0494205
:1003A000031000D34042534000229C4603098B4275
:1003B0002DD3030A8B4212D3FC22890112BA030AFD
:1003C0008B420CD3890192118B4208D3890192117F
:1003D0008B4204D389013AD0921100E08909C30904
:1003E0008B4201D3CB01C01A524183098B4201D306
:1003F0008B01C01A524143098B4201D34B01C01AF1
:10040000524103098B4201D30B01C01A5241C30868
:100410008B4201D3CB00C01A524183088B4201D3D7
:100420008B00C01A5241D9D243088B4201D34B00F2
:10043000C01A5241411A00D20146634652415B1034
:10044000104601D34042002B00D549427047634615
:100450005B1000D3404201B50020C046C04602BD3B
:1004600070477047704700000246C80FC0078143BD
:100470004B0030B54B405B009B0D20D01923DB06B1
:10048000C91801231B05994220DB0324A407042576
:100490001346AB400BD3002B04D1EB0613409B005B
:1004A000E34204D401246407002312195941FF23B5
:1004B0001B0599420BD2C9000143500F09E0CB0242
:1004C00004D501430803024305D0054830BDFF2190
:1004D000C905084330BD084607210905884330BDDA
:1004E0000000C07FF0B50C46871A9C410D46861A65
:1004F0009D4103D2C01BA141D21963410D0D1F0DB7
:10050000C94EEC1BAE435CD07F057F0D0026002F4B
:1005100051D02D05AC46A943DD020123ED0A1B0590
:100520001D4320231B1B24D41746E7403818714174
:100530002F46E740CC199D402818314661410C0DEB
:1005400027D161449A4013D50023401C59415200E1
:100550000ED14008400001224B005205D34207D380
:1005600005204007C14201D5B04900E0B0493046FE
:10057000F0BD6B00002A00D001229A181F23203CF6
:100580001B1B01D5002302E0E540281871410C0D2A
:10059000D7D0012424050919C407CD07400849080C
:1005A000E40F28436144002CD5D00024401C614155
:1005B0009A40D0D1CDE76A05520DD9D1C90FC907EC
:1005C000D5E79C4D4E00002801D0012400E0002416
:1005D00034195F00002A01D0012600E00026BE1970
:1005E000954FAC420CD8AE420AD8B44206D0012591
:1005F0006D05EC42BCD010461946F0BD9942FCD0C6
:1006000000203946F0BDF0B51FB40C460F46811AE4
:100610009F412546861A9D4106D20125ED076F4070
:10062000401ABC4152187B41210D1E0D8D1BAC465A
:100630007D4D8D437ED075056D0D7CD00D05AE468C
:10064000AC431B031B0B794D52429D412023664650
:100650009B1B14D31746F7403818002600907441AE
:1006600060462F460741E41900989D4028186641CE
:1006700016D4714671189A4025D5012320E09318AD
:100680002A466A415200002B00D0521C1E23203EF5
:100690009B1B002B61DD3541EE1728186641E8D51C
:1006A000001876415B1C9A4000D3401C4B05F318A0
:1006B0001524E34010D3002B52D071467118D30F8C
:1006C000C01802D3491C05B0F0BD0123DB079A42D4
:1006D000F9D140084000F6E701225205B21801D1D5
:1006E000002853D00123CC0ADB029943891E002A3B
:1006F00008D1020C03D0020C0004103902E00246BB
:10070000002020390023550B05D112020823550B78
:1007100001D152010D23550C01D112011B1DD50C25
:1007200001D192009B1C150D01D152005B1C2025AC
:10073000EE1A01E02CE022E00546F5401543984012
:10074000CA1AE10769181305C918002ABBDA032081
:1007500040070818C10FC9070FE071466118B2E7DA
:10076000F10740080843711071444A000CD001237E
:100770005B059A42A7D2C90FC9070020A3E7490524
:10078000490D26D1002001E00028F4D100219AE78C
:10079000284D6600002801D0012100E000217118D9
:1007A0005F00002A01D0012600E00026BE19224F7A
:1007B000A94210D8AE420ED8B14208D001256D052D
:1007C000E94206D01946A802414010467BE79C4208
:1007D00001D0214677E70020394674E710B50C4672
:1007E0005C4005D50124E4076340FFF70CFF10BD12
:1007F000FFF778FE10BD30B40C465C4004D50124F0
:10080000E407634030BC6DE630BCFCE670B5012403
:10081000E40761400D465D4002D4FFF763FE70BD02
:100820006340FFF7F0FE70BDFF0700000000F0FF1F
:100830000000F07F0000E0FF0000F87FF0B5F94D08
:100840000C091E092C402E402F468BB0A7437DD0AB
:10085000B543FCD0002E7AD0002CFCD00D465D4074
:10086000ED0F2543AC1BFF25AD0464190894C502A8
:10087000440DC9022143500DDC0204430120C0078E
:1008800001430443D2020191200C110C00958C46C7
:10089000010423468B430A9161460904E24D8A43D1
:1008A0000991010A7D4449198039097805464D436B
:1008B00001266D18F605751B6943C90C640B891C6C
:1008C0004C436418B5012C1B250C2E04B4434C4337
:1008D0004D43210C691889090591009DE90701D054
:1008E0000121C90704912C4601996708CD072F43C0
:1008F0004C08059DE10B4D432D0C2946664675437A
:1009000002950D4645432E46029D7D1BB441009540
:100910000D465D4301942C0C2F040D465543AE4605
:100920002D0C3D43029503947546049C2D04641BD5
:10093000049406D2029C039D641C00267541039515
:10094000029401AC70CC009F7D1B01E03EE162E1AE
:10095000B44109040095079101940599A4086143E5
:10096000090C0C464443650BE7040C466646744389
:10097000A646640B3C43039502947446049DE4042C
:100980002C1B049406D2029C039D641C0026754116
:100990000395029401AC70CC009F7D1BB44101947F
:1009A0000C465C430095650FE7000C465443A64691
:1009B000640F3C43039502947446049DE4002C1B91
:1009C000049406D2029C039D641C00267541039585
:1009D000029401AC70CC009F7D1BB441AE09AF0600
:1009E000049DC900AD092F43049DA406AD060495DE
:1009F000079D344369180791059DE10B4D432D0C6C
:100A000029466646754302950D4645432E46029D8E
:100A10007D1BB44100950D465D4301942C0C2F04C1
:100A20000D465543AE462D0C3D4302950394754645
:100A3000049C2D04641B049406D2029C039D641C38
:100A4000002675410395029401AC70CC009F7D1B7C
:100A5000B44101948C050694079C890A611800959D
:100A60000791019C0599A4086143090C0D46454373
:100A7000680BEF040D46644665436C0B3C43049FD2
:100A8000ED047D1BAC4602D20025641C6841009E2B
:100A9000019D371B85410846584301950C46460F7A
:100AA000C5005443600F28436546E4002C1B02D266
:100AB0000025401C6E41019D3F1AB5412846BD09E5
:100AC000800628438446A009BF064E020699A40664
:100AD00076180743079D002068410A99079019433B
:100AE0000020099B00906046FF1913434041E20F2C
:100AF00064003A43A4460446D71A8C41A04203D965
:100B00000120009020463A46C70F941840416246A3
:100B1000D20F2243644664000494009CBE466400E5
:100B2000D71AA446044602978C417746002F01D17C
:100B3000A04204D96046401C8446029A2046C40F55
:100B4000A64694184041049A0546D20F22436446B3
:100B50006400D31A8D417146002901D1A84202D9FF
:100B600028461A46641C10430122002800D0164370
:100B700061020020079B891904465C410223002C76
:100B800002DB491813466441089DCE0A2D145D19F5
:100B90004B056705E10A2C050D1908993E43C90765
:100BA0006940002B08D0934006D30022761C5141A7
:100BB000002B01D1760876001C4A002D43DB15423C
:100BC00041D0AA433FD030460BB0F0BD06180D46C9
:100BD0004D41174C7642AC411AD395181C465C41E6
:100BE000134A6D42A24113D3012252054C00D44254
:100BF0000AD15C00D4420BD04B4002D59202114383
:100C0000E2E749004908DFE75940C90FC90718E082
:100C100000200849D8E7054801420DD10342F7D02A
:100C2000F2E700000000FF07B07000000000F07F56
:100C30000000E0FF0000F87F114859400143C01256
:100C400041400020C0E70123089A9B069A4205DC38
:100C5000032252078918C90FC907B5E705225207B1
:100C60008918074A1143D2125140ADE770B51546B5
:100C70001C4602460B4628462146FFF7DFFD70BDA5
:100C8000FFFFFF7F30B50346CA02400D1043164DEB
:100C9000164C0A1502D02043002A06DBAA1A002AA5
:100CA00012DDD040FF2A0BDC30BD5205520D01D1C0
:100CB00040004008AA1A07D4D0404042FF2A01DD74
:100CC000002030BD0028FCDD4A00002B01D00120AF
:100CD00000E00020101801225205D042F0D8C817B9
:100CE000C043604030BD00001E04000000000080D2
:100CF0000346CA02400D10B510430A1504D0012462
:100D0000E4072043002A05DB0A4CA21A04D4D04091
:100D1000FF2A00DD002010BD4A00002B01D0012079
:100D200000E00020101801225205D042F2D8C81766
:100D3000C04310BD1E0400001F22030C02D10F226D
:100D4000000402D0030E03D004E0002001467047E7
:100D50000002083A030F01D10001121F830F01D1D5
:100D60008000921E002801DB4000521E120551181F
:100D70004205C012411810467047C10FC90700D084
:100D80004042012292071143D6E701218907D3E7A8
:100D9000F0B58B4C0F09254689B0BD437BD01D09AA
:100DA0002646AE43FAD00E465E402740F60F3E433D
:100DB000254071D024012142FBD0FF24AD19A404A9
:100DC0002D1B039501252D05DB02DB0AC9022B43F0
:100DD000C90A29431E010901040F130F050121430C
:100DE0001701880B820391432D098C46A90B1E43E2
:100DF0008A039543B30B9A0396433F09BA0B9403B6
:100E0000A74302962E467E430497B6464E19D7193D
:100E10000C460196544305977E43371B7646BF1B0D
:100E20003601B646BE0B361900967646BC04371915
:100E3000009C01D3641C00946400002F01D00126A3
:100E40003443029E049F754366467E4304967600B3
:100E500034196E0034190094029C019E1C196643DB
:100E6000751BAE46069465464519059C05956C4371
:100E7000594375460891691A0191049E01465143F0
:100E8000A41B0491611A009C0791E10605D0610939
:100E90000122114302E072E06EE06109089D002723
:100EA0002C0A2D066918049D7C412A0A2D06691812
:100EB000019D6241AC0DAD026D185441079A910D30
:100EC000920255196141029A644658435443069B65
:100ED000059A5A43121A131B9A0E9B015B187A410A
:100EE000010B0005C3185141220A200644195A413A
:100EF0009A4200D2491C01204002814203D31523AB
:100F00000226F64302E014230326F6432020C51AE6
:100F1000A9401746AF40DA400A4320460399D8401B
:100F20000914731819055118039A3843D207514010
:100F3000AC4009D00122944006D30022401C51410C
:100F4000002C01D1400840001E4A934212D30122D6
:100F500003989206904207DB0520400709181A48BB
:100F60000143C012414004E0032040070818C10FAC
:100F7000C907002009B0F0BD0020F107FAE7051805
:100F80000C464C4111486D42A04115D394181A46A5
:100F90005A410E48644290410ED301204A00400558
:100FA000824209D35A00824206D35940C90F084AE7
:100FB000C90700201143DDE700200649DAE70000F9
:100FC0000000FF07FE070000FFFFFF7F0000E0FFBB
:100FD0000000F07F0000F87F70B505464800440D22
:100FE000124B0020002C0AD0634008D09A4206DA47
:100FF0006642B24203DD12054019514170BD002C1A
:1010000008D0002B09D0C90FC907002AF6DB084A0F
:10101000114370BDC90FC90770BD28460A031043AC
:1010200002D00020034970BD284670BDFF070000B4
:101030000000F07F0000F87F0121C905012341185D
:1010400042001B06D3185B0E0AD0C1100722D2063D
:10105000891840075242D14201D552008918704781
:10106000090208D50146002A03D0C10FC907002094
:10107000704710467047420202D000200249704774
:10108000072109050143F4E70000F87FF0B5FF25CB
:101090002D04C609C209FF2704462E400137CB099B
:1010A0003E4348402A402B400746002A6BD0002B85
:1010B00069D0AA4267D0AB4265D0002800DA324638
:1010C0000125ED0529432C4309022002090AD21A01
:1010D0004B0C7F24E31A434C000A7C44E35C7D24E0
:1010E0002404121914145B00A218884201D3521C64
:1010F00000E0400049420C465C4324115C43DB01A4
:101100006415E318040A5C43C502200D0C464443F1
:101110006419250A5D432303EC0C0D466543000367
:101120000019EB184C42A34201D35B18401CD405B4
:101130002018002B07D05B00C91804D3401C0029DD
:1011400001D1400840003F2189048A4209D3002A86
:1011500008DC1106090F04D0032149074018C00F0D
:10116000C007F0BD01224100120689187F225206F5
:101170009142F6D205214907C84201D59010F0BD31
:10118000FF20C005F0BD002F00DA32461648AA4203
:1011900007D2AB4205D21902090E17D0F80FC007CB
:1011A000F0BDFF2563002D06AB42F9D84900A942E6
:1011B000F6D8AB4201D1A942F2D0A94201D1002117
:1011C00001E061004908D0050843F0BD1102090E95
:1011D000FBD0FF200243D005F0BD0A460146104671
:1011E00054E70000FA6800000000C07F10B5014617
:1011F0009E240002CA15A307002A02D01843002A21
:1012000004DBA21A002A0CDDD04010BD1206120E1B
:1012100001D140004008A21A03D4D0404042002827
:10122000F3DDFF2248001206904201D9002010BDD4
:10123000C817C043584010BD0102C21504D0012395
:10124000DB071943002A0ADB9E239A1A02D40846B8
:10125000D0407047FF2241001206914201D9002080
:101260007047C017C04370471F22030C02D10F22E2
:1012700000041CD0030E01D10002083A030F01D173
:101280000001121F830F01D18000921E002801DB94
:101290004000521ED20551180212511819229040D6
:1012A00004D3491C002801D1490849000846704769
:1012B000C10FC90700D04042012292071143D3E772
:1012C00001218907D0E7000010B5FF22C30D1340AC
:1012D00009D05A4007D0914205DA5C42A14202DDB2
:1012E000C905081810BDC40FE407002B06D0002A5A
:1012F00006D0002902DBFF20C0050443204610BDB4
:101300004102FCD0004810BD0000C07F754600F0CF
:1013100025F8AE46050069465346C008C00085461C
:1013200018B020B5FEF744FF60BC00274908B64658
:101330000026C0C5C0C5C0C5C0C5C0C5C0C5C0C5E4
:10134000C0C5403D49008D46704710B50446C046B3
:10135000C0462046FEF7FFFE10BD00000048704763
:10136000C808002001491820ABBEFEE72600020095
:10137000704700000649002804D0486A0122104343
:1013800048627047486A4008400048627047000061
:10139000007C0140F0B51E4E726A1E490A401C498D
:1013A000C0318C681C4B1C40CB680568436887685B
:1013B0001D43C3683B431D4303691D43437D5B00DD
:1013C0001D43037D9B001D43837D1B021D4315436D
:1013D000C369026A077E1343C27D52077F003A4306
:1013E00013432343C46A426A282722433F5C046BA9
:1013F000FF003C432243846B2243C46B2243046CB2
:10140000406B2243024375628B60CA60F0BD0000EE
:10141000007C01400780FFFF010000CC10B50904EB
:101420001206094B02241143002806D09868204375
:10143000986098680143996010BD9868A0439860CF
:1014400098680143996010BDC07C014030B5039D90
:101450000448C4690C43C461D10129431A011143F2
:10146000416130BD00A001401448002917D08168B7
:10147000012211438160C16A92039143C162C16A32
:1014800042149143C162C16A82149143C162C16A2C
:10149000C2149143C1620168C907FCD070478168DA
:1014A0001022114381608168C906FCD48168022240
:1014B000114381608168C907FCD1704700A00140D9
:1014C00030B54C4A1069D068906ACB6948684C7A4C
:1014D00018430B7AA4035B0323431843CB7A1B0402
:1014E00018438B6918430B6A18434C690B692343F3
:1014F0000D7B0C682C43D060D0688D7A2843D06077
:101500009362DC20D0621461486A3B49C96A491C75
:1015100024D0516A5162012822D0022823D002230C
:10152000364D374C3749032822D0042831D00528BE
:1015300040D006284CD007280FD1106918431061FD
:10154000BFF36F8FEFF31080287072B60C6248689B
:10155000032292041043486062B630BD2A49D9E79D
:101560001069106130BD106908210843106130BD59
:10157000106918431061BFF36F8FEFF3108028706C
:1015800072B60C624868012292041043486062B649
:1015900030BD106918431061BFF36F8FEFF31080F7
:1015A000287072B60C6248680322520410434860E7
:1015B00062B630BD106918431061BFF36F8FEFF34F
:1015C0001080287072B60C624868486062B630BD00
:1015D000106918431061BFF36F8FEFF3108028700C
:1015E00072B60C6248680122D2041043486062B6A9
:1015F00030BD000000A00140C0F5FF1F1900002011
:101600006543218700700140550044000648816809
:101610000122114381600168C907FCD0816804225E
:10162000114381607047000000A00140002101606B
:10163000416001724172C1618172C17201730161C5
:101640000122D2074261816101620121416270473A
:1016500030B52448C06A244C401C19D0606A6062CE
:10166000224D6A6820690F231B049A430A2398437A
:10167000012929D002290DD0022303290DD00429E4
:1016800010D0052913D0062913D0072918D01BE044
:101690001748E4E70821084316E0184301218904AC
:1016A0000A4311E01843032149040A430CE018439C
:1016B0000AE02169194321610121C9040A4303E0B9
:1016C0001843032189040A43BFF36F8FEFF310819E
:1016D000084B197072B6084929626A6062B62061C7
:1016E00030BD0000C0F5FF1F00A0014000700140A8
:1016F000550044001900002065432187002904D0CB
:1017000001680122114301607047016849084900DE
:1017100001607047F0B5434B5A6803242406A24386
:101720005A60414E01229203404C414DB0422ED1AD
:10173000BFF36F8FEFF31086267072B61D625F687D
:1017400003263605B7435F6062B64F69102F02D09B
:10175000192F0FD04DE0BFF36F8FEFF31086267077
:1017600072B61D625C6801252D052C435C6062B673
:101770004A613EE0BFF36F8FEFF31087277072B6B8
:101780001D625C6834435C6062B64A6131E0264E9B
:101790001036B0422DD1BFF36F8FEFF31086267055
:1017A00072B61D625F680326B605B7435F6062B616
:1017B0004F69102F02D0192F0FD01AE0BFF36F8F8F
:1017C000EFF31086267072B61D625C680125AD05C8
:1017D0002C435C6062B64A610BE0BFF36F8FEFF39E
:1017E0001087277072B61D625C6834435C6062B615
:1017F0004A6102680C4C8034A26B4D680B68CE685D
:101800002B438D6835432B434D692B430D7E2D03B0
:101810002B434D7E6D032B43096911430360A16384
:10182000F0BD000000700140407C01401A00002023
:101830006543218703680B43036001680904C90FEE
:10184000002902D0910181607047826070470029B1
:1018500004D0416801221143416070474168490842
:10186000490041607047000010B51D4804F05AF867
:101870001C491B4804F0CEF81B49194804F0D8F85D
:101880001A4801780B0005F07BF80D262608260B78
:101890000E1114171A1D2023260002F0D9FE1AE09B
:1018A00002F07EFD17E002F031FF14E001F086F94E
:1018B00011E000F019FD0EE002F0C6F90BE000F0B7
:1018C00045FD08E000F012FD05E001F0CFF802E070
:1018D000806B03F0ADF8012000F00AF810BD0000A5
:1018E000040500204C000020940000203C01002052
:1018F000010602070B0F120F01209040044A002B33
:1019000000D11060090F012900D1906170470000DB
:1019100040430048174A904201D1002017E0154A81
:101920005832904201D1012011E0124AB032904267
:1019300001D102200BE0104A904201D1032006E0C1
:101940000D4A5832904201D1042000E005200B4B93
:101950001A6A002904D0FF2102318140114306E0B8
:10196000FF210131814011430122824091431962DC
:10197000704700000040004808410048804300488C
:1019800070B52E49884201D1002217E02B49583109
:10199000884201D1012211E02849B031884201D1A9
:1019A00002220BE02649884201D1032206E02449A5
:1019B0005831884201D1042200E00522214B9C6964
:1019C00001210C439C611D6A164608360C46B44042
:1019D0002C4391408C431C62002202608260826131
:1019E000C2610264042242641648C03802688A4315
:1019F000026082688A43826002698A430261826966
:101A00008A438261026A8A430262826A8A438262EC
:101A1000026B8A430263826B8A438263094880387F
:101A200002688A43026082688A4382608163054853
:101A30004038016081600161816170BD00400048F3
:101A4000084100488043004830B50B071B0F0D4C80
:101A50000906002A0AD0826901252A438261080FFB
:101A600003D1FF2002309840A06130BD8269520846
:101A700052008261080FF8D1FF2001309840A06128
:101A800030BD000000430048F0B5032464028F68B5
:101A900070260E23A5100A68002F48D082604A687D
:101AA000026082699A430B7E5B071B0F1A438261B7
:101AB00082690B7FB2435B075B0E1A4382618269C6
:101AC0000B7DA2439B075B0D1A43826182690B7CED
:101AD000AA439B07DB0D1A438261C2698B89120BF3
:101AE00012031B051B0D1A43C261026C01239B07E5
:101AF0009A430B8CDB075B081A430264026C0B8C65
:101B000052005208DB071A430264026CE0239A4336
:101B10008B8C5B071B0E1A43026482690723098DB5
:101B20001B0549079A43490A0A438261F0BD0260D6
:101B30004A6882608269B2430E7E7607760E32432F
:101B4000826182699A430B7F5B071B0F1A43826194
:101B500082690B7CA2439B075B0D1A4382618269F9
:101B60000B7DAA439B07DB0D1A438261B5E700009A
:101B700010B5436C0F24E402A3430C07640C234309
:101B80004364436C0F24E401A3430C07640D234317
:101B900043640B4B1C6A88000F2181402140824026
:101BA0000A43BFF36F8FEFF310800649087072B6D7
:101BB000054803494031C8631A6262B610BD00008F
:101BC00000700048180000209A65FA050905090D03
:101BD000C16170470749002806D0012807D00228B4
:101BE00001D1122008607047102008607047112052
:101BF0000860704700D00140F0B500220B68032751
:101C00001C46D440E40708D0046855003E46AE4068
:101C1000B4430E79AE4026430660521C102AEFD31F
:101C2000002201241D46D540ED0705D04D79002D39
:101C30002BD0254695408560521C102AF2D30022F5
:101C40001D46D540ED070CD0CD79012D23D0022DB6
:101C500025D0032D27D0164610362546B540C56041
:101C60000561521C102AEBD300221D46D540ED071A
:101C700007D08E79002E1BD0012E20D0254695400E
:101C80008563521C102AF0D3F0BD15461035264648
:101C9000AE408660D0E725469540C560E1E7254621
:101CA00095400561DDE725469540C5600561D8E7AB
:101CB000164610362546B54045608563E1E7254662
:101CC00095404560DDE730B5436A846A0F250829F1
:101CD00005D289008D40AB438A40134305E00839A3
:101CE00089008D40AC438A4014434362846230BD16
:101CF0000246002052690A4200D0012070470904C0
:101D0000C1617047C161704710B5032003F076F8D8
:101D10000220FFF75FFFBFF36F8FEFF310801A4BC6
:101D2000187072B6194A1A4802620121C90401608A
:101D300062B6BFF36F8FEFF31081197072B6026253
:101D40001449C16062B6BFF36F8FEFF31081197051
:101D500072B602620168092424042143016062B65C
:101D60008169C902FCD5BFF36F8FEFF31081197041
:101D700072B602620168292212041143016062B640
:101D800081694902FCD510BD1C00002065432187F4
:101D9000007001405E1000007CB50121084603F090
:101DA0006BF8012500956846057185710024C471A2
:101DB00044710926F60669463046FFF71DFF0220EA
:101DC0000090684605718471C4714471694630465B
:101DD000FFF712FF7CBD10B5FFF7DEFF01220721E0
:101DE000104600F044F810BD10B50C4A51888142ED
:101DF00001D9084603E09188814200D20846FEF7E7
:101E0000C4FF0022064BFEF719FD0022054BFEF72A
:101E1000BFFFFEF76DFF400210BD0000B8070020B5
:101E20000020AC40C0FFDF4010B500240A2207218B
:101E3000204600F0ADF8641CE4B2042CF6D310BDCB
:101E400010B5044604F052FE204604F024FE04F0CF
:101E500081FE04F0FFFD044604F07CFE04F060FE09
:101E6000204610BD10B54920FFF7EAFF10BD10B5A0
:101E7000002A10D00001072907D0082904D1401CEE
:101E8000C1B2482000F00CF910BD401DC1B248207D
:101E900000F006F910BD0021482000F001F910BD46
:101EA000F8B504462046FFF7A1F905462846FFF796
:101EB000FFF9214604F06CFF1C4904F011FFFFF705
:101EC00095F9064602241A4885422EDC194F8020D7
:101ED000002D1DD11FE0022C09D00A212846FEF753
:101EE0001CFACAB20721204600F052F809E00A2184
:101EF0002846FEF712FA795C802001436C2000F03E
:101F0000CFF8641EE4B20A212846FEF706FA054619
:101F1000002DE0D104E0397801436C2000F0C0F8D6
:101F2000F2B20721032000F033F8F8BD0000204191
:101F3000E70300003400002010B502460020002A0C
:101F400006D0012A06D0022A06D0032A06D006E0CF
:101F5000682004E06A2002E06C2000E06E20502936
:101F600009D046290BD02E290DD0452902D179213F
:101F700000F096F810BD732100F092F810BD7121A9
:101F800000F08EF810BD802100F08AF810BD00002E
:101F900010B503460C4600200021072C02D0082C67
:101FA00003D005E00C49895C02E00B490B31895CE8
:101FB000002B06D0012B06D0022B06D0032B06D017
:101FC00006E0682004E06A2002E06C2000E06E2059
:101FD00000F066F810BD00003400002070B5032446
:101FE000094988420ED80BE00A21FEF78CF9054614
:101FF0000A4607212046FFF7CBFF641EE4B22846BD
:102000000028F1D170BD00000F2700000FB410B5FB
:1020100068464089C1070AD045210020FFF78CFFA0
:102020000120FFF7DBFF10BC08BC04B01847810794
:1020300007D545210020FFF77FFF0220FFF7CEFFE5
:10204000F1E7010607D545210020FFF775FF0320C2
:10205000FFF7C4FFE7E7010707D545210020FFF799
:102060006BFF0420FFF7BAFFDDE7410507D54521E7
:102070000020FFF761FF0520FFF7B0FFD3E7C00B9B
:1020800007D045210020FFF757FF0620FFF7A6FFE6
:10209000C9E7024900204870C5E70000B8070020E2
:1020A00070B505460C4604F021FD284604F0F3FC0B
:1020B00004F050FD204604F0EEFC04F0A7FC04F010
:1020C0002FFD70BD10B50F4CE068401CE060322160
:1020D000FEF723F9002901D100F052F86421E068ED
:1020E000FEF71BF9002901D100F00EF87D21C9008F
:1020F000E068FEF712F9002903D100F007F800208C
:10210000E06010BD200000207047000070B514484A
:102110000068FEF73AFE0B24E4432246FEF75CFF1C
:10212000104A114BFEF734FE0022104BFEF730FE32
:1021300000220F4BFEF752FBFEF7DAFD0D4DA88192
:102140000D490820085EFEF718FE2246FEF744FF00
:10215000E2060A4BFEF71CFEFEF786F9286170BD09
:10216000B406002066666666666610400000394068
:102170000000F03FB807002004050020AAAA404054
:1021800070B5FFF76FFE174C20706178884224D03D
:1021900044380021144D154A154E030004F0F0FB9D
:1021A0000A060F180C1D1D1D1D121B1D6888002816
:1021B00013D10120107010E0117031700DE002F0A9
:1021C000BBFC0AE071701089D0805170698004E016
:1021D00000F028F801E002F0E3FF02F041FC207873
:1021E000607070BD200000203C010020B807002076
:1021F00030000020094800210170E1221201828094
:10220000AF239B004380C28064234381028181818C
:10221000417003480170417070470000B80700200A
:102220003000002010B50848017800290BD10121A9
:102230004170064801894289891801818288418854
:10224000083000F005F810BD30000020B80700206D
:102250000388934200D9028002888A4200D201801A
:1022600070470000F8B50346002500229446002080
:10227000002B01DA5B420125002901DA0122944694
:102280000022154F002902DB0024E44300E0012472
:1022900026464E4316419E1B63431341591833464D
:1022A0009600BE596643801B521C142AEADB012D9E
:1022B00004D162460949012A0BD0081A002801DA24
:1022C00007494018074904F02BFB0903000D084398
:1022D000F8BD40184042F1E708750008F6433200A7
:1022E000ED87640056875100012070471448818EA5
:1022F000491C89B281861348814219D81248016A63
:10230000042211430162016A490849000162016A1D
:10231000402211430162016A102291430162016A65
:10232000021511430162016A82159143016205E0C1
:1023300003484038017841700B210170012070473B
:102340007C0100201027000000000140F8B5624E1B
:10235000B08AB0852C213046715E0C3002F0E8F96D
:102360005E4908460C462C3800F0A2F95B4A20462C
:102370000C32F16800F0AEF9594802F0EDFA584A13
:10238000F16834321046123802F0F8FA534C382013
:102390002C3C205E534D400228613A20205E4002D2
:1023A00068614F48416B49022962806B4002686254
:1023B000284601F017F9286BC001000CB082696B48
:1023C000B16138223C20A25E205E121A5210101811
:1023D00000B2A0873A233E22E35EA25E9B1A5B1006
:1023E0009A1812B2E28743023F48036252024262E5
:1023F000C161726B8B1A5B109A1872633B4A3C4B3B
:10240000D47E002C14D0117F002200295BD0394CDF
:10241000016909190161002900DA02614169C918DD
:102420004161002900DA426100F062FA0120F8BD42
:10243000314A8918314A91420AD2314A0169126EF1
:10244000914203DA2F4A891801610AE0026108E02B
:102450000169002902DDC918016102E02A494969C0
:102460000161224C204D2034607821780827403DBE
:10247000884205D001F01AFF688A0A2800D16F82CD
:10248000706B002801DD014600E04142A2689142E4
:1024900004DD207860700220207009E0002800DC54
:1024A00040426168884203DA207860700120207021
:1024B000607821788842B7D001F0C4FE688A0A2883
:1024C000B2D16F82B0E7C2604169C9184161002989
:1024D000AADA4261A8E70000340500207800002055
:1024E00094000020CC070020D00200209C01002096
:1024F0009EEFFFFF73F9FFFF989919003133330006
:10250000D0030020884100000807002010B50446D1
:1025100002984A434343D01803218011C90504F0AF
:10252000FFF9020E0B02081661681A43CB17521A04
:102530009841C3075008184340186060E060206865
:10254000A0602046083001F03BFE10BD70B5044687
:10255000002666601D480546803D8168A868FEF734
:1025600095FDFEF769FD1822FEF736FDFEF78AFBA2
:10257000206026871648C0898005000F042821D0D6
:10258000E661FF20000620622868FEF755FD18224C
:10259000FEF722FDFEF776FB60610E496868FEF7E4
:1025A00075FDFEF749FD1822FEF716FDFEF76AFBE2
:1025B000A061666226632661A660E660A662E662A6
:1025C000666370BD01200006E061DAE7D0030020F9
:1025D000BC01002000007A4410B51449097A012991
:1025E00023D1124C603C616D814202DDE06D60667A
:1025F00010E0A26D82420ADD401A216E04F090F9CB
:102600000902000E0843E16D4018606602E00120F7
:1026100000066066616E206904F082F90902000E0E
:102620000843034948634042886310BDB00400205A
:102630005002002005490160054A42608160054959
:10264000C16001210175090601617047999919005E
:1026500033333300E2FFFF0870B5134B9A6CC2604E
:102660001A6D0261114C44616542856100228262EB
:102670000262C2614262C26242600260826002869D
:1026800001264686D86CC860586D08614C618D6122
:102690008A620A62CA614A62CA624A600A608A60E1
:1026A0000A864E8670BD0000D00300203333F3004D
:1026B00002880A800022825E054B5A43D31302220D
:1026C000825E03484243D013400018184880704788
:1026D000E649000077B500236E460421C35E715EB3
:1026E00002244B43DD130623045FF35E5C43E413D3
:1026F0002C1914800224045F4C430021415EE41332
:102700005943C813201A50807EBD0000F0B585B033
:1027100005463949E86C04F0E3FA2E468036716CC0
:1027200004F0DEFA0390A96804F0DAFA376C39464F
:10273000FEF7ACFC0290FEF77FFC1822FEF74CFC83
:10274000FEF7A0FAEC1DF93420620398E96804F062
:10275000C7FA3946FEF79AFC0190FEF76DFC182285
:10276000FEF73AFCFEF78EFA60620398696804F09F
:10277000B7FA3946FEF78AFC0746B16D04F0B0FAA5
:102780000090FEF759FC1822FEF726FCFEF77AFAB5
:10279000A062E0623846F16D04F0A2FA0646FEF748
:1027A0004BFC1822FEF718FCFEF76CFA20636063FE
:1027B000124F0298394604F093FAFEF717FDA087EE
:1027C0003946019804F08CFAFEF710FDE08739468F
:1027D000009804F085FAFEF709FDFF3541352880A1
:1027E00068803046394604F07BFAFEF7FFFCA8808B
:1027F000E88005B0F0BD0000DB0FC94000F07F4568
:1028000030B5838C012B6BD1002A01DB028401E0FF
:102810005242028420231C22C35E825E1E24045F77
:102820009B1A6343DB139A1812B282832623C35E7A
:102830009A4202DD428C428305E02823C35E9A421D
:1028400001DA002242830023CB5E028B934203DD38
:102850001A23C35EC36006E05442A34203DA1A237C
:10286000C35E5B42C3600223CB5E934203DD1A2347
:10287000C35E036106E05442A34203DA1A23C35E37
:102880005B4203610423CB5E934203DD1A21415E68
:10289000416106E051428B4203DA1A21415E49420E
:1028A0004161C26801688918016003694268D218F1
:1028B0004260446983681B1983600C4DEC43A94254
:1028C00001DD056002E0A14200DA0460AA4201DDF8
:1028D000456002E0A24200DA4460AB4201DD85605F
:1028E00030BDA342FCDA846030BD0000FF7F0000F1
:1028F00070B5544C544920694969E51F4018F93DA9
:102900002860206A6860284601F05AFC60696863A4
:10291000606AA8632046CC3801F052FCA8684B4C92
:102920004012E063E96B4A1222644949C97E0029DA
:1029300017D10621615E48430013E0634A43111337
:102940002164444A5342904201DDE26302E098422E
:1029500000DAE363914201DD226402E0994200DA89
:1029600023643B482030C0898005000F02D1E0631A
:102970003948206435483C3002F01CF83448374D63
:1029800060380078092816D3354EF16E706B03F06D
:10299000C7FF0902000E0843316B401831498842D5
:1029A00002DB4942401802E0002800DA4018C0016A
:1029B000000CE88501E0A88DE88528482E21695E95
:1029C000103001F0B5FE1023E26BEB5E1046584369
:1029D000C6131221206C695E05464D43ED13751B2D
:1029E0002DB2E5844A435843D113C013081800B2EE
:1029F00020856564A0641548443001F011FDE06C49
:102A0000A066206DE066606D206717483A22825EFE
:102A100001460E486830FFF7F3FE0C4DA06E80357E
:102A2000E861E06E2862206F68620F492846143121
:102A3000143001F087FCA88B2081288C6081A88C41
:102A4000A08170BDD0020020080700209400002063
:102A50009C01002099790000331300003405002008
:102A6000CC070020000000024C00002010B50448F4
:102A70000078012801D903F0FDFD012010BD000000
:102A80003C01002070B50446494352438818800039
:102A9000C00D144D4000285E400260602061206837
:102AA000E06020460C3001F08BFB6069014603F0CA
:102AB00037FF0B02020E1A430B16A168C817891ABA
:102AC00098414204C80B1043002800DA0020C005DA
:102AD000C00D4000285E41020348416349428163C2
:102AE00070BD0000587500085002002070B5044603
:102AF000002565601C4820601C48C06C014603F03E
:102B00000FFF0902000E0843A060A5872562184E3A
:102B1000F16E7069FEF7BAFAFEF78EFA1822FEF728
:102B20005BFAFEF7AFF840426062F068FEF784FAA5
:102B30001822FEF751FAFEF7A5F8A0610D49306999
:102B4000FEF7A4FAFEF778FA1822FEF745FAFEF728
:102B500099F8E061A56265636561E5602561E562FC
:102B60002563A563256470BD3333B3005004002092
:102B70005003002000007A44002101704170418020
:102B80008180C180018141818181C1810174418243
:102B90004161084A137A0376527A4276064A937B59
:102BA0009B06DB0F8376C176917BC907C90F01773E
:102BB00070470000D0040020BC010020FEB5574C37
:102BC0000126A07B8006002801DBA67403E0207BA1
:102BD000012804D0A674A07C01281CD09CE0504899
:102BE0005049808A48638863C8634F480621415E24
:102BF0004E4800F0C3F84D49C8760128EBD148692A
:102C00004B490863C1014B4A090C91824A49401261
:102C10004860A674DFE70020A074404D803D28780E
:102C20006870E1898805000F009044480190007C9D
:102C3000012804D10F20800181434031E181E089E6
:102C40003F4A8005070F114610464031C0303B0017
:102C500003F096FE06040D1F28283739002313863B
:102C60008B84038237480387082028702BE0168660
:102C70008E84217B012905D00921297006823148E3
:102C8000068720E008212970002101822D48018754
:102C900019E016868E84002101822A4801870920C6
:102CA000287010E016868E840682264806872648FD
:102CB0008687207CC00701D001F08CFD0920287098
:102CC00001E0092028700198007C01280BD1E089DF
:102CD0000F218901884300990907890D0843E08184
:102CE00001990020087402F071FA0E4C80212046F0
:102CF00002F0E0FB01228021204602F0FCFB60692B
:102D00008021884360610748403041680122D20336
:102D1000114341600D4820620120FEBDBC0100202E
:102D20001401002000000140040500207C05002063
:102D3000CC07002034050020DC060020F004002031
:102D4000D00100204C070020080700205515000086
:102D50000348017841700121017001207047000093
:102D60003C01002010B503F0D7FC03480178417006
:102D700002210170012010BD3C010020F0B5428A03
:102D8000521C92B24282077806266D4D00243B0009
:102D900003F0F6FD08051524354655659DCF017EE7
:102DA0008A4202D3477006704482017F002903D013
:102DB0004F2189012962BCE062492962B9E0017EA4
:102DC0008A4202D3477006704482017F002902D0F4
:102DD0005D492962ADE05D492962AAE0017E8A422F
:102DE00002D3477006704482017F002903D0554901
:102DF000873929629DE055492D31296299E0017E8C
:102E00008A4202D3477006704482017F002903D0B2
:102E10004E492D3129628CE04A498739296288E080
:102E2000017E8A4202D3477006704482017F0029E6
:102E300002D0464929627CE04349296279E0017E5B
:102E40008A4202D3477006704482017F002902D073
:102E50003C4929626DE04F218901296269E0012A1C
:102E60000AD0417E8A422ED341780B0003F088FDC0
:102E700006181B1E212427294278130003F080FD29
:102E8000060406080A0C0E2341801CE081801AE02B
:102E9000C18018E0018116E0418114E0818112E0D7
:102EA000012101700DE0022101700AE0032101708F
:102EB00007E00421017004E00521017001E0072111
:102EC00001704670448201210903296231E0418882
:102ED000C181047401214A0015180E230222C35E29
:102EE000AA5E934201DAC2810174491CC9B2052964
:102EF000F1D9017C0B0003F043FD0604070A0E1113
:102F000014181349416111E0124941610EE0012199
:102F1000C90541610AE01049416107E00F4941617B
:102F200004E00321C905416100E0446107214170CB
:102F300001704078072801D00020F0BD0120F0BDCD
:102F400000000140C31000000C130000031C00002F
:102F50007C3FD50183C02A007C3FD50083C02A0175
:102F6000044901610021C16001604160024A826040
:102F700081827047CDCA00009AD9FFFFF8B5164884
:102F8000154CC089154D4004800F403C002813D0DB
:102F9000134E1E21715E012815D0022817D0032878
:102FA00009D1104FF888FEF71FFF686138780028B4
:102FB0000FD0F08B2087F8BD0B491220085E41022C
:102FC00069612087F8BD480268612187F8BD2187C3
:102FD000F8BD00202087F8BDBC010020D0040020EF
:102FE00004050020B80700209C06002010B51048FA
:102FF0000078030003F0C4FC0E080D0C120C0C0C3E
:103000000C0C0C0C0C0C170CFFF7A2FE0028FBD0CC
:1030100010BDFFF7A7FE0028FBD010BD01F0C2FADB
:103020000028FBD010BD01F019FD0028FBD010BD19
:103030003C010020F0B59BB00446E51DF935E88B56
:10304000E94E41001A903046FDF75DF980B2A88242
:1030500019904820005B189041003046FDF753F965
:1030600080B2E8821790207DFEF72AF91690216A37
:1030700003F036FEFDF7E0FF0022DC4BFDF7DEFB40
:10308000FDF736FE80B21590E0871490A06BD8490A
:103090001390FDF7FBFF2646803630641290A06A3D
:1030A000FDF7CAFF01910090606AFDF7C5FF0B466E
:1030B0000246012100208907FDF7C0FB019B009A11
:1030C000FDF7BCFBFDF7D0F9706407461190394657
:1030D0001298FDF7DBFFB06410901598FEF7F0F83A
:1030E000C44903F0FDFDF0630F900F991098FDF7B0
:1030F000CDFFF0640E907F20C0050F99FDF7C6FF4D
:1031000030650D900F991298FDF7C0FF70650C9017
:103110003946129803F0E4FD306660681099FDF7B7
:10312000B5FFF0660B90A0680E99FDF7AFFF7066D3
:103130000A90E0680E99FDF7A9FFB0660990206932
:103140000C99FDF7A3FF306708901A98FDF71DFE54
:1031500002460B460020A849FDF770FBFDF784F9F5
:10316000B06507901898FDF710FE02460B46002048
:10317000A149FDF763FBFDF777F9F06506900D991E
:103180000798FDF783FF706705900D990698FDF786
:103190007DFFB0670490E0690390606C039903F0D1
:1031A0009FFD3946FDF772FF074660640B98FDF7F7
:1031B00043FF1822FDF710FFFDF764FD68600A98D1
:1031C000FDF73AFF1822FDF707FFFDF75BFDF067FB
:1031D0000998FDF731FF1822FDF7FEFEFDF752FDBD
:1031E00028600898FDF728FF1822FDF7F5FEFDF787
:1031F00049FDA8600598FDF71FFF1822FDF7ECFEBA
:10320000FDF740FDE8600498FDF716FF1822FDF772
:10321000E3FEFDF737FD28613846FDF70DFF182264
:10322000FDF7DAFEFDF72EFDA8630121C9058842EE
:1032300001DDA96303E0002801DA0020A863A78F5D
:1032400017986E497843FDF768F8A88319986B4979
:103250007843FDF762F868836949306903F040FDFF
:10326000684F3946FDF712FFFDF7C0FF2546FF35D1
:10327000813568636249B06903F032FD3946FDF774
:1032800005FFFDF7B3FFA8635D49306A03F028FD31
:103290003946FDF7FBFEFDF7A9FFE863F08C5A49BC
:1032A00048432864708D484368645549306B03F087
:1032B00017FDFDF79BFFA8645149706B03F010FDEB
:1032C000FDF794FFE8641498FDF75FFD009001910D
:1032D0001698F16A03F004FDFDF7AEFE0022434BA1
:1032E000FDF7ACFA019B009AFDF7A8FA1822FDF74A
:1032F00073FEFDF7C7FC2865444868654448A86527
:1033000011990398FDF7C2FEFDF796FE1822FDF70E
:1033100063FEFDF7B7FC68624042A862F06811994D
:10332000FDF7B4FE3B4903F0DBFCFDF75FFFA8852A
:1033300070691399FDF7AAFE2D4F394603F0D0FCB2
:103340000C21FDF7C1FFFDF751FFE885F0691399E6
:10335000FDF79CFE394603F0C3FC0C21FDF7B4FFDA
:10336000FDF744FF00B22886401068861A98FDF7E2
:10337000A7FF0290A16F03F0B3FCFDF75DFE264F9F
:10338000264B3A46FDF704FDFDF7B2FC6035287088
:103390000298E16F03F0A4FCFDF74EFE3A461F4B86
:1033A000FDF7F6FCFDF7A4FC68700298316803F0A5
:1033B00097FCFDF741FE3A46184BFDF7E9FCFDF797
:1033C00097FCA8700298716803F08AFCFDF734FE40
:1033D0003A46124BFDF7DCFCFDF78AFCE87020460C
:1033E000FFF794F91BB0F0BD00D8B80500004E40BF
:1033F000D7B3DD3FDB0FC9400000F03F3677000058
:1034000000401C4600007A4410270000FB7F0200A9
:10341000E093040000FEFF468DEDB5A0F7C6B03E78
:10342000F0B54249CA895208520002239A43042344
:103430009A4308231A4310231A4320239A430F2345
:103440009B019A43C03203239B029A4301239B02B0
:10345000D2189B009A4303235B031A43CA810024BA
:103460000C82334A4260334A8260334AC260334A34
:10347000026103220275324A8261324AC261324AD3
:103480000262324A4262324B8362324DC56202634B
:103490004363314A8263314A82877F23DB050364B9
:1034A0004464897B7D22CC06C11DF931D201002CF8
:1034B00002DA5410CC8300E0CA8348210A52284D16
:1034C000C564284901658E074665274C0466014698
:1034D000264A80310A604C60254A8267254AC267C5
:1034E0008365254CC465254F47668466244CC466B5
:1034F0000667164E4667234888602348C8600B61FC
:10350000224848618A612248C8610A6296208884FC
:103510000A20C8844B208001088501204885CD629F
:103520000C634C6305200887F0BD0000BC0100203F
:10353000F760ED3D0D6C9539F0A5F0398E8F963C16
:1035400017B7D1380000E041000061450AD7233C9D
:103550000000C0400AD7233D00004042DC050000C7
:1035600000004843CDCCCC3D000048440000FA4365
:103570000000FA420000C84200002041CDCC4C3E81
:103580000000A040000034423333054200005C429A
:103590000000104270B504460B46002B00DC5B4275
:1035A000636025685B1B5B115B1923605512A56086
:1035B0006D43E5600A4EB24205DD5A12D317E91792
:1035C0002846FCF71FFE19230A465B0400211B1A3C
:1035D000914103D219204004206170BD206170BD6B
:1035E0003333330070B50446E169A06E03F098F9F7
:1035F0000A02000E1043A26B0916D317FCF7EAFD6E
:10360000050E09020D43A169606E03F089F90902F4
:10361000000E08432D1AA16A206E03F081F90902F9
:10362000000E08432918A0690D18E169606D03F0C8
:1036300077F9060E09020E43A169A06D03F070F937
:103640000A02000E1043A26B0916D317FCF7C2FD45
:103650000902000E08433618616CE06D03F060F952
:103660000902000E08433618E16A206D03F058F98C
:103670000902000E0843811BE06908186169401ABD
:10368000E16B03F04DF90902000E08430001A16C43
:103690000818606420692A1AA06B002801DD012047
:1036A00001E00020C04342431046216C03F038F98A
:1036B0000902000E08430101606C411AA163A06475
:1036C000E06C03F02DF90902000E0843216B40184D
:1036D00020630D49884203DB49424018206303E020
:1036E000002801DA40182063A16B606B091A4911A8
:1036F000081860632069A0616069E061206AA062C7
:10370000606AE06270BD00000000000200210160FC
:1037100041608160C160016141618161C16101629B
:1037200041628162C162016341634164816381647A
:103730000F4A116FC163516F0164916FC164D16F02
:103740000165114680310B6843654B6883658B6862
:10375000C365CB6803660B6943664B698366536A2E
:103760004367926A82678A69C266896C016770479B
:10377000D0030020F3B589B00998002802DA09982F
:10378000454200E0099D002901DA484200E0084670
:10379000A84201DA019500E00190F548426D521C03
:1037A000426507790346184680300890986DF14CC1
:1037B0000790606CF04C06900026A08A3B0003F056
:1037C000DFF805042A517CA22800079BE8489A42AA
:1037D00009DB0122027146650998FEF743FDC0012D
:1037E000010CE64801870122D203E2612262626293
:1037F000A08AC103C913411AE14841638163C163CF
:10380000436980218B434361DD4840304168114367
:1038100041600BB0F0BDD649012A18D0CB6D9A4259
:1038200002DB02220A714E65E66126626662D449B5
:1038300048638863C8634869802290434861D048E0
:10384000403042680121C9030A434260E1E7019B1D
:10385000069A9A42E8DD089B01221A7004220A7136
:103860004E65E1E7079BC2489A420FDB03220271D3
:1038700046650998FEF7F6FCC001010CBF48418778
:10388000012109200903C006FEF739FA0122D203FB
:10389000E26122626262A08AC103C913411AB84878
:1038A00041638163C1634169802399434161B448A5
:1038B0004030416811434160ABE7AD49012A17D060
:1038C0000B6E9A4202DD04220A714E65E6612662A1
:1038D0006662AB4948638863C86348698022904345
:1038E0004861A7494031486812021043486090E798
:1038F000019B069A9A42E9DD089B01221A70042274
:103900000A714E65E2E708990B789E4905919E4938
:10391000049180310F46403F0391012B02D0012AD0
:1039200036D053E03E66BE64BE627E649749CE6088
:103930008F490A784A7006220A700599097A002987
:103940001AD001213980B9833E813E83FE82039AD9
:10395000118201228A4912030A6248638863C8639C
:103960004A69802082434A6185484030416801228B
:10397000D203114341604CE78349012240390A8652
:10398000049B9A84CE63CE658E6503990A82E0E734
:103990007A48418F008F081A4502012000068542AF
:1039A00003DD7F2040062D1806E0FF20000685423B
:1039B00002DA012040062D186D492846496E02F0B2
:1039C000AFFF0902000E08436C49C8636E490598B1
:1039D0004039027A0B460520FF33C00181330918B4
:1039E000002A4CD06548C96CC06B88427EDA4942D7
:1039F00088427BDD38660021B964B9627964634925
:103A0000C860596F02F08CFF881038813883F882C3
:103A100001203880B8830399088258485C4EC16BF6
:103A20008812F083B084F084B083F06B02F078FFEA
:103A30000A02000E1043326C0916D317FCF7CAFBBA
:103A40000A02010E1143706CFEF70CFC0290484F05
:103A50002846B96E02F064FF0902000E0843474988
:103A6000498F49020918029809180120C005081851
:103A700001214906884279DD49424018A7E03F48C4
:103A8000C96CC06B884272DA494288426FDD386681
:103A90000021B964B96279643C49C8600860596F13
:103AA00002F03EFF0902000E084337494039C8635F
:103AB000C86588650120088604998884039908826E
:103AC0002E48334EC16BB43EB1637164B16471630F
:103AD000306F02F025FF0A02000E1043726F0916C4
:103AE000D317FCF777FB0A02010E00E08CE01143CC
:103AF000B06FFEF7B7FB02901D4F2846B96E02F07B
:103B00000FFF0902000E08431C49498F490209189A
:103B1000029809180120C0050818306301214906E0
:103B2000884203DD49424018306303E0002801DA8F
:103B300040183063387878700620387001201049BA
:103B4000000308620020E06120626062E08A48634E
:103B50008863C8634A69802082434A6108484030CC
:103B600041680122D2031143416052E62CE011E08A
:103B70003C0100204C0000201401002034050020EE
:103B8000000001409004002010020020EC060020FC
:103B9000800800202A48C26D416D914201DB067108
:103BA0004665E661266266622649A08A48638863A4
:103BB000C863486980229043486122484030416888
:103BC00012021143416024E6002800DA40188012F6
:103BD000B0613878787006203870012019490003E8
:103BE00008620020E06120626062E08A48638863C6
:103BF000C863486980229043486112484030416858
:103C000012021143416004E60D48C26D416D9142BC
:103C100001DB06714665E661266266620949A08A93
:103C200048638863C86348698022904348610548B7
:103C3000403042680121C9030A434260E9E50000BF
:103C40003C01002000000140F8B5644C624820802F
:103C5000204600F02FFD624E2089B083B085B18AE6
:103C6000604A081A00B210805F4B984202DA401E88
:103C7000108006E05C4B5B42984202DD5B4BC01853
:103C800010805B4A0423D0795A4D5B4C002806D043
:103C9000012844D0022818D0042840D11EE05749FA
:103CA0006069884201DA143060615549E0688842F1
:103CB00002DA0830E06032E0E1604D488030C089CF
:103CC0008005000F2BD0D37129E04E496069401860
:103CD00060614D49884222DAD37120E0B185B06934
:103CE00030634A4F796B4B0249498B62BB6B5B0275
:103CF000CB650221695E404B4F02803B9F64E060D0
:103D0000E061012740331F82424BD8601078507029
:103D100038482B8840388387C18709201070304885
:103D20002C21715E0C3000F003FD32491439084635
:103D30000F462C38FEF7BCFC2E4A3846083AF1688C
:103D4000FEF7C8FC1421715E254800F0F1FC2A46FC
:103D500038463168FEF7BEFC2C4800F0FDFD2B4ACA
:103D6000316834321046123800F008FE0020285E18
:103D7000294F400238610220285E400278612348C2
:103D8000416B49023962806B400278623846FFF726
:103D900029FC386BC001000CB0827A6BB261154807
:103DA000382340383C21C35E415E5B1A5B105918D2
:103DB00009B281873A253E23455FC35EED1A6D1037
:103DC000EB181BB2C3874802206258026062E261AE
:103DD000FEF78EFD0120F8BDCC0C0000DC060020B3
:103DE000340500200C0000203A8EFFFF0100FFFF89
:103DF0003C0100208C000020D00200200AD70300E4
:103E0000444404008BFDFFFF4D620000940000203D
:103E1000D0010020EC060020CC070020F0B597B0C0
:103E20000546EC1DF934E08BDC4F41003846FCF7C9
:103E30006AFA86B2A6822846403015900089410071
:103E40003846FCF760FAE082D5497008C8828E8255
:103E5000A88F394602F07CFDD24A0023FCF7D2F944
:103E60002083AE8FE08AD04F70433946FCF755FA75
:103E7000A083A08A39467043FCF74FFA60832E4630
:103E80008036B16E14911391686F02F029FF129081
:103E9000776F11973946FDF7F9F80246306F1090A9
:103EA00001460F901046FDF7F1F8FDF7C5F8142212
:103EB000FDF792F8FCF7E6FEA064706E0D900E9090
:103EC000286F0D9902F00CFF39460C90FDF7DEF8D3
:103ED0000F99FDF7DBF8FDF7AFF81422FDF77CF83A
:103EE000FCF7D0FEE064E08B0B90FDF7E9F90146AA
:103EF000F06B0A90FDF7CAF8AC49FDF7C7F8FDF77B
:103F00009BF81822FDF768F8FCF7BCFE20653846E0
:103F10001399FDF7BBF8FDF78FF81822FDF75CF851
:103F2000FCF7B0FE6065F16E3846099102F0D8FEEC
:103F300008901399FDF7AAF8FDF77EF81822FDF70F
:103F40004BF8FCF79FFEA06538460D9902F0C8FEBD
:103F50001399FDF79BF8FDF76FF81822FDF73CF871
:103F6000FCF790FEE06538460F9902F0B9FE139910
:103F7000FDF78CF8FDF760F81822FDF72DF8FCF737
:103F800081FE20660E991198FDF780F8FDF754F830
:103F90001822FDF721F8FCF775FE60660E99089867
:103FA000FDF774F8FDF748F81822FDF715F8FCF74F
:103FB00069FEA0661499119802F092FE0E99FDF721
:103FC00065F8FDF739F81822FDF706F8FCF75AFEF8
:103FD000E0660B98FCF7D9FE009001910A98FDF776
:103FE0002BF80022724B06910790FCF7D1FE05904A
:103FF0000491019B009AFCF721FC012292076D4B72
:10400000FCF71CFC1822FCF7E7FFFCF73BFE2067DF
:104010001298B16F0391FDF739F81099FDF736F852
:10402000FDF70AF81422FCF7D7FFFCF72BFE6067B8
:1040300003990C98FDF72AF81099FDF727F8FCF77B
:10404000FBFF1422FCF7C8FFFCF71CFEA0671598C5
:1040500000890290FDF734F901460A98FDF716F839
:104060005249FDF713F8FCF7E7FF1822FCF7B4FFFD
:10407000FCF708FEE06714990398FDF707F8FCF7D2
:10408000DBFF1822FCF7A8FFFCF7FCFDFF358135AC
:1040900028600999039802F023FE04461499FCF75E
:1040A000F5FFFCF7C9FF1822FCF796FFFCF7EAFDC5
:1040B00068600E99039802F013FE1499FCF7E6FF6E
:1040C000FCF7BAFF1822FCF787FFFCF7DBFDA860BE
:1040D0001099039802F004FE1499FCF7D7FFFCF73F
:1040E000ABFF1822FCF778FFFCF7CCFDE8600E99D7
:1040F0000398FCF7CBFFFCF79FFF1822FCF76CFF3F
:10410000FCF7C0FD286120460E99FCF7BFFFFCF7C5
:1041100093FF1822FCF760FFFCF7B4FD6861149967
:10412000039802F0DDFD0E99FCF7B0FFFCF784FF69
:104130001822FCF751FFFCF7A5FDA8610298FCF7D7
:1041400024FE02460B4604990598FCF777FB0122F2
:104150009207184BFCF772FB1822FCF73DFFFCF7A7
:1041600091FDE8613068FCF767FF06460F46124A8A
:10417000124B06990798FCF70BFE32463B46FCF7BC
:1041800007FE012292070B4BFCF758FB1822FCF7A5
:1041900023FFFCF777FD286217B0F0BD00D8B80503
:1041A000140100200094357736770000DA0F49407B
:1041B0000000F83FFB2109408DEDB5A0F7C6B03EE9
:1041C00010B50446208E012805D000202062A06290
:1041D0006062A06010BD61682068411AE161626A96
:1041E000A068904209D1206902F09AFB0A02010EF0
:1041F000A06A11430818206201E0A06A2062616988
:10420000A06A884201DDA16206E0A169884201DA64
:10421000A16201E0206AA062E169E06802F080FB2F
:104220000902000E0843216A4018606261698842F1
:1042300001DDA16010BDA169884201DAA16010BD55
:10424000A06010BD30B515481649047809208001DA
:104250000A18134BFF31FF31114D403B1248023118
:10426000012C0ED0022C0BD12C68240C24040A340F
:104270002C60C98FD9624B08C382818291884181A9
:1042800030BD2C68240C24040A342C60898FD96238
:104290004B08C38281825188418130BDBC0100201E
:1042A00040000140D00100201401002010B5224838
:1042B000224C03780520E11DC001FF31204A20185F
:1042C000FA31012B1CD0022B19D1C369D363036AC5
:1042D0001364436AD364836A1365C36A5365036BCB
:1042E0009365436BD365836B1366C36B5366036C33
:1042F0009366406CD066886D2061C86D606410BDA7
:104300000B6FD3634B6F13648B6FD364CB6F1365E9
:1043100003685365436893658368D365C368136610
:1043200003695366436993668069D066086D2061AE
:10433000486D606410BD0000BC010020D001002069
:10434000CC070020F8B50020009011481349807B6D
:10435000CA69C407C88A0B6A07465F43FB13496AE8
:1043600042430746D2134F43821AC31AF913094D29
:10437000094E401A002C05D0EA63AB636863032042
:10438000B082F8BD6A63AB63E8630620B082F8BD13
:10439000BC010020000001404C000020140100205E
:1043A000704710B50368C1685A1A4261002A01DAE1
:1043B0005242426144698269944213DB00240482C0
:1043C0008B4202DB8918C16001E0891AC160C268B2
:1043D00081688A4201DDC16010BD41688A42FBDA12
:1043E000C16010BD01210182C36010BD70B50446DB
:1043F0000846002525606360A260E560FCF71CFEAE
:1044000002460B4604480549FCF718FAFCF73AFC4B
:10441000A0612582656170BDFCA9F1D24D62D040DA
:10442000F0B541684161414C02684B106243D213C0
:104430009C188461621AC26103230384002C00DD8E
:1044400002239BB20384002A00DD5B1E9BB203841F
:10445000002901DA0725EB1A9DB20584344B9B79BC
:10446000002B09D0334F2B007E1E02F089FA07592A
:104470002028303B46515900012D0CD0042D0AD084
:10448000022D0ED0052D0CD082605242C260091957
:1044900049420161F0BD8460891AC16061420161D5
:1044A000F0BDA2188260C16049420161F0BD6100A7
:1044B000C91981605200891AC1600661F0BD4900C6
:1044C000C919C1605200891881600661F0BD5300AE
:1044D000184A52429A185242C2604900511A016168
:1044E0008660F0BD134A630052429A18524202613C
:1044F00049005118C1608660F0BD4A000D4949422B
:10450000511849420161620089188160C660F0BD9E
:104510005100C91981606200891A0161C660F0BD4D
:1045200000218160C1600161F0BD0000D96E000012
:10453000F40000200180FFFF70B50446154DA86F00
:10454000FCF77AFD1822FCF747FDFCF79BFBE060C7
:104550001149E86F02F0C4FB1049FCF797FDFCF726
:104560006BFD1822FCF738FDFCF78CFB20610C4832
:10457000C16C6161006DA0610020A0622062E061F9
:104580006062E06260602060A06020860A20608631
:1045900070BD0000D00200200000204100401C46F9
:1045A0005004002010B52248214BC089803B800573
:1045B000010F1878052935D0597A012935D11D4ABE
:1045C0000021515E1C4A1824145FA1422DDD1624DF
:1045D000145FA14229DA5870052018701748416904
:1045E000802211434161164A002111864032918494
:1045F00080321182134A1187026A134B1A430262F6
:10460000026A9B109A430262026A104B1A400262CD
:10461000084A8032D16111625162918A416381639B
:10462000C16302E0587006201870012010BD000020
:10463000BC010020940000209004002000000140F4
:10464000D00100204C0700204404000077F7FFFF52
:1046500010B509484169802211434161074A084960
:10466000084801F0D3F8012804D1074801784170C7
:1046700003210170012010BD0000014094000020C2
:104680004C000020040500203C010020064807499A
:10469000808FC86206494208CA8288820248403038
:1046A0004088488170470000D0030020000001408E
:1046B0001401002002210022415E825E51434268C3
:1046C000C91389184160074A914203DD5242891893
:1046D000416003E0002901DA891841608188018185
:1046E00070470000FFFF000000210180054A428062
:1046F0000322920342600281034A42818181C28186
:1047000070470000C2050000FF7F000010B5074998
:1047100008462C38FDF7CCFF044A2E212C3A2C20D9
:10472000515E105EFFF726F8012010BD78000020D2
:1047300030B50122D2038A1892B2930903221202E1
:1047400013400122D203891889040A0E5100FF2563
:10475000AA1A124C5200002B13D0FF3B013B17D07A
:10476000FF3B013B08D0FF3B013B04D1A25A4280F2
:10477000615A4942018030BD615A4180A15A01808D
:1047800030BD615A49424180A15A4942018030BD41
:10479000A25A52424280615A018030BD067300081D
:1047A0000121C905C160094901610949416100212F
:1047B000816181620162C1614162C16241600160E7
:1047C000816001860121418670470000128300004C
:1047D0009999990070B51D480022825E03211D48F9
:1047E000090241181A4CFF301B4B8130A24207D2FC
:1047F000012212034A60194941640121998214E09F
:10480000174C184D1419AC4206D2174A4A60174982
:1048100041640221998208E0154CA24205D9154A4B
:104820004A6015494164032199821449406C096E1C
:10483000FCF72CFC124902F053FA0C21FCF744FD62
:10484000FCF7D4FC0F49088370BD000094000020E1
:10485000C11F0000D0010020880700200000F041A7
:10486000ABDFFFFFC5050000491200000000304229
:10487000AE2600005515000000005842D00200206E
:10488000D7B3DD3F90040020F0B52C4C38232546EB
:10489000403D2846E35E2A4F6030817EAA8801268B
:1048A000BB4203DD002901D1D70705D0254FBB420C
:1048B00006DBD20704D101E06E72F0BD0129FCD104
:1048C00000236B7229780429F7D3092901D008291C
:1048D000F3D11A4A4032D2899205120F28D01A4ACF
:1048E000976A803257611746403F3B82174F3B879C
:1048F00096808676C676D269154FBA420FDA154F82
:10490000BA68521CBA60642AD7DD06778376AB801A
:10491000C37669700B202870A386BB60F0BD0D497B
:104920008868401E88606422D042F7DA8B60F0BD50
:104930008376C37669700A202870F0BD7C01002060
:10494000FF1F000033130000500200204C0700201E
:10495000CCCC0C000C0000200E21415E4184064AA4
:10496000054B5143CA131021415E5943C9134900F5
:104970005118818470470000E649000077B5002394
:104980006E460421C35E715E02244B43DD13062391
:10499000045FF35E5C43E4132C1914600224045F8B
:1049A0004C430021415EE4135943C813201A506060
:1049B0007EBD000010B5016842680B4614464B43AB
:1049C00054431B19074CA3420BD91B16393B1B063A
:1049D000054CDB0DE35A5943C91301605A43D11307
:1049E000416010BD400AC1397872000830B500211D
:1049F000415E0E4A5143091481830822825E0A23D4
:104A0000C35E5400E51A0C24045F2D1B4D432D1387
:104A1000C5815D00AD1A2D1B4D432D130582640029
:104A2000A21AD21A4A431113418230BDA62A0000AD
:104A3000084A5168814208D3074801784170012132
:104A400001700020506001207047491C5160002017
:104A5000704700000C0000203C010020012070473E
:104A6000F0B5A3B0304F314C7888314E0025002886
:104A700002D1607800280FD0B068401CB06022904E
:104A80001421FBF74AFC00293AD00F212298FBF7AA
:104A900044FC00293DD045E026484178002913D048
:104AA00077687F1C384677601421FBF736FC0029B5
:104AB0001DD00A213846FBF730FC002902D120899D
:104AC000FDF78CFA23B0F0BD0078002807D001284C
:104AD00009D00228F6D12069FDF7E2F9F2E7E08873
:104AE000FDF77CFAEEE7A089FDF778FAEAE7756052
:104AF000FDF79AF9012207211046FDF7B8F9E1E721
:104B0000B560FDF791F9012207211046FDF7AFF9D5
:104B100008E00549842210316846FBF723FB0FCFDC
:104B2000FDF774FA2570CDE73C010020B80700209E
:104B3000200000203000002010B5FDF775F9044C6E
:104B40002078401CC0B20321FBF7DDFB217010BDB3
:104B50003000002030B5C27801240188002A16D028
:104B60008B080E4A9B009A1813688907C90EFF2507
:104B70008D40AB438578AD072D0E8D401D431560EC
:104B80000078C006C00E84400548046030BDC806E9
:104B9000C00E844002488030046030BD00E400E074
:104BA00000E100E0F8B500251F2400260027224878
:104BB000816B0091002181631F492048C039086042
:104BC000204601F0F7FF02F001F80EE0204601F068
:104BD000F1FF142001F0E2FE01F0F8FF002E0AD0F0
:104BE000012E14D0002001F0E5FF002FEED0124975
:104BF00000988863F8BD002801D1641EE4B2012842
:104C000001D0002CF1D1254600240126EDE7012832
:104C100001D1641CE4B21F2C01D00028E5D101278A
:104C2000002D05D060194408204601F0C3FFDCE7E1
:104C3000204601F0BFFFD8E7C07C01400100004AD8
:104C4000F8B500251F24002600272248816B00911B
:104C5000002181631F492048C0394860204601F087
:104C6000BBFF01F0C5FF0EE0204601F0B5FF1420A8
:104C700001F094FE01F0BCFF002E0AD0012E14D0EA
:104C8000002001F0A9FF002FEED0124900988863A0
:104C9000F8BD002801D1641EE4B2012801D0002C27
:104CA000F1D1254600240126EDE7012801D1641C3D
:104CB000E4B21F2C01D00028E5D10127002D05D03A
:104CC00060194408204601F087FFDCE7204601F028
:104CD00083FFD8E7C07C01400100004AF8B50025F9
:104CE0001F24002600272248816B00910021816348
:104CF0001F492048C0398860204601F07FFF01F03D
:104D000089FF0EE0204601F079FF142001F046FEF5
:104D100001F080FF002E0AD0012E14D0002001F0F7
:104D20006DFF002FEED0124900988863F8BD00286F
:104D300001D1641EE4B2012801D0002CF1D1254636
:104D400000240126EDE7012801D1641CE4B21F2CE8
:104D500001D00028E5D10127002D05D060194408B5
:104D6000204601F04BFFDCE7204601F047FFD8E783
:104D7000C07C01400100004A002904D001680122E2
:104D8000114301607047016849084900016070479C
:104D900070B505460C46184EB54205D1FFF702FF27
:104DA00001F01CFE000430601348001D854205D14F
:104DB000FFF746FF01F01AFE000470600E4808304D
:104DC000854205D1FFF78AFF01F018FE0004B060AC
:104DD000286861682068E2680843A16811430843B5
:104DE0002169084361690843A1690843E1690843EF
:104DF00029680143296070BD007C0140BFF36F8FBB
:104E0000EFF31081074A117072B6074A07490A6228
:104E1000CA6B0C2380079A43000F0243CA6362B631
:104E2000704700001B00002065432187007001408F
:104E30000E4A0F4B0F4900280BD0BFF36F8FEFF3D3
:104E40001080107072B60B624868012210434860EF
:104E50000AE0BFF36F8FEFF31080107072B60B6231
:104E6000486840084000486062B670471B00002058
:104E7000654321870070014030B5114A0E4B0F4C3D
:104E80000F4D403A00290BD0BFF36F8FEFF3108125
:104E9000197072B6EC6311680143116062B630BDDF
:104EA000BFF36F8FEFF31081197072B6EC63116866
:104EB0008143116062B630BD1C0000209A65FA057E
:104EC0004070004830B5204A1D4B1E4C1E4D403AE4
:104ED00040280FD020280DD0002925D0BFF36F8F98
:104EE000EFF31081197072B6EC6311680143116021
:104EF00062B630BD00290BD0BFF36F8FEFF3108186
:104F0000197072B6EC6391680143916062B630BD6E
:104F1000BFF36F8FEFF31081197072B6EC63916875
:104F20008143916062B630BDBFF36F8FEFF31081A4
:104F3000197072B6EC6311688143116062B630BDBE
:104F40001C0000209A65FA054070004810B5BFF3B8
:104F50006F8FEFF310802249087072B6214A224801
:104F600002620123DB04036062B6BFF36F8FEFF3CD
:104F700010830B7072B602620023836062B6BFF3C7
:104F80006F8FEFF310830B7072B6026207234361D9
:104F900062B6BFF36F8FEFF310830B7072B60262CD
:104FA000836A0124E4022343836262B6BFF36F8FF6
:104FB000EFF310830B7072B602620C4A826262B623
:104FC000BFF36F8FEFF31080087072B6084809497D
:104FD000C8630320074940044039086062B610BD29
:104FE0001C00002065432187007001400470000010
:104FF0009A65FA0540700048F8B50446654F386870
:105000008002800FF968C907C90F634D256001262A
:10501000F6036660A560E660002813D0022813D06E
:1050200001282BD026615B4801680806800F89069D
:10503000890E002824D0012825D002282AD0032850
:1050400033D12DE02561EEE7002901D0284600E0AC
:105050002846F9688905890F491CFBF754F9F96856
:105060004906C90E491C4843F9684008C904C90FDC
:10507000491CFBF748F960622061D4E72561D2E75B
:105080002069606111E0491C49002069FBF73BF988
:1050900060610AE003212069FBF735F9606104E0F3
:1050A00005212069FBF72FF960616769A76139481D
:1050B00000680005010F491C3846FBF724F9E06140
:1050C000344800680004010F491C3846FBF71BF9FF
:1050D0002062324A51688904890F06D0012906D01E
:1050E000022907D0032908D106E0A06205E0216962
:1050F000A16202E0A56200E0A66251680904890F7E
:1051000006D0012906D0022907D0032908D106E0DC
:10511000E06205E02169E16202E0E56200E0E6624A
:1051200051680903890F06D0012906D0022907D04A
:10513000032908D106E0206305E02169216302E02C
:10514000256300E0266351688902890F06D0012992
:1051500006D0022907D0032908D106E0606305E0E4
:105160002169616302E0656300E06663516889015B
:10517000890F07D0012907D0022908D0032900D1BF
:10518000A663F8BDA063F8BD2069A063F8BDA56360
:10519000F8BD0000007001400024F40000700048D9
:1051A00010B50848017800290BD10121417006484B
:1051B00001894289891A0181828841880830FDF776
:1051C00047F810BD30000020B80700200248816871
:1051D0000122114381607047C07C014010B501205D
:1051E000FFF726FE7D20C00001F0D8FBFCF78CFD08
:1051F00010BD0000F8B5744D744F2E46C03EF41D2E
:10520000688A39468039F93409788036E2690300C2
:1052100001F0B6FB0BC1755E59484530C1C11B0793
:10522000C100E068306272620C290DD009290BD3ED
:105230001046FDF7D1F964482038FEF7C1FF288AEF
:10524000012801D1B06A6061A5E060482038C07EC5
:1052500001280ED15E49A1605E480022825E1003E3
:10526000A0617165B06558481430FEF7A9FFF06D74
:10527000206190E058493A20085E00905548382255
:105280008A5E836B416B5548FDF740F9F8898005CC
:10529000000F04287FD151480069E0607BE0FCF7F3
:1052A00011FF78E04E4C206C401C2064092972D319
:1052B000642870D34748026CC16B2046FDF7E2FBBF
:1052C0006420206467E04748616AFEF763F962E0A2
:1052D000B87B01073F48603000290DDA424A716A05
:1052E000914202DD0121817155E00122D2059142F6
:1052F00051DA002181714EE0002181714BE00C29CF
:1053000049D0092947D33148394E80384088C105F2
:1053100036480029406901DB306000E030603448E5
:10532000FFF73FF8F8898005000F030001F028FB24
:1053300005040C1F262C3300002028822249C03986
:1053400008864031888426E0204880380078092883
:1053500005D0F06860610020206128821BE01F48B2
:10536000F16802698918E1600168816013E0F06802
:105370006061204988420EDD61610CE0F068E06008
:1053800016480168816006E0144AF0689060116870
:10539000884200DD9160688A401E80B268820028E1
:1053A00001D10A206882F8898005000F05280AD0FB
:1053B0000648803800780C2805D00B2803D0002838
:1053C00001D000F083FFF8BD90020020BC01002056
:1053D0005CCF7603940000204C0000204C07002096
:1053E000080700208807002099999900D004002020
:1053F000EC0600203333330000B5FFF7A7FD00BDF6
:1054000010B50C4C2169090603D58021204600F017
:1054100051F821692046C9050AD5074908234A8859
:105420001A434A800B220A704A70590100F042F870
:1054300010BD0000000001403C010020002904D004
:10544000016880221143016070470168014A1140E0
:10545000016070477FFF000010B50A884B88CC8838
:105460001A438B8823431A434B891A438B891A4367
:105470004264426C09890A43426410BD10B501239D
:105480008B40046ADB439BB21C400462036A8A407F
:1054900091B20B43036210BD10B504238B40046A24
:1054A000DB439BB21C400462036A8A4091B20B4307
:1054B000036210BD0269C94389B20A4002617047A4
:1054C000002904D00168012211430160704701687E
:1054D000014A114001607047FEFF0000002905D01D
:1054E000416C0122D203114341647047416C49046D
:1054F000490C41647047002A03D0C2680A43C26065
:105500007047C268C94389B20A40C2607047000050
:1055100030B5026A1B4B1A400262026A93B24268BB
:1055200092B28469A4B27025AC43A408A4000D888B
:1055300025430224A3438C891C434B882343124CEC
:10554000A04208D0114CA04205D0114CA04202D07C
:10555000104CA04210D10824A343CC891C4304233F
:105560009C438B882343074CFF3C22400A4C22403B
:105570000C8A14434A8A22434260856189684163E8
:10558000036230BDFEFF00000000014000B001409A
:1055900000C0014000E00140FFFD0000826992B2BE
:1055A00008239A430A43826170470000F0B5026AFB
:1055B000214B1A400262026A95B2426892B2836934
:1055C0009BB21E4C23401E4C23400C782406240C16
:1055D0001C4320239D438B891B051E0C2E434B88A7
:1055E0001B051B0C3343174D174EA84201D0B04288
:1055F0001BD1164F3A400F8ABF043F0C3A43A842D2
:1056000001D0B04211D18025AB43CD892D052D0CA1
:105610001D4340239D438B881B051B0C2B430C4DC6
:1056200015404A8A9204120C2A43426084618968B8
:1056300081630362F0BD0000EFFF0000FF8F0000F8
:10564000FFFC00000000014000B00140FFFB000033
:10565000FFF70000826992B2034B1A400906090C59
:105660001143816170470000FFF7000030B5026A06
:105670001C4B1A400262026A93B2426892B2C46939
:10568000A4B27025AC43A408A4000D882543164C91
:1056900023400C7B2406240C1C438B781B061B0C1C
:1056A0002343124CA04217D1114C23408C7B24067B
:1056B000240C1C430F4B1C400B791B061B0C234373
:1056C0000D4C22400D4C22400C8A2405240C14431E
:1056D0004A8A1205120C22434260C5618968C1637F
:1056E000036230BDFFFE0000FFFD0000000001402E
:1056F000FFF70000FFFB0000FFEF0000FFDF0000EE
:10570000C26992B208239A430A43C26170470000FB
:1057100030B5026A144B1A400262026A94B24268BF
:1057200092B2C3699BB2114D2B40114D2B400D78A5
:105730002D062D0C1D430F4B1C400B7B1B071B0C18
:1057400023438C782407240C1C430B4B984205D12F
:105750000A4B1A400B8A9B051B0C1A434260C56119
:1057600089680164046230BDFFEF0000FF8F000014
:10577000FFFC0000FFDF000000000140FFBF000051
:10578000C26992B2034B1A400906090C1143C16168
:1057900070470000FFF7000030B5026892B2134C6A
:1057A000A04202D0124B984204D170251346AB435D
:1057B0004A881A430F4B984203D00F4B13400A8973
:1057C0001A4302604A68C2620A888262A04208D014
:1057D0000A4A904205D00A4A904202D0094A9042B1
:1057E00001D1897A01630121416130BD000001408E
:1057F00000B0004000900040FFFC000000B00140FD
:1058000000C0014000E0014070470000F0B50022F8
:10581000404B424F9B7B404EDC073B885B1C9BB25E
:10582000002C2DD0F4682405240DA446B46824056A
:10583000240D75682D052D0D76683605360D3B80D7
:105840007D277F01BB4256D2C1896346344F5B1A24
:105850007B43DB13C918C1818189631A3C466343CA
:10586000DB13C9188181018A6B1A6343DB13C918E2
:105870000182418A731A6343DB13C918418246E0EF
:10588000F4682405240DB5682D052D0DAC4675680A
:105890002D052D0D76683605360D204F3B807D2772
:1058A0007F01BB421AD24189631A1D4C6343DB134B
:1058B000C9184181818963465B1A6343DB13C918A8
:1058C0008181018A6B1A6343DB13C9180182418A03
:1058D000731A6343DB13C918418218E042894A8175
:1058E00082898A81028A0A82408A48820B49002082
:1058F000088001220BE0C289CA8182898A81028ADA
:105900000A82408A48820549002008800122104608
:10591000F0BD0000BC010020B40600200000002003
:1059200068180000F0B538490124897B428AE402F6
:10593000CB07A21A8189058A5400002B14D0334E5C
:10594000F268C389D21A12015342B268511A09018E
:1059500049425A1852427668751B6D002C4FFE431F
:10596000BA4211DD078014E0284EF2684389D21A4A
:1059700012015242B368591A0901494253185B4255
:105980007668751B6D00E9E7B24201DA068000E037
:105990000280B94201DD478004E0B14201DA46806D
:1059A00000E04180BB4201DD878004E0B34201DAC0
:1059B000868000E08380BD4201DDC78004E0B542FF
:1059C00001DAC68000E0C580BC4201DD078104E049
:1059D000B44201DA068100E004810C490A6842837E
:1059E0008968C90009B201842222825E891A49119C
:1059F00089184184064AD21F82831E21415E521AB1
:105A000012115118C183F0BDBC010020B406002062
:105A1000FF7F000010B50024045F0C800222825E2C
:105A20004A800423C35E8B80A018C018886110BD13
:105A300010B502460846538B114A51685B1A1B1178
:105A4000591851600222825E4A43111301800D49A8
:105A50000A69C2800C4A0A600C4A4A600022825ECF
:105A6000CA600621415E0A4A914201DDC28003E01C
:105A7000084A914200DAC280FEF7B8FF10BD00006C
:105A8000000000200040014800010001AE67BB019A
:105A900099190000CC04000000B591B000200090DE
:105AA00001900290039004906A461075012151758F
:105AB0009075D07510760790FC2008906846FBF72B
:105AC00069FC012206210020FBF7A8FC0120FBF75E
:105AD00051FCFFF77BFB11B000BD0000F0B597B0A3
