:020000040800F2
:1000000008040020D5000008DD00000815030008E2
:1000100000000000000000000000000000000000E0
:10002000000000000000000000000000E1000008E7
:100030000000000000000000E3000008E5000008E8
:10004000E7000008E7000008E7000008E7000008F4
:10005000E7000008E7000008E7000008E7000008E4
:10006000E7000008E7000008E7000008E7000008D4
:10007000E700000835070008E7000008E70000086F
:10008000E7000008E7000008E7000008E7000008B4
:10009000E7000008E7000008E7000008E7000008A4
:1000A000E7000008E7000008E7000008E700000894
:1000B000E7000008E7000008E7000008E700000884
:1000C0000348854600F014F800480047FB08000884
:1000D000080400200448804704480047FEE77047B2
:1000E000FEE7FEE7FEE7FEE72D070008C100000877
:1000F000064C0125064E05E0E36807CC2B430C3C7B
:1001000098471034B442F7D3FFF7DEFF200A000807
:10011000400A0008002804D0012806D002280CD18B
:1001200007E01021064A116008E01121044A11601D
:1001300004E01221024A116000E000BF00BF7047D6
:1001400000D001401CB5FF2001300090022168461C
:10015000017100214171817169460920C00600F0DA
:1001600007F8022208210920C00600F08FF81CBD04
:1001700070B50246002300200D79012D01D1002524
:10018000CD710B68002012E01D46C540ED07ED0F54
:10019000002D0BD0146846000325B5402646AE431B
:1001A00034460D794600B5402C431460401C10289D
:1001B000EAD3002012E01D46C540ED07ED0F002DEB
:1001C0000BD04D79002D05D1054610350126AE40E6
:1001D000966002E0012585409560401C1028EAD316
:1001E000002030E01D46C540ED07ED0F002D29D061
:1001F000CD79012D08D1054610350126AE40166196
:1002000001258540D5601DE0CD79022D08D1054638
:1002100010350126AE40D66001258540156111E0FC
:10022000CD79032D06D101258540D5600125854076
:10023000156107E0054610350126AE40D66001265F
:10024000AE401661401C1028CCD300201BE01D4698
:10025000C540ED07ED0F002D14D08D79002D08D18C
:10026000064610360125B54055600125B540956319
:1002700008E08D79012D02D18540556002E001250D
:1002800085409563401C1028E1D370BD70B50023F4
:100290000024436A846A08290ADA8E000F25B540D3
:1002A0001E46AE4333468E001546B5402B430DE047
:1002B0000D46083DAE000F25B5402646AE433446F8
:1002C0000D46083DAE001546B5402C43436284629E
:1002D00070BD000010B50020FFF71CFF00BF00BF7D
:1002E00000BFBFF36F8F00BF00BF00BF00F0F3FA85
:1002F0000549087072B60548054908620120C00426
:10030000086062B610BD0000070000206543218729
:100310000070014000BF00BF00BF00BF00BFBFF3BF
:100320004F8F00BF00BF00BF06480749C86000BF2D
:1003300000BF00BFBFF34F8F00BF00BF00BF00BFB3
:1003400000BFFDE70400FA0500ED00E010B504462B
:10035000002C17D000BF00BF00BFBFF36F8F00BFDE
:1003600000BF00BF00F0B4FA1249087072B612481C
:1003700012490862084640688915884340180F49A9
:10038000486015E000BF00BF00BFBFF36F8F00BF24
:1003900000BF00BF00F09CFA0649087072B606481C
:1003A0000649086208464068891588430349486041
:1003B00062B610BD06000020654321870070014031
:1003C00070B505460C46002D32D100BF00BF00BFFE
:1003D000BFF36F8F00BF00BF00BF00F079FA2F4955
:1003E000087072B62E482F490862084640684915C1
:1003F00088432C49486000BF00BF00BFBFF36F8F28
:1004000000BF00BF00BF00F063FA2449087072B655
:100410002348244908620846406807218902884326
:10042000A10207229202114008431E49486032E0AF
:1004300000BF00BF00BFBFF36F8F00BF00BF00BF92
:1004400000F046FA1549087072B615481549086259
:10045000084640684915884340181249486000BF63
:1004600000BF00BFBFF36F8F00BF00BF00BF00F031
:100470002FFA0A49087072B609480A490862084604
:100480004068072189028843A10207229202114095
:1004900008430449486062B670BD000006000020B1
:1004A000654321870070014070B504460D46002D5C
:1004B00018D000BF00BF00BFBFF36F8F00BF00BFE9
:1004C00000BF00F008FA1449087072B613481449C6
:1004D000C863134840380068204311494039086018
:1004E00062B617E000BF00BF00BFBFF36F8F00BF51
:1004F00000BF00BF00F0EFF90749087072B6074867
:100500000749C863064840380068A0430449403999
:10051000086062B670BD0000070000209A65FA0509
:100520004070004870B504460D46402C01D0202C88
:1005300033D1002D18D000BF00BF00BFBFF36F8FB5
:1005400000BF00BF00BF00F0C6F92E49087072B6A8
:100550002D482E49C8632D484038806820432B49D8
:100560004039886062B64BE000BF00BF00BFBFF3F8
:100570006F8F00BF00BF00BF00F0ADF921490870C8
:1005800072B621482149C863204840388068A0439A
:100590001E494039886062B632E0002D18D000BF95
:1005A00000BF00BFBFF36F8F00BF00BF00BF00F0F0
:1005B00092F91449087072B613481449C863134875
:1005C00040380068204311494039086062B617E09E
:1005D00000BF00BF00BFBFF36F8F00BF00BF00BFF1
:1005E00000F079F90749087072B607480749C863EF
:1005F000064840380068A04304494039086062B6A4
:1006000070BD0000070000209A65FA0540700048A0
:1006100010B500BF00BF00BFBFF36F8F00BF00BFAA
:1006200000BF00F058F93949087072B638483949A6
:1006300008620120C004086062B600BF00BF00BFAE
:10064000BFF36F8F00BF00BF00BF00F044F92F4918
:10065000087072B62E482F4908620020886062B682
:1006600000BF00BF00BFBFF36F8F00BF00BF00BF60
:1006700000F031F92549087072B62548254908620D
:100680000720486162B600BF00BF00BFBFF36F8F95
:1006900000BF00BF00BF00F01EF91C49087072B611
:1006A0001B481C4908620846806AC91488434018E0
:1006B0001849886262B600BF00BF00BFBFF36F8FEA
:1006C00000BF00BF00BF00F006F91049087072B605
:1006D0000F48104908621048886262B600BF00BF28
:1006E00000BFBFF36F8F00BF00BF00BF00F0F3F883
:1006F0000649087072B609480949C86303204004D6
:1007000007494039086062B610BD000007000020AC
:100710006543218700700140047000009A65FA0566
:100720004070004810B5FFF7D5FD10BD10B5FFF7BC
:100730006FFF10BD10B58021014800F014F810BD06
:10074000000001400A884B881A438B881A43CB88E3
:100750001A434B891A438B891A434264426C0B89B2
:100760001A43426470470269CB439BB21A4002614C
:1007700070470000002904D0026801231A43026078
:1007800003E00268014B1A4002607047FEFF000060
:10079000002905D0426C0123DB031A43426403E0C5
:1007A000426C5204520C4264704710B5002A03D0C8
:1007B000C3680B43C36004E0C368CC43A4B22340C6
:1007C000C36010BD70B5002400220023056A1D4ED1
:1007D00035400562056AAAB24568ABB28569ACB21C
:1007E000184D6F3D2C40B51E2C400D882C43751EB6
:1007F0002A408D892A434D882A43134DA84208D0A8
:10080000124DA84205D0124DA84202D0114DA84267
:1008100012D10C4DED1F2A40CD892A43094DED1E02
:100820002A408D882A43074DFF3D2B400A4D2B401F
:100830000D8A2B434D8A2B43436084618D68456349
:10084000026270BDFEFF00000000014000B00140E8
:1008500000C0014000E00140FFFD000000220368ED
:100860009AB2134B984206D0124B984203D0124BC7
:100870001A404B881A430E4B984203D00F4B1A4034
:100880000B891A4302604B68C3620B8883620C4B6E
:10089000984208D00B4B984205D00B4B984202D09F
:1008A0000A4B984201D18B7A03630123436170475D
:1008B0000090004000A000408FFF0000FFFC0000FF
:1008C0000000014000B0014000C0014000E00140D4
:1008D000EFF310807047EFF31080704702E008C814
:1008E000121F08C1002AFAD170477047002001E0AA
:1008F00001C1121F002AFBD17047FFF717FFFFF756
:1009000011FF0121C804FFF70DFE01210846FFF782
:10091000CBFDFFF717FC00F003F800BFFEE7000077
:1009200000B58DB019204001374908804010374983
:1009300008800021684601854185334800880B9076
:100940006846018608A881740AA93148FFF786FF26
:100950007021684681820121C182042101832B48D4
:10096000008807900021684601844184FF210131FD
:1009700081840021C18425480088079005A9244866
:10098000FFF720FF06210020FFF71AFD0120FFF7E7
:10099000DDFC00BF00BF00BFBFF36F8F00BF00BF13
:1009A00000BF00BFEFF310801A49087072B61A48F2
:1009B0001A4908620846806801214907884340189F
:1009C0001649886062B6002168468180C180018135
:1009D00041810121090381814900C18149000182CE
:1009E00001A90B48FFF7AEFE012280210848FFF75E
:1009F000DCFE01210648FFF7CBFE01210448FFF78A
:100A0000B9FE0DB000BD000002000020040000206F
:100A10000000014000000020654321870070014074
:100A2000400A00080000002008000000DC08000860
:100A3000480A00080800002000040000EC08000834
:080A40000000000000000000AE
:04000005080000C12E
:00000001FF
