:10000000021C8E022A16122648E4900228F0900064
:0800100073F02202236C32227E
:03001B0002246359
:1000230002298E90021EE07F0070027F0190021E63
:07003300EFF024FF92B6225A
:0D003B000224B1C2FF904062E054DFF022C9
:03004B000220EFA1
:0D0053000228A5D281D2801229C8C28022C5
:10006300020016020427E86480F8E933E8336011DC
:100073000460F0ED33EC337009E8FCE9FDEAFEEBD4
:10008300FF220460DED3EB9FEA9EE99DE8C2E78C82
:10009300F0C2F795F0400CE8CCF8E9CDF9EACEFAD6
:1000A300EBCFFB1203F285D0F05804700320D5B3D5
:1000B300E80470075002B2D502043192D5EC046013
:1000C300F7E4CCC0E0C398F8603B94186008400D97
:1000D300D0E0FB020409E4FBFAC9FC8028E830E421
:1000E30006E4C9FBE4CAFCE830E305E4C9CACBFC77
:1000F300E854076010F8C3E913F9EA13FAEB13FBAA
:10010300EC13FCD8F130F52FC3E49CFCEF9BFFEE1E
:100113009AFEED99FDD0E0FBEF4E4D4C701222DBC1
:100123000302042EEC2CFCEF33FFEE33FEED33FD24
:10013300ED30E7EB020409EF2BFFEE3AFEED39FD5C
:10014300D0E0FB50130BBB0003020431ED13FDEEB3
:1001530013FEEF13FFEC13FC020409EC4D6011E8EE
:10016300497017ED33EC3304600DE4FCFFFEFD2210
:10017300E933E8330470F80204271203F2580460E9
:1001830009E4CC2481500628500902043128400395
:1001930002042EC0E0EB4A7044B98006D0E0FB02B3
:1001A300041DEF4E701CBD8008EBFFEAFEE9FD80E5
:1001B300EBE98DF0A4FEE5F0020247E9CDF9EAFE92
:1001C300EBFFEF89F0A4FCE5F0CE89F0A42EFFE469
:1001D30035F0CD89F0A42DFEE435F08067EF4E7045
:1001E30005BD80D780C3EF8BF0A4ACF0EE8BF0A4F9
:1001F3002CFCE435F0F8EF8AF0A42CE5F038FCE4AD
:1002030033CB8DF0A42CFCE5F03BF8EE8AF0A42C64
:10021300FCE5F038F8E433CF89F0A42CFCE5F038A2
:10022300CF3400CE89F0A42FFFE5F03EFEE433C9BE
:100233008DF0A42EFEE5F039CD8AF0A42FFFE5F072
:100243003EFEE43DFD33D0E0FB50070BBB000F0245
:100253000431EC2CFCEF33FFEE33FEED33FD0204EF
:1002630009020431EC5D046005E8590470030204DB
:10027300271203F2580460F6EC4860F2EC7004FDB8
:10028300FEFF22C860DB2481C85009C39860025076
:100293000602042E9850CAF582E9294B4A7005AB31
:1002A3008202041D75F0007C1A7880C3EF9BEE9ADE
:1002B300ED99400DC3EF9BFFEE9AFEED99FDE842E9
:1002C300F0DC23ACF0D0E0FFD0E0FED0E0FDAB8269
:1002D30020E7101BEB60BAEC2CFCEF33FFEE33FE90
:1002E300ED33FD020409E803F830E705C0F075F0CB
:1002F30000EF2FFFEE33FEED33FD40B830E7C28051
:10030300AA74F8CC6480CCC86480C8F58204604FBA
:10031300C3EB9FF5F0EA9E42F0E99D42F0E89C456D
:10032300F0603C501DE5825FFFE582D313CB5BCBCE
:10033300F42B5582FB50280ABA002409B90020087F
:10034300801DE5825BFBE582D313CF5FCFF4C3133C
:100353002F5582FF50090EBE00050DBD00010CC3D1
:10036300EB9FF5F0EA9E42F0E99D42F0E89C45F0F0
:100373006007CC4820E701B3EC2275F020800E75AE
:10038300F010800575F0087D007E007F003392D564
:1003930030D50312074BEC334010EF33FFEE33FE3F
:1003A300ED33FDEC33FCD5F0ED22E5F0247EA2D550
:1003B30013CC92E7CDCEFF22EDD2E7CD33EC3392CF
:1003C300D524814006E4FFFEFDFC22FCE4CFCECD24
:1003D300CC24E0501174FF80EDC3CC13CCCD13CDEE
:1003E300CE13CECF13CF0470F030D5DE02074BE926
:1003F300D2E7C933E833F892D5EDD2E7CD33EC3306
:10040300FC5002B2D522EC30E7100FBF000C0EBE39
:1004130000080DBD00040BEB6014A2D5EB13FCED3B
:1004230092E7FD2274FFFCFDFEFF22E480F8A2D5D3
:1004330074FF13FC7D80E480EFBB010689828A830D
:10044300E0225002E722BBFE02E32289828A83E490
:100453009322BB010CE58229F582E5833AF583E01B
:10046300225006E92582F8E622BBFE06E92582F83A
:10047300E222E58229F582E5833AF583E49322BB00
:10048300010689828A83F0225002F722BBFE01F320
:1004930022F8BB010DE58229F582E5833AF583E86D
:1004A300F0225006E92582C8F622BBFE05E9258223
:1004B300C8F222EF8DF0A4A8F0CF8CF0A428CE8D43
:1004C300F0A42EFE22BC000BBE0029EF8DF084FFAA
:1004D300ADF022E4CCF875F008EF2FFFEE33FEEC1D
:1004E30033FCEE9DEC984005FCEE9DFE0FD5F0E944
:1004F300E4CEFD22EDF8F5F0EE8420D21CFEADF043
:1005030075F008EF2FFFED33FD4007985006D5F047
:10051300F222C398FD0FD5F0EA22C2D5EC30E709E9
:10052300B2D5E4C39DFDE49CFCEE30E715B2D5E4FF
:10053300C39FFFE49EFE1204C8C3E49DFDE49CFC3C
:1005430080031204C830D507C3E49FFFE49EFE2254
:10055300C5F0F8A3E028F0C5F0F8E5821582700233
:100563001583E038F022A3F8E0C5F025F0F0E5822A
:10057300158270021583E0C838F0E822BB010A89AE
:10058300828A83E0F5F0A3E022500687F009E71999
:1005930022BBFE07E3F5F009E3192289828A83E48B
:1005A30093F5F074019322BB0110E58229F582E5EE
:1005B300833AF583E0F5F0A3E0225009E92582F8B8
:1005C30086F008E622BBFE0AE92582F8E2F5F00888
:1005D300E222E5832AF583E993F5F0A3E99322BBAD
:1005E300010A89828A83F0E5F0A3F0225006F70915
:1005F300A7F01922BBFE06F3E5F009F31922F8BBB5
:100603000111E58229F582E5833AF583E8F0E5F007
:10061300A3F0225009E92582C8F608A6F022BBFE02
:1006230009E92582C8F2E5F008F222E88FF0A4CCAC
:100633008BF0A42CFCE98EF0A42CFC8AF0EDA42C06
:10064300FCEA8EF0A4CDA8F08BF0A42DCC3825F0D5
:10065300FDE98FF0A42CCD35F0FCEB8EF0A4FEA9C0
:10066300F0EB8FF0A4CFC5F02ECD39FEE43CFCEACD
:10067300A42DCE35F0FDE43CFC2275F00875820014
:10068300EF2FFFEE33FECD33CDCC33CCC58233C554
:10069300829BED9AEC99E58298400CF582EE9BFEE5
:1006A300ED9AFDEC99FC0FD5F0D6E4CEFBE4CDFA40
:1006B300E4CCF9A88222B800C1B90059BA002DECE4
:1006C3008BF084CFCECDFCE5F0CBF97818EF2FFF7C
:1006D300EE33FEED33FDEC33FCEB33FB10D7039924
:1006E3004004EB99FB0FD8E5E4F9FA227818EF2FD1
:1006F300FFEE33FEED33FDEC33FCC933C910D705F0
:100703009BE99A4007EC9BFCE99AF90FD8E0E4C90E
:10071300FAE4CCFB2275F010EF2FFFEE33FEED333E
:10072300FDCC33CCC833C810D7079BEC9AE899406B
:100733000AED9BFDEC9AFCE899F80FD5F0DAE4CDCD
:10074300FBE4CCFAE4C8F922C3E49FFFE49EFEE491
:100753009DFDE49CFC22EB9FF5F0EA9E42F0E99DAF
:1007630042F0EC6480C864809845F022EB9FF5F07A
:10077300EA9E42F0E99D42F0E89C45F022E86010D1
:10078300ECA2E713FCED13FDEE13FEEF13FFD8F01D
:1007930022E6FC08E6FD08E6FE08E6FF22E6FB0883
:1007A300E6F908E6FA08E6CBF822ECF608EDF608D7
:1007B300EEF608EFF622ECF0A3EDF0A3EEF0A3EFD4
:1007C300F022D083D082E493F608740193F6087480
:1007D3000293F608740393F6740473A8828583F076
:1007E300D083D0821207F51207F51207F51207F529
:1007F300E473E493A3C583C5F0C583C8C582C8F079
:10080300A3C583C5F0C583C8C582C822EC8EF0A4F6
:10081300CCC5F0CCCDF8EFA4CEC5F02DFDE43CFC67
:10082300E8A42EC8C5F03DFDE43CFCEFA4FFE5F0D1
:1008330028FEE43DFDE43CFC22EF4E6012EF600134
:100843000EEDBB010B89828A83F0A3DFFCDEFA2263
:1008530089F05007F709DFFCA9F022BBFEFCF3097E
:10086300DFFCA9F0229040E0E0F508A3E0F5099051
:1008730003C8E508F0A3E509F09001C3E0FFA3E096
:100883009003CACFF0A3EFF075C108E5C120E7FBE1
:100893009003CCE0FEA3E07803C333CE33CED8F984
:1008A300FDAC069003CEE0C41354072DF50BE43CD6
:1008B300F50AD3E5119400E51064809480404E90CE
:1008C30003F2E50AF0A3E50BF075C116E5C120E7D5
:1008D300FB9003F4E0F50EA3E0F50F850E0CF50D88
:1008E3000511E51170020510C39001DCE09511E5D7
:1008F300106480F89001DBE06480985010E4F510F8
:10090300F5119003F0F0A374C8F0754001E540B40D
:10091300011C9003F2E50AF0A3E50BF075C116E59F
:10092300C120E7FB9003F4E0F50EA3E0F50FD3E558
:100933000D950FE50E6480F8E50C648098400685FC
:100943000E0C850F0D9040D0E0FEA3E0FFC3E49FA3
:10095300F513E49EF512A3E0F514A3E0F515900357
:1009630048E512F0A3E513F0900346E514F0A3E580
:1009730015F075C10DE5C120E7FB9001CBE0FEA3A7
:10098300E0FF90034EE0FCA3E02FF517EC3EF516D5
:10099300C3E51B64809480500DC3E4951CF522E4E9
:1009A300951BF5218006851B21851C229003C8E534
:1009B30021F0A3E522F09001C7E0FFA3E09003CA72
:1009C300CFF0A3EFF075C108E5C120E7FB9003CC9E
:1009D300E0FEA3E07807C333CE33CED8F9FDAC06EF
:1009E3009003CEE0C3132DF524E43CF523C3E517B0
:1009F3009533FEE51695329003C8F0A3CEF0A3E538
:100A030023F0A3E524F075C108E5C120E7FB9003BB
:100A1300CCA3E0C4F8540FC868FD0582D582021543
:100A2300831582E0C454F048FC9003CEE0C4540F15
:100A33002DF526E43CF525E50B2526FFE50A3525AE
:100A4300FEC3EF951CFFEE951BFEC3EF950DFFEE66
:100A5300950CFEE5372FFFE5363EFE9001CEE02FE5
:100A6300F5299001CDE03EF5289003C8F0A3E529D0
:100A7300F09001C5E0FFA3E09003CACFF0A3EFF02D
:100A830075C108E5C120E7FB9003CCE0F52AA3E09C
:100A9300F52BA3E0F52CA3E0F52D251EF51EE52C83
:100AA300351DF51DE52B351CF51CE52A351BF51BFE
:100AB3009001CFE0FEA3E0FFC3951CE51B6480F823
:100AC300EE6480985008851B1F851C2080048E1FB0
:100AD3008F209003C8E51FF0A3E520F09001C9E043
:100AE300FFA3E09003CACFF0A3EFF075C108E5C1FF
:100AF30020E7FB9003CCE0F52EA3E0F52FA3E0F570
:100B030030A3E0F531E54064016003020BF290018C
:100B1300D1E0FEA3E0FFD39520E51F6480F8EE64E7
:100B230080984034E4F53AF53B0539E53970020520
:100B3300389001D4E09539E5386480F89001D3E02A
:100B43006480984003020BF20537E53770020536DF
:100B5300E4F538F539020BF2EF2405FFE43EFED34A
:100B6300E5209FEE6480F8E51F6480984078E4F503
:100B730038F539053BE53B7002053A9001D4E09521
:100B83003BE53A6480F89001D3E06480985060C3F9
:100B93009001D6E09537E5366480F89001D5E0649E
:100BA3008098500DE537153770021536E4F53AF5A0
:100BB3003BD3E53B94E8E53A64809483403190016C
:100BC300D8E09537E5366480F89001D7E0648098E3
:100BD300501D74FE2537F53774FF3536F536753AF3
:100BE30003753BE88009E4F538F539F53AF53BE55B
:100BF300312535F535E5303534F534E52F3533F525
:100C030033E52E3532F5329040CCF0A3E533F022B4
:100C1300904039E04440F0900306E0FEA3E07803FF
:100C2300C333CE33CED8F9FF900214EEF0A3EFF026
:100C33009000B4E0FEA3E0FF900214E0FCA3E0FD0B
:100C4300D39FEC9E400EED9FFFEC9E900214F0A309
:100C5300EFF08007E4900214F0A3F0900214E0FE9A
:100C6300A3E0FF900008E0FCA3E0FD7B20122590A9
:100C7300900008EEF0A3EFF0900228E0B4072E9066
:100C830040D8E0FEA3E07803C333CE33CED8F9FFD8
:100C9300900004EEF0A3EFF0900004E0FEA3E090D8
:100CA300000A12258890000AEEF0A3EFF0900228C4
:100CB300E0FF6401603DEF603A9040D4E0FEA3E0C2
:100CC300FF900010E0FCA3E0FD7B0A12259090004A
:100CD30010EEF0A3EFF09040D6E0FEA3E0FF90000B
:100CE30018E0FCA3E0FD122590900018EEF0A3EFAE
:100CF300F08007E4900010F0A3F0900304E0FFA35A
:100D0300E0900089CFF0A3EFF0900304E0FEA3E0AE
:100D13007803C333CE33CED8F9FF900000E0FCA3B1
:100D2300E0FD7B50122590900000EEF0A3EFF0124F
:100D3300115490030EE0FEA3E07803C333CE33CE09
:100D4300D8F9FF900026E0FCA3E0FD7B0A12259072
:100D5300900026EEF0A3EFF0122A9E900207E09097
:100D6300007CF090020CE0FCA3E0FDE4120382E4BB
:100D7300FBFA797A78461202677B007AFE79FF786C
:100D83004612015E1203BB900074EEF0A3EFF0D3A2
:100D9300900023E09400900022E09400400CA3E034
:100DA30024FFF0900022E034FFF0D3900101E0949F
:100DB30000900100E09400400CA3E024FFF09001B8
:100DC30000E034FFF0D3787DE6940018E694004009
:100DD3000708E61618700116900024E0D39400402B
:100DE30003E014F0900081E0D394004003E014F09A
:100DF300900082E0D394004003E014F0121DC1027E
:100E03002212900228E014607424FE7003020EB1D3
:100E130024FD7003020EEC147003020F1714700309
:100E2300020F38147003020FAE24FE7003020F96F4
:100E3300240B6003020FBD900073E06003020F3EBA
:100E43001227D99000BCE064016003020FC2900036
:100E53007CE064016003020FC2D3900001E094EBD5
:100E6300900000E0943A5003020FC29002287401EC
:100E7300F0E49000BCF09000BAF0A3F0229000736D
:100E8300E06003020F3E90007CE0700280699000F6
:100E9300BCE064016003020FC2122858900022E4F0
:100EA300F0A37464F0A3F09002287403F02290007E
:100EB30073E06003020F3E90007CE0701090022804
:100EC3007408F0900022E4F0A37464F0221228C99D
:100ED30090002DE0FFB401079002287406F022EF82
:100EE30064026003020FC28024900073E0600280FA
:100EF3004A90007CE070109002287408F090002261
:100F0300E4F0A3740AF0221212C5121822900228E8
:100F13007407F022900073E06002801F90007CE071
:100F23006003020FC29002287408F0900022E4F0DC
:100F3300A37405F022900073E060079002287409FF
:100F4300F02290000AE0FCA3E0FDEC120382E4FB34
:100F5300FA79AF78451203046002500A900022E048
:100F63007002A3E0700DE4900228F0C2FF9040A04D
:100F7300F0803090007CE064017044900228740794
:100F8300F0E4900002F0A3F0904092740BF0A3748D
:100F930060F022900022E07002A3E0702290022809
:100FA300F0C2FF904062E054DFF02212003E900056
:100FB30073E07004900228F00022E4900228F022EB
:100FC300900228E064096003021153900073E0FF6C
:100FD30064026004EFB40135900171E0C3940550DD
:100FE3002C90017AE004F07006900179E004F0C3DC
:100FF30090017AE094E8900179E09403400FE4F0E3
:10100300A3F0900171E004F0E4900073F09000739A
:10101300E0FF64036009EF64046004EFB40C4390E1
:101023000000E0FEA3E0FFC394D1EE9449502CEFFF
:1010330094EBEE943A4024900178E004F07006902B
:101043000177E004F0D3900178E094C8900177E051
:101053009400400EE4900073F08001E4900177F077
:10106300A3F0900073E0B4063D90016EE0C39405D5
:101073005034900186E004F07006900185E004F09E
:10108300900187E0FEA3E0FFC3900186E09F9001FB
:1010930085E09E4018E4F0A3F090016EE004F0E4D4
:1010A300900073F08007E4900185F0A3F090007343
:1010B300E0B40542900170E0C39405503990019269
:1010C300E004F07006900191E004F0C3900192E017
:1010D30094E8900191E094034023E490018BF0A302
:1010E300F0A3F0A3F0A3F0A3F0900170E004F0E408
:1010F300900073F08007E4900191F0A3F0900073E7
:10110300E0640A7044D3900027E094EE900026E058
:1011130094194035900172E09405502D90019AE0A6
:1011230004F07006900199E004F0D390019AE094E2
:10113300E8900199E094034017E4F0A3F090017262
:10114300E004F0E4900073F022E4900199F0A3F03E
:1011530022900228E0FF64076008EF64086003023E
:101163001299900002E0FEA3E0FFEE6003021299E1
:10117300EF146067046003021299D3900011E094A6
:10118300FF900010E06480948F5003021299900046
:1011930002E4F0A304F0904094740FF0A374FFF002
:1011A300A37402F0A3748FF0904092E0FFA3E09049
:1011B300000CCFF0A3EFF09040D4E0FFA3E0900049
:1011C30076CFF0A3EFF0900020E4F0A304F09000BA
:1011D3000CE0FFA3E09003D802128B900021E004FF
:1011E300F07006900020E004F0C3900021E0940129
:1011F300900020E094005003021299E4F0A3F0124F
:101203001BEF900010E0FEA3E0FFC3900077E09F88
:10121300FF900076E09EFE1229E4904092EEF0A348
:10122300EFF090408EE0FEA3E0C39499EE648094C7
:1012330082502390408EE0FFA3E090001CCFF0A3E8
:10124300EFF0E0240AF090001CE03400F0E0FFA38C
:10125300E090408E803290408EE0FEA3E0D394ADC8
:10126300EE6480948290408E4025E0FFA3E09000DE
:101273001CCFF0A3EFF0E024F6F090001CE034FF65
:10128300F0E0FFA3E090408ECFF0A3EFF08007746F
:1012930002F0A374A3F0900228E0B40724C39000E3
:1012A3001FE0949890001EE0943A500DA3E004F0E0
:1012B300700F90001EE004F022E4900107F07876AE
:1012C300F622904062E054DFF0E04420F09040A02A
:1012D300E4F0A3F0904090F0A3F0A3F0A3F09040CB
:1012E300CCF0A3F09040AAF0A3F09040A8F0A3F0B4
:1012F3009040ACF09040AEF0A3F09040AD7404F099
:101303009040B0747EF0A374B7F0A37481F0A3741B
:1013130049F0A3747EF0A374B7F0A37481F0A374AF
:1013230049F090408C7403F0A374CCF0A37402F0E2
:10133300A374A3F09040887402F0A3747DF0A3E437
:10134300F0A3F09040EEE04404F0E04420F090403D
:10135300A1E0547FF090407A7403F0A37437F090C7
:1013630040807403F0A37469F090407EE4F0A374AA
:1013730066F090407C7415F0A37472F09040A3E47F
:10138300F09040A0E04401F0904062E04440F090CF
:1013930040A0E054F3F09040A57409F09040A1E020
:1013A30054DFF053D69F9001A1E4F0A374DDF0C3A2
:1013B30094FFE49400500B9001A1A3E09040A2F0AD
:1013C30080069040A274FFF09000BCE0B401169038
:1013D30040A1E054F3F09000B4E0FFA3E09040A6F6
:1013E300CFF0A3EFF0904062E04408F0229002288F
:1013F300E0FF64076008EF6406600302150A90408B
:10140300CAE0FEA3E0FF122A64900161EEF0A3EFAD
:10141300F09040C8E0FEA3E0FF122A64900163EE5F
:10142300F0A3EFF09040C6E0FEA3E0FF122A649021
:101433000165EEF0A3EFF0A3E0FEA3E0FF900161EE
:10144300E0FCA3E0FDD39FEC9E4008900167ECF025
:10145300A3EDF0900169E0FEA3E0FF900163E0FCDF
:10146300A3E0FDD39FEC9E4008900169ECF0A3ED4F
:10147300F090016BE0FEA3E0FF900165E0FCA3E0C8
:10148300FDD39FEC9E400890016BECF0A3EDF0C3FD
:10149300900168E094AA900167E0942A501EC390DB
:1014A300016AE094AA900169E0942A500FC3900165
:1014B3006CE094AA90016BE0942A402D90015EE0C9
:1014C30004F0E4900167F0A3F0A3F0A3F0A3F0A36A
:1014D300F090015FF0A3F090015EE0C3940A40270F
:1014E300E4F09000737402F02290015FE475F00160
:1014F300120553FED3E5F094E8EE94034009E4901B
:10150300015EF0A3F0A3F022E51824FE7003021598
:10151300A11470030215AC2402600302161B120807
:1015230068D3E51C94A0E51B6480948F4016E542C4
:101533009490E54164809481501F0542E5427019FF
:1015430005418015D3E5429401E5416480948040D0
:1015530008E542154270021541D3E54294C8E541BE
:1015630064809480500302161B7E007F3B7D007BCA
:10157300007A00790812083C7518029040CEE0FE0C
:10158300A3E0FF9040CCE0FCA3E0C39FFFEC9EFEF2
:10159300E52F2FF53DE52E3EF53CE4F5272290405F
:1015A300A0E04410F075180322E527C394105030CF
:1015B3000527C374109527FDE49400FCE53DAE3C7C
:1015C3007804CEA2E713CE13D8F8FF1204B69040E6
:1015D300CEE0FCA3E02FFFEC3E9040CCF0A3EFF075
:1015E300D39001DAE094379001D9E064809483408A
:1015F3000EA3E024F6F09001D9E034FFF0800A90C6
:1016030001D97403F0A37437F09001D9E0FFA3E08C
:1016130090407ACFF0A3EFF022900104E070300401
:10162300F0E49000F0F0A3F0A3F0A3F0A3F0A3F094
:10163300A3F0A3F0A3F0A3F0A3F0A3F0A3F0A3F00F
:10164300900103F09000FEF0A3F0900102F02290CD
:1016530000FEE5ABF0A3E5AAF0E4F5ABF5AA900034
:10166300FEE0FEA3E0FF900103E025E024F2F58213
:10167300E43400F583EEF0A3EFF09000F4E0FEA372
:10168300E0FF9000F3E02FFF9000F2E03EFE9000B9
:10169300F7E02FFF9000F6E03EFE9000F9E02FFF09
:1016A3009000F8E03EFE9000FBE02FFF9000FAE090
:1016B3003EFE9000FDE02FFF9000FCE03EFEEF7841
:1016C30003CEC313CE13D8F9FF9000F0EEF0A3EFCF
:1016D300F0900103E004F0900102E0900105600F37
:1016E3007401F09000EA1207DE00752F15801C7458
:1016F30001F09000EA1207DE001387D89000FEE0A5
:10170300FFA3E09000F0CFF0A3EFF0900103E0B46B
:1017130006099001027401F0E4A3F0221212C578C5
:1017230080E6FF08E69040CCCFF0A3EFF09040CCEA
:10173300E0FEA3E0241CFFEE34EDA3F0A3EFF09052
:1017430000E8E0FFA3E09040D4CFF0A3EFF0904097
:1017530082E4F0A3740AF0A37401F0A37499F0A3D4
:101763007403F0A374FFF09040A0E04440F0E05411
:10177300DFF0E04410F0900388746FF0A374F9F085
:1017830090038E740CF0A374CCF0900388E0FFA355
:10179300E0900378CFF0A3EFF090038EE0FFA3E097
:1017A30090037ECFF0A3EFF0904094744FF0A374B6
:1017B300FBF0A3747EF0A374B7F09040747426F02A
:1017C300A37471F0A37401F0A37415F090000C746A
:1017D3000EF0A37438F0900022E4F0A3740AF090A2
:1017E300407EE4F0A37466F090002D7402F0E49060
:1017F3000002F0A3F090405CC083C082E0FFA3E04E
:10180300443FD082D083CFF0A3EFF0D2FFD2AF908A
:10181300000CE0FFA3E0904092CFF0A3EFF0229002
:10182300405CC083C082E0FFA3E0443FD082D0830A
:10183300CFF0A3EFF0D2FF900225E030E4030218CB
:10184300EBE04410F09040CCE4F0A3F09040CCE007
:10185300FEA3E024CDFFEE34ECA3F0A3EFF0904021
:10186300CEE0FFA3E0900226CFF0A3EFF0904090EC
:10187300E4F0A3F090000C7408F0A37488F09001D6
:1018830007E0FFB4010890000DE02459800AEFB48B
:10189300020E90000DE02423F090000CE03401F0E0
:1018A300904094740FF0A374FFF0A37401F0A37439
:1018B30047F09040747402F0A37422F0A3E4F0A301
:1018C300F0904082F0A3740AF0A37401F0A374991A
:1018D300F0A37403F0A374FFF09040A0E04440F041
:1018E300E054DFF0E04410F09000227402F0A3749F
:1018F300BCF01219DB90000CE0FFA3E0904092CF04
:10190300F0A3EFF0229000BCE060030219DA9040EC
:1019130039E04440F0904039E020E6F99000B6E029
:10192300F8A3E0F9A3E0FAA3E0FBC000C001C00202
:10193300C003900308E0540FFEA3E07803C333CE43
:1019430033CED8F9FFE4FCFDD003D002D001D000A0
:10195300EB2FFFEA3EFEED39FDEC38FC9000B612AA
:1019630007B99000B6E0FCA3E0FDA3E0FEA3E0FF0F
:1019730078041207809000B4EEF0A3EFF0A3E0FC2C
:10198300A3E0FDA3E0FEA3E0FFC006C0079000B400
:10199300E0FEA3E0FBAA06EA3395E0F9F8D007D00E
:1019A30006C3EF9BFFEE9AFEED99FDEC98FCA312A4
:1019B30007B99000BBE004F070069000BAE004F0B1
:1019C300D39000BBE094E89000BAE0648094834035
:1019D300069000BC7401F0227E007F3B7D007B00FB
:1019E3007A00790812083C904082E4F0A3F0A3F057
:1019F300A3F0A3F0A3F09040A0E054DFF0E054BFC5
:101A0300F0E054EFF090407A747FF0A374FFF0900D
:101A130001D9747FF0A374FFF07510007511019064
:101A230001C3740FF0A374FFF0A37402F0A3748FC7
:101A3300F0A37401F0A374DEF09001DBE4F0A3746F
:101A430028F09001CD74FFF0A3746AF09001CB7479
:101A530003F0A374E8F09001C9740DF0A374A7F028
:101A63009001CFE4F0A37450F0A3E4F0A3745AF010
:101A7300A3E4F0A37403F0A374FFF0A3749CF0A396
:101A830074FCF0A37418F09003F4E4F0A3F0A3F053
:101A9300A3F09003F07413F0A37488F07518012277
:101AA300900073E06003021B4C900000E0FEA3E093
:101AB300FFD3942CEE944B4029900174E004F07012
:101AC30006900173E004F0D3900174E094F4900164
:101AD30073E094014027E4F0A3F09000737404F0E2
:101AE300801BD3900174E09400900173E094004054
:101AF3000CA3E024FFF0900173E034FFF0C3EF94F4
:101B030090EE94395028900176E004F0700690012D
:101B130075E004F0D3900176E0940A900175E094A7
:101B2300004026E4F0A3F09000737403F022D390F6
:101B33000176E09400900175E09400400CA3E0244A
:101B4300FFF0900175E034FFF02290022AE0FE706E
:101B530009EFF0E4900229F0FF22EE6F7003021BFD
:101B6300E990022AE024FE602114602F14603D14E2
:101B7300604B14605924057068EFB4050690022980
:101B83007401F0EF640370598053EFB403069002BD
:101B9300297401F0EF640670488042EFB4010690A7
:101BA30002297401F0EF640270378031EFB4060646
:101BB3009002297401F0EF640570268020EFB404CD
:101BC300069002297401F0EFB40116E4800FEFB41C
:101BD30002069002297401F0EFB40405E49002298F
:101BE300F090022AEFF0900229E0FF22900078742F
:101BF300FFF5F0120553C3648094804003021C8DEB
:101C030090007AE0FFA3E0900078CFF0A3EFF0908C
:101C13000074E0FEA3E0FFA3E0FCA3E0FDC39FEE9E
:101C23006480F8EC648098502EED2464FBE43CFA65
:101C3300D3EF9BEA6480F8EE648098400CE0246460
:101C4300F0900076E03400F022900074E0FFA3E00F
:101C5300A3CFF0A3EFF022ED249CFFEC34FFFE9022
:101C63000074E0FCA3E0FDC39FEE6480F8EC6480A5
:101C730098500F900077E0249CF0900076E034FFBA
:101C8300F022900076ECF0A3EDF02278FEE4F6D893
:101C9300FD9000007F007E04E4F0A3DFFCDEFA7514
:101CA3008187021CE3022026E493A3F8E493A34074
:101CB30003F68001F208DFF48029E493A3F85407C4
:101CC300240CC8C333C4540F4420C8834004F456BF
:101CD300800146F6DFE4800B0102040810204080F7
:101CE300901FBCE47E019360BCA3FF543F30E50921
:101CF300541FFEE493A360010ECF54C025E060A8F7
:101D030040B8E493A3FAE493A3F8E493A3C8C58289
:101D1300C8CAC583CAF0A3C8C582C8CAC583CADFF7
:101D2300E9DEE780BE9001F3ECF0A3EDF0AB07AA88
:101D3300068B828A83E0FEA3E07C002400FFEC3E56
:101D43009003B4F0A3EFF08B828A83A3A3E0FE8B0E
:101D5300828A83A3A3A3E02400FFEC3E9003B6F0A2
:101D6300A3EFF09001F3E0FCA3E0F5828C83E0FEA7
:101D7300A3E07C002400FFEC3E9003B8F0A3EFF057
:101D830075C10BE5C120E7FB7B017A0179F590036F
:101D9300BAE0FFA3E0CF8FF01205E2740229F9E461
:101DA3003AFA9003BCE0FFA3E0CF8FF01205E29074
:101DB30001F5E0FCA3E0FDA3E0FEA3E0FF22900217
:101DC30028E064076003021E4C900022E0FEA3E0BB
:101DD300FFBE0215BF9E12904074740EF0A374F3FD
:101DE300F0A3E4F0A3742AF022BE0215BF6C129094
:101DF30040747419F0A374A1F0A3E4F0A3747BF00E
:101E030022BE0215BF4412904074741DF0A374E601
:101E1300F0A3E4F0A374A8F022BE0215BF08129049
:101E230040747422F0A3742CF0A3E4F0A374DBF0E9
:101E330022BE0115BFE0129040747426F0A37471A2
:101E4300F0A37401F0A37415F0229003D07404F08E
:101E5300A374CCF09003D6E4F0A37441F09003DCB8
:101E63007419F0A37499F0A3E4F0A3F090038874B9
:101E73000FF0A374FFF090038E7402F0A3748FF03D
:101E8300900394747EF0A374B7F0A37481F0A374E9
:101E930049F0900378740FF0A374FFF090037E74FD
:101EA30002F0A3748FF0900384747EF0A374B7F0F0
:101EB300A37481F0A37449F09003D8E4F0A3F090E5
:101EC3000390F0A3F0900380F0A3F022AC07A804E2
:101ED300E6FEE804F8E67A002400FFEA3E9003B445
:101EE300F0A3EFF0EC2402F8E6FEEC2403F8E6247A
:101EF30000FFEA3EA3F0A3EFF0A805E6FEE804F82E
:101F0300E67C002400FFEC3EA3F0A3EFF075C10BC9
:101F1300E5C120E7FB7B017A0179F99003BAE0FF81
:101F2300A3E0CF8FF01205E2740229F9E43AFA90A4
:101F330003BCE0FFA3E0CF8FF01205E29001F9E0CC
:101F4300FCA3E0FDA3E0FEA3E0FF227F011229AB87
:101F5300904052E04420F0904039E04480F09040BB
:101F63004FE04410F0E4FFFE0FBF00010EBE07F880
:101F7300BFD0F5904052E04410F0904051E044B996
:101F8300F0904036C083C082E0FFA3E044DFD082FC
:101F9300D083CFF0A3EFF0904036C083C082E044FB
:101FA30030FFA3E0D082D083CFF0A3EFF09040388E
:101FB3007433F0A3E054FCF0224802160000000042
:101FC3000000000042002E0000540030000001F425
:101FD30003E808980B5410CC170C1C841EDC2166F4
:101FE300410223004102240041021E0042021F005D
:101FF3000042022100004102290041022A0041015E
:10200300080041015D004B01DD3F065B4F666D7DBE
:10201300077F6F004B01E8BF86DBCFE6EDFD87FF4F
:10202300EF0000E4FFFE9001FDF0A3F00FBF0001FD
:102033000EBE27F8BF10F51200061228EC90005FC1
:102043001207DE000000001225CA9040F1E0444070
:10205300F0121908120E0590005EE030E00A120C2F
:102063001390005EE054FEF09040B8E0FFA3E090D0
:10207300007DCFF0A3EFF09040BAE0FFA3E0900023
:102083007FCFF0A3EFF080C9C3900101E094B69035
:102093000100E094035054900086E0FF9000EFE0CD
:1020A300B5071E9000E8E0FEA3E0FFD394FFEE9493
:1020B3000F400EEF94F9EE946F50069001067401F1
:1020C300F0900100E07002A3E0600FC39000E9E02C
:1020D30094FF9000E8E0940F501153D5C053DAFEFB
:1020E300900024E0700590002D04F022C0E0C0D0E1
:1020F30075D000C000E59D30E703539D7FE59D301B
:10210300E620784EE66401184660147843A6A508D5
:10211300A6A408A6A708A6A67855760008760153B4
:102123009DBFE59D30E5217843309107761F087602
:10213300408005760008760008761F0876407855BB
:102143007600087601539DDFD000D0D0D0E032E492
:102153009001FFF012282E900223EFF0A3E06F60AE
:1021630047900223E024BA603714601524FB601AF9
:1021730014603224097031D2B79002077401F080E1
:1021830027C2B7E4900207F0801EE4900213F09098
:10219300020EE0FFA3E090020CCFF0A3EFF0800863
:1021A30012294F800312290D900223E0A3F002238A
:1021B30018900200EEF0A3EFF0A37403F0122A7557
:1021C300D3900201E0940F900200E09427503F90D7
:1021D3000200E0FAA3E0FB4A60347C007D0AAF030F
:1021E300AE021204C8AB05A3E0FF7D071224FC90E6
:1021F3000202E014F0900200E0FEA3E0FF7C007D09
:102203000A1204C8900200EEF0A3EFF080C12290FE
:102213000220E004F0700690021FE004F090021F19
:10222300E0FEA3E0FF7C007D3212051DED4C700340
:1022330012001790021FE0FEA3E0FF7C007D6412F2
:10224300051DED4C700312215290021FE0FEA3E026
:10225300FF7C037DE812051DED4C700A120026E495
:1022630090021FF0A3F022F07B017A02790C900216
:1022730008E0FCA3E0FDA3E0FFA3E0900205CFF09C
:10228300A3EFF0900203ECF0A3EDF012057FFF90B3
:102293000205E0FCA3E0FDC39FEC95F05006EC8D36
:1022A300F01205E212057FFF900203E0FCA3E0FDBC
:1022B300D39FEC95F04006EC8DF01205E222E5D7B2
:1022C30020E40AE5D720E505E5D730E6471229FDE6
:1022D3009000EEEFF0121B4D9000EFEFF012161C82
:1022E30012296F900106E06028900086E0FF7008D5
:1022F3009000EEE06405600BEFB401159000EEE092
:10230300B4030E12171F53D5C053DAFEE49001062F
:10231300F053D78F22900213E0700590020C804097
:10232300900222E004F07006900221E004F0900293
:1023330021E0FEA3E0FF7C007D0A12051DED4C7039
:1023430009900221F0A3F0022A75900221E0FEA376
:10235300E0FF7C007D0512051DED4C700B90020E15
:10236300E0FEA3E0FF1221B422C0E0C0F0C083C0AE
:1023730082C0D075D000C000C004C005C006C0072D
:10238300900067E0FCA3E0FDA3E0FEA3E0FFEC4DBB
:102393004E4F60109000671207DE000000009000AF
:1023A3006B7401F053D2FDD007D006D005D004D012
:1023B30000D0D0D082D083D0F0D0E032904051E032
:1023C3004480F053D69F904035E04480F0E054BF02
:1023D300F090019F7401F0A3740CF0C394FF740197
:1023E3009400500B90019FA3E090404BF080069027
:1023F300404B74FFF043D60853D9FBE5D954E74467
:1024030008F5D9E5D954FC4403F5D943D6102290F5
:10241300405E7401F0A37490F0A37413F0904062D3
:10242300E04404F090405C7405F0A37440F075F848
:102433002A904061E054EFF0E054FC4402F09040F5
:102443005AE4F0A374C8F0D2BFD2BE904061E04416
:1024530004F0A3E04480F0E054EFF0E04401F02204
:10246300C0E0C0F0C083C082C0D075D000C000C03F
:1024730001C002C003C004C005C006C0079040618C
:10248300E030E40F12271E12150B904061E04480E8
:1024930054EFF0D007D006D005D004D003D002D03B
:1024A30001D000D0D0D082D083D0F0D0E032C0E0D1
:1024B300C0F0C083C082C0D075D000C000C001C0CE
:1024C30002C003C004C005C006C007E5D730E70B50
:1024D300C2FF9000737401F053D77F1222C1D0075B
:1024E300D006D005D004D003D002D001D000D0D084
:1024F300D082D083D0F0D0E032E4FEFCEDB4070A02
:1025030074DD2BF582E43401800CEDB4080C74E81F
:102513002BF582E43401F583E0FCEF70047E6880E0
:1025230016EFB401047E6A800EEFB402047E6C8061
:1025330006EFB403027E6EAF06AE04AD06022A2C8C
:10254300E4900073F0FE7F30FD7B017A0179731212
:10255300083C7E007F2E7D007B017A007900120803
:102563003CE4900225F0FE7F07FD7B017A00796C45
:1025730012083C90006F7413F0A37487F0E4900288
:1025830014F0A3F022FFE0FCA3E0FD7B0A9001FF1F
:10259300EEF0A3EFF0AF03EF9003F8F0A3E4F090B5
:1025A30001FFE0FFA3E09003FACFF0A3EFF0AF0544
:1025B300A3ECF0A3EFF075C10EE5C120E7FB900398
:1025C300FCE0FEA3E0FF22E4900207F090020A740D
:1025D3000FF0A3743CF0900208E4F0A37464F0904D
:1025E300020C7403F0A374E8F0900210E4F0A374F7
:1025F30064F090020CE0FFA3E0A3CFF0A3EFF0E4BC
:10260300900212F0A3F022904050E04450F0A3E077
:102613004402F0E5DA549F4420F5DA53DAE7E5D6CD
:1026230054F84404F5D653DAF9E5D554CF4430F5DC
:10263300D5E5D554F3440CF5D5E5D554FC4403F561
:10264300D543DA01229000867401F09000AA1207A4
:10265300DE00003FFF9000B01207DE00003FFF9056
:1026630000B61207DE00003FFF90006F7413F0A363
:102673007487F090007AE4F0A3740AF022E49000E7
:10268300E8F0A3F0A31207DE00000000E49000EEE0
:10269300F0900086E09000EFF09001007403F0A347
:1026A30074E8F0E4900104F0A3F0A3F012277F0292
:1026B300260A9003C8EEF0A3EFF0AF05A3ECF0A356
:1026C300EFF075C10AE5C120E7FB9003CCE0FEA360
:1026D300E0A803A60608F6A3E0FEA3E0FFEB2402AE
:1026E300F8A60608A607229001B3740BF0A3743270
:1026F300F0A3E4F0A37428F0E4A3F0A3F0A3F0A301
:10270300F0A3F0A3F0A3747EF0A374B7F0A3747ED8
:10271300F0A374B7F0E4A3F0A3F02278841207C502
:1027230000000000785DE6640170207849E6FE0849
:10273300E6FF7B847DFF7C7F1226B57F847D4F126D
:102743001ECF78511207ADE4785DF62290404FE03A
:102753004401F0904052E04402F0E04401F0904024
:1027630051E04480F090404EE04401F09040F2E0AC
:1027730054F7F0E054FBF0E054FDF02253A9FEE5DA
:10278300A1541F4480F5A1E5A154FC4401F5A153D4
:10279300A1FB53A91F75AFEA75AE6085AFAD85AEDA
:1027A300ACE4F5ABF5AA43A90122AD07E4FCC28171
:1027B3007F01FE1229CCED30E704D2808002C28073
:1027C300ED25E0FDC2811229C8D2811229C8C28138
:1027D3000CECB408E122900225E020E023E0440160
:1027E300F0C2FF904062E054DFF0904036C083C0F7
:1027F30082E0FFA3E0449FD082D083CFF0A3EFF029
:1028030022E4F5FE9040557444F0E4F5FFA374FF11
:10281300F0E4F5FC90405374FFF0E4F5FDA37487F6
:10282300F0E4F5E99040577403F0221200567F4913
:102833001227AD122931E4FDD281EB25E0FB308074
:10284300010B1229C8C2810DEDB408EC1229311213
:102853002A94AF0322904036C083C082E0FFA3E0F6
:1028630054ECD082D083CFF0A3EFF0122543121E95
:102873004D1226EA900225E054F7F022AE05A9078F
:10288300EB6017EEB40708E9C454F02405800CEE9E
:10289300B4080EE9C454F0048001E4FD7F48122A11
:1028A3002C22C0E0C083C082904061E030E71090EA
:1028B300005EE04401F0904061E04410547FF0D0AA
:1028C30082D083D0E032900022E07002A3E070183F
:1028D300900225E020E307E04408F01226809002EE
:1028E30025E030E30312208B221228041223BF12A7
:1028F3002A5212274F121F4E122A40122412122A52
:10290300867B017D077F0702287F900212E0701A01
:10291300A304F0900210E0FEA3E0FFC390020FE0D7
:102923009FF090020EE09E12226A221227ADE4FD70
:10293300D2817F05FE1229CCC281308009EDD39468
:102943006450030D80F41229C8C28122900212E060
:102953007019A304F0900210E0FEA3E0FF90020FB1
:10296300E02FF090020EE03E12226A22900105E071
:1029730060187E007FEA7C007DF0121D289000E83D
:10298300EEF0A3EFF0E4900105F022C0E0E5A930FA
:10299300E70353A97FE5A930E60353A9BFE5A930AF
:1029A300E50353A9DFD0E03290404FE0547FF0E0DD
:1029B30054BFF0E054EFFEEF7F0060027F10EE4F54
:1029C30090404FF0227F057E00D3EF9400EE6480A9
:1029D3009480400C0000000000EF1F70EC1E80E9A3
:1029E300229003D4EEF0A3EFF075C117E5C120E701
:1029F300FB9003D8E0FEA3E0FF22E4FFE5D730E23B
:102A030004EF2404FFE5D730E1020F0FE5D730E0F0
:102A1300010F22C0E0C083C082900073740CF05396
:102A2300DBFED082D083D0E032AB05AD0712005677
:102A3300AF0512292EAF0312292E022A9453D77FF2
:102A4300E5D5543F4440F5D5D2C7D2C6D2AF22759F
:102A5300FD2075FFC075FC8075E904C2EA75FC03AF
:102A630022C3EE648094805008C3E49FFFE49EFE7B
:102A73002222E4FAAF027B0A7D071224FC0AEAB49D
:102A830004F222C2CDD2CCD2AF904061E04440F0F8
:102A930022D281C2801229C8D280221213F0121AC4
:042AA300A3020FC3B8
:00000001FF
