:020000040800F2
:10000000B80600209D0100083B1A00087F15000873
:10001000391A000805060008711C000800000000DD
:10002000000000000000000000000000431A00086B
:100030000706000800000000411A0008451A0008E1
:10004000B7010008B7010008B7010008B7010008B0
:10005000B7010008B7010008B7010008B7010008A0
:10006000B7010008B7010008B7010008B701000890
:10007000B7010008B7010008B7010008B701000880
:10008000B7010008B7010008B7010008B701000870
:10009000B7010008B7010008B7010008B701000860
:1000A000B7010008B7010008B7010008B701000850
:1000B000B7010008B7010008B7010008B701000840
:1000C000B7010008B7010008B7010008B701000830
:1000D000B7010008B7010008B7010008B701000820
:1000E000B7010008B7010008B7010008B701000810
:1000F000B7010008B7010008B7010008B701000800
:10010000B7010008B7010008B7010008B7010008EF
:10011000B7010008B7010008B7010008B7010008DF
:10012000B7010008B7010008B7010008B7010008CF
:10013000B7010008B7010008B7010008B7010008BF
:10014000B7010008B7010008B7010008B7010008AF
:10015000B7010008B7010008B7010008B70100089F
:10016000B7010008B7010008B7010008B70100088F
:10017000B7010008B7010008B7010008000000003F
:10018000B7010008B7010008DFF80CD000F09EF8B6
:1001900000480047411E0008B80600200648804776
:1001A00006480047FEE7FEE7FEE7FEE7FEE7FEE75C
:1001B000FEE7FEE7FEE7FEE7DD1A0008890100081A
:1001C0002DE9F05F0546002092469B46884606468C
:1001D000814640241BE0284641464746224600F01F
:1001E00065F853465A46C01A914110D31146184635
:1001F000224600F04CF82D1A67EB01084F462246C4
:100200000120002100F043F817EB00094E41201EA9
:10021000A4F10104DFDC484631462A464346BDE8E6
:10022000F09FD2B201E000F8012B491EFBD27047CB
:100230000022F6E710B513460A4604461946FFF7B2
:10024000F0FF204610BD10B54843044601F02CFED7
:10025000002805D00021002C02D0641E0155FAE7C9
:1002600010BD30B50B46014600202022012409E0D4
:1002700021FA02F59D4205D303FA02F5491B04FA5F
:1002800002F52844151EA2F10102F1DC30BD202A3E
:1002900004DB203A00FA02F1002070479140C2F1DD
:1002A000200320FA03F3194390407047202A04DB0F
:1002B000203A21FA02F00021704721FA02F3D040DF
:1002C000C2F120029140084319467047064C074D81
:1002D00006E0E06840F0010394E807009847103416
:1002E000AC42F6D3FFF754FF2C1F00084C1F000848
:1002F0001FB50C4600210391022203A983688DE8F3
:100300000E00006801230E226C2100F059FBBDF89D
:100310000C1049BA218004B010BD0EB582680123CB
:10032000CDE90013029200680B226C2100F048FB1B
:100330000EBD38B50446806808B90A20A060A17BCC
:10034000012001B9A073E17B01B9E073217C01B9FF
:100350002074617C01B96074A17C01B9A074E17C56
:1003600001B9E074217D01B92075607D08B90220D2
:100370006075E17B204600F0A0F868BB217C204638
:1003800000F077F840BBA27C617C204600F0B9F811
:1003900010BBE17C204600F0F3F8E8B9217D20464F
:1003A00000F022F8C0B9617D204600F00DF998B93F
:1003B000204600F019F978B900208DF80000694650
:1003C0002046FFF7AAFF38B99DF80000810603D543
:1003D000010701D4C00601D5012038BD002038BD79
:1003E00018210120FFF72FBF092940D2DFE801F0D3
:1003F0003F0509131B232B333B00817D21F01C019A
:1004000006E0817D21F018018175817D41F00401B4
:10041000817500207047817D21F014018175817DF7
:1004200041F00801F4E7817D21F010018175817DA3
:1004300041F00C01ECE7817D21F00C018175817D9B
:1004400041F01001E4E7817D21F008018175817D93
:1004500041F01401DCE7817D21F004018175817D8B
:1004600041F01801D4E7817D41F01C01D0E7012063
:100470007047012907D0022909D0032911D0042986
:1004800017D001207047C17D21F00C0106E0C17D2D
:1004900041F00401C175C17D21F00801C175002042
:1004A0007047C17D21F00401C175C17D41F0080193
:1004B000F4E7C17D41F00C01F0E7012907D00229E2
:1004C00009D0032911D0042917D001207047C17D1C
:1004D00021F0030106E0C17D41F00101C175C17D3C
:1004E00021F00201C17500207047C17D41F0020179
:1004F000C175C17D01F00101F4E7C17D41F0030147
:10050000F0E7012904D0022906D003291ED10DE00D
:10051000C17D21F0300106E0C17D41F01001C175BF
:10052000C17D21F02001C17500207047C17D01F01F
:100530001001C175C17D41F02001C175012A07D0AC
:10054000022A09D0032A0FD0042A15D001207047AF
:10055000C17D21F0C001E6E7C17D41F04001C175D8
:10056000C17D21F08001DEE7C17D21F04001C17530
:10057000C17D41F08001D6E7C17D41F0C001D2E7E5
:10058000012907D0022909D0032911D0042917D045
:1005900001207047817D21F0030106E0817D41F05B
:1005A00001018175817D21F0020181750020704774
:1005B000817D21F001018175817D41F00201F4E727
:1005C000817D41F00301F0E7012903D0022905D024
:1005D00001207047817D21F0400102E0817D41F0E2
:1005E00040018175002070470EB5022200F116010E
:1005F00083688DE80E000068012307226C2100F05B
:10060000DBFA0EBDFEE7704772B6FEE770B5044632
:1006100000F00CF90546601C02D004480078044440
:1006200000F004F9401BA042FAD370BD0000002086
:100630002DE9F84FDFF8BCA10022012503264FF079
:100640000F090AF1040BAAF1040E00BF0B6805FAAA
:1006500002F42340A34270D10F7907F00307012F62
:1006600001D0022F16D187684FEA420806FA08FC2B
:1006700027EA0C07D1F80CC00CFA08FC4CEA070C6E
:10068000C0F808C04768A7430C79C4F3001494402D
:100690003C4344600C79E443A4070AD0C4684FEAA1
:1006A000420C06FA0CF7BC438F6807FA0CF7274395
:1006B000C7600C7904F00304022C12D1D40800EBBB
:1006C000840CDCF820405707FF0E09FA07F824EAEB
:1006D0000804D1F8108008FA07F848EA0408CCF8B2
:1006E000208004684FEA420C06FA0CF7BC430F79ED
:1006F00007F0030707FA0CF7274307604C6814F468
:10070000403F70D03C4C276847F4804727602468FE
:1007100022F0030704F480440094384C07EB040CE7
:10072000DCF8084897074FEA177809FA08F7BC433E
:10073000334FB84202D1002724E054E0314FB84291
:1007400001D101271EE0304FB84201D1022719E044
:100750002E4FB84201D1032714E02D4FB84201D1EA
:1007600004270FE02B4FB84201D105270AE02A4F9A
:10077000B84201D1062705E0284FB84201D107272A
:1007800000E0082707FA08F72743CCF80878DAF8DA
:1007900000405746D1F804C09C435FEACC2C00D5FA
:1007A0001C433C60DBF800405F46D1F804C09C432A
:1007B0005FEA8C2C00D51C433C60DEF80040774695
:1007C000D1F804C09C435FEA8C3C00D51C433C60DC
:1007D000084F083F3C68D1F804C09C435FEACC3C1A
:1007E00000D51C433C60521C102AFFF42FAFBDE81B
:1007F000F88F0000083C01404438024000300140BE
:10080000000002400004024000080240000C0240C8
:10081000001002400014024000180240001C024078
:100820000AB1816170470904FBE700000148806854
:10083000704700000000002070B5040025D094F837
:100840003D00002520B984F83C50204600F04CFAC9
:10085000242084F83D002068016821F00101016036
:100860002068016841F4004101602068016821F4BA
:100870000041016000F09AFB4D4A6168914201D845
:100880004C4900E04C49884201D2012070BD4B49DF
:100890002368B0FBF1F15E6826F03F060E435E6010
:1008A0006368934206D94FF4967359434FF47A73B1
:1008B000B1FBF3F12368491C1E6A26F03F06314361
:1008C00019626168914210D84900401EB0FBF1F2F4
:1008D000521CC2F30B02042A01D2042022E0B0FB16
:1008E000F1F0401CC0F30B001CE0A268F2B301EB76
:1008F000C10303EB0116431EB3FBF6F35B1C43F489
:1009000080431B0549D092B301EBC10202EB0111F8
:10091000401EB0FBF1F0401CC0F30B0040F48040DF
:1009200040F400402168CA694CF6FF739A431043B3
:10093000C861D4E9071001432068026822F0C002B0
:1009400011430160D4E9030101432068826848F241
:10095000FF339A4311438160D4E9050108432168BC
:10096000CA6822F0FF021043C86001E00EE016E002
:100970002068016841F0010101602564202084F8AD
:100980003D00256384F83E50002070BD01EB410618
:10099000431EB3FBF6F35B1CB3E70120C2E701EB98
:1009A0004101401EB0FBF1F0401CC0F30B00B7E763
:1009B000A086010080841E0000093D0040420F0017
:1009C0002DE9FF4F83B09A46DDE91197934604461F
:1009D000DDF84080FFF72AFF054694F83D00202807
:1009E00070D11923012271492046009500F0D8FEEC
:1009F0000028F5D194F83C00012863D0012084F848
:100A00003C0020680168C90703D1016841F0010179
:100A100001602068016821F400610160222084F8EF
:100A20003D00402084F83E0000262664C4F824805F
:100A3000A4F82A90608D20855D48E062CDE90075BC
:100A400053465A462046049900F0B2FD00287CD156
:100A5000208DD0B1012821D00228206824D04169FE
:100A600080690090208D032869D801282BD0514936
:100A700002283B464FF00002009559D08846204698
:100A800000F08EFE002860D13CE020684169816959
:100A90000091016841F40071016077E0206801680D
:100AA00021F480610160F0E7016821F48061016058
:100AB0002068016841F40061016020684169806933
:100AC000009063E06FE02A463946204600F0E7FEDA
:100AD00098BB20680069616A08704EE02068016870
:100AE00041F40071016020680069616A0870606A01
:100AF000401C6062218D491E2185618D491E6185E2
:100B0000216838E02068016821F480610160206874
:100B10000069616A0870606A401C6062208D401E36
:100B20002085608D401E60853B4600224146009531
:100B3000204600F035FE00B9D0E706E0FFE72A4680
:100B40003946204600F0ABFE18B1012007B0BDE8E1
:100B5000F08F20680069616A0870606A401C6062FA
:100B6000218D491E2185618D491E618521684A6953
:100B7000D24352070AD409690170606A401C60625E
:100B8000208D401E2085608D401E6085208D0028B0
:100B90007FF468AF202084F83D0084F83E6084F83C
:100BA0003C600020D2E70220D0E7000002001000E5
:100BB0000000FFFF040001002DE9FF4F83B09A46BB
:100BC000DDE9119793460446DDF84080FFF72EFEDD
:100BD000054694F83D0020287FD119230122404981
:100BE0002046009500F0DCFD002876D194F83C000A
:100BF000012872D0012084F83C0020680168C907F0
:100C000003D1016841F0010101602068016821F40D
:100C100000610160212084F83D00402084F83E00FE
:100C200000262664C4F82480A4F82A90608D2085CC
:100C30002C48E062CDE9007553465A462046049997
:100C400000F034FD70B930E02A463946204600F005
:100C500059FE58B1206C042804D12068016841F481
:100C600000710160012007B0BDE8F08F606A216863
:100C700000780861606A401C6062218D491E89B25B
:100C80002185628D521E628522685369DB435B07B2
:100C90000BD469B100781061606A401C6062208DDD
:100CA000401E2085608D401E6085208D0028CBD1A0
:100CB0002A463946204600F04DFD0028CAD154F896
:100CC0003D0B016841F400710160202004F81E0909
:100CD000E67766770020C6E7FFE70220C3E700005B
:100CE000020010000000FFFF10B586B0044614217A
:100CF0006846FFF79DFA13492068884220D11248C0
:100D00000021026842F002020260006800F0020066
:100D10000590C02000901220CDE90101032003902E
:100D20000420049069460948FFF782FC0648103009
:100D3000016841F400110160006800F400100590A2
:100D400006B010BD0054004030380240000402409C
:100D500002488168027811448160704700000020D9
:100D60000B4810B5016841F400710160016841F45D
:100D700080610160016841F480710160032000F02E
:100D800061F80F2000F006F800F024F8002010BDF4
:100D9000003C024070B50D4D04464FF47A7128783E
:100DA000B1FBF0F00A490968B1FBF0F000F012FB6A
:100DB00048B9102C07D200222146501E00F022F81C
:100DC00000206C6070BD012070BD0000000000209C
:100DD0000C0000200A4808B5016841F48041016018
:100DE000006800F4804000900548001F016841F051
:100DF00080510160006800F08050009008BD000044
:100E000044380240F0B40E4B1B680C46C3F3022377
:100E1000C3F10705042D00D90425191D072901D2A6
:100E2000002300E0DB1E012606FA05F1491E2140E1
:100E300099409E40761E16403143F0BC00F02ABF18
:100E40000CED00E0064900F0070208684FF6FF03CA
:100E5000184040EA0220034A10430860704700002F
:100E60000CED00E00000FA05704700002DE9F047A6
:100E70000E46050065D0DFF81481D8F80000F7B2FF
:100E800000F00700B04207D288F80070D8F80000E0
:100E900000F00700B04254D128683D4C810712D5BC
:100EA000400703D5206840F4E05020602878000710
:100EB00003D5206840F4604020602068A96820F0D5
:100EC000F000084320602878C0072DD030496868BA
:100ED0000839012812D0022813D0032811D009683C
:100EE000890700292DDA216821F0030101432160DF
:100EF000FFF79CFC814641F2883A0EE009688903BD
:100F0000EFE709688901ECE7FFF790FCA0EB090126
:100F1000514502D90320BDE8F0872068696800F0D8
:100F20000C00B0EB810FEFD1D8F80010404601F073
:100F30000701B14207D90770006800F00700B0420E
:100F400001D00120E7E72878400705D52068E96847
:100F500020F4E050084320602878000706D5206878
:100F6000296920F4604040EAC100206000F03EF8AA
:100F70002168084AC1F30311515CC8400649086062
:100F800006480068FFF706FF0020C4E7003C024067
:100F900008380240141F00080C0000200400002044
:100FA00001490120C86470470000474204480549D0
:100FB00000680968044AC1F38221515CC840704747
:100FC0000C00002008380240241F0008044805498E
:100FD00000680968044AC1F34231515CC840704757
:100FE0000C00002008380240241F0008154810B5E6
:100FF000006810F00C02144813D04110042A0FD0DE
:10100000082A0ED10F4C241F2268236802F03F02E9
:101010005B0207D52068C0F38810A0FB010106E041
:10102000084610BD2168C1F38811A1FB000100230F
:10103000FFF7C6F82168C1F30141491C4900B0FB24
:10104000F1F010BD083802400024F400054810B546
:101050000068000605D5FFF707FF02498020891CBC
:10106000087010BD0C3802402DE9F84F04006ED016
:101070002078DFF84C93C007A9F104054AD009F1A4
:1010800004000168C1F38101012908D00068C0F3A0
:10109000810002280AD1D9F80000400206D528684C
:1010A000800337D560680028E1D033E06068B0F590
:1010B000803F10D0B0F5A02F286810D020F48030E9
:1010C0002860286820F4802028606068A8B1FFF7B5
:1010D000ADFB06460DE0286840F48030F4E740F4AC
:1010E00080202860F7E700BFFFF7A0FB801B642883
:1010F00073D828688003F7D50CE0FFF797FB064606
:1011000005E000BFFFF792FB801B6428F0D8286839
:101110008003F7D42078DFF8AC8280074FF0000A14
:101120003ED5A748001D016811F00C0F08D00068DB
:10113000C0F3810002280BD1D9F80000400207D487
:101140002868800716D5E068012800D112E033E155
:10115000E068B8B10120C8F80000FFF767FB064659
:1011600005E000BFFFF762FB801B0228C0D828689B
:101170008007F7D52868216920F0F80040EAC1000F
:1011800028600DE0C8F800A0FFF750FB064604E019
:10119000FFF74CFB801B02281FD828688007F7D474
:1011A0002078000722D5864F87486169703771B172
:1011B00001210160FFF73AFB064604E0FFF736FB2A
:1011C000801B022809D838688007F7D50EE0C0F8E0
:1011D00000A0FFF72BFB064605E082E0FFF726FBA9
:1011E000801B02287DD838688007F7D42078400714
:1011F00068D5DFF8CCB100270BF13C0BDBF8000021
:10120000C0000BD4DBF8001041F08051CBF8001087
:10121000DBF80000012700F0805000906B4E306832
:10122000C00510D4306840F480703060FFF7FEFADB
:10123000009005E0FFF7FAFA0099401A022850D80A
:101240003068C005F6D55E4EA0686C3601280FD018
:101250000528306810D020F001003060306820F0A0
:1012600004003060A068B8B1FFF7E0FA00900FE02A
:10127000306840F00100F4E740F004003060F7E728
:10128000FFF7D4FA0099411A41F28830814266D8BA
:1012900030688007F4D50EE0FFF7C8FA009007E049
:1012A000FFF7C4FA0099411A41F28830814256D8BA
:1012B00030688007F4D42FB1DBF8001021F08051A2
:1012C000CBF80010A069C8B33D49091D0968C1F3F6
:1012D000810102294AD00228504607D0C8F8600090
:1012E00000E03CE0FFF7A2FA04463BE04746C8F8BE
:1012F0006000FFF79BFA064605E000BFFFF796FA8D
:10130000801B02282BD828688001F7D4D4E9070174
:101310000843A16A2E4A490802EB0141626A41EA88
:101320008211084394F82C1040EA0161C9F80010BA
:1013300001203866FFF77AFA044606E03EE000BF77
:10134000FFF774FA001B022809D828688001F7D536
:1013500034E000BFFFF76AFA001B022802D903201D
:10136000BDE8F88F28688001F4D427E00128F7D081
:10137000D9F80000E26900F4800191421CD1226A90
:1013800000F03F01914217D147F6C071626A0140F7
:10139000B1EB821F10D1A26A4FF0FF3300F440314D
:1013A00003EB5202B1EB024F06D194F82C1000F07F
:1013B0007060B0EB016F01D00120D1E70020CFE7D2
:1013C0000438024000004742800E4742007000404F
:1013D0000000FFFF10B5401EB0F1807F01D3012057
:1013E00010BD4FF0E02460610F21601700F052FC47
:1013F0000020A06107202061002010BD70B504000E
:1014000004D094F83D00002510B106E0012070BD25
:1014100084F83C50204600F023F8242084F83D0056
:101420002068C16821F40051C160204600F05EFBD5
:101430002068016921F4904101612068416921F02F
:101440002A0141612068C16841F40051C1602564EE
:10145000202084F83D0084F83E00002070BD00008C
:1014600010B586B0044614216846FEF7E1FE144923
:101470002068884221D113480021026842F01002FE
:101480000260006800F0100005900E4814380268F1
:1014900042F001020260006800F0010005904FF484
:1014A000C06000900220CDE90101032003900720D5
:1014B000049069460448FFF7BBF806B010BD000071
:1014C0000010014044380240000002402DE9F8437A
:1014D000044690F83D001F4616460D4620284CD184
:1014E000C5B1BEB194F83C00012846D0012084F873
:1014F0003C004FF00008C4F84080212084F83D00F3
:10150000FFF794F9A6848146E684A068B0F5805F71
:1015100003D004E00120BDE8F883206928B12E46FD
:101520005FF0000584F83C800EE00026FAE7802199
:10153000204600F061FBA0B9AEB116F8010B21689E
:101540004860E08C401EE084E08C4B464FF0000287
:1015500000970028EBD14FF04001204600F04CFBF3
:1015600030B10320D7E735F8020BC0F30800E6E7F7
:10157000202084F83D000020CDE70220CBE7FEE7E5
:1015800001684A69D24352050FD46FF480624A6100
:10159000002140F8301F202242738173026942F01B
:1015A00004020261017301207047002070470000AF
:1015B0002DE9F84F0446006889460B9D016898465E
:1015C000174641F4806101602068016841F4807130
:1015D000016000954FF0011B0022594620460A9BEE
:1015E00000F0DEF84FF4007A40B120680068C005D2
:1015F00001D5C4F840A00320BDE8F88F216809F0A8
:10160000FE0008612B46284920460A9A00F0FCF8A3
:10161000F0BB20684169806900902A4620460A99FB
:1016200000F070F940B1206C04283AD120680168BC
:1016300041F40071016034E0FEB2B8F1010F09D04D
:101640002168380A08612A4620460A9900F05AF9AA
:101650000028E8D1206806612A4620460A9900F051
:1016600051F90028DFD12068016841F480710160E0
:1016700000950022594620460A9B00F091F8002868
:10168000B3D1216809F0FF0040F00100086100E0DB
:1016900007E02B46044920460A9A00F0B5F80028D6
:1016A000AAD00120A8E70000020001002DE9F843BC
:1016B000044600680D46DDE908970168984616461D
:1016C00041F4807101604B4600224FF00111204629
:1016D000009700F065F848B120680068C00502D5A1
:1016E0004FF4007020640320BDE8F883216805F002
:1016F000FE0008613B464A461549204600F084F842
:1017000088B920684169806900903A464946204678
:1017100000F0F8F848B1206C042804D12068016872
:1017200041F4007101600120DEE7F5B2B8F1010F6C
:1017300009D02168300A08613A464946204600F03F
:10174000E1F80028E7D1206805610020CCE700001F
:101750000200010070B516460D4604460DE0204615
:10176000FFF70EFF08B1012070BD681C05D0FFF720
:101770005DF8801BA84207D835B120684069C04396
:101780004007ECD4002070BD002044F8300F202129
:101790006173A073216941F0200121612073E2E7A8
:1017A0002DE9F0471E4690460D460446C1F3074713
:1017B000DDF8209008E0701C06D0FFF737F8A0EBAA
:1017C0000900B0420FD876B12068012F18D0806987
:1017D00025EA00000004000C14D000214145EAD0A5
:1017E0000020BDE8F087002044F8300F202161730D
:1017F000A073216941F02001216120730120F0E7ED
:101800004069E5E70121E9E72DE9F0479A4691466D
:101810000E46044600254FF02008C1F3074725E097
:1018200020684069C043400514D42068016841F431
:101830000071016021686FF480604861256384F85D
:101840003D8084F83E50206C40F00400206484F811
:101850003C501FE0B9F1FF3F08D0FEF7E7FFA0EBD7
:101860000A0149450CD8B9F1000F09D02068012FB1
:1018700013D0806926EA00000004000C0BD0CFE7EB
:1018800044F8305F84F80D80A573206940F0200093
:10189000206125730120BDE8F0874069EAE72DE962
:1018A000F041002590460E460446202717E0406987
:1018B000C043C0060CD454F8301B6FF010004861D0
:1018C00044F810596777A577206A2062257717E0DA
:1018D000FEF7ACFFA0EB0800B04208D83EB120688C
:1018E0004169C9434906E2D40020BDE8F08144F8CB
:1018F000305F6773A573206940F020002061257375
:101900000120F2E770B516460D4604460DE020466C
:10191000FFF736FE08B1012070BD681C05D0FEF748
:1019200085FF801BA84207D835B120684069C043B5
:101930000006ECD4002070BD002044F8300F2021B8
:101940006173A073216941F0200121612073E2E7F6
:1019500070B586B014216846FEF76AFC164800246C
:10196000016841F080010160016801F0800105918A
:10197000016841F001010160016801F00101059178
:10198000016841F00201016000680C4E00F00200A5
:101990004FF480750590002229463046FEF740FF3F
:1019A00001200095CDE90104694630460394FEF715
:1019B0003FFE06B070BD0000303802400004024017
:1019C0000D4810B50B4901600C49416000214FF4EE
:1019D00080428160C0E9031241618161C16101629D
:1019E000FEF72AFF002803D0BDE81040FEF70CBE2A
:1019F00010BD0000005400401C000020A086010023
:101A00000C4810B50A4901604FF4E13141600021F2
:101A100081600C22C160C0E904128161C161FFF7DD
:101A2000EDFC002803D0BDE81040FEF7EDBD10BD71
:101A30000010014070000020FEE7FFF707FBFEE703
:101A400070477047FFF784B930B593B030216846CE
:101A5000FEF7EEFB14210CA8FEF7EAFB1D4800255B
:101A6000016841F080510160006800F080501190E1
:101A70001948016841F4804101600068022400F4C3
:101A80008040119001200090000401908001CDE978
:101A9000064008AA0420A82182E813000B9068469B
:101AA000FFF7E2FA08B172B6FEE70CA90F2081E851
:101AB00031004FF4A0500F904FF48050109005214A
:101AC0000CA8FFF7D3F908B172B6FEE7FFF768FA82
:101AD00013B030BD40380240007000400248016839
:101AE00041F470010160704788ED00E070B5044674
:101AF00000680169E26821F44051114301612169E4
:101B0000A068E26908436169114308432168CA6813
:101B100049F20C639A430243CA6020684169A26992
:101B200021F440711143416131492068884202D05B
:101B30003049884202D1FFF749FA01E0FFF736FA4F
:101B4000E2690023192164253226B2F5004F62684C
:101B500028D0A0FB0101930F9200FEF731FB014654
:101B6000B0FBF5F06FF01802504301EB800006EB7C
:101B70000010B0FBF5F000F0F002B1FBF5F002EB65
:101B80000012B1FBF5F06FF01803584301EB800031
:101B900006EB0010B0FBF5F000F00F0021681044D8
:101BA000886070BDA0FB010192185B41FEF708FB45
:101BB0000146B0FBF5F00201B1FBF5F06FF0180340
:101BC000584301EB800006EBC000B0FBF5F000F0DD
:101BD000F80002EB4002B1FBF5F0584301EB800046
:101BE00006EBC000B0FBF5F000F00700D6E7000000
:101BF00000100140001401402DE9F04198461746BD
:101C00000E460446069D27E0681C25D02DB1FEF740
:101C10000DFEA0EB0800A8421ED920680C3050E849
:101C2000001F21F4D07140E80012002AF5D120688D
:101C3000143050E8001F21F0010140E80012002A92
:101C4000F5D1202084F83D0084F83E00002084F87F
:101C50003C000320BDE8F0812068006836EA0000FF
:101C600004D00020B842CFD00020F3E70120F9E7EC
:101C7000FEE700000FB4054B10B503A9044A029813
:101C800000F028F810BC5DF814FB0000291E0008C5
:101C9000100000200907090E002804DB00F1E020F5
:101CA00080F80014704700F00F0000F1E02080F889
:101CB000141D704702E008C8121F08C1002AFAD19B
:101CC00070477047002001E001C1121F002AFBD1BC
:101CD000704700002DE9FF4F89B09B460446002560
:101CE00006E025280BD05A460B999047641C6D1CC2
:101CF00020780028F5D10DB02846BDE8F08F0027E8
:101D0000B8460122474900E0074314F8013F203B51
:101D100002FA03F00842F7D120782E2819D114F8DE
:101D2000010F47F004072A280ED06FF02F02207809
:101D3000A0F1300109290CD808EB880102EB410120
:101D400000EB0108641CF2E70A98641C50F8048B4D
:101D50000A9020780028CED0642808D0692806D0C0
:101D600075281ED05A460B9990476D1C58E00A9969
:101D70004FF00A0901C90A91002802DA40422D21D8
:101D800002E0390504D52B218DF82010012103E054
:101D9000F90704D02021F7E78A4608AE0DE00021BC
:101DA000FAE70A994FF00A0901C90A91F7E749468B
:101DB000FEF757FA303106F8011D0028F7D1ADEBD8
:101DC000060000F12009780701D44FF00108C8454A
:101DD00002DDA8EB090000E000208046002706E0B5
:101DE00008A85A46C05D0B9990476D1C7F1C57454B
:101DF000F6DB04E030205A460B9990476D1CB8F191
:101E00000001A8F10108F5DC05E016F8010B5A46BF
:101E10000B9990476D1CB9F10001A9F10109F4DC9F
:101E2000641C65E70928010013B54FF47A73012299
:101E300069460248FFF74AFB01201CBD70000020E4
:101E400008B5FEF78DFFFFF7FFFDFFF781FDFFF7F8
:101E5000B7FDFFF7D5FDFEF7C3FA04460D48206035
:101E60004FF48070A0810C4860602046FEF761FA54
:101E70000020ADF800004FF47A7569462046FEF761
:101E800037FABDF8001005A0FFF7F4FE2846FEF76C
:101E9000BDFBF2E71C00002000040240616E676C8D
:101EA000653A25640A000000F0B50B30154D20F0AE
:101EB00007010024144A0FE003688B420BD38B42C6
:101EC00005D95E1A43184768C3E9006700E0436814
:101ED000136002C004E0021D10680028ECD1204607
:101EE000002802D1286808B10020F0BD064A074842
:101EF0001060074A121A22F00702C0E900240120EC
:101F00002860D7E71800002014000020BC00002043
:101F1000B8020020000000000000000001020304DD
:101F20000607080900000000010203044C1F000816
:101F3000000000201C000000B41C0008681F0008FE
:101F40001C0000209C060000C41C000801000000CA
:101F500010000000000000000024F4000000000059
:081F6000000000000000000079
:040000050800018965
:00000001FF
