:020000040800F2
:10000000E80500209D010008631A0008D9160008C1
:10001000611A0008510300081D22000800000000BA
:10002000000000000000000000000000911A00081D
:100030005303000800000000691A0008611C000852
:10004000B7010008B7010008B7010008B7010008B0
:10005000B7010008B7010008B7010008B7010008A0
:10006000B7010008B7010008B7010008B701000890
:10007000B7010008B7010008B7010008B701000880
:10008000B7010008B7010008B7010008B701000870
:10009000B7010008B7010008B7010008B701000860
:1000A000B7010008091D0008B7010008B7010008E2
:1000B000151D0008B7010008B7010008B7010008C6
:1000C000B7010008B7010008B7010008B701000830
:1000D000B7010008B7010008B7010008B701000820
:1000E000B7010008B7010008B7010008B701000810
:1000F000B7010008B7010008B7010008B701000800
:10010000B7010008B7010008B7010008B7010008EF
:10011000B7010008B7010008B7010008B7010008DF
:10012000B7010008B7010008B7010008B7010008CF
:10013000B7010008B7010008B7010008B7010008BF
:10014000B7010008B7010008B7010008B7010008AF
:10015000B7010008B7010008B7010008B70100089F
:10016000B7010008B7010008B7010008B70100088F
:10017000B7010008B7010008B7010008000000003F
:10018000B7010008B7010008DFF80CD000F090F8C4
:100190000048004745270008E8050020064880473A
:1001A00006480047FEE7FEE7FEE7FEE7FEE7FEE75C
:1001B000FEE7FEE7FEE7FEE7F91C000889010008FC
:1001C0002DE9F05F0546002092469B46884606468C
:1001D000814640241BE0284641464746224600F01F
:1001E00057F853465A46C01A914110D31146184643
:1001F000224600F03EF82D1A67EB01084F462246D2
:100200000120002100F035F817EB00094E41201EB7
:10021000A4F10104DFDC484631462A464346BDE8E6
:10022000F09FD2B201E000F8012B491EFBD27047CB
:100230000022F6E710B513460A4604461946FFF7B2
:10024000F0FF204610BD30B50B46014600202022AD
:10025000012409E021FA02F59D4205D303FA02F5D3
:10026000491B04FA02F52844151EA2F10102F1DC33
:1002700030BD202A04DB203A00FA02F1002070474A
:100280009140C2F1200320FA03F3194390407047D4
:10029000202A04DB203A21FA02F00021704721FADB
:1002A00002F3D040C2F12002914008431946704742
:1002B000064C074D06E0E06840F0010394E80700B3
:1002C00098471034AC42F6D3FFF762FFA02700082E
:1002D000C027000810B500221649174802F0EBF9B4
:1002E000154800221549283002F0E5F9124800228D
:1002F0001349503002F0DFF9124A00210E4802F093
:10030000FDF80D48104A0021283002F0F7F80A489D
:100310000E4A0021503002F0F1F8074802F0E2F9ED
:100320000548283002F0DEF90348BDE8104050309F
:1003300002F0D8B96D1A000870010020791A00087F
:10034000851A0008DD16000845170008AD170008DB
:10035000FEE7704772B6FEE770B5044600F018F984
:100360000546601C02D004480078044400F010F9EF
:10037000401BA042FAD370BD040000202DE9F84FC5
:10038000DFF8BCA10022012503264FF00F090AF176
:10039000040BAAF1040E00BF0B6805FA02F4234017
:1003A000A34270D10F7907F00307012F01D0022F6C
:1003B00016D187684FEA420806FA08FC27EA0C07BC
:1003C000D1F80CC00CFA08FC4CEA070CC0F808C0C5
:1003D0004768A7430C79C4F3001494403C4344603D
:1003E0000C79E443A4070AD0C4684FEA420C06FA29
:1003F0000CF7BC438F6807FA0CF72743C7600C79EA
:1004000004F00304022C12D1D40800EB840CDCF8B5
:1004100020405707FF0E09FA07F824EA0804D1F82C
:10042000108008FA07F848EA0408CCF8208004682D
:100430004FEA420C06FA0CF7BC430F7907F00307AA
:1004400007FA0CF7274307604C6814F4403F70D05C
:100450003C4C276847F480472760246822F0030754
:1004600004F480440094384C07EB040CDCF8084892
:1004700097074FEA177809FA08F7BC43334FB84299
:1004800002D1002724E054E0314FB84201D10127C6
:100490001EE0304FB84201D1022719E02E4FB8427A
:1004A00001D1032714E02D4FB84201D104270FE0FA
:1004B0002B4FB84201D105270AE02A4FB84201D19B
:1004C000062705E0284FB84201D1072700E008279A
:1004D00007FA08F72743CCF80878DAF800405746BF
:1004E000D1F804C09C435FEACC2C00D51C433C608F
:1004F000DBF800405F46D1F804C09C435FEA8C2CD7
:1005000000D51C433C60DEF800407746D1F804C0BB
:100510009C435FEA8C3C00D51C433C60084F083F7D
:100520003C68D1F804C09C435FEACC3C00D51C4336
:100530003C60521C102AFFF42FAFBDE8F88F00007A
:10054000083C0140443802400030014000000240B5
:100550000004024000080240000C0240001002406B
:100560000014024000180240001C024000690840CC
:1005700000D001207047426921EA02030A4043EAA1
:100580000241816170470AB1816170470904FBE74C
:10059000014880687047000004000020024881681C
:1005A0000278114481607047040000200B4810B5A8
:1005B000016841F400710160016841F480610160EB
:1005C000016841F480710160032000F06FF80F2092
:1005D00000F006F800F024F8002010BD003C0240B6
:1005E00070B50D4D04464FF47A712878B1FBF0F0E8
:1005F0000A490968B1FBF0F000F020FB48B9102C63
:1006000007D200222146501E00F030F800206C6016
:1006100070BD012070BD000004000020100000200B
:100620000A4808B5016841F480410160006800F49F
:10063000804000900548001F016841F08051016032
:10064000006800F08050009008BD0000443802406F
:10065000002809DB00F01F020121914040098000C1
:1006600000F1E020C0F8001170470000F0B40E4B1C
:100670001B680C46C3F30223C3F10705042D00D900
:100680000425191D072901D2002300E0DB1E0126E5
:1006900006FA05F1491E214099409E40761E1640FB
:1006A0003143F0BC01F060BE0CED00E0064900F003
:1006B000070208684FF6FF03184040EA0220034A89
:1006C00010430860704700000CED00E00000FA05E0
:1006D000704700002DE9F0470E46050065D0DFF8B1
:1006E0001481D8F80000F7B200F00700B04207D23A
:1006F00088F80070D8F8000000F00700B04254D12C
:1007000028683D4C810712D5400703D5206840F486
:10071000E05020602878000703D5206840F460404E
:1007200020602068A96820F0F00008432060287845
:10073000C0072DD0304968680839012812D0022836
:1007400013D0032811D00968890700292DDA216800
:1007500021F0030101432160FFF71AFF814641F2B6
:10076000883A0EE009688903EFE709688901ECE738
:10077000FFF70EFFA0EB0901514502D90320BDE8A8
:10078000F0872068696800F00C00B0EB810FEFD1B2
:10079000D8F80010404601F00701B14207D90770B0
:1007A000006800F00700B04201D00120E7E7287898
:1007B000400705D52068E96820F4E0500843206030
:1007C0002878000706D52068296920F4604040EAAF
:1007D000C100206000F03EF82168084AC1F303110F
:1007E000515CC8400649086006480068FFF7F8FEFB
:1007F0000020C4E7003C0240083802408827000877
:10080000100000200800002001490120C864704742
:10081000000047420448054900680968044AC1F3DA
:100820008221515CC8407047100000200838024007
:10083000982700080448054900680968044AC1F37C
:100840004231515CC8407047100000200838024017
:1008500098270008154810B5006810F00C021448DD
:1008600013D04110042A0FD0082A0ED10F4C241F98
:100870002268236802F03F025B0207D52068C0F3BC
:100880008810A0FB010106E0084610BD2168C1F3F5
:100890008811A1FB00010023FFF792FC2168C1F33E
:1008A0000141491C4900B0FBF1F010BD083802407D
:1008B0000024F400054810B50068000605D5FFF7D0
:1008C00007FF02498020891C087010BD0C380240C7
:1008D0002DE9F84F04006ED02078DFF84C93C00764
:1008E000A9F104054AD009F104000168C1F38101AE
:1008F000012908D00068C0F3810002280AD1D9F884
:100900000000400206D52868800337D560680028BB
:10091000E1D033E06068B0F5803F10D0B0F5A02F93
:10092000286810D020F480302860286820F48020C7
:1009300028606068A8B1FFF72BFE06460DE0286826
:1009400040F48030F4E740F480202860F7E700BFEF
:10095000FFF71EFE801B642873D828688003F7D534
:100960000CE0FFF715FE064605E000BFFFF710FE9E
:10097000801B6428F0D828688003F7D42078DFF83B
:10098000AC8280074FF0000A3ED5A748001D0168E1
:1009900011F00C0F08D00068C0F3810002280BD1C1
:1009A000D9F80000400207D42868800716D5E0680F
:1009B000012800D112E033E1E068B8B10120C8F8A5
:1009C0000000FFF7E5FD064605E000BFFFF7E0FD8C
:1009D000801B0228C0D828688007F7D528682169BD
:1009E00020F0F80040EAC10028600DE0C8F800A03F
:1009F000FFF7CEFD064604E0FFF7CAFD801B022884
:100A00001FD828688007F7D42078000722D5864FA2
:100A100087486169703771B101210160FFF7B8FD46
:100A2000064604E0FFF7B4FD801B022809D83868A9
:100A30008007F7D50EE0C0F800A0FFF7A9FD064635
:100A400005E082E0FFF7A4FD801B02287DD838680E
:100A50008007F7D42078400768D5DFF8CCB10027AD
:100A60000BF13C0BDBF80000C0000BD4DBF80010EE
:100A700041F08051CBF80010DBF80000012700F0B6
:100A8000805000906B4E3068C00510D4306840F440
:100A900080703060FFF77CFD009005E0FFF778FD87
:100AA0000099401A022850D83068C005F6D55E4E2D
:100AB000A0686C3601280FD00528306810D020F0CF
:100AC00001003060306820F004003060A068B8B1E8
:100AD000FFF75EFD00900FE0306840F00100F4E7A2
:100AE00040F004003060F7E7FFF752FD0099411A2B
:100AF00041F28830814266D830688007F4D50EE034
:100B0000FFF746FD009007E0FFF742FD0099411A0C
:100B100041F28830814256D830688007F4D42FB132
:100B2000DBF8001021F08051CBF80010A069C8B3A9
:100B30003D49091D0968C1F3810102294AD00228F3
:100B4000504607D0C8F8600000E03CE0FFF720FD09
:100B500004463BE04746C8F86000FFF719FD06462B
:100B600005E000BFFFF714FD801B02282BD8286882
:100B70008001F7D4D4E907010843A16A2E4A490845
:100B800002EB0141626A41EA8211084394F82C1099
:100B900040EA0161C9F8001001203866FFF7F8FC4F
:100BA000044606E03EE000BFFFF7F2FC001B02280F
:100BB00009D828688001F7D534E000BFFFF7E8FCCA
:100BC000001B022802D90320BDE8F88F28688001A5
:100BD000F4D427E00128F7D0D9F80000E26900F446
:100BE000800191421CD1226A00F03F01914217D14D
:100BF00047F6C071626A0140B1EB821F10D1A26A50
:100C00004FF0FF3300F4403103EB5202B1EB024FDF
:100C100006D194F82C1000F07060B0EB016F01D099
:100C20000120D1E70020CFE704380240000047420E
:100C3000800E4742007000400000FFFF10B5401ECC
:100C4000B0F1807F01D3012010BD4FF0E02460613E
:100C50000F21601701F088FB0020A06107202061B0
:100C6000002010BD7047704710B590F83C20012A55
:100C700022D0012280F83C20CA688C6822F440729D
:100C800022434C6822F4806222430C6822F4006202
:100C900022430C6922F4805222434C6922F4005210
:100CA0002243C969002322F480420A4301684A644E
:100CB00080F83C30002010BD022010BD70B590F8C7
:100CC0003C20012A32D0012480F83C40022280F8E6
:100CD0003D2003685A689D6822F070060A68324316
:100CE0005A60134B02689A4214D0B2F1804F11D06F
:100CF000104B9A420ED0104B9A420BD00F4B9A4297
:100D000008D00F4B9A4205D00E4B9A4202D00E4BA0
:100D10009A4204D1496825F080031943916080F814
:100D20003D40002180F83C10084670BD022070BD97
:100D3000000001400004004000080040000C00409A
:100D400000040140004001400018004010B50400BC
:100D500003D094F83D0010B107E0012010BD002041
:100D600084F83C00204600F01FF8022084F83D0083
:100D7000211D206800F0D4FF012084F8460084F88B
:100D80003E0084F83F0084F8400084F8410084F875
:100D9000420084F8430084F8440084F8450084F855
:100DA0003D00002010BD000008B5006815498842CC
:100DB0000FD11548016841F001010160006800226F
:100DC00000F00100009001211920FFF74FFC1920CD
:100DD00012E0B0F1804F13D10B48001F016841F0C1
:100DE000010101600068002200F00100009011463E
:100DF0001C20FFF73BFC1C20BDE80840FFF728BC87
:100E000008BD0000000001404438024090F83D1049
:100E1000012901D001207047022180F83D100168AE
:100E2000CA6842F00102CA6000681149884214D0C1
:100E3000B0F1804F11D00F4988420ED00E49884240
:100E40000BD00E49884208D00D49884205D00D4983
:100E5000884202D00C49884204D1816801F0070120
:100E6000062903D0016841F00101016000207047AC
:100E7000000001400004004000080040000C004059
:100E800000040140004001400018004070B50446D5
:100E900090F83C000025012817D0012684F83C601A
:100EA000022084F83D002068826822F0770222F454
:100EB0007F4282600868502838D00DDC20284FD04F
:100EC00005DC90B3102811D14AE0022070BD302813
:100ED00046D040280AD13BE060282FD070280DD0A2
:100EE000B0F5805F03D0B0F5005F12D0012584F823
:100EF0003D60002084F83C00284670BDCB68D1E9F5
:100F00000121206800F07DFF2068816841F07701B1
:100F100009E0CB68D1E90121206800F072FF206868
:100F2000816841F480418160E1E719E0CA6849685D
:100F3000206801F03BF85021206806E0CA68496843
:100F4000206801F044F86021206800F064FFCEE7DB
:100F5000CA684968206801F029F840212068F4E750
:100F6000226801461046F0E7704770B504460068F5
:100F700001694FF00005C943890715D4C168C94309
:100F8000890711D4E91E016101202077206880695A
:100F90008007204602D0FFF7E7FF04E000F0C2F828
:100FA000204600F054F9257720680169C9434907B4
:100FB00017D4C168C943490713D46FF00401016114
:100FC000022020772068806910F4407F204602D0FC
:100FD000FFF7CAFF04E000F0A5F8204600F037F95B
:100FE000257720680169C943090716D4C168C94338
:100FF000090712D46FF008010161042020772068EE
:10100000C0698007204602D0FFF7AEFF04E000F081
:1010100089F8204600F01BF9257720680169C9434B
:10102000C90617D4C168C943C90613D46FF01001AB
:101030000161082020772068C06910F4407F2046B5
:1010400002D0FFF791FF04E000F06CF8204600F0BA
:10105000FEF8257720680169C943C90708D1C1682E
:10106000C943C90704D1891E0161204600F092F9E5
:1010700020680169C943090609D4C168C943090642
:1010800005D46FF0800101612046FFF7EBFD206879
:101090000169C943490609D4C168C943490605D451
:1010A0006FF040010161204600F09CF92068016961
:1010B000C94389060BD4C168C943890607D46FF0B8
:1010C000200101612046BDE87040FFF7CCBD70BD36
:1010D00010B586B0044614216846FFF7A9F80E49FA
:1010E0002068884216D10D480021026842F00102B2
:1010F0000260006800F0010005904FF4E06000908D
:101100000220CDE901010120CDE903106946044820
:10111000FFF734F906B010BD00000140303802403E
:1011200000000240704770B5044690F83C0000266D
:101130000D4601280FD0012084F83C006AB1042A32
:101140001DD0082A2FD00C2A3FD00126002084F879
:101150003C00304670BD022070BD206800F064FE87
:101160002068816941F0080181612068816921F06E
:1011700004018161206881692A69114311E02068B6
:1011800000F082FE2068816941F40061816120687D
:10119000816921F480618161206881692A6941EA5D
:1011A00002218161D2E7206800F0A4FE2068C169B5
:1011B00041F00801C1612068C16921F00401C161E9
:1011C0002068C1692A69114311E0206800F0C6FE59
:1011D0002068C16941F40061C1612068C16921F4DE
:1011E0008061C1612068C1692A6941EA0221C16147
:1011F000ACE710B5040003D094F83D0010B107E04F
:10120000012010BD002084F83C00204600F01EF8AC
:10121000022084F83D00211D206800F081FD01209E
:1012200084F8460084F83E0084F83F0084F84000CB
:1012300084F8410084F8420084F8430084F84400B4
:1012400084F8450084F83D00002010BD70477047C9
:1012500010B50446022249B104290ED0082913D042
:1012600094F84100012816D0012010BD94F83E00EA
:101270000128F9D184F83E200FE094F83F000128BE
:10128000F2D184F83F2008E094F840000128EBD127
:1012900084F8402001E084F841200122206800F019
:1012A000A3FD16492068164A884201D0904203D116
:1012B000436C43F4004343642068884213D0B0F188
:1012C000804F10D00F4988420DD00F4988420AD074
:1012D0000E49884207D0904205D00D49884202D07D
:1012E0000C49884204D1816801F00701062903D026
:1012F000016841F001010160002010BD00000140C3
:10130000000401400004004000080040000C0040C0
:10131000004001400018004030B504460D4600680A
:10132000002200F061FD194B41F2111120688A1072
:10133000984202D0164B984209D1036A0B4206D15B
:10134000036A134203D1436C23F4004343642068CF
:10135000036A0B4206D1016A114203D1016821F0F0
:101360000101016001203DB1042D08D0082D09D0F4
:1013700084F84100002030BD84F83E00FAE784F88C
:101380003F00F7E784F84000F4E700000000014068
:101390000004014010B50F4900680968884203D174
:1013A000BDE8104000F0A4BB0B49096888420FD18A
:1013B0000A480168491C0160152905D10021016016
:1013C00001210748FFF7D7F8BDE8104001F09CB9AC
:1013D00010BD000060000020A800002000000020D8
:1013E00000100240704770B5040004D094F83D002E
:1013F000002510B106E0012070BD84F83C50204665
:1014000000F022F8242084F83D002068C16821F40F
:101410000051C160204600F0EDFD2068016921F413
:10142000904101612068416921F02A0141612068F1
:10143000C16841F40051C1602564202084F83D005A
:1014400084F83E00002070BD10B586B0044614211B
:101450006846FEF7EDFE13492068884220D1124805
:101460000021026842F010020260006800F01000E3
:1014700005900D481438026842F0020202600068CC
:1014800000F002000590C02000900220CDE901018B
:10149000032003900720049069460448FEF76EFF7E
:1014A00006B010BD00100140443802400004024064
:1014B0002DE9F843044690F83D001F4616460D46B8
:1014C00020284CD1C5B1BEB194F83C00012846D0CB
:1014D000012084F83C004FF00008C4F8408021202F
:1014E00084F83D00FFF754F8A6848146E684A0689E
:1014F000B0F5805F03D004E00120BDE8F8832069E7
:1015000028B12E465FF0000584F83C800EE00026EE
:10151000FAE78021204600F0F3FDA0B9AEB116F83D
:10152000010B21684860E08C401EE084E08C4B4653
:101530004FF0000200970028EBD14FF04001204609
:1015400000F0DEFD30B10320D7E735F8020BC0F321
:101550000800E6E7202084F83D000020CDE70220C7
:10156000CBE700002DE9F041554D564C564E6868CA
:10157000401C6860A1884FF6FF7000EA4101A1801D
:10158000E18800EA4101E180218900EA41002081EF
:101590004FF480613046FEF7E9FFA1880843A08040
:1015A000F1143046FEF7E2FFE1880843E080B11411
:1015B0003046FEF7DBFF2189084320810020012609
:1015C0004FEA000304EB40018A88D74317F0FF0F6E
:1015D00006D012F0FF0F05D0A08A401CA0826DE05B
:1015E0004E8100E04B81401C0328EBDBA07A00F029
:1015F000C3FD364A208228B1012820D02146022886
:1016000020D029E0A86804280FDB167A44F6206170
:10161000012E6E684FEA860691FBF6F1C1EB0111CF
:101620004FEA810100D04942618206266968401C68
:1016300091FBF6F1E182A382C5E901300CE06B6019
:10164000A38209E0888A43F69826401C80B28882EB
:10165000B04201D38B826382A86804282EDB042069
:10166000A860A878401CC0B2A870022821D302202C
:10167000A870207BA17B400040EA8100A17A08434A
:10168000C0B22076617E884202D0EE68761CEE60A1
:10169000E68AEF68BE420ADCEB60884207D0117A26
:1016A00051B10B4901EB800050F8040C8047207EBB
:1016B00060760120BDE8F0810649F3E70020F9E7F4
:1016C0004400002048010020001C0240640100206A
:1016D000140000202C000020FEE7000010B501F0EF
:1016E0002DF800281DD10F4941F62C230E480A6819
:1016F00002F5FA720A609A4202DB5A100A6001E0AF
:10170000002A02DB0021426002E0514241600121D7
:101710000172416805A000F017FEBDE8104000F01E
:101720004BBA10BD58000020640100204B65793091
:1017300020646F776E2C70776D20647574793A250C
:10174000640A000010B500F0F9FF00281DD10F4910
:1017500041F62C230E480A68A2F5FA720A60DA42B2
:1017600002DC0C4A0A6004E0002A02DB002142602D
:1017700002E05142416001210172416806A000F07F
:10178000E3FDBDE8104000F017BA10BD580000207E
:1017900064010020EAF2FFFF3120646F776E2C7045
:1017A000776D20647574793A25640A0010B500F0ED
:1017B000C5FF002809D100F01BFA04490020486049
:1017C000BDE8104002A000F0BFBD10BD64010020C4
:1017D0006B65793220646F776E0A00002DE9F0475F
:1017E00086B014216846FEF723FD364800240168C0
:1017F00041F010010160016801F0100105910168DC
:1018000041F020010160016801F0200105910168AB
:1018100041F080010160016801F0800105910168DB
:1018200041F002010160016801F0020105910168C7
:1018300041F0010101600068DFF88C8000F00100D8
:101840004FF480660590002231464046FEF79BFE2D
:10185000DFF878904FF46047002239464846FEF79B
:1018600092FEDFF86CA0002201215046FEF78BFEAD
:101870001C2001258DE8310069465046FEF77EFDAB
:101880000096CDE90154694640460394FEF776FD83
:10189000F8108DE8310069460E48FEF76FFD00979D
:1018A000CDE90154694648460394FEF767FD00956B
:1018B000CDE90154694650460394FEF75FFD06B03A
:1018C000BDE8F087303802400014024000040240B6
:1018D00000100240001C024010B596B000240F9486
:1018E00010941194129413941C2168461494FEF7DA
:1018F0009FFC202107A8FEF79BFC30482E49C0E939
:10190000001442F2CF01C0E9024180210461C0E924
:101910000541FFF71BFA08B1FEF71CFD4FF480509C
:101920000F900FA92548FFF7B1FA08B1FEF712FD95
:101930002248FFF75EFC08B1FEF70CFD139413A9D3
:101940001E481494FFF7BAF908B1FEF703FD6020B2
:10195000CDE900040294039404940594002269469E
:1019600016480694FFF7DFFB08B1FEF7F3FC0422EC
:1019700069461248FFF7D7FB08B1FEF7EBFC0822D7
:1019800069460E48FFF7CFFB08B1FEF7E3FC07946A
:10199000089409944FF400500A94CDE90B4007A92C
:1019A00006480E94FFF760F908B1FEF7D3FC034830
:1019B000FFF78EFB16B010BD000001406000002054
:1019C00010B586B000241748009401940294039443
:1019D00004944FF080410594016040F28F61C0E9AA
:1019E000011441F28831C0E9031480218161FFF7BD
:1019F000ADF908B1FEF7AEFC4FF480500090694697
:101A00000848FFF743FA08B1FEF7A4FC049404A9C0
:101A100004480594FFF752F9002801D0FEF79AFC1C
:101A200006B010BDA80000200C4810B50A4901609E
:101A30004FF4E1314160002181600C22C160C0E9B6
:101A400004128161C161FFF7CEFC002803D0BDE81C
:101A50001040FEF77FBC10BD00100140F0000020D8
:101A6000FEE7FEF727FFFEE770470000042101486C
:101A7000FEF77CBD0010024008210148FEF776BD4C
:101A80000010024010210148FEF770BD0010024016
:101A900070470000F0B514480E230C240669134863
:101AA0000A254189CA08102E1AD2DFE806F0190863
:101AB0000A0E1010131316161A1A1A1A1A1A1422CA
:101AC00000E01222B1FBF2F109E0090907E0B1FBE5
:101AD000F3F104E0B1FBF4F101E0B1FBF5F1416099
:101AE000F0BD4260F0BD0000340100206401002020
:101AF00070B5224C00250126216859B120460129E4
:101B0000806817D002291ED0032912D1BDE8704089
:101B1000FFF728BD1A484189C908416000F03AFB27
:101B20004FF496602660C4E901501648256185602F
:101B3000057070BD6168491C61608142F9DB02205B
:101B4000C4E9000570BD0F2190FBF1F1401A401E61
:101B5000A0602069401C2061FFF79CFFA068B428AA
:101B600001DAB420A0602660E068401CE06006282E
:101B700000D1E560BDE8704000F006B834010020F7
:101B800064010020440000200A48C068062810D2E2
:101B9000DFE800F0030507090B0D00F0FBBA00F0C9
:101BA0001BBB00F06BBB00F047BB00F089BB00F033
:101BB000A9BB70473401002010B5012291020948E9
:101BC000FEF7E1FC00210848FFF742FB042106482C
:101BD000FFF73EFB08210448FFF73AFB03490120C9
:101BE000487210BD00140240600000206401002013
:101BF00070B500224FF480611448FEF7C4FC002148
:101C00001348FFF789FB04211148FFF785FB0821E2
:101C10000F48FFF781FB0F48002444638463C463CB
:101C20000D4D411422462846FEF7ADFC00224FF42C
:101C300080412846FEF7A7FC00224FF400412846C9
:101C4000FEF7A1FC0548447270BD0000001402407C
:101C500060000020000001400004024064010020F8
:101C6000FEF79CBC30B593B030216846FEF7E0FA31
:101C700014210CA8FEF7DCFA1D480025016841F08C
:101C800080510160006800F080501190194801688F
:101C900041F4804101600068022400F4804011900A
:101CA00001200090000401908001CDE9064008AABF
:101CB0000420A82182E813000B906846FEF708FE76
:101CC00008B172B6FEE70CA90F2081E831004FF48D
:101CD000A0500F904FF48050109005210CA8FEF7F3
:101CE000F9FC08B172B6FEE7FEF78EFD13B030BD09
:101CF00040380240007000400248016841F4700121
:101D00000160704788ED00E00148FFF72EB9000040
:101D1000600000200148FFF728B90000A80000205B
:101D2000F0B50268254C264D264E274F274B4FF025
:101D3000804CA04209D0604507D0A84205D0B042EF
:101D400003D0B84201D0984204D122F0700E4A6804
:101D500042EA0E02A0421BD0604519D0A84217D01B
:101D6000B04215D0B84213D0984211D0184DA842B5
:101D70000ED0184DA8420BD0174DA84208D0174DD1
:101D8000A84205D0164DA84202D0164DA84203D154
:101D900022F44075CA682A434D6922F080022A4322
:101DA00002608A68C2620A688262A04201D09842D8
:101DB00001D10969016301214161F0BD00000140C9
:101DC0000004004000080040000C004000040140F6
:101DD000004001400044014000480140001800401C
:101DE000001C00400020004010B501F01F0301213D
:101DF000046A99408C430462016A9A40114301626B
:101E000010BD10B5846842EA032224F47F440A43DB
:101E10002243826010BD826822F070020A4342F0C1
:101E20000701816070470000F0B5026A22F00102EC
:101E30000262036A42688469124E24F073050C68DA
:101E40002C4323F002058B682B430D4DA84201D093
:101E5000B04205D123F00807CB683B4323F00403CD
:101E6000A84201D0B04205D14D6922F44072154319
:101E70008A692A4342608461496841630362F0BD14
:101E80000000014000040140F0B5026A22F0100297
:101E90000262026A436884690D6824F4E64444EAF5
:101EA00005248D6822F0200242EA05120F4D104EE3
:101EB000A84201D0B04206D1CF6822F0800242EAA7
:101EC000071222F04002A84201D0B04207D14D696A
:101ED00023F4406343EA85038D6943EA8503436045
:101EE0008461496881630262F0BD00000000014026
:101EF00000040140F0B5026A22F480720262026AB4
:101F00004368C46922F4007224F073050C68124E11
:101F10002C438D6842EA05220E4DA84201D0B04202
:101F200006D1CF6822F4006242EA072222F48062DE
:101F3000A84201D0B04207D14D6923F4405343EA8F
:101F400005138D6943EA05134360C4614968C163A1
:101F50000262F0BD000001400004014030B5026A99
:101F600022F480520262046A4268C3690D6823F455
:101F7000E64343EA05238D6824F4005444EA05341B
:101F8000084DA84202D0084DA84204D14D6922F460
:101F9000804242EA85124260C3614968016404627A
:101FA00030BD0000000001400004014010B5036A8C
:101FB000046A24F001040462846924F0F00444EA11
:101FC000021423F00A020A438461026210BD10B5B4
:101FD000036A23F0100303628369046A23F47043E5
:101FE00043EA023224F0A00343EA01118261016254
:101FF00010BD000070B5044600680169E26821F474
:102000004051114301612169A068E2690843616997
:10201000114308432168CA6849F20C639A4302439A
:10202000CA6020684169A26921F44071114341618D
:1020300031492068884202D03049884202D1FEF7F7
:10204000F9FB01E0FEF7E6FBE269002319216425B4
:102050003226B2F5004F626828D0A0FB0101930F31
:102060009200FEF7ADF80146B0FBF5F06FF01802F4
:10207000504301EB800006EB0010B0FBF5F000F0E0
:10208000F002B1FBF5F002EB0012B1FBF5F06FF0DE
:102090001803584301EB800006EB0010B0FBF5F08D
:1020A00000F00F0021681044886070BDA0FB0101A2
:1020B00092185B41FEF784F80146B0FBF5F002018F
:1020C000B1FBF5F06FF01803584301EB800006EB0D
:1020D000C000B0FBF5F000F0F80002EB4002B1FBED
:1020E000F5F0584301EB800006EBC000B0FBF5F0C3
:1020F00000F00700D6E70000001001400014014086
:102100002DE9F041984617460E460446069D27E005
:10211000681C25D02DB1FEF73BFAA0EB0800A842C1
:102120001ED920680C3050E8001F21F4D07140E81F
:102130000012002AF5D12068143050E8001F21F069
:10214000010140E80012002AF5D1202084F83D006A
:1021500084F83E00002084F83C000320BDE8F081B4
:102160002068006836EA000004D00020B842CFD0D2
:102170000020F3E70120F9E705494A78824204D0BC
:102180004870002800D001207047022070470000EE
:10219000440000200D4810B541680D4841630021FE
:1021A0008163C1630A460B4C41142046FEF7EBF9EC
:1021B000012291032046FEF7E6F92046BDE81040D3
:1021C00000224FF40041FEF7DEB900006401002058
:1021D00000000140000402400D4810B541680D4860
:1021E000416300218163C1630A460B4C41142046C0
:1021F000FEF7C9F900224FF480412046FEF7C3F9EB
:1022000020460122BDE81040D103FEF7BCB9000012
:10221000640100200000014000040240FEE70000CD
:102220000448002101720160416041724FF4FA518B
:1022300041817047640100200D4810B500214163C1
:102240000C4A52688263C1630B4C41140122204640
:10225000FEF799F900224FF480412046FEF793F9EA
:102260002046BDE8104000224FF40041FEF78BB934
:102270000000014064010020000402400D4810B538
:10228000002141630C4A52688263C1630A460B4CC9
:1022900041142046FEF777F900224FF48041204692
:1022A000FEF771F920460122BDE81040D103FEF788
:1022B0006AB90000000001406401002000040240EF
:1022C0000D4810B50021416381630C494968C16321
:1022D0000B4C411401222046FEF755F900224FF421
:1022E00080412046FEF74FF92046BDE8104000220D
:1022F0004FF40041FEF747B900000140640100209F
:10230000000402400D4810B50021416381630C496F
:102310004968C1630B4C411400222046FEF733F993
:10232000012291032046FEF72EF92046BDE8104019
:1023300000224FF40041FEF726B9000000000140E2
:1023400064010020000402400FB4054B10B503A93E
:10235000044A029800F028F810BC5DF814FB000055
:10236000252700085C0000200907090E002804DB6F
:1023700000F1E02080F80014704700F00F0000F139
:10238000E02080F8141D704702E008C8121F08C141
:10239000002AFAD170477047002001E001C1121FE6
:1023A000002AFBD1704700002DE9FF4F89B09B4602
:1023B0000446002506E025280BD05A460B99904785
:1023C000641C6D1C20780028F5D10DB02846BDE8AE
:1023D000F08F0027B8460122474900E0074314F870
:1023E000013F203B02FA03F00842F7D120782E2863
:1023F00019D114F8010F47F004072A280ED06FF006
:102400002F022078A0F1300109290CD808EB8801AF
:1024100002EB410100EB0108641CF2E70A98641C1E
:1024200050F8048B0A9020780028CED0642808D079
:10243000692806D075281ED05A460B9990476D1C06
:1024400058E00A994FF00A0901C90A91002802DAF6
:1024500040422D2102E0390504D52B218DF82010B2
:10246000012103E0F90704D02021F7E78A4608AEEE
:102470000DE00021FAE70A994FF00A0901C90A9113
:10248000F7E74946FDF7DFFE303106F8011D002869
:10249000F7D1ADEB060000F12009780701D44FF029
:1024A0000108C84502DDA8EB090000E000208046D5
:1024B000002706E008A85A46C05D0B9990476D1C9E
:1024C0007F1C5745F6DB04E030205A460B999047B5
:1024D0006D1CB8F10001A8F10108F5DC05E016F863
:1024E000010B5A460B9990476D1CB9F10001A9F1F7
:1024F0000109F4DC641C65E70928010000EB810098
:102500008260704770B50446406880470146E078B5
:10251000420702D02288521C2280B1EBD01F0CD07F
:102520004FF0005202EBB0104FEAB060C0F3C202AD
:10253000E070032A04D361F3C71020F03800E07084
:10254000C0B200F00701002506291ED2DFE801F025
:10255000031E407A1D91C0F38011B1EBD01FA0780B
:1025600020F0F0000FD1A070A16809B12046884783
:102570002580A07820F00F00401CA070E07820F0AB
:102580000700401C11E08030A07070BDC0F38011C6
:10259000B1EBD01F0BD0A07820F0F0001030A0706D
:1025A000E168A1B3204688475DE0E07070BD2088F7
:1025B000C828FBD9A07820F0F0005030A070E16965
:1025C00009B120468847E07820F00700401DECE77D
:1025D000C0F38011B1EBD01F1AD1A07820F0F00029
:1025E000A070A16809B120468847A0784FF08051BB
:1025F00001EB30104FEA3070A070216909B120461C
:1026000088472580E07820F00700C01CCDE72AE04D
:1026100020883C28CAD9A07800F00F01012902D0F7
:10262000022906D043E020F0F0003030A07061694C
:1026300004E020F0F0004030A070A16991B3204682
:10264000884734E0C0F38011B1EBD01FAED0A07842
:1026500020F0F0001030A070E16809B120468847F2
:1026600020883C2823D22580E07820F00700801CB9
:102670009BE7C0F38011B1EBD01FA07820F0F000F1
:1026800011D16030A07020886421B0FBF1F201FB11
:10269000120000288AD1216A002987D02046BDE88F
:1026A0007040084703E01030A070E168C6E7E078AA
:1026B00020F0070079E770B50D461646044628213C
:1026C000FDF7B6FDA07820F0F0008030A0706560C6
:1026D000A8470146E07861F3C71066F38610E07002
:1026E00070BD0000074A11680B4605E0814202D127
:1026F0004FF0FF307047496A0029F7D143621060FC
:102700000020704754000020054810B5046803E01D
:102710002046FFF7F7FE646A002CF9D110BD0000D7
:102720005400002013B54FF47A7301226946024821
:10273000FEF7BEFE01201CBDF000002080780009DD
:1027400070470000FDF732FFFFF78CFAFFF746F8FD
:10275000FFF7C2F8FFF768F9FFF732F9FFF760FDFE
:10276000FDF7B8FDFFF728FA0548FEF74FFB0548CF
:10277000FEF74CFB4FF47A742046FDF7EDFDFBE7C6
:10278000A800002060000020000000000000000001
:102790000102030406070809000000000102030407
:1027A000C027000800000020600000008823000807
:1027B00020280008600000208805000098230008F9
:1027C00000000000010000001000000000000000F8
:1027D0000024F400D9210008392200087D220008D5
:1027E0000523000895210008C12200089521000852
:1027F0007D220008D9210008C12200080523000815
:102800003922000800000000000000000000000065
:1028100000000000000000000000000000000000B8
:040000050800018965
:00000001FF
